{
  "contractName": "NFTMarketplace",
  "abi": [
    {
      "inputs": [],
      "stateMutability": "nonpayable",
      "type": "constructor"
    },
    {
      "anonymous": false,
      "inputs": [
        {
          "indexed": true,
          "internalType": "address",
          "name": "owner",
          "type": "address"
        },
        {
          "indexed": true,
          "internalType": "address",
          "name": "approved",
          "type": "address"
        },
        {
          "indexed": true,
          "internalType": "uint256",
          "name": "tokenId",
          "type": "uint256"
        }
      ],
      "name": "Approval",
      "type": "event"
    },
    {
      "anonymous": false,
      "inputs": [
        {
          "indexed": true,
          "internalType": "address",
          "name": "owner",
          "type": "address"
        },
        {
          "indexed": true,
          "internalType": "address",
          "name": "operator",
          "type": "address"
        },
        {
          "indexed": false,
          "internalType": "bool",
          "name": "approved",
          "type": "bool"
        }
      ],
      "name": "ApprovalForAll",
      "type": "event"
    },
    {
      "anonymous": false,
      "inputs": [
        {
          "indexed": false,
          "internalType": "uint256",
          "name": "tokenId",
          "type": "uint256"
        },
        {
          "indexed": false,
          "internalType": "uint256",
          "name": "price",
          "type": "uint256"
        },
        {
          "indexed": false,
          "internalType": "address",
          "name": "creator",
          "type": "address"
        },
        {
          "indexed": false,
          "internalType": "bool",
          "name": "isListed",
          "type": "bool"
        }
      ],
      "name": "NftItemCreated",
      "type": "event"
    },
    {
      "anonymous": false,
      "inputs": [
        {
          "indexed": true,
          "internalType": "address",
          "name": "previousOwner",
          "type": "address"
        },
        {
          "indexed": true,
          "internalType": "address",
          "name": "newOwner",
          "type": "address"
        }
      ],
      "name": "OwnershipTransferred",
      "type": "event"
    },
    {
      "anonymous": false,
      "inputs": [
        {
          "indexed": true,
          "internalType": "address",
          "name": "from",
          "type": "address"
        },
        {
          "indexed": true,
          "internalType": "address",
          "name": "to",
          "type": "address"
        },
        {
          "indexed": true,
          "internalType": "uint256",
          "name": "tokenId",
          "type": "uint256"
        }
      ],
      "name": "Transfer",
      "type": "event"
    },
    {
      "inputs": [
        {
          "internalType": "address",
          "name": "to",
          "type": "address"
        },
        {
          "internalType": "uint256",
          "name": "tokenId",
          "type": "uint256"
        }
      ],
      "name": "approve",
      "outputs": [],
      "stateMutability": "nonpayable",
      "type": "function"
    },
    {
      "inputs": [
        {
          "internalType": "address",
          "name": "owner",
          "type": "address"
        }
      ],
      "name": "balanceOf",
      "outputs": [
        {
          "internalType": "uint256",
          "name": "",
          "type": "uint256"
        }
      ],
      "stateMutability": "view",
      "type": "function",
      "constant": true
    },
    {
      "inputs": [
        {
          "internalType": "uint256",
          "name": "tokenId",
          "type": "uint256"
        }
      ],
      "name": "getApproved",
      "outputs": [
        {
          "internalType": "address",
          "name": "",
          "type": "address"
        }
      ],
      "stateMutability": "view",
      "type": "function",
      "constant": true
    },
    {
      "inputs": [
        {
          "internalType": "address",
          "name": "owner",
          "type": "address"
        },
        {
          "internalType": "address",
          "name": "operator",
          "type": "address"
        }
      ],
      "name": "isApprovedForAll",
      "outputs": [
        {
          "internalType": "bool",
          "name": "",
          "type": "bool"
        }
      ],
      "stateMutability": "view",
      "type": "function",
      "constant": true
    },
    {
      "inputs": [],
      "name": "listingPrice",
      "outputs": [
        {
          "internalType": "uint256",
          "name": "",
          "type": "uint256"
        }
      ],
      "stateMutability": "view",
      "type": "function",
      "constant": true
    },
    {
      "inputs": [],
      "name": "name",
      "outputs": [
        {
          "internalType": "string",
          "name": "",
          "type": "string"
        }
      ],
      "stateMutability": "view",
      "type": "function",
      "constant": true
    },
    {
      "inputs": [],
      "name": "owner",
      "outputs": [
        {
          "internalType": "address",
          "name": "",
          "type": "address"
        }
      ],
      "stateMutability": "view",
      "type": "function",
      "constant": true
    },
    {
      "inputs": [
        {
          "internalType": "uint256",
          "name": "tokenId",
          "type": "uint256"
        }
      ],
      "name": "ownerOf",
      "outputs": [
        {
          "internalType": "address",
          "name": "",
          "type": "address"
        }
      ],
      "stateMutability": "view",
      "type": "function",
      "constant": true
    },
    {
      "inputs": [],
      "name": "renounceOwnership",
      "outputs": [],
      "stateMutability": "nonpayable",
      "type": "function"
    },
    {
      "inputs": [
        {
          "internalType": "address",
          "name": "from",
          "type": "address"
        },
        {
          "internalType": "address",
          "name": "to",
          "type": "address"
        },
        {
          "internalType": "uint256",
          "name": "tokenId",
          "type": "uint256"
        }
      ],
      "name": "safeTransferFrom",
      "outputs": [],
      "stateMutability": "nonpayable",
      "type": "function"
    },
    {
      "inputs": [
        {
          "internalType": "address",
          "name": "from",
          "type": "address"
        },
        {
          "internalType": "address",
          "name": "to",
          "type": "address"
        },
        {
          "internalType": "uint256",
          "name": "tokenId",
          "type": "uint256"
        },
        {
          "internalType": "bytes",
          "name": "data",
          "type": "bytes"
        }
      ],
      "name": "safeTransferFrom",
      "outputs": [],
      "stateMutability": "nonpayable",
      "type": "function"
    },
    {
      "inputs": [
        {
          "internalType": "address",
          "name": "operator",
          "type": "address"
        },
        {
          "internalType": "bool",
          "name": "approved",
          "type": "bool"
        }
      ],
      "name": "setApprovalForAll",
      "outputs": [],
      "stateMutability": "nonpayable",
      "type": "function"
    },
    {
      "inputs": [
        {
          "internalType": "bytes4",
          "name": "interfaceId",
          "type": "bytes4"
        }
      ],
      "name": "supportsInterface",
      "outputs": [
        {
          "internalType": "bool",
          "name": "",
          "type": "bool"
        }
      ],
      "stateMutability": "view",
      "type": "function",
      "constant": true
    },
    {
      "inputs": [],
      "name": "symbol",
      "outputs": [
        {
          "internalType": "string",
          "name": "",
          "type": "string"
        }
      ],
      "stateMutability": "view",
      "type": "function",
      "constant": true
    },
    {
      "inputs": [
        {
          "internalType": "uint256",
          "name": "tokenId",
          "type": "uint256"
        }
      ],
      "name": "tokenURI",
      "outputs": [
        {
          "internalType": "string",
          "name": "",
          "type": "string"
        }
      ],
      "stateMutability": "view",
      "type": "function",
      "constant": true
    },
    {
      "inputs": [
        {
          "internalType": "address",
          "name": "from",
          "type": "address"
        },
        {
          "internalType": "address",
          "name": "to",
          "type": "address"
        },
        {
          "internalType": "uint256",
          "name": "tokenId",
          "type": "uint256"
        }
      ],
      "name": "transferFrom",
      "outputs": [],
      "stateMutability": "nonpayable",
      "type": "function"
    },
    {
      "inputs": [
        {
          "internalType": "address",
          "name": "newOwner",
          "type": "address"
        }
      ],
      "name": "transferOwnership",
      "outputs": [],
      "stateMutability": "nonpayable",
      "type": "function"
    },
    {
      "inputs": [
        {
          "internalType": "uint256",
          "name": "newPrice",
          "type": "uint256"
        }
      ],
      "name": "setListingPrice",
      "outputs": [],
      "stateMutability": "nonpayable",
      "type": "function"
    },
    {
      "inputs": [
        {
          "internalType": "string",
          "name": "tokenURI",
          "type": "string"
        },
        {
          "internalType": "uint256",
          "name": "price",
          "type": "uint256"
        }
      ],
      "name": "mintToken",
      "outputs": [
        {
          "internalType": "uint256",
          "name": "",
          "type": "uint256"
        }
      ],
      "stateMutability": "payable",
      "type": "function",
      "payable": true
    },
    {
      "inputs": [
        {
          "internalType": "string",
          "name": "tokenURI",
          "type": "string"
        }
      ],
      "name": "tokenURIExists",
      "outputs": [
        {
          "internalType": "bool",
          "name": "",
          "type": "bool"
        }
      ],
      "stateMutability": "view",
      "type": "function",
      "constant": true
    },
    {
      "inputs": [
        {
          "internalType": "uint256",
          "name": "tokenId",
          "type": "uint256"
        }
      ],
      "name": "getNftItem",
      "outputs": [
        {
          "components": [
            {
              "internalType": "uint256",
              "name": "tokenId",
              "type": "uint256"
            },
            {
              "internalType": "uint256",
              "name": "price",
              "type": "uint256"
            },
            {
              "internalType": "address",
              "name": "creator",
              "type": "address"
            },
            {
              "internalType": "bool",
              "name": "isListed",
              "type": "bool"
            }
          ],
          "internalType": "struct NFTMarketplace.NftItem",
          "name": "",
          "type": "tuple"
        }
      ],
      "stateMutability": "view",
      "type": "function",
      "constant": true
    },
    {
      "inputs": [],
      "name": "listItemsCount",
      "outputs": [
        {
          "internalType": "uint256",
          "name": "",
          "type": "uint256"
        }
      ],
      "stateMutability": "view",
      "type": "function",
      "constant": true
    },
    {
      "inputs": [
        {
          "internalType": "uint256",
          "name": "tokenId",
          "type": "uint256"
        }
      ],
      "name": "buyNft",
      "outputs": [],
      "stateMutability": "payable",
      "type": "function",
      "payable": true
    },
    {
      "inputs": [
        {
          "internalType": "uint256",
          "name": "tokenId",
          "type": "uint256"
        },
        {
          "internalType": "uint256",
          "name": "newPrice",
          "type": "uint256"
        }
      ],
      "name": "placeNftOnSale",
      "outputs": [],
      "stateMutability": "payable",
      "type": "function",
      "payable": true
    },
    {
      "inputs": [
        {
          "internalType": "uint256",
          "name": "tokenId",
          "type": "uint256"
        }
      ],
      "name": "placeNftUnSale",
      "outputs": [],
      "stateMutability": "payable",
      "type": "function",
      "payable": true
    },
    {
      "inputs": [
        {
          "internalType": "uint256",
          "name": "tokenId",
          "type": "uint256"
        }
      ],
      "name": "burnToken",
      "outputs": [],
      "stateMutability": "nonpayable",
      "type": "function"
    },
    {
      "inputs": [],
      "name": "totalSupply",
      "outputs": [
        {
          "internalType": "uint256",
          "name": "",
          "type": "uint256"
        }
      ],
      "stateMutability": "view",
      "type": "function",
      "constant": true
    },
    {
      "inputs": [
        {
          "internalType": "uint256",
          "name": "index",
          "type": "uint256"
        }
      ],
      "name": "getTokenByIndex",
      "outputs": [
        {
          "internalType": "uint256",
          "name": "",
          "type": "uint256"
        }
      ],
      "stateMutability": "view",
      "type": "function",
      "constant": true
    },
    {
      "inputs": [
        {
          "internalType": "address",
          "name": "owner",
          "type": "address"
        }
      ],
      "name": "getOwnedTokensByOwner",
      "outputs": [
        {
          "internalType": "uint256[]",
          "name": "",
          "type": "uint256[]"
        }
      ],
      "stateMutability": "view",
      "type": "function",
      "constant": true
    },
    {
      "inputs": [
        {
          "internalType": "uint256",
          "name": "tokenId",
          "type": "uint256"
        }
      ],
      "name": "getNftByToken",
      "outputs": [
        {
          "components": [
            {
              "internalType": "uint256",
              "name": "tokenId",
              "type": "uint256"
            },
            {
              "internalType": "uint256",
              "name": "price",
              "type": "uint256"
            },
            {
              "internalType": "address",
              "name": "creator",
              "type": "address"
            },
            {
              "internalType": "bool",
              "name": "isListed",
              "type": "bool"
            }
          ],
          "internalType": "struct NFTMarketplace.NftItem",
          "name": "",
          "type": "tuple"
        }
      ],
      "stateMutability": "view",
      "type": "function",
      "constant": true
    },
    {
      "inputs": [],
      "name": "getAllNftOnSale",
      "outputs": [
        {
          "components": [
            {
              "internalType": "uint256",
              "name": "tokenId",
              "type": "uint256"
            },
            {
              "internalType": "uint256",
              "name": "price",
              "type": "uint256"
            },
            {
              "internalType": "address",
              "name": "creator",
              "type": "address"
            },
            {
              "internalType": "bool",
              "name": "isListed",
              "type": "bool"
            }
          ],
          "internalType": "struct NFTMarketplace.NftItem[]",
          "name": "",
          "type": "tuple[]"
        }
      ],
      "stateMutability": "view",
      "type": "function",
      "constant": true
    },
    {
      "inputs": [],
      "name": "getAllNftByOwner",
      "outputs": [
        {
          "components": [
            {
              "internalType": "uint256",
              "name": "tokenId",
              "type": "uint256"
            },
            {
              "internalType": "uint256",
              "name": "price",
              "type": "uint256"
            },
            {
              "internalType": "address",
              "name": "creator",
              "type": "address"
            },
            {
              "internalType": "bool",
              "name": "isListed",
              "type": "bool"
            }
          ],
          "internalType": "struct NFTMarketplace.NftItem[]",
          "name": "",
          "type": "tuple[]"
        }
      ],
      "stateMutability": "view",
      "type": "function",
      "constant": true
    }
  ],
  "bytecode": "0x60806040526658d15e17628000600a553480156200001c57600080fd5b506040518060400160405280600481526020017f4d4e4654000000000000000000000000000000000000000000000000000000008152506040518060400160405280600481526020017f4d4e46540000000000000000000000000000000000000000000000000000000081525081600090816200009a91906200041d565b508060019081620000ac91906200041d565b505050620000cf620000c3620000d560201b60201c565b620000dd60201b60201c565b62000504565b600033905090565b6000600760009054906101000a900473ffffffffffffffffffffffffffffffffffffffff16905081600760006101000a81548173ffffffffffffffffffffffffffffffffffffffff021916908373ffffffffffffffffffffffffffffffffffffffff1602179055508173ffffffffffffffffffffffffffffffffffffffff168173ffffffffffffffffffffffffffffffffffffffff167f8be0079c531659141344cd1fd0a4f28419497f9722a3daafe3b4186f6b6457e060405160405180910390a35050565b600081519050919050565b7f4e487b7100000000000000000000000000000000000000000000000000000000600052604160045260246000fd5b7f4e487b7100000000000000000000000000000000000000000000000000000000600052602260045260246000fd5b600060028204905060018216806200022557607f821691505b6020821081036200023b576200023a620001dd565b5b50919050565b60008190508160005260206000209050919050565b60006020601f8301049050919050565b600082821b905092915050565b600060088302620002a57fffffffffffffffffffffffffffffffffffffffffffffffffffffffffffffffff8262000266565b620002b1868362000266565b95508019841693508086168417925050509392505050565b6000819050919050565b6000819050919050565b6000620002fe620002f8620002f284620002c9565b620002d3565b620002c9565b9050919050565b6000819050919050565b6200031a83620002dd565b62000332620003298262000305565b84845462000273565b825550505050565b600090565b620003496200033a565b620003568184846200030f565b505050565b5b818110156200037e57620003726000826200033f565b6001810190506200035c565b5050565b601f821115620003cd57620003978162000241565b620003a28462000256565b81016020851015620003b2578190505b620003ca620003c18562000256565b8301826200035b565b50505b505050565b600082821c905092915050565b6000620003f260001984600802620003d2565b1980831691505092915050565b60006200040d8383620003df565b9150826002028217905092915050565b6200042882620001a3565b67ffffffffffffffff811115620004445762000443620001ae565b5b6200045082546200020c565b6200045d82828562000382565b600060209050601f83116001811462000495576000841562000480578287015190505b6200048c8582620003ff565b865550620004fc565b601f198416620004a58662000241565b60005b82811015620004cf57848901518255600182019150602085019450602081019050620004a8565b86831015620004ef5784890151620004eb601f891682620003df565b8355505b6001600288020188555050505b505050505050565b614e8e80620005146000396000f3fe6080604052600436106101e35760003560e01c80637b47ec1a11610102578063b88d4fde11610095578063e712c9cd11610064578063e712c9cd146106f4578063e985e9c514610731578063eb3d009c1461076e578063f2fde38b14610799576101e3565b8063b88d4fde14610633578063c046372c1461065c578063c78f19f91461068c578063c87b56dd146106b7576101e3565b80638da5cb5b116100d15780638da5cb5b1461058957806395d89b41146105b4578063a22cb465146105df578063b85f694414610608576101e3565b80637b47ec1a146104cf5780637c726b69146104f85780638237c9c6146105215780638983add91461055e576101e3565b806342842e0e1161017a578063644b7a4311610149578063644b7a43146104015780636f1a0af51461043e57806370a082311461047b578063715018a6146104b8576101e3565b806342842e0e1461034257806343d32ae71461036b57806359638a1d146103a85780636352211e146103c4576101e3565b806318160ddd116101b657806318160ddd146102b657806321f422e5146102e157806323b872dd146102fd578063243adbdd14610326576101e3565b806301ffc9a7146101e857806306fdde0314610225578063081812fc14610250578063095ea7b31461028d575b600080fd5b3480156101f457600080fd5b5061020f600480360381019061020a9190613333565b6107c2565b60405161021c919061337b565b60405180910390f35b34801561023157600080fd5b5061023a6108a4565b6040516102479190613426565b60405180910390f35b34801561025c57600080fd5b506102776004803603810190610272919061347e565b610936565b60405161028491906134ec565b60405180910390f35b34801561029957600080fd5b506102b460048036038101906102af9190613533565b61097c565b005b3480156102c257600080fd5b506102cb610a93565b6040516102d89190613582565b60405180910390f35b6102fb60048036038101906102f6919061359d565b610aa0565b005b34801561030957600080fd5b50610324600480360381019061031f91906135dd565b610c1c565b005b610340600480360381019061033b919061347e565b610c7c565b005b34801561034e57600080fd5b50610369600480360381019061036491906135dd565b610de4565b005b34801561037757600080fd5b50610392600480360381019061038d9190613765565b610e04565b60405161039f919061337b565b60405180910390f35b6103c260048036038101906103bd919061347e565b610e40565b005b3480156103d057600080fd5b506103eb60048036038101906103e6919061347e565b610f5c565b6040516103f891906134ec565b60405180910390f35b34801561040d57600080fd5b506104286004803603810190610423919061347e565b610fe2565b6040516104359190613582565b60405180910390f35b34801561044a57600080fd5b506104656004803603810190610460919061347e565b611053565b6040516104729190613830565b60405180910390f35b34801561048757600080fd5b506104a2600480360381019061049d919061384b565b611105565b6040516104af9190613582565b60405180910390f35b3480156104c457600080fd5b506104cd6111bc565b005b3480156104db57600080fd5b506104f660048036038101906104f1919061347e565b6111d0565b005b34801561050457600080fd5b5061051f600480360381019061051a919061347e565b6111dc565b005b34801561052d57600080fd5b506105486004803603810190610543919061347e565b611231565b6040516105559190613830565b60405180910390f35b34801561056a57600080fd5b506105736112e3565b6040516105809190613582565b60405180910390f35b34801561059557600080fd5b5061059e6112f4565b6040516105ab91906134ec565b60405180910390f35b3480156105c057600080fd5b506105c961131e565b6040516105d69190613426565b60405180910390f35b3480156105eb57600080fd5b50610606600480360381019061060191906138a4565b6113b0565b005b34801561061457600080fd5b5061061d6113c6565b60405161062a91906139e8565b60405180910390f35b34801561063f57600080fd5b5061065a60048036038101906106559190613aab565b61149c565b005b61067660048036038101906106719190613b2e565b6114fe565b6040516106839190613582565b60405180910390f35b34801561069857600080fd5b506106a161160e565b6040516106ae9190613582565b60405180910390f35b3480156106c357600080fd5b506106de60048036038101906106d9919061347e565b611614565b6040516106eb9190613426565b60405180910390f35b34801561070057600080fd5b5061071b6004803603810190610716919061384b565b611726565b6040516107289190613c39565b60405180910390f35b34801561073d57600080fd5b5061075860048036038101906107539190613c5b565b61181b565b604051610765919061337b565b60405180910390f35b34801561077a57600080fd5b506107836118af565b60405161079091906139e8565b60405180910390f35b3480156107a557600080fd5b506107c060048036038101906107bb919061384b565b611a35565b005b60007f80ac58cd000000000000000000000000000000000000000000000000000000007bffffffffffffffffffffffffffffffffffffffffffffffffffffffff1916827bffffffffffffffffffffffffffffffffffffffffffffffffffffffff1916148061088d57507f5b5e139f000000000000000000000000000000000000000000000000000000007bffffffffffffffffffffffffffffffffffffffffffffffffffffffff1916827bffffffffffffffffffffffffffffffffffffffffffffffffffffffff1916145b8061089d575061089c82611ab8565b5b9050919050565b6060600080546108b390613cca565b80601f01602080910402602001604051908101604052809291908181526020018280546108df90613cca565b801561092c5780601f106109015761010080835404028352916020019161092c565b820191906000526020600020905b81548152906001019060200180831161090f57829003601f168201915b5050505050905090565b600061094182611b22565b6004600083815260200190815260200160002060009054906101000a900473ffffffffffffffffffffffffffffffffffffffff169050919050565b600061098782610f5c565b90508073ffffffffffffffffffffffffffffffffffffffff168373ffffffffffffffffffffffffffffffffffffffff16036109f7576040517f08c379a00000000000000000000000000000000000000000000000000000000081526004016109ee90613d6d565b60405180910390fd5b8073ffffffffffffffffffffffffffffffffffffffff16610a16611b6d565b73ffffffffffffffffffffffffffffffffffffffff161480610a455750610a4481610a3f611b6d565b61181b565b5b610a84576040517f08c379a0000000000000000000000000000000000000000000000000000000008152600401610a7b90613dff565b60405180910390fd5b610a8e8383611b75565b505050565b6000600b80549050905090565b3373ffffffffffffffffffffffffffffffffffffffff16610ac083610f5c565b73ffffffffffffffffffffffffffffffffffffffff1614610b16576040517f08c379a0000000000000000000000000000000000000000000000000000000008152600401610b0d90613e6b565b60405180910390fd5b60001515600d600084815260200190815260200160002060020160149054906101000a900460ff16151514610b80576040517f08c379a0000000000000000000000000000000000000000000000000000000008152600401610b7790613ed7565b60405180910390fd5b600a543414610bc4576040517f08c379a0000000000000000000000000000000000000000000000000000000008152600401610bbb90613f69565b60405180910390fd5b6001600d600084815260200190815260200160002060020160146101000a81548160ff02191690831515021790555080600d600084815260200190815260200160002060010181905550610c186008611c2e565b5050565b610c2d610c27611b6d565b82611c44565b610c6c576040517f08c379a0000000000000000000000000000000000000000000000000000000008152600401610c6390613ffb565b60405180910390fd5b610c77838383611cd9565b505050565b6000600d60008381526020019081526020016000206001015490506000610ca283610f5c565b90508073ffffffffffffffffffffffffffffffffffffffff163373ffffffffffffffffffffffffffffffffffffffff1603610d12576040517f08c379a0000000000000000000000000000000000000000000000000000000008152600401610d0990614067565b60405180910390fd5b813414610d54576040517f08c379a0000000000000000000000000000000000000000000000000000000008152600401610d4b906140d3565b60405180910390fd5b6000600d600085815260200190815260200160002060020160146101000a81548160ff021916908315150217905550610d8d6008611fd2565b610d98813385611cd9565b8073ffffffffffffffffffffffffffffffffffffffff166108fc349081150290604051600060405180830381858888f19350505050158015610dde573d6000803e3d6000fd5b50505050565b610dff8383836040518060200160405280600081525061149c565b505050565b600060011515600c83604051610e1a919061412f565b908152602001604051809103902060009054906101000a900460ff161515149050919050565b3373ffffffffffffffffffffffffffffffffffffffff16610e6082610f5c565b73ffffffffffffffffffffffffffffffffffffffff1614610eb6576040517f08c379a0000000000000000000000000000000000000000000000000000000008152600401610ead90613e6b565b60405180910390fd5b60011515600d600083815260200190815260200160002060020160149054906101000a900460ff16151514610f20576040517f08c379a0000000000000000000000000000000000000000000000000000000008152600401610f1790614192565b60405180910390fd5b6000600d600083815260200190815260200160002060020160146101000a81548160ff021916908315150217905550610f596008611fd2565b50565b600080610f688361202e565b9050600073ffffffffffffffffffffffffffffffffffffffff168173ffffffffffffffffffffffffffffffffffffffff1603610fd9576040517f08c379a0000000000000000000000000000000000000000000000000000000008152600401610fd0906141fe565b60405180910390fd5b80915050919050565b6000610fec610a93565b821061102d576040517f08c379a00000000000000000000000000000000000000000000000000000000081526004016110249061426a565b60405180910390fd5b600b82815481106110415761104061428a565b5b90600052602060002001549050919050565b61105b61322a565b600d600083815260200190815260200160002060405180608001604052908160008201548152602001600182015481526020016002820160009054906101000a900473ffffffffffffffffffffffffffffffffffffffff1673ffffffffffffffffffffffffffffffffffffffff1673ffffffffffffffffffffffffffffffffffffffff1681526020016002820160149054906101000a900460ff1615151515815250509050919050565b60008073ffffffffffffffffffffffffffffffffffffffff168273ffffffffffffffffffffffffffffffffffffffff1603611175576040517f08c379a000000000000000000000000000000000000000000000000000000000815260040161116c9061432b565b60405180910390fd5b600360008373ffffffffffffffffffffffffffffffffffffffff1673ffffffffffffffffffffffffffffffffffffffff168152602001908152602001600020549050919050565b6111c461206b565b6111ce60006120e9565b565b6111d9816121af565b50565b6111e461206b565b60008111611227576040517f08c379a000000000000000000000000000000000000000000000000000000000815260040161121e90614397565b60405180910390fd5b80600a8190555050565b61123961322a565b600d600083815260200190815260200160002060405180608001604052908160008201548152602001600182015481526020016002820160009054906101000a900473ffffffffffffffffffffffffffffffffffffffff1673ffffffffffffffffffffffffffffffffffffffff1673ffffffffffffffffffffffffffffffffffffffff1681526020016002820160149054906101000a900460ff1615151515815250509050919050565b60006112ef6008612202565b905090565b6000600760009054906101000a900473ffffffffffffffffffffffffffffffffffffffff16905090565b60606001805461132d90613cca565b80601f016020809104026020016040519081016040528092919081815260200182805461135990613cca565b80156113a65780601f1061137b576101008083540402835291602001916113a6565b820191906000526020600020905b81548152906001019060200180831161138957829003601f168201915b5050505050905090565b6113c26113bb611b6d565b8383612210565b5050565b606060006113d333611726565b905060008151905060008167ffffffffffffffff8111156113f7576113f661363a565b5b60405190808252806020026020018201604052801561143057816020015b61141d61322a565b8152602001906001900390816114155790505b50905060005b82811015611492576114618482815181106114545761145361428a565b5b6020026020010151611231565b8282815181106114745761147361428a565b5b6020026020010181905250808061148a906143e6565b915050611436565b5080935050505090565b6114ad6114a7611b6d565b83611c44565b6114ec576040517f08c379a00000000000000000000000000000000000000000000000000000000081526004016114e390613ffb565b60405180910390fd5b6114f88484848461237c565b50505050565b600061150983610e04565b15611549576040517f08c379a00000000000000000000000000000000000000000000000000000000081526004016115409061447a565b60405180910390fd5b600a54341461158d576040517f08c379a000000000000000000000000000000000000000000000000000000000815260040161158490613f69565b60405180910390fd5b6115976009611c2e565b6115a16008611c2e565b60006115ad6009612202565b90506115b933826123d8565b6115c381856123f6565b6001600c856040516115d5919061412f565b908152602001604051809103902060006101000a81548160ff0219169083151502179055506116048184612463565b8091505092915050565b600a5481565b606061161f82611b22565b600060066000848152602001908152602001600020805461163f90613cca565b80601f016020809104026020016040519081016040528092919081815260200182805461166b90613cca565b80156116b85780601f1061168d576101008083540402835291602001916116b8565b820191906000526020600020905b81548152906001019060200180831161169b57829003601f168201915b5050505050905060006116c96125b3565b905060008151036116de578192505050611721565b6000825111156117135780826040516020016116fb92919061449a565b60405160208183030381529060405292505050611721565b61171c846125ca565b925050505b919050565b6060600061173383611105565b905060008167ffffffffffffffff8111156117515761175061363a565b5b60405190808252806020026020018201604052801561177f5781602001602082028036833780820191505090505b50905060005b8281101561181057600f60008673ffffffffffffffffffffffffffffffffffffffff1673ffffffffffffffffffffffffffffffffffffffff1681526020019081526020016000206000828152602001908152602001600020548282815181106117f1576117f061428a565b5b6020026020010181815250508080611808906143e6565b915050611785565b508092505050919050565b6000600560008473ffffffffffffffffffffffffffffffffffffffff1673ffffffffffffffffffffffffffffffffffffffff16815260200190815260200160002060008373ffffffffffffffffffffffffffffffffffffffff1673ffffffffffffffffffffffffffffffffffffffff16815260200190815260200160002060009054906101000a900460ff16905092915050565b606060006118bb610a93565b90506000806118ca6008612202565b67ffffffffffffffff8111156118e3576118e261363a565b5b60405190808252806020026020018201604052801561191c57816020015b61190961322a565b8152602001906001900390816119015790505b50905060005b83811015611a2b57600061193582610fe2565b90506000600d600083815260200190815260200160002060405180608001604052908160008201548152602001600182015481526020016002820160009054906101000a900473ffffffffffffffffffffffffffffffffffffffff1673ffffffffffffffffffffffffffffffffffffffff1673ffffffffffffffffffffffffffffffffffffffff1681526020016002820160149054906101000a900460ff1615151515815250509050806060015115611a1657808486815181106119fc576119fb61428a565b5b60200260200101819052508480611a12906143e6565b9550505b50508080611a23906143e6565b915050611922565b5080935050505090565b611a3d61206b565b600073ffffffffffffffffffffffffffffffffffffffff168173ffffffffffffffffffffffffffffffffffffffff1603611aac576040517f08c379a0000000000000000000000000000000000000000000000000000000008152600401611aa390614530565b60405180910390fd5b611ab5816120e9565b50565b60007f01ffc9a7000000000000000000000000000000000000000000000000000000007bffffffffffffffffffffffffffffffffffffffffffffffffffffffff1916827bffffffffffffffffffffffffffffffffffffffffffffffffffffffff1916149050919050565b611b2b81612632565b611b6a576040517f08c379a0000000000000000000000000000000000000000000000000000000008152600401611b61906141fe565b60405180910390fd5b50565b600033905090565b816004600083815260200190815260200160002060006101000a81548173ffffffffffffffffffffffffffffffffffffffff021916908373ffffffffffffffffffffffffffffffffffffffff160217905550808273ffffffffffffffffffffffffffffffffffffffff16611be883610f5c565b73ffffffffffffffffffffffffffffffffffffffff167f8c5be1e5ebec7d5bd14f71427d1e84f3dd0314c0f7b2291e5b200ac8c7c3b92560405160405180910390a45050565b6001816000016000828254019250508190555050565b600080611c5083610f5c565b90508073ffffffffffffffffffffffffffffffffffffffff168473ffffffffffffffffffffffffffffffffffffffff161480611c925750611c91818561181b565b5b80611cd057508373ffffffffffffffffffffffffffffffffffffffff16611cb884610936565b73ffffffffffffffffffffffffffffffffffffffff16145b91505092915050565b8273ffffffffffffffffffffffffffffffffffffffff16611cf982610f5c565b73ffffffffffffffffffffffffffffffffffffffff1614611d4f576040517f08c379a0000000000000000000000000000000000000000000000000000000008152600401611d46906145c2565b60405180910390fd5b600073ffffffffffffffffffffffffffffffffffffffff168273ffffffffffffffffffffffffffffffffffffffff1603611dbe576040517f08c379a0000000000000000000000000000000000000000000000000000000008152600401611db590614654565b60405180910390fd5b611dcb8383836001612673565b8273ffffffffffffffffffffffffffffffffffffffff16611deb82610f5c565b73ffffffffffffffffffffffffffffffffffffffff1614611e41576040517f08c379a0000000000000000000000000000000000000000000000000000000008152600401611e38906145c2565b60405180910390fd5b6004600082815260200190815260200160002060006101000a81549073ffffffffffffffffffffffffffffffffffffffff02191690556001600360008573ffffffffffffffffffffffffffffffffffffffff1673ffffffffffffffffffffffffffffffffffffffff168152602001908152602001600020600082825403925050819055506001600360008473ffffffffffffffffffffffffffffffffffffffff1673ffffffffffffffffffffffffffffffffffffffff16815260200190815260200160002060008282540192505081905550816002600083815260200190815260200160002060006101000a81548173ffffffffffffffffffffffffffffffffffffffff021916908373ffffffffffffffffffffffffffffffffffffffff160217905550808273ffffffffffffffffffffffffffffffffffffffff168473ffffffffffffffffffffffffffffffffffffffff167fddf252ad1be2c89b69c2b068fc378daa952ba7f163c4a11628f55a4df523b3ef60405160405180910390a4611fcd8383836001612787565b505050565b6000816000015490506000811161201e576040517f08c379a0000000000000000000000000000000000000000000000000000000008152600401612015906146c0565b60405180910390fd5b6001810382600001819055505050565b60006002600083815260200190815260200160002060009054906101000a900473ffffffffffffffffffffffffffffffffffffffff169050919050565b612073611b6d565b73ffffffffffffffffffffffffffffffffffffffff166120916112f4565b73ffffffffffffffffffffffffffffffffffffffff16146120e7576040517f08c379a00000000000000000000000000000000000000000000000000000000081526004016120de9061472c565b60405180910390fd5b565b6000600760009054906101000a900473ffffffffffffffffffffffffffffffffffffffff16905081600760006101000a81548173ffffffffffffffffffffffffffffffffffffffff021916908373ffffffffffffffffffffffffffffffffffffffff1602179055508173ffffffffffffffffffffffffffffffffffffffff168173ffffffffffffffffffffffffffffffffffffffff167f8be0079c531659141344cd1fd0a4f28419497f9722a3daafe3b4186f6b6457e060405160405180910390a35050565b6121b88161278d565b60006006600083815260200190815260200160002080546121d890613cca565b9050146121ff576006600082815260200190815260200160002060006121fe919061326a565b5b50565b600081600001549050919050565b8173ffffffffffffffffffffffffffffffffffffffff168373ffffffffffffffffffffffffffffffffffffffff160361227e576040517f08c379a000000000000000000000000000000000000000000000000000000000815260040161227590614798565b60405180910390fd5b80600560008573ffffffffffffffffffffffffffffffffffffffff1673ffffffffffffffffffffffffffffffffffffffff16815260200190815260200160002060008473ffffffffffffffffffffffffffffffffffffffff1673ffffffffffffffffffffffffffffffffffffffff16815260200190815260200160002060006101000a81548160ff0219169083151502179055508173ffffffffffffffffffffffffffffffffffffffff168373ffffffffffffffffffffffffffffffffffffffff167f17307eab39ab6107e8899845ad3d59bd9653f200f220920489ca2b5937696c318360405161236f919061337b565b60405180910390a3505050565b612387848484611cd9565b612393848484846128db565b6123d2576040517f08c379a00000000000000000000000000000000000000000000000000000000081526004016123c99061482a565b60405180910390fd5b50505050565b6123f2828260405180602001604052806000815250612a62565b5050565b6123ff82612632565b61243e576040517f08c379a0000000000000000000000000000000000000000000000000000000008152600401612435906148bc565b60405180910390fd5b8060066000848152602001908152602001600020908161245e9190614a88565b505050565b600081116124a6576040517f08c379a000000000000000000000000000000000000000000000000000000000815260040161249d90614ba6565b60405180910390fd5b60405180608001604052808381526020018281526020013373ffffffffffffffffffffffffffffffffffffffff16815260200160011515815250600d6000848152602001908152602001600020600082015181600001556020820151816001015560408201518160020160006101000a81548173ffffffffffffffffffffffffffffffffffffffff021916908373ffffffffffffffffffffffffffffffffffffffff16021790555060608201518160020160146101000a81548160ff0219169083151502179055509050507f470031062672bc0246e132c723a729c4676710ec663a29e86c88678032daddea82823360016040516125a79493929190614bc6565b60405180910390a15050565b606060405180602001604052806000815250905090565b60606125d582611b22565b60006125df6125b3565b905060008151116125ff576040518060200160405280600081525061262a565b8061260984612abd565b60405160200161261a92919061449a565b6040516020818303038152906040525b915050919050565b60008073ffffffffffffffffffffffffffffffffffffffff166126548361202e565b73ffffffffffffffffffffffffffffffffffffffff1614159050919050565b61267f84848484612b8b565b600073ffffffffffffffffffffffffffffffffffffffff168473ffffffffffffffffffffffffffffffffffffffff16036126c1576126bc82612b91565b612700565b8273ffffffffffffffffffffffffffffffffffffffff168473ffffffffffffffffffffffffffffffffffffffff16146126ff576126fe8483612bda565b5b5b600073ffffffffffffffffffffffffffffffffffffffff168373ffffffffffffffffffffffffffffffffffffffff16036127425761273d82612d47565b612781565b8373ffffffffffffffffffffffffffffffffffffffff168373ffffffffffffffffffffffffffffffffffffffff16146127805761277f8383612e18565b5b5b50505050565b50505050565b600061279882610f5c565b90506127a8816000846001612673565b6127b182610f5c565b90506004600083815260200190815260200160002060006101000a81549073ffffffffffffffffffffffffffffffffffffffff02191690556001600360008373ffffffffffffffffffffffffffffffffffffffff1673ffffffffffffffffffffffffffffffffffffffff168152602001908152602001600020600082825403925050819055506002600083815260200190815260200160002060006101000a81549073ffffffffffffffffffffffffffffffffffffffff021916905581600073ffffffffffffffffffffffffffffffffffffffff168273ffffffffffffffffffffffffffffffffffffffff167fddf252ad1be2c89b69c2b068fc378daa952ba7f163c4a11628f55a4df523b3ef60405160405180910390a46128d7816000846001612787565b5050565b60006128fc8473ffffffffffffffffffffffffffffffffffffffff16612e97565b15612a55578373ffffffffffffffffffffffffffffffffffffffff1663150b7a02612925611b6d565b8786866040518563ffffffff1660e01b81526004016129479493929190614c60565b6020604051808303816000875af192505050801561298357506040513d601f19601f820116820180604052508101906129809190614cc1565b60015b612a05573d80600081146129b3576040519150601f19603f3d011682016040523d82523d6000602084013e6129b8565b606091505b5060008151036129fd576040517f08c379a00000000000000000000000000000000000000000000000000000000081526004016129f49061482a565b60405180910390fd5b805181602001fd5b63150b7a0260e01b7bffffffffffffffffffffffffffffffffffffffffffffffffffffffff1916817bffffffffffffffffffffffffffffffffffffffffffffffffffffffff191614915050612a5a565b600190505b949350505050565b612a6c8383612eba565b612a7960008484846128db565b612ab8576040517f08c379a0000000000000000000000000000000000000000000000000000000008152600401612aaf9061482a565b60405180910390fd5b505050565b606060006001612acc846130d7565b01905060008167ffffffffffffffff811115612aeb57612aea61363a565b5b6040519080825280601f01601f191660200182016040528015612b1d5781602001600182028036833780820191505090505b509050600082602001820190505b600115612b80578080600190039150507f3031323334353637383961626364656600000000000000000000000000000000600a86061a8153600a8581612b7457612b73614cee565b5b04945060008503612b2b575b819350505050919050565b50505050565b600b80549050600e600083815260200190815260200160002081905550600b81908060018154018082558091505060019003906000526020600020016000909190919091505550565b60006001612be784611105565b612bf19190614d1d565b9050600060106000848152602001908152602001600020549050818114612cd6576000600f60008673ffffffffffffffffffffffffffffffffffffffff1673ffffffffffffffffffffffffffffffffffffffff168152602001908152602001600020600084815260200190815260200160002054905080600f60008773ffffffffffffffffffffffffffffffffffffffff1673ffffffffffffffffffffffffffffffffffffffff168152602001908152602001600020600084815260200190815260200160002081905550816010600083815260200190815260200160002081905550505b6010600084815260200190815260200160002060009055600f60008573ffffffffffffffffffffffffffffffffffffffff1673ffffffffffffffffffffffffffffffffffffffff16815260200190815260200160002060008381526020019081526020016000206000905550505050565b60006001600b80549050612d5b9190614d1d565b90506000600e60008481526020019081526020016000205490506000600b8381548110612d8b57612d8a61428a565b5b9060005260206000200154905080600b8381548110612dad57612dac61428a565b5b906000526020600020018190555081600e600083815260200190815260200160002081905550600e600085815260200190815260200160002060009055600b805480612dfc57612dfb614d51565b5b6001900381819060005260206000200160009055905550505050565b6000612e2383611105565b905081600f60008573ffffffffffffffffffffffffffffffffffffffff1673ffffffffffffffffffffffffffffffffffffffff168152602001908152602001600020600083815260200190815260200160002081905550806010600084815260200190815260200160002081905550505050565b6000808273ffffffffffffffffffffffffffffffffffffffff163b119050919050565b600073ffffffffffffffffffffffffffffffffffffffff168273ffffffffffffffffffffffffffffffffffffffff1603612f29576040517f08c379a0000000000000000000000000000000000000000000000000000000008152600401612f2090614dcc565b60405180910390fd5b612f3281612632565b15612f72576040517f08c379a0000000000000000000000000000000000000000000000000000000008152600401612f6990614e38565b60405180910390fd5b612f80600083836001612673565b612f8981612632565b15612fc9576040517f08c379a0000000000000000000000000000000000000000000000000000000008152600401612fc090614e38565b60405180910390fd5b6001600360008473ffffffffffffffffffffffffffffffffffffffff1673ffffffffffffffffffffffffffffffffffffffff16815260200190815260200160002060008282540192505081905550816002600083815260200190815260200160002060006101000a81548173ffffffffffffffffffffffffffffffffffffffff021916908373ffffffffffffffffffffffffffffffffffffffff160217905550808273ffffffffffffffffffffffffffffffffffffffff16600073ffffffffffffffffffffffffffffffffffffffff167fddf252ad1be2c89b69c2b068fc378daa952ba7f163c4a11628f55a4df523b3ef60405160405180910390a46130d3600083836001612787565b5050565b600080600090507a184f03e93ff9f4daa797ed6e38ed64bf6a1f0100000000000000008310613135577a184f03e93ff9f4daa797ed6e38ed64bf6a1f010000000000000000838161312b5761312a614cee565b5b0492506040810190505b6d04ee2d6d415b85acef81000000008310613172576d04ee2d6d415b85acef8100000000838161316857613167614cee565b5b0492506020810190505b662386f26fc1000083106131a157662386f26fc10000838161319757613196614cee565b5b0492506010810190505b6305f5e10083106131ca576305f5e10083816131c0576131bf614cee565b5b0492506008810190505b61271083106131ef5761271083816131e5576131e4614cee565b5b0492506004810190505b60648310613212576064838161320857613207614cee565b5b0492506002810190505b600a8310613221576001810190505b80915050919050565b60405180608001604052806000815260200160008152602001600073ffffffffffffffffffffffffffffffffffffffff1681526020016000151581525090565b50805461327690613cca565b6000825580601f1061328857506132a7565b601f0160209004906000526020600020908101906132a691906132aa565b5b50565b5b808211156132c35760008160009055506001016132ab565b5090565b6000604051905090565b600080fd5b600080fd5b60007fffffffff0000000000000000000000000000000000000000000000000000000082169050919050565b613310816132db565b811461331b57600080fd5b50565b60008135905061332d81613307565b92915050565b600060208284031215613349576133486132d1565b5b60006133578482850161331e565b91505092915050565b60008115159050919050565b61337581613360565b82525050565b6000602082019050613390600083018461336c565b92915050565b600081519050919050565b600082825260208201905092915050565b60005b838110156133d05780820151818401526020810190506133b5565b60008484015250505050565b6000601f19601f8301169050919050565b60006133f882613396565b61340281856133a1565b93506134128185602086016133b2565b61341b816133dc565b840191505092915050565b6000602082019050818103600083015261344081846133ed565b905092915050565b6000819050919050565b61345b81613448565b811461346657600080fd5b50565b60008135905061347881613452565b92915050565b600060208284031215613494576134936132d1565b5b60006134a284828501613469565b91505092915050565b600073ffffffffffffffffffffffffffffffffffffffff82169050919050565b60006134d6826134ab565b9050919050565b6134e6816134cb565b82525050565b600060208201905061350160008301846134dd565b92915050565b613510816134cb565b811461351b57600080fd5b50565b60008135905061352d81613507565b92915050565b6000806040838503121561354a576135496132d1565b5b60006135588582860161351e565b925050602061356985828601613469565b9150509250929050565b61357c81613448565b82525050565b60006020820190506135976000830184613573565b92915050565b600080604083850312156135b4576135b36132d1565b5b60006135c285828601613469565b92505060206135d385828601613469565b9150509250929050565b6000806000606084860312156135f6576135f56132d1565b5b60006136048682870161351e565b93505060206136158682870161351e565b925050604061362686828701613469565b9150509250925092565b600080fd5b600080fd5b7f4e487b7100000000000000000000000000000000000000000000000000000000600052604160045260246000fd5b613672826133dc565b810181811067ffffffffffffffff821117156136915761369061363a565b5b80604052505050565b60006136a46132c7565b90506136b08282613669565b919050565b600067ffffffffffffffff8211156136d0576136cf61363a565b5b6136d9826133dc565b9050602081019050919050565b82818337600083830152505050565b6000613708613703846136b5565b61369a565b90508281526020810184848401111561372457613723613635565b5b61372f8482856136e6565b509392505050565b600082601f83011261374c5761374b613630565b5b813561375c8482602086016136f5565b91505092915050565b60006020828403121561377b5761377a6132d1565b5b600082013567ffffffffffffffff811115613799576137986132d6565b5b6137a584828501613737565b91505092915050565b6137b781613448565b82525050565b6137c6816134cb565b82525050565b6137d581613360565b82525050565b6080820160008201516137f160008501826137ae565b50602082015161380460208501826137ae565b50604082015161381760408501826137bd565b50606082015161382a60608501826137cc565b50505050565b600060808201905061384560008301846137db565b92915050565b600060208284031215613861576138606132d1565b5b600061386f8482850161351e565b91505092915050565b61388181613360565b811461388c57600080fd5b50565b60008135905061389e81613878565b92915050565b600080604083850312156138bb576138ba6132d1565b5b60006138c98582860161351e565b92505060206138da8582860161388f565b9150509250929050565b600081519050919050565b600082825260208201905092915050565b6000819050602082019050919050565b60808201600082015161392660008501826137ae565b50602082015161393960208501826137ae565b50604082015161394c60408501826137bd565b50606082015161395f60608501826137cc565b50505050565b60006139718383613910565b60808301905092915050565b6000602082019050919050565b6000613995826138e4565b61399f81856138ef565b93506139aa83613900565b8060005b838110156139db5781516139c28882613965565b97506139cd8361397d565b9250506001810190506139ae565b5085935050505092915050565b60006020820190508181036000830152613a02818461398a565b905092915050565b600067ffffffffffffffff821115613a2557613a2461363a565b5b613a2e826133dc565b9050602081019050919050565b6000613a4e613a4984613a0a565b61369a565b905082815260208101848484011115613a6a57613a69613635565b5b613a758482856136e6565b509392505050565b600082601f830112613a9257613a91613630565b5b8135613aa2848260208601613a3b565b91505092915050565b60008060008060808587031215613ac557613ac46132d1565b5b6000613ad38782880161351e565b9450506020613ae48782880161351e565b9350506040613af587828801613469565b925050606085013567ffffffffffffffff811115613b1657613b156132d6565b5b613b2287828801613a7d565b91505092959194509250565b60008060408385031215613b4557613b446132d1565b5b600083013567ffffffffffffffff811115613b6357613b626132d6565b5b613b6f85828601613737565b9250506020613b8085828601613469565b9150509250929050565b600081519050919050565b600082825260208201905092915050565b6000819050602082019050919050565b6000613bc283836137ae565b60208301905092915050565b6000602082019050919050565b6000613be682613b8a565b613bf08185613b95565b9350613bfb83613ba6565b8060005b83811015613c2c578151613c138882613bb6565b9750613c1e83613bce565b925050600181019050613bff565b5085935050505092915050565b60006020820190508181036000830152613c538184613bdb565b905092915050565b60008060408385031215613c7257613c716132d1565b5b6000613c808582860161351e565b9250506020613c918582860161351e565b9150509250929050565b7f4e487b7100000000000000000000000000000000000000000000000000000000600052602260045260246000fd5b60006002820490506001821680613ce257607f821691505b602082108103613cf557613cf4613c9b565b5b50919050565b7f4552433732313a20617070726f76616c20746f2063757272656e74206f776e6560008201527f7200000000000000000000000000000000000000000000000000000000000000602082015250565b6000613d576021836133a1565b9150613d6282613cfb565b604082019050919050565b60006020820190508181036000830152613d8681613d4a565b9050919050565b7f4552433732313a20617070726f76652063616c6c6572206973206e6f7420746f60008201527f6b656e206f776e6572206f7220617070726f76656420666f7220616c6c000000602082015250565b6000613de9603d836133a1565b9150613df482613d8d565b604082019050919050565b60006020820190508181036000830152613e1881613ddc565b9050919050565b7f6e6f74206f776e6572206f662074686973206e66740000000000000000000000600082015250565b6000613e556015836133a1565b9150613e6082613e1f565b602082019050919050565b60006020820190508181036000830152613e8481613e48565b9050919050565b7f4974656d20697320616c7265616479206f6e2073616c65000000000000000000600082015250565b6000613ec16017836133a1565b9150613ecc82613e8b565b602082019050919050565b60006020820190508181036000830152613ef081613eb4565b9050919050565b7f5072696365206d75737420626520657175616c20746f206c697374696e67207060008201527f7269636500000000000000000000000000000000000000000000000000000000602082015250565b6000613f536024836133a1565b9150613f5e82613ef7565b604082019050919050565b60006020820190508181036000830152613f8281613f46565b9050919050565b7f4552433732313a2063616c6c6572206973206e6f7420746f6b656e206f776e6560008201527f72206f7220617070726f76656400000000000000000000000000000000000000602082015250565b6000613fe5602d836133a1565b9150613ff082613f89565b604082019050919050565b6000602082019050818103600083015261401481613fd8565b9050919050565b7f596f7520616c7265616479206f776e2074686973204e46540000000000000000600082015250565b60006140516018836133a1565b915061405c8261401b565b602082019050919050565b6000602082019050818103600083015261408081614044565b9050919050565b7f506c65617365207375626d6974207468652061736b696e672070726963650000600082015250565b60006140bd601e836133a1565b91506140c882614087565b602082019050919050565b600060208201905081810360008301526140ec816140b0565b9050919050565b600081905092915050565b600061410982613396565b61411381856140f3565b93506141238185602086016133b2565b80840191505092915050565b600061413b82846140fe565b915081905092915050565b7f4974656d20697320616c726561647920756e73616c6500000000000000000000600082015250565b600061417c6016836133a1565b915061418782614146565b602082019050919050565b600060208201905081810360008301526141ab8161416f565b9050919050565b7f4552433732313a20696e76616c696420746f6b656e2049440000000000000000600082015250565b60006141e86018836133a1565b91506141f3826141b2565b602082019050919050565b60006020820190508181036000830152614217816141db565b9050919050565b7f496e646578206f7574206f6620626f756e647300000000000000000000000000600082015250565b60006142546013836133a1565b915061425f8261421e565b602082019050919050565b6000602082019050818103600083015261428381614247565b9050919050565b7f4e487b7100000000000000000000000000000000000000000000000000000000600052603260045260246000fd5b7f4552433732313a2061646472657373207a65726f206973206e6f74206120766160008201527f6c6964206f776e65720000000000000000000000000000000000000000000000602082015250565b60006143156029836133a1565b9150614320826142b9565b604082019050919050565b6000602082019050818103600083015261434481614308565b9050919050565b7f7072696365206d757374206265206174206c6561737420312077656900000000600082015250565b6000614381601c836133a1565b915061438c8261434b565b602082019050919050565b600060208201905081810360008301526143b081614374565b9050919050565b7f4e487b7100000000000000000000000000000000000000000000000000000000600052601160045260246000fd5b60006143f182613448565b91507fffffffffffffffffffffffffffffffffffffffffffffffffffffffffffffffff8203614423576144226143b7565b5b600182019050919050565b7f746f6b656e55524920616c726561647920657869737473000000000000000000600082015250565b60006144646017836133a1565b915061446f8261442e565b602082019050919050565b6000602082019050818103600083015261449381614457565b9050919050565b60006144a682856140fe565b91506144b282846140fe565b91508190509392505050565b7f4f776e61626c653a206e6577206f776e657220697320746865207a65726f206160008201527f6464726573730000000000000000000000000000000000000000000000000000602082015250565b600061451a6026836133a1565b9150614525826144be565b604082019050919050565b600060208201905081810360008301526145498161450d565b9050919050565b7f4552433732313a207472616e736665722066726f6d20696e636f72726563742060008201527f6f776e6572000000000000000000000000000000000000000000000000000000602082015250565b60006145ac6025836133a1565b91506145b782614550565b604082019050919050565b600060208201905081810360008301526145db8161459f565b9050919050565b7f4552433732313a207472616e7366657220746f20746865207a65726f2061646460008201527f7265737300000000000000000000000000000000000000000000000000000000602082015250565b600061463e6024836133a1565b9150614649826145e2565b604082019050919050565b6000602082019050818103600083015261466d81614631565b9050919050565b7f436f756e7465723a2064656372656d656e74206f766572666c6f770000000000600082015250565b60006146aa601b836133a1565b91506146b582614674565b602082019050919050565b600060208201905081810360008301526146d98161469d565b9050919050565b7f4f776e61626c653a2063616c6c6572206973206e6f7420746865206f776e6572600082015250565b60006147166020836133a1565b9150614721826146e0565b602082019050919050565b6000602082019050818103600083015261474581614709565b9050919050565b7f4552433732313a20617070726f766520746f2063616c6c657200000000000000600082015250565b60006147826019836133a1565b915061478d8261474c565b602082019050919050565b600060208201905081810360008301526147b181614775565b9050919050565b7f4552433732313a207472616e7366657220746f206e6f6e20455243373231526560008201527f63656976657220696d706c656d656e7465720000000000000000000000000000602082015250565b60006148146032836133a1565b915061481f826147b8565b604082019050919050565b6000602082019050818103600083015261484381614807565b9050919050565b7f45524337323155524953746f726167653a2055524920736574206f66206e6f6e60008201527f6578697374656e7420746f6b656e000000000000000000000000000000000000602082015250565b60006148a6602e836133a1565b91506148b18261484a565b604082019050919050565b600060208201905081810360008301526148d581614899565b9050919050565b60008190508160005260206000209050919050565b60006020601f8301049050919050565b600082821b905092915050565b60006008830261493e7fffffffffffffffffffffffffffffffffffffffffffffffffffffffffffffffff82614901565b6149488683614901565b95508019841693508086168417925050509392505050565b6000819050919050565b600061498561498061497b84613448565b614960565b613448565b9050919050565b6000819050919050565b61499f8361496a565b6149b36149ab8261498c565b84845461490e565b825550505050565b600090565b6149c86149bb565b6149d3818484614996565b505050565b5b818110156149f7576149ec6000826149c0565b6001810190506149d9565b5050565b601f821115614a3c57614a0d816148dc565b614a16846148f1565b81016020851015614a25578190505b614a39614a31856148f1565b8301826149d8565b50505b505050565b600082821c905092915050565b6000614a5f60001984600802614a41565b1980831691505092915050565b6000614a788383614a4e565b9150826002028217905092915050565b614a9182613396565b67ffffffffffffffff811115614aaa57614aa961363a565b5b614ab48254613cca565b614abf8282856149fb565b600060209050601f831160018114614af25760008415614ae0578287015190505b614aea8582614a6c565b865550614b52565b601f198416614b00866148dc565b60005b82811015614b2857848901518255600182019150602085019450602081019050614b03565b86831015614b455784890151614b41601f891682614a4e565b8355505b6001600288020188555050505b505050505050565b7f5072696365206d757374206265206174206c6561737420312077656900000000600082015250565b6000614b90601c836133a1565b9150614b9b82614b5a565b602082019050919050565b60006020820190508181036000830152614bbf81614b83565b9050919050565b6000608082019050614bdb6000830187613573565b614be86020830186613573565b614bf560408301856134dd565b614c02606083018461336c565b95945050505050565b600081519050919050565b600082825260208201905092915050565b6000614c3282614c0b565b614c3c8185614c16565b9350614c4c8185602086016133b2565b614c55816133dc565b840191505092915050565b6000608082019050614c7560008301876134dd565b614c8260208301866134dd565b614c8f6040830185613573565b8181036060830152614ca18184614c27565b905095945050505050565b600081519050614cbb81613307565b92915050565b600060208284031215614cd757614cd66132d1565b5b6000614ce584828501614cac565b91505092915050565b7f4e487b7100000000000000000000000000000000000000000000000000000000600052601260045260246000fd5b6000614d2882613448565b9150614d3383613448565b9250828203905081811115614d4b57614d4a6143b7565b5b92915050565b7f4e487b7100000000000000000000000000000000000000000000000000000000600052603160045260246000fd5b7f4552433732313a206d696e7420746f20746865207a65726f2061646472657373600082015250565b6000614db66020836133a1565b9150614dc182614d80565b602082019050919050565b60006020820190508181036000830152614de581614da9565b9050919050565b7f4552433732313a20746f6b656e20616c7265616479206d696e74656400000000600082015250565b6000614e22601c836133a1565b9150614e2d82614dec565b602082019050919050565b60006020820190508181036000830152614e5181614e15565b905091905056fea2646970667358221220ee1f6c515ede1ccc67b6d7357c0adff6c3995acc98bdf48212f9034b6498b05964736f6c63430008130033",
  "immutableReferences": {},
  "source": "// SPDX-License-Identifier: UNLICENSED\r\npragma solidity ^0.8.0;\r\n\r\nimport \"@openzeppelin/contracts/token/ERC721/extensions/ERC721URIStorage.sol\";\r\nimport \"@openzeppelin/contracts/utils/Counters.sol\";\r\nimport \"@openzeppelin/contracts/access/Ownable.sol\";\r\n\r\ncontract NFTMarketplace is ERC721URIStorage, Ownable {\r\n    using Counters for Counters.Counter;\r\n\r\n    Counters.Counter private _listedItems;\r\n    Counters.Counter private _tokenIds;\r\n\r\n    uint public listingPrice = 0.025 ether;\r\n\r\n    // all tokenId array\r\n    uint256[] private _allNfts;\r\n\r\n    mapping(string => bool) private _usedTokenURIs;\r\n    mapping(uint => NftItem) private _idToNftItem;\r\n    mapping(uint => uint) private _idToNftIndex;\r\n\r\n    //    mapping(address => mapping(uint => uint)) private _ownedTokens;\r\n\r\n    mapping(address => mapping(uint => uint)) private _ownerToTokens;\r\n    mapping(uint => uint) private _idToOwnedIndex;\r\n\r\n\r\n    struct NftItem {\r\n        uint tokenId;\r\n        uint price;\r\n        address creator;\r\n        bool isListed;\r\n    }\r\n\r\n    event NftItemCreated (\r\n        uint tokenId,\r\n        uint price,\r\n        address creator,\r\n        bool isListed\r\n    );\r\n\r\n    constructor() ERC721(\"MNFT\", \"MNFT\"){}\r\n\r\n    function setListingPrice(uint newPrice) external onlyOwner {\r\n        require(newPrice>0,\"price must be at least 1 wei\");\r\n        listingPrice=newPrice;\r\n    }\r\n\r\n    function mintToken(string memory tokenURI, uint price) public payable returns (uint) {\r\n        require(!tokenURIExists(tokenURI), \"tokenURI already exists\");\r\n        require(msg.value == listingPrice, \"Price must be equal to listing price\");\r\n        _tokenIds.increment();\r\n        _listedItems.increment();\r\n\r\n        uint newTokenId = _tokenIds.current();\r\n        _safeMint(msg.sender, newTokenId);\r\n        _setTokenURI(newTokenId, tokenURI);\r\n        _usedTokenURIs[tokenURI] = true;\r\n\r\n        createNftItem(newTokenId, price);\r\n\r\n        return newTokenId;\r\n    }\r\n\r\n    function tokenURIExists(string memory tokenURI) public view returns (bool){\r\n        return _usedTokenURIs[tokenURI] == true;\r\n    }\r\n\r\n    function createNftItem(uint tokenId, uint price) private {\r\n        require(price > 0, \"Price must be at least 1 wei\");\r\n\r\n        _idToNftItem[tokenId] = NftItem(tokenId, price, msg.sender, true);\r\n        emit NftItemCreated(tokenId, price, msg.sender, true);\r\n    }\r\n\r\n    function getNftItem(uint tokenId) public view returns (NftItem memory) {\r\n        return _idToNftItem[tokenId];\r\n    }\r\n\r\n    function listItemsCount() public view returns (uint) {\r\n        return _listedItems.current();\r\n    }\r\n\r\n    function buyNft(uint tokenId) public payable {\r\n        uint price = _idToNftItem[tokenId].price;\r\n        address owner = ERC721.ownerOf(tokenId);\r\n\r\n        require(msg.sender != owner, \"You already own this NFT\");\r\n        require(msg.value == price, \"Please submit the asking price\");\r\n\r\n        _idToNftItem[tokenId].isListed = false;\r\n        _listedItems.decrement();\r\n\r\n        _transfer(owner, msg.sender, tokenId);\r\n        //give money to owner\r\n        payable(owner).transfer(msg.value);\r\n    }\r\n\r\n    function placeNftOnSale(uint tokenId, uint newPrice) public payable {\r\n        require(ERC721.ownerOf(tokenId)==msg.sender, \"not owner of this nft\");\r\n        require(_idToNftItem[tokenId].isListed==false,\"Item is already on sale\");\r\n        require(msg.value == listingPrice, \"Price must be equal to listing price\");\r\n\r\n        _idToNftItem[tokenId].isListed = true;\r\n        _idToNftItem[tokenId].price=newPrice;\r\n        _listedItems.increment();\r\n    }\r\n    function placeNftUnSale(uint tokenId) public payable {\r\n        require(ERC721.ownerOf(tokenId)==msg.sender, \"not owner of this nft\");\r\n        require(_idToNftItem[tokenId].isListed==true,\"Item is already unsale\");\r\n\r\n        _idToNftItem[tokenId].isListed = false;\r\n        _listedItems.decrement();\r\n\r\n    }\r\n\r\n    function burnToken(uint tokenId) public {\r\n        _burn(tokenId);\r\n    }\r\n\r\n    function totalSupply() public view returns (uint){\r\n        return _allNfts.length;\r\n    }\r\n\r\n    function getTokenByIndex(uint index) public view returns (uint){\r\n        require(index < totalSupply(), \"Index out of bounds\");\r\n        return _allNfts[index];\r\n    }\r\n\r\n    function getOwnedTokensByOwner(address owner) public view returns (uint[] memory){\r\n        uint length = ERC721.balanceOf(owner);\r\n        uint[] memory tokens = new uint[](length);\r\n        for (uint i = 0; i < length; i++) {\r\n            tokens[i] = _ownerToTokens[owner][i];\r\n        }\r\n        return tokens;\r\n    }\r\n\r\n    function getNftByToken(uint tokenId) public view returns (NftItem memory){\r\n        return _idToNftItem[tokenId];\r\n    }\r\n\r\n    function getAllNftOnSale() public view returns (NftItem[] memory){\r\n        uint allItemCount = totalSupply();\r\n        uint currentIndex = 0;\r\n        NftItem[] memory items = new NftItem[](_listedItems.current());\r\n        for (uint i = 0; i < allItemCount; i++) {\r\n            uint tokenId = getTokenByIndex(i);\r\n            NftItem memory item = _idToNftItem[tokenId];\r\n            if (item.isListed) {\r\n                items[currentIndex] = item;\r\n                currentIndex++;\r\n            }\r\n        }\r\n        return items;\r\n    }\r\n\r\n    function getAllNftByOwner() public view returns (NftItem[] memory){\r\n        uint[] memory tokens = getOwnedTokensByOwner(msg.sender);\r\n        uint length = tokens.length;\r\n        NftItem[] memory items = new NftItem[](length);\r\n        for (uint i = 0; i < length; i++) {\r\n\r\n            items[i] = getNftByToken(tokens[i]);\r\n        }\r\n        return items;\r\n    }\r\n\r\n    //the function is provided by ERC721, and will be used when mint\r\n    function _beforeTokenTransfer(address from, address to, uint tokenId, uint batchSize) internal virtual override {\r\n        super._beforeTokenTransfer(from, to, tokenId, batchSize);\r\n        // when mint a token, maintain the nft array and index\r\n        if (from == address(0)) {\r\n            _addTokenToAllTokensEnumeration(tokenId);\r\n        } else if (from != to) {\r\n            _removeTokenFromOwnerEnumeration(from, tokenId);\r\n        }\r\n        // when burn a token\r\n        if (to == address(0)) {\r\n            _removeTokenFromAllTokensEnumeration(tokenId);\r\n        } else if (to != from) {\r\n            _addTokenToOwnerEnumeration(to, tokenId);\r\n        }\r\n    }\r\n\r\n    function _addTokenToAllTokensEnumeration(uint tokenId) private {\r\n        _idToNftIndex[tokenId] = _allNfts.length;\r\n        _allNfts.push(tokenId);\r\n    }\r\n\r\n    function _addTokenToOwnerEnumeration(address to, uint tokenId) private {\r\n        uint length = ERC721.balanceOf(to);\r\n        _ownerToTokens[to][length] = tokenId;\r\n        _idToOwnedIndex[tokenId] = length;\r\n    }\r\n\r\n    function _removeTokenFromOwnerEnumeration(address from, uint tokenId) private {\r\n        uint lastTokenIndex = ERC721.balanceOf(from) - 1;\r\n        uint targetTokenIndex = _idToOwnedIndex[tokenId];\r\n        if (targetTokenIndex != lastTokenIndex) {\r\n            uint lastTokenId = _ownerToTokens[from][lastTokenIndex];\r\n            _ownerToTokens[from][targetTokenIndex] = lastTokenId;\r\n            _idToOwnedIndex[lastTokenId] = targetTokenIndex;\r\n        }\r\n        delete _idToOwnedIndex[tokenId];\r\n        delete _ownerToTokens[from][lastTokenIndex];\r\n    }\r\n\r\n    function _removeTokenFromAllTokensEnumeration(uint tokenId) private {\r\n        uint lastTokenIndex = _allNfts.length - 1;\r\n        uint targetTokenIndex = _idToNftIndex[tokenId];\r\n        uint lastTokenId = _allNfts[lastTokenIndex];\r\n\r\n        _allNfts[targetTokenIndex] = lastTokenId;\r\n        _idToNftIndex[lastTokenId] = targetTokenIndex;\r\n\r\n        delete _idToNftIndex[tokenId];\r\n        _allNfts.pop();\r\n    }\r\n\r\n\r\n}\r\n",
  "sourcePath": "C:\\project\\NTFmarket\\contracts\\NFTMarketplace.sol",
  "compiler": {
    "name": "solc",
    "version": "0.8.19+commit.7dd6d404.Emscripten.clang"
  },
  "schemaVersion": "3.4.13",
  "updatedAt": "2023-05-07T00:05:56.516Z",
  "networkType": "ethereum",
  "devdoc": {
    "events": {
      "Approval(address,address,uint256)": {
        "details": "Emitted when `owner` enables `approved` to manage the `tokenId` token."
      },
      "ApprovalForAll(address,address,bool)": {
        "details": "Emitted when `owner` enables or disables (`approved`) `operator` to manage all of its assets."
      },
      "Transfer(address,address,uint256)": {
        "details": "Emitted when `tokenId` token is transferred from `from` to `to`."
      }
    },
    "kind": "dev",
    "methods": {
      "approve(address,uint256)": {
        "details": "See {IERC721-approve}."
      },
      "balanceOf(address)": {
        "details": "See {IERC721-balanceOf}."
      },
      "getApproved(uint256)": {
        "details": "See {IERC721-getApproved}."
      },
      "isApprovedForAll(address,address)": {
        "details": "See {IERC721-isApprovedForAll}."
      },
      "name()": {
        "details": "See {IERC721Metadata-name}."
      },
      "owner()": {
        "details": "Returns the address of the current owner."
      },
      "ownerOf(uint256)": {
        "details": "See {IERC721-ownerOf}."
      },
      "renounceOwnership()": {
        "details": "Leaves the contract without owner. It will not be possible to call `onlyOwner` functions anymore. Can only be called by the current owner. NOTE: Renouncing ownership will leave the contract without an owner, thereby removing any functionality that is only available to the owner."
      },
      "safeTransferFrom(address,address,uint256)": {
        "details": "See {IERC721-safeTransferFrom}."
      },
      "safeTransferFrom(address,address,uint256,bytes)": {
        "details": "See {IERC721-safeTransferFrom}."
      },
      "setApprovalForAll(address,bool)": {
        "details": "See {IERC721-setApprovalForAll}."
      },
      "supportsInterface(bytes4)": {
        "details": "See {IERC165-supportsInterface}."
      },
      "symbol()": {
        "details": "See {IERC721Metadata-symbol}."
      },
      "tokenURI(uint256)": {
        "details": "See {IERC721Metadata-tokenURI}."
      },
      "transferFrom(address,address,uint256)": {
        "details": "See {IERC721-transferFrom}."
      },
      "transferOwnership(address)": {
        "details": "Transfers ownership of the contract to a new account (`newOwner`). Can only be called by the current owner."
      }
    },
    "version": 1
  },
  "userdoc": {
    "kind": "user",
    "methods": {},
    "version": 1
  }
}