{
  "contractName": "CustomERC721",
  "abi": [
    {
      "inputs": [],
      "stateMutability": "nonpayable",
      "type": "constructor"
    },
    {
      "anonymous": false,
      "inputs": [
        {
          "indexed": true,
          "internalType": "address",
          "name": "owner",
          "type": "address"
        },
        {
          "indexed": true,
          "internalType": "address",
          "name": "approved",
          "type": "address"
        },
        {
          "indexed": true,
          "internalType": "uint256",
          "name": "tokenId",
          "type": "uint256"
        }
      ],
      "name": "Approval",
      "type": "event"
    },
    {
      "anonymous": false,
      "inputs": [
        {
          "indexed": true,
          "internalType": "address",
          "name": "owner",
          "type": "address"
        },
        {
          "indexed": true,
          "internalType": "address",
          "name": "operator",
          "type": "address"
        },
        {
          "indexed": false,
          "internalType": "bool",
          "name": "approved",
          "type": "bool"
        }
      ],
      "name": "ApprovalForAll",
      "type": "event"
    },
    {
      "anonymous": false,
      "inputs": [
        {
          "indexed": true,
          "internalType": "uint256",
          "name": "tokenId",
          "type": "uint256"
        },
        {
          "indexed": false,
          "internalType": "uint256",
          "name": "price",
          "type": "uint256"
        }
      ],
      "name": "NFTListed",
      "type": "event"
    },
    {
      "anonymous": false,
      "inputs": [
        {
          "indexed": true,
          "internalType": "uint256",
          "name": "tokenId",
          "type": "uint256"
        }
      ],
      "name": "NFTUnlisted",
      "type": "event"
    },
    {
      "anonymous": false,
      "inputs": [
        {
          "indexed": true,
          "internalType": "address",
          "name": "from",
          "type": "address"
        },
        {
          "indexed": true,
          "internalType": "address",
          "name": "to",
          "type": "address"
        },
        {
          "indexed": true,
          "internalType": "uint256",
          "name": "tokenId",
          "type": "uint256"
        }
      ],
      "name": "Transfer",
      "type": "event"
    },
    {
      "inputs": [
        {
          "internalType": "address",
          "name": "to",
          "type": "address"
        },
        {
          "internalType": "uint256",
          "name": "tokenId",
          "type": "uint256"
        }
      ],
      "name": "approve",
      "outputs": [],
      "stateMutability": "nonpayable",
      "type": "function"
    },
    {
      "inputs": [
        {
          "internalType": "address",
          "name": "owner",
          "type": "address"
        }
      ],
      "name": "balanceOf",
      "outputs": [
        {
          "internalType": "uint256",
          "name": "",
          "type": "uint256"
        }
      ],
      "stateMutability": "view",
      "type": "function",
      "constant": true
    },
    {
      "inputs": [
        {
          "internalType": "uint256",
          "name": "tokenId",
          "type": "uint256"
        }
      ],
      "name": "getApproved",
      "outputs": [
        {
          "internalType": "address",
          "name": "",
          "type": "address"
        }
      ],
      "stateMutability": "view",
      "type": "function",
      "constant": true
    },
    {
      "inputs": [
        {
          "internalType": "address",
          "name": "owner",
          "type": "address"
        },
        {
          "internalType": "address",
          "name": "operator",
          "type": "address"
        }
      ],
      "name": "isApprovedForAll",
      "outputs": [
        {
          "internalType": "bool",
          "name": "",
          "type": "bool"
        }
      ],
      "stateMutability": "view",
      "type": "function",
      "constant": true
    },
    {
      "inputs": [],
      "name": "name",
      "outputs": [
        {
          "internalType": "string",
          "name": "",
          "type": "string"
        }
      ],
      "stateMutability": "view",
      "type": "function",
      "constant": true
    },
    {
      "inputs": [
        {
          "internalType": "uint256",
          "name": "tokenId",
          "type": "uint256"
        }
      ],
      "name": "ownerOf",
      "outputs": [
        {
          "internalType": "address",
          "name": "",
          "type": "address"
        }
      ],
      "stateMutability": "view",
      "type": "function",
      "constant": true
    },
    {
      "inputs": [
        {
          "internalType": "address",
          "name": "from",
          "type": "address"
        },
        {
          "internalType": "address",
          "name": "to",
          "type": "address"
        },
        {
          "internalType": "uint256",
          "name": "tokenId",
          "type": "uint256"
        }
      ],
      "name": "safeTransferFrom",
      "outputs": [],
      "stateMutability": "nonpayable",
      "type": "function"
    },
    {
      "inputs": [
        {
          "internalType": "address",
          "name": "from",
          "type": "address"
        },
        {
          "internalType": "address",
          "name": "to",
          "type": "address"
        },
        {
          "internalType": "uint256",
          "name": "tokenId",
          "type": "uint256"
        },
        {
          "internalType": "bytes",
          "name": "data",
          "type": "bytes"
        }
      ],
      "name": "safeTransferFrom",
      "outputs": [],
      "stateMutability": "nonpayable",
      "type": "function"
    },
    {
      "inputs": [
        {
          "internalType": "address",
          "name": "operator",
          "type": "address"
        },
        {
          "internalType": "bool",
          "name": "approved",
          "type": "bool"
        }
      ],
      "name": "setApprovalForAll",
      "outputs": [],
      "stateMutability": "nonpayable",
      "type": "function"
    },
    {
      "inputs": [
        {
          "internalType": "bytes4",
          "name": "interfaceId",
          "type": "bytes4"
        }
      ],
      "name": "supportsInterface",
      "outputs": [
        {
          "internalType": "bool",
          "name": "",
          "type": "bool"
        }
      ],
      "stateMutability": "view",
      "type": "function",
      "constant": true
    },
    {
      "inputs": [],
      "name": "symbol",
      "outputs": [
        {
          "internalType": "string",
          "name": "",
          "type": "string"
        }
      ],
      "stateMutability": "view",
      "type": "function",
      "constant": true
    },
    {
      "inputs": [
        {
          "internalType": "uint256",
          "name": "tokenId",
          "type": "uint256"
        }
      ],
      "name": "tokenURI",
      "outputs": [
        {
          "internalType": "string",
          "name": "",
          "type": "string"
        }
      ],
      "stateMutability": "view",
      "type": "function",
      "constant": true
    },
    {
      "inputs": [
        {
          "internalType": "address",
          "name": "from",
          "type": "address"
        },
        {
          "internalType": "address",
          "name": "to",
          "type": "address"
        },
        {
          "internalType": "uint256",
          "name": "tokenId",
          "type": "uint256"
        }
      ],
      "name": "transferFrom",
      "outputs": [],
      "stateMutability": "nonpayable",
      "type": "function"
    },
    {
      "inputs": [
        {
          "internalType": "uint256",
          "name": "id",
          "type": "uint256"
        },
        {
          "internalType": "string",
          "name": "name",
          "type": "string"
        },
        {
          "internalType": "string",
          "name": "description",
          "type": "string"
        }
      ],
      "name": "createNFT",
      "outputs": [],
      "stateMutability": "nonpayable",
      "type": "function"
    },
    {
      "inputs": [
        {
          "internalType": "address",
          "name": "to",
          "type": "address"
        },
        {
          "internalType": "uint256",
          "name": "tokenId",
          "type": "uint256"
        }
      ],
      "name": "transferNFT",
      "outputs": [],
      "stateMutability": "nonpayable",
      "type": "function"
    },
    {
      "inputs": [
        {
          "internalType": "uint256",
          "name": "tokenId",
          "type": "uint256"
        },
        {
          "internalType": "uint256",
          "name": "price",
          "type": "uint256"
        }
      ],
      "name": "listNFTForSale",
      "outputs": [],
      "stateMutability": "nonpayable",
      "type": "function"
    },
    {
      "inputs": [
        {
          "internalType": "uint256",
          "name": "tokenId",
          "type": "uint256"
        }
      ],
      "name": "removeNFTFromSale",
      "outputs": [],
      "stateMutability": "nonpayable",
      "type": "function"
    },
    {
      "inputs": [],
      "name": "showOnSaleNFTs",
      "outputs": [
        {
          "internalType": "uint256[]",
          "name": "",
          "type": "uint256[]"
        }
      ],
      "stateMutability": "view",
      "type": "function",
      "constant": true
    },
    {
      "inputs": [
        {
          "internalType": "uint256",
          "name": "tokenId",
          "type": "uint256"
        }
      ],
      "name": "purchaseNFT",
      "outputs": [],
      "stateMutability": "payable",
      "type": "function",
      "payable": true
    },
    {
      "inputs": [
        {
          "internalType": "uint256",
          "name": "tokenId",
          "type": "uint256"
        }
      ],
      "name": "getTokenPrice",
      "outputs": [
        {
          "internalType": "uint256",
          "name": "",
          "type": "uint256"
        }
      ],
      "stateMutability": "view",
      "type": "function",
      "constant": true
    },
    {
      "inputs": [
        {
          "internalType": "uint256",
          "name": "tokenId",
          "type": "uint256"
        }
      ],
      "name": "isTokenOnSale",
      "outputs": [
        {
          "internalType": "bool",
          "name": "",
          "type": "bool"
        }
      ],
      "stateMutability": "view",
      "type": "function",
      "constant": true
    }
  ],
  "bytecode": "0x60806040523480156200001157600080fd5b506040518060400160405280600c81526020017f437573746f6d45524337323100000000000000000000000000000000000000008152506040518060400160405280600481526020017f4337323100000000000000000000000000000000000000000000000000000000815250816000908051906020019062000096929190620000b8565b508060019080519060200190620000af929190620000b8565b505050620001cd565b828054620000c69062000168565b90600052602060002090601f016020900481019282620000ea576000855562000136565b82601f106200010557805160ff191683800117855562000136565b8280016001018555821562000136579182015b828111156200013557825182559160200191906001019062000118565b5b50905062000145919062000149565b5090565b5b80821115620001645760008160009055506001016200014a565b5090565b600060028204905060018216806200018157607f821691505b602082108114156200019857620001976200019e565b5b50919050565b7f4e487b7100000000000000000000000000000000000000000000000000000000600052602260045260246000fd5b613a3080620001dd6000396000f3fe60806040526004361061012a5760003560e01c806370a08231116100ab578063a22cb4651161006f578063a22cb465146103f3578063b2733b391461041c578063b88d4fde14610445578063c457fb371461046e578063c87b56dd146104ab578063e985e9c5146104e85761012a565b806370a08231146102fc57806394ab67fe14610339578063951fbdf01461036257806395d89b411461039f578063a02e5107146103ca5761012a565b8063150bde03116100f2578063150bde031461022657806323b872dd1461024257806342842e0e1461026b5780634ffb6ee9146102945780636352211e146102bf5761012a565b806301ffc9a71461012f578063043668811461016c57806306fdde0314610195578063081812fc146101c0578063095ea7b3146101fd575b600080fd5b34801561013b57600080fd5b50610156600480360381019061015191906128d1565b610525565b6040516101639190612f22565b60405180910390f35b34801561017857600080fd5b50610193600480360381019061018e919061294c565b610607565b005b3480156101a157600080fd5b506101aa61070a565b6040516101b79190612f3d565b60405180910390f35b3480156101cc57600080fd5b506101e760048036038101906101e29190612923565b61079c565b6040516101f49190612e99565b60405180910390f35b34801561020957600080fd5b50610224600480360381019061021f9190612895565b6107e2565b005b610240600480360381019061023b9190612923565b6108fa565b005b34801561024e57600080fd5b506102696004803603810190610264919061278f565b610b80565b005b34801561027757600080fd5b50610292600480360381019061028d919061278f565b610be0565b005b3480156102a057600080fd5b506102a9610c00565b6040516102b69190612f00565b60405180910390f35b3480156102cb57600080fd5b506102e660048036038101906102e19190612923565b610d80565b6040516102f39190612e99565b60405180910390f35b34801561030857600080fd5b50610323600480360381019061031e919061272a565b610e07565b60405161033091906131bf565b60405180910390f35b34801561034557600080fd5b50610360600480360381019061035b9190612895565b610ebf565b005b34801561036e57600080fd5b5061038960048036038101906103849190612923565b610fba565b6040516103969190612f22565b60405180910390f35b3480156103ab57600080fd5b506103b4610fe4565b6040516103c19190612f3d565b60405180910390f35b3480156103d657600080fd5b506103f160048036038101906103ec9190612923565b611076565b005b3480156103ff57600080fd5b5061041a60048036038101906104159190612859565b6111a8565b005b34801561042857600080fd5b50610443600480360381019061043e91906129cb565b6111be565b005b34801561045157600080fd5b5061046c600480360381019061046791906127de565b6112f7565b005b34801561047a57600080fd5b5061049560048036038101906104909190612923565b611359565b6040516104a291906131bf565b60405180910390f35b3480156104b757600080fd5b506104d260048036038101906104cd9190612923565b611376565b6040516104df9190612f3d565b60405180910390f35b3480156104f457600080fd5b5061050f600480360381019061050a9190612753565b611489565b60405161051c9190612f22565b60405180910390f35b60007f80ac58cd000000000000000000000000000000000000000000000000000000007bffffffffffffffffffffffffffffffffffffffffffffffffffffffff1916827bffffffffffffffffffffffffffffffffffffffffffffffffffffffff191614806105f057507f5b5e139f000000000000000000000000000000000000000000000000000000007bffffffffffffffffffffffffffffffffffffffffffffffffffffffff1916827bffffffffffffffffffffffffffffffffffffffffffffffffffffffff1916145b8061060057506105ff8261151d565b5b9050919050565b6000339050600073ffffffffffffffffffffffffffffffffffffffff168173ffffffffffffffffffffffffffffffffffffffff16141561067c576040517f08c379a0000000000000000000000000000000000000000000000000000000008152600401610673906130df565b60405180910390fd5b61068584611587565b156106c5576040517f08c379a00000000000000000000000000000000000000000000000000000000081526004016106bc9061309f565b60405180910390fd5b6106cf60076115c8565b6106d981856115de565b6107048484846040516020016106f0929190612e5f565b6040516020818303038152906040526115fc565b50505050565b606060008054610719906133c7565b80601f0160208091040260200160405190810160405280929190818152602001828054610745906133c7565b80156107925780601f1061076757610100808354040283529160200191610792565b820191906000526020600020905b81548152906001019060200180831161077557829003601f168201915b5050505050905090565b60006107a782611670565b6004600083815260200190815260200160002060009054906101000a900473ffffffffffffffffffffffffffffffffffffffff169050919050565b60006107ed82610d80565b90508073ffffffffffffffffffffffffffffffffffffffff168373ffffffffffffffffffffffffffffffffffffffff16141561085e576040517f08c379a00000000000000000000000000000000000000000000000000000000081526004016108559061313f565b60405180910390fd5b8073ffffffffffffffffffffffffffffffffffffffff1661087d6116bb565b73ffffffffffffffffffffffffffffffffffffffff1614806108ac57506108ab816108a66116bb565b611489565b5b6108eb576040517f08c379a00000000000000000000000000000000000000000000000000000000081526004016108e29061315f565b60405180910390fd5b6108f583836116c3565b505050565b6009600082815260200190815260200160002060009054906101000a900460ff1661095a576040517f08c379a00000000000000000000000000000000000000000000000000000000081526004016109519061319f565b60405180910390fd5b600061096582610d80565b9050600033905060086000848152602001908152602001600020548173ffffffffffffffffffffffffffffffffffffffff163110156109d9576040517f08c379a00000000000000000000000000000000000000000000000000000000081526004016109d09061307f565b60405180910390fd5b600073ffffffffffffffffffffffffffffffffffffffff168173ffffffffffffffffffffffffffffffffffffffff161415610a49576040517f08c379a0000000000000000000000000000000000000000000000000000000008152600401610a409061301f565b60405180910390fd5b610a5482828561177c565b6008600084815260200190815260200160002054341115610adc578073ffffffffffffffffffffffffffffffffffffffff166108fc610aaf600860008781526020019081526020016000205434611a7690919063ffffffff16565b9081150290604051600060405180830381858888f19350505050158015610ada573d6000803e3d6000fd5b505b8173ffffffffffffffffffffffffffffffffffffffff166108fc60086000868152602001908152602001600020549081150290604051600060405180830381858888f19350505050158015610b35573d6000803e3d6000fd5b5060006009600085815260200190815260200160002060006101000a81548160ff02191690831515021790555060006008600085815260200190815260200160002081905550505050565b610b91610b8b6116bb565b82611a8c565b610bd0576040517f08c379a0000000000000000000000000000000000000000000000000000000008152600401610bc790612f5f565b60405180910390fd5b610bdb83838361177c565b505050565b610bfb838383604051806020016040528060008152506112f7565b505050565b60606000805b610c106007611b21565b811015610c5f576009600082815260200190815260200160002060009054906101000a900460ff1615610c4c578180610c489061342a565b9250505b8080610c579061342a565b915050610c06565b5060008167ffffffffffffffff811115610ca2577f4e487b7100000000000000000000000000000000000000000000000000000000600052604160045260246000fd5b604051908082528060200260200182016040528015610cd05781602001602082028036833780820191505090505b5090506000805b610ce16007611b21565b811015610d76576009600082815260200190815260200160002060009054906101000a900460ff1615610d635780838381518110610d48577f4e487b7100000000000000000000000000000000000000000000000000000000600052603260045260246000fd5b6020026020010181815250508180610d5f9061342a565b9250505b8080610d6e9061342a565b915050610cd7565b5081935050505090565b600080610d8c83611b2f565b9050600073ffffffffffffffffffffffffffffffffffffffff168173ffffffffffffffffffffffffffffffffffffffff161415610dfe576040517f08c379a0000000000000000000000000000000000000000000000000000000008152600401610df5906130ff565b60405180910390fd5b80915050919050565b60008073ffffffffffffffffffffffffffffffffffffffff168273ffffffffffffffffffffffffffffffffffffffff161415610e78576040517f08c379a0000000000000000000000000000000000000000000000000000000008152600401610e6f9061303f565b60405180910390fd5b600360008373ffffffffffffffffffffffffffffffffffffffff1673ffffffffffffffffffffffffffffffffffffffff168152602001908152602001600020549050919050565b60003390508073ffffffffffffffffffffffffffffffffffffffff16610ee483610d80565b73ffffffffffffffffffffffffffffffffffffffff1614610f3a576040517f08c379a0000000000000000000000000000000000000000000000000000000008152600401610f319061317f565b60405180910390fd5b600073ffffffffffffffffffffffffffffffffffffffff168373ffffffffffffffffffffffffffffffffffffffff161415610faa576040517f08c379a0000000000000000000000000000000000000000000000000000000008152600401610fa19061301f565b60405180910390fd5b610fb581848461177c565b505050565b60006009600083815260200190815260200160002060009054906101000a900460ff169050919050565b606060018054610ff3906133c7565b80601f016020809104026020016040519081016040528092919081815260200182805461101f906133c7565b801561106c5780601f106110415761010080835404028352916020019161106c565b820191906000526020600020905b81548152906001019060200180831161104f57829003601f168201915b5050505050905090565b3373ffffffffffffffffffffffffffffffffffffffff1661109682610d80565b73ffffffffffffffffffffffffffffffffffffffff16146110ec576040517f08c379a00000000000000000000000000000000000000000000000000000000081526004016110e39061317f565b60405180910390fd5b6009600082815260200190815260200160002060009054906101000a900460ff1661114c576040517f08c379a00000000000000000000000000000000000000000000000000000000081526004016111439061319f565b60405180910390fd5b60006009600083815260200190815260200160002060006101000a81548160ff021916908315150217905550807fcd14eb7ebf273ed59a9fd1cf8651f3f40d9a04355b3511376f0d17b37ba224ff60405160405180910390a250565b6111ba6111b36116bb565b8383611b6c565b5050565b3373ffffffffffffffffffffffffffffffffffffffff166111de83610d80565b73ffffffffffffffffffffffffffffffffffffffff1614611234576040517f08c379a000000000000000000000000000000000000000000000000000000000815260040161122b9061317f565b60405180910390fd5b60008111611277576040517f08c379a000000000000000000000000000000000000000000000000000000000815260040161126e9061311f565b60405180910390fd5b80600860008481526020019081526020016000208190555060016009600084815260200190815260200160002060006101000a81548160ff021916908315150217905550817fa6cd73580a273eec6c1026108f6b63479fbaef5356dde4ff43e4b38dd187485f826040516112eb91906131bf565b60405180910390a25050565b6113086113026116bb565b83611a8c565b611347576040517f08c379a000000000000000000000000000000000000000000000000000000000815260040161133e90612f5f565b60405180910390fd5b61135384848484611cd9565b50505050565b600060086000838152602001908152602001600020549050919050565b606061138182611670565b60006006600084815260200190815260200160002080546113a1906133c7565b80601f01602080910402602001604051908101604052809291908181526020018280546113cd906133c7565b801561141a5780601f106113ef5761010080835404028352916020019161141a565b820191906000526020600020905b8154815290600101906020018083116113fd57829003601f168201915b50505050509050600061142b611d35565b9050600081511415611441578192505050611484565b60008251111561147657808260405160200161145e929190612e3b565b60405160208183030381529060405292505050611484565b61147f84611d4c565b925050505b919050565b6000600560008473ffffffffffffffffffffffffffffffffffffffff1673ffffffffffffffffffffffffffffffffffffffff16815260200190815260200160002060008373ffffffffffffffffffffffffffffffffffffffff1673ffffffffffffffffffffffffffffffffffffffff16815260200190815260200160002060009054906101000a900460ff16905092915050565b60007f01ffc9a7000000000000000000000000000000000000000000000000000000007bffffffffffffffffffffffffffffffffffffffffffffffffffffffff1916827bffffffffffffffffffffffffffffffffffffffffffffffffffffffff1916149050919050565b60008073ffffffffffffffffffffffffffffffffffffffff166115a983611b2f565b73ffffffffffffffffffffffffffffffffffffffff1614159050919050565b6001816000016000828254019250508190555050565b6115f8828260405180602001604052806000815250611db4565b5050565b61160582611587565b611644576040517f08c379a000000000000000000000000000000000000000000000000000000000815260040161163b9061305f565b60405180910390fd5b8060066000848152602001908152602001600020908051906020019061166b92919061254e565b505050565b61167981611587565b6116b8576040517f08c379a00000000000000000000000000000000000000000000000000000000081526004016116af906130ff565b60405180910390fd5b50565b600033905090565b816004600083815260200190815260200160002060006101000a81548173ffffffffffffffffffffffffffffffffffffffff021916908373ffffffffffffffffffffffffffffffffffffffff160217905550808273ffffffffffffffffffffffffffffffffffffffff1661173683610d80565b73ffffffffffffffffffffffffffffffffffffffff167f8c5be1e5ebec7d5bd14f71427d1e84f3dd0314c0f7b2291e5b200ac8c7c3b92560405160405180910390a45050565b8273ffffffffffffffffffffffffffffffffffffffff1661179c82610d80565b73ffffffffffffffffffffffffffffffffffffffff16146117f2576040517f08c379a00000000000000000000000000000000000000000000000000000000081526004016117e990612f9f565b60405180910390fd5b600073ffffffffffffffffffffffffffffffffffffffff168273ffffffffffffffffffffffffffffffffffffffff161415611862576040517f08c379a000000000000000000000000000000000000000000000000000000000815260040161185990612fdf565b60405180910390fd5b61186f8383836001611e0f565b8273ffffffffffffffffffffffffffffffffffffffff1661188f82610d80565b73ffffffffffffffffffffffffffffffffffffffff16146118e5576040517f08c379a00000000000000000000000000000000000000000000000000000000081526004016118dc90612f9f565b60405180910390fd5b6004600082815260200190815260200160002060006101000a81549073ffffffffffffffffffffffffffffffffffffffff02191690556001600360008573ffffffffffffffffffffffffffffffffffffffff1673ffffffffffffffffffffffffffffffffffffffff168152602001908152602001600020600082825403925050819055506001600360008473ffffffffffffffffffffffffffffffffffffffff1673ffffffffffffffffffffffffffffffffffffffff16815260200190815260200160002060008282540192505081905550816002600083815260200190815260200160002060006101000a81548173ffffffffffffffffffffffffffffffffffffffff021916908373ffffffffffffffffffffffffffffffffffffffff160217905550808273ffffffffffffffffffffffffffffffffffffffff168473ffffffffffffffffffffffffffffffffffffffff167fddf252ad1be2c89b69c2b068fc378daa952ba7f163c4a11628f55a4df523b3ef60405160405180910390a4611a718383836001611e15565b505050565b60008183611a8491906132dd565b905092915050565b600080611a9883610d80565b90508073ffffffffffffffffffffffffffffffffffffffff168473ffffffffffffffffffffffffffffffffffffffff161480611ada5750611ad98185611489565b5b80611b1857508373ffffffffffffffffffffffffffffffffffffffff16611b008461079c565b73ffffffffffffffffffffffffffffffffffffffff16145b91505092915050565b600081600001549050919050565b60006002600083815260200190815260200160002060009054906101000a900473ffffffffffffffffffffffffffffffffffffffff169050919050565b8173ffffffffffffffffffffffffffffffffffffffff168373ffffffffffffffffffffffffffffffffffffffff161415611bdb576040517f08c379a0000000000000000000000000000000000000000000000000000000008152600401611bd290612fff565b60405180910390fd5b80600560008573ffffffffffffffffffffffffffffffffffffffff1673ffffffffffffffffffffffffffffffffffffffff16815260200190815260200160002060008473ffffffffffffffffffffffffffffffffffffffff1673ffffffffffffffffffffffffffffffffffffffff16815260200190815260200160002060006101000a81548160ff0219169083151502179055508173ffffffffffffffffffffffffffffffffffffffff168373ffffffffffffffffffffffffffffffffffffffff167f17307eab39ab6107e8899845ad3d59bd9653f200f220920489ca2b5937696c3183604051611ccc9190612f22565b60405180910390a3505050565b611ce484848461177c565b611cf084848484611e1b565b611d2f576040517f08c379a0000000000000000000000000000000000000000000000000000000008152600401611d2690612f7f565b60405180910390fd5b50505050565b606060405180602001604052806000815250905090565b6060611d5782611670565b6000611d61611d35565b90506000815111611d815760405180602001604052806000815250611dac565b80611d8b84611fb2565b604051602001611d9c929190612e3b565b6040516020818303038152906040525b915050919050565b611dbe83836120d6565b611dcb6000848484611e1b565b611e0a576040517f08c379a0000000000000000000000000000000000000000000000000000000008152600401611e0190612f7f565b60405180910390fd5b505050565b50505050565b50505050565b6000611e3c8473ffffffffffffffffffffffffffffffffffffffff166122f4565b15611fa5578373ffffffffffffffffffffffffffffffffffffffff1663150b7a02611e656116bb565b8786866040518563ffffffff1660e01b8152600401611e879493929190612eb4565b602060405180830381600087803b158015611ea157600080fd5b505af1925050508015611ed257506040513d601f19601f82011682018060405250810190611ecf91906128fa565b60015b611f55573d8060008114611f02576040519150601f19603f3d011682016040523d82523d6000602084013e611f07565b606091505b50600081511415611f4d576040517f08c379a0000000000000000000000000000000000000000000000000000000008152600401611f4490612f7f565b60405180910390fd5b805181602001fd5b63150b7a0260e01b7bffffffffffffffffffffffffffffffffffffffffffffffffffffffff1916817bffffffffffffffffffffffffffffffffffffffffffffffffffffffff191614915050611faa565b600190505b949350505050565b606060006001611fc184612317565b01905060008167ffffffffffffffff811115612006577f4e487b7100000000000000000000000000000000000000000000000000000000600052604160045260246000fd5b6040519080825280601f01601f1916602001820160405280156120385781602001600182028036833780820191505090505b509050600082602001820190505b6001156120cb578080600190039150507f3031323334353637383961626364656600000000000000000000000000000000600a86061a8153600a85816120b5577f4e487b7100000000000000000000000000000000000000000000000000000000600052601260045260246000fd5b04945060008514156120c6576120cb565b612046565b819350505050919050565b600073ffffffffffffffffffffffffffffffffffffffff168273ffffffffffffffffffffffffffffffffffffffff161415612146576040517f08c379a000000000000000000000000000000000000000000000000000000000815260040161213d906130bf565b60405180910390fd5b61214f81611587565b1561218f576040517f08c379a000000000000000000000000000000000000000000000000000000000815260040161218690612fbf565b60405180910390fd5b61219d600083836001611e0f565b6121a681611587565b156121e6576040517f08c379a00000000000000000000000000000000000000000000000000000000081526004016121dd90612fbf565b60405180910390fd5b6001600360008473ffffffffffffffffffffffffffffffffffffffff1673ffffffffffffffffffffffffffffffffffffffff16815260200190815260200160002060008282540192505081905550816002600083815260200190815260200160002060006101000a81548173ffffffffffffffffffffffffffffffffffffffff021916908373ffffffffffffffffffffffffffffffffffffffff160217905550808273ffffffffffffffffffffffffffffffffffffffff16600073ffffffffffffffffffffffffffffffffffffffff167fddf252ad1be2c89b69c2b068fc378daa952ba7f163c4a11628f55a4df523b3ef60405160405180910390a46122f0600083836001611e15565b5050565b6000808273ffffffffffffffffffffffffffffffffffffffff163b119050919050565b600080600090507a184f03e93ff9f4daa797ed6e38ed64bf6a1f010000000000000000831061239b577a184f03e93ff9f4daa797ed6e38ed64bf6a1f0100000000000000008381612391577f4e487b7100000000000000000000000000000000000000000000000000000000600052601260045260246000fd5b0492506040810190505b6d04ee2d6d415b85acef810000000083106123fe576d04ee2d6d415b85acef810000000083816123f4577f4e487b7100000000000000000000000000000000000000000000000000000000600052601260045260246000fd5b0492506020810190505b662386f26fc10000831061245357662386f26fc100008381612449577f4e487b7100000000000000000000000000000000000000000000000000000000600052601260045260246000fd5b0492506010810190505b6305f5e10083106124a2576305f5e1008381612498577f4e487b7100000000000000000000000000000000000000000000000000000000600052601260045260246000fd5b0492506008810190505b61271083106124ed5761271083816124e3577f4e487b7100000000000000000000000000000000000000000000000000000000600052601260045260246000fd5b0492506004810190505b60648310612536576064838161252c577f4e487b7100000000000000000000000000000000000000000000000000000000600052601260045260246000fd5b0492506002810190505b600a8310612545576001810190505b80915050919050565b82805461255a906133c7565b90600052602060002090601f01602090048101928261257c57600085556125c3565b82601f1061259557805160ff19168380011785556125c3565b828001600101855582156125c3579182015b828111156125c25782518255916020019190600101906125a7565b5b5090506125d091906125d4565b5090565b5b808211156125ed5760008160009055506001016125d5565b5090565b60006126046125ff846131ff565b6131da565b90508281526020810184848401111561261c57600080fd5b612627848285613385565b509392505050565b600061264261263d84613230565b6131da565b90508281526020810184848401111561265a57600080fd5b612665848285613385565b509392505050565b60008135905061267c8161399e565b92915050565b600081359050612691816139b5565b92915050565b6000813590506126a6816139cc565b92915050565b6000815190506126bb816139cc565b92915050565b600082601f8301126126d257600080fd5b81356126e28482602086016125f1565b91505092915050565b600082601f8301126126fc57600080fd5b813561270c84826020860161262f565b91505092915050565b600081359050612724816139e3565b92915050565b60006020828403121561273c57600080fd5b600061274a8482850161266d565b91505092915050565b6000806040838503121561276657600080fd5b60006127748582860161266d565b92505060206127858582860161266d565b9150509250929050565b6000806000606084860312156127a457600080fd5b60006127b28682870161266d565b93505060206127c38682870161266d565b92505060406127d486828701612715565b9150509250925092565b600080600080608085870312156127f457600080fd5b60006128028782880161266d565b94505060206128138782880161266d565b935050604061282487828801612715565b925050606085013567ffffffffffffffff81111561284157600080fd5b61284d878288016126c1565b91505092959194509250565b6000806040838503121561286c57600080fd5b600061287a8582860161266d565b925050602061288b85828601612682565b9150509250929050565b600080604083850312156128a857600080fd5b60006128b68582860161266d565b92505060206128c785828601612715565b9150509250929050565b6000602082840312156128e357600080fd5b60006128f184828501612697565b91505092915050565b60006020828403121561290c57600080fd5b600061291a848285016126ac565b91505092915050565b60006020828403121561293557600080fd5b600061294384828501612715565b91505092915050565b60008060006060848603121561296157600080fd5b600061296f86828701612715565b935050602084013567ffffffffffffffff81111561298c57600080fd5b612998868287016126eb565b925050604084013567ffffffffffffffff8111156129b557600080fd5b6129c1868287016126eb565b9150509250925092565b600080604083850312156129de57600080fd5b60006129ec85828601612715565b92505060206129fd85828601612715565b9150509250929050565b6000612a138383612e1d565b60208301905092915050565b612a2881613311565b82525050565b6000612a3982613271565b612a43818561329f565b9350612a4e83613261565b8060005b83811015612a7f578151612a668882612a07565b9750612a7183613292565b925050600181019050612a52565b5085935050505092915050565b612a9581613323565b82525050565b6000612aa68261327c565b612ab081856132b0565b9350612ac0818560208601613394565b612ac981613500565b840191505092915050565b6000612adf82613287565b612ae981856132c1565b9350612af9818560208601613394565b612b0281613500565b840191505092915050565b6000612b1882613287565b612b2281856132d2565b9350612b32818560208601613394565b80840191505092915050565b6000612b4b602d836132c1565b9150612b5682613511565b604082019050919050565b6000612b6e6032836132c1565b9150612b7982613560565b604082019050919050565b6000612b916025836132c1565b9150612b9c826135af565b604082019050919050565b6000612bb4601c836132c1565b9150612bbf826135fe565b602082019050919050565b6000612bd76001836132d2565b9150612be282613627565b600182019050919050565b6000612bfa6024836132c1565b9150612c0582613650565b604082019050919050565b6000612c1d6019836132c1565b9150612c288261369f565b602082019050919050565b6000612c406020836132c1565b9150612c4b826136c8565b602082019050919050565b6000612c636029836132c1565b9150612c6e826136f1565b604082019050919050565b6000612c86602e836132c1565b9150612c9182613740565b604082019050919050565b6000612ca9601a836132c1565b9150612cb48261378f565b602082019050919050565b6000612ccc6012836132c1565b9150612cd7826137b8565b602082019050919050565b6000612cef6020836132c1565b9150612cfa826137e1565b602082019050919050565b6000612d126016836132c1565b9150612d1d8261380a565b602082019050919050565b6000612d356018836132c1565b9150612d4082613833565b602082019050919050565b6000612d586020836132c1565b9150612d638261385c565b602082019050919050565b6000612d7b6021836132c1565b9150612d8682613885565b604082019050919050565b6000612d9e601d836132d2565b9150612da9826138d4565b601d82019050919050565b6000612dc1603d836132c1565b9150612dcc826138fd565b604082019050919050565b6000612de46019836132c1565b9150612def8261394c565b602082019050919050565b6000612e076013836132c1565b9150612e1282613975565b602082019050919050565b612e268161337b565b82525050565b612e358161337b565b82525050565b6000612e478285612b0d565b9150612e538284612b0d565b91508190509392505050565b6000612e6a82612d91565b9150612e768285612b0d565b9150612e8182612bca565b9150612e8d8284612b0d565b91508190509392505050565b6000602082019050612eae6000830184612a1f565b92915050565b6000608082019050612ec96000830187612a1f565b612ed66020830186612a1f565b612ee36040830185612e2c565b8181036060830152612ef58184612a9b565b905095945050505050565b60006020820190508181036000830152612f1a8184612a2e565b905092915050565b6000602082019050612f376000830184612a8c565b92915050565b60006020820190508181036000830152612f578184612ad4565b905092915050565b60006020820190508181036000830152612f7881612b3e565b9050919050565b60006020820190508181036000830152612f9881612b61565b9050919050565b60006020820190508181036000830152612fb881612b84565b9050919050565b60006020820190508181036000830152612fd881612ba7565b9050919050565b60006020820190508181036000830152612ff881612bed565b9050919050565b6000602082019050818103600083015261301881612c10565b9050919050565b6000602082019050818103600083015261303881612c33565b9050919050565b6000602082019050818103600083015261305881612c56565b9050919050565b6000602082019050818103600083015261307881612c79565b9050919050565b6000602082019050818103600083015261309881612c9c565b9050919050565b600060208201905081810360008301526130b881612cbf565b9050919050565b600060208201905081810360008301526130d881612ce2565b9050919050565b600060208201905081810360008301526130f881612d05565b9050919050565b6000602082019050818103600083015261311881612d28565b9050919050565b6000602082019050818103600083015261313881612d4b565b9050919050565b6000602082019050818103600083015261315881612d6e565b9050919050565b6000602082019050818103600083015261317881612db4565b9050919050565b6000602082019050818103600083015261319881612dd7565b9050919050565b600060208201905081810360008301526131b881612dfa565b9050919050565b60006020820190506131d46000830184612e2c565b92915050565b60006131e46131f5565b90506131f082826133f9565b919050565b6000604051905090565b600067ffffffffffffffff82111561321a576132196134d1565b5b61322382613500565b9050602081019050919050565b600067ffffffffffffffff82111561324b5761324a6134d1565b5b61325482613500565b9050602081019050919050565b6000819050602082019050919050565b600081519050919050565b600081519050919050565b600081519050919050565b6000602082019050919050565b600082825260208201905092915050565b600082825260208201905092915050565b600082825260208201905092915050565b600081905092915050565b60006132e88261337b565b91506132f38361337b565b92508282101561330657613305613473565b5b828203905092915050565b600061331c8261335b565b9050919050565b60008115159050919050565b60007fffffffff0000000000000000000000000000000000000000000000000000000082169050919050565b600073ffffffffffffffffffffffffffffffffffffffff82169050919050565b6000819050919050565b82818337600083830152505050565b60005b838110156133b2578082015181840152602081019050613397565b838111156133c1576000848401525b50505050565b600060028204905060018216806133df57607f821691505b602082108114156133f3576133f26134a2565b5b50919050565b61340282613500565b810181811067ffffffffffffffff82111715613421576134206134d1565b5b80604052505050565b60006134358261337b565b91507fffffffffffffffffffffffffffffffffffffffffffffffffffffffffffffffff82141561346857613467613473565b5b600182019050919050565b7f4e487b7100000000000000000000000000000000000000000000000000000000600052601160045260246000fd5b7f4e487b7100000000000000000000000000000000000000000000000000000000600052602260045260246000fd5b7f4e487b7100000000000000000000000000000000000000000000000000000000600052604160045260246000fd5b6000601f19601f8301169050919050565b7f4552433732313a2063616c6c6572206973206e6f7420746f6b656e206f776e6560008201527f72206f7220617070726f76656400000000000000000000000000000000000000602082015250565b7f4552433732313a207472616e7366657220746f206e6f6e20455243373231526560008201527f63656976657220696d706c656d656e7465720000000000000000000000000000602082015250565b7f4552433732313a207472616e736665722066726f6d20696e636f72726563742060008201527f6f776e6572000000000000000000000000000000000000000000000000000000602082015250565b7f4552433732313a20746f6b656e20616c7265616479206d696e74656400000000600082015250565b7f2c00000000000000000000000000000000000000000000000000000000000000600082015250565b7f4552433732313a207472616e7366657220746f20746865207a65726f2061646460008201527f7265737300000000000000000000000000000000000000000000000000000000602082015250565b7f4552433732313a20617070726f766520746f2063616c6c657200000000000000600082015250565b7f43616e6e6f74207472616e7366657220746f207a65726f20616464726573732e600082015250565b7f4552433732313a2061646472657373207a65726f206973206e6f74206120766160008201527f6c6964206f776e65720000000000000000000000000000000000000000000000602082015250565b7f45524337323155524953746f726167653a2055524920736574206f66206e6f6e60008201527f6578697374656e7420746f6b656e000000000000000000000000000000000000602082015250565b7f4275796572277320455448206973206e6f7420656e6f7567682e000000000000600082015250565b7f494420616c7265616479206578697374732e0000000000000000000000000000600082015250565b7f4552433732313a206d696e7420746f20746865207a65726f2061646472657373600082015250565b7f496e636f7272656374204164647265737320496e666f00000000000000000000600082015250565b7f4552433732313a20696e76616c696420746f6b656e2049440000000000000000600082015250565b7f5072696365206d7573742062652067726561746572207468616e207a65726f2e600082015250565b7f4552433732313a20617070726f76616c20746f2063757272656e74206f776e6560008201527f7200000000000000000000000000000000000000000000000000000000000000602082015250565b7f646174613a6170706c69636174696f6e2f6a736f6e3b6261736536342c000000600082015250565b7f4552433732313a20617070726f76652063616c6c6572206973206e6f7420746f60008201527f6b656e206f776e6572206f7220617070726f76656420666f7220616c6c000000602082015250565b7f4e6f7420746865206f776e6572206f6620746865204e46542e00000000000000600082015250565b7f4e4654206973206e6f74206f6e2073616c652e00000000000000000000000000600082015250565b6139a781613311565b81146139b257600080fd5b50565b6139be81613323565b81146139c957600080fd5b50565b6139d58161332f565b81146139e057600080fd5b50565b6139ec8161337b565b81146139f757600080fd5b5056fea2646970667358221220bb361476aa678f5e97a00f24ec34d2f21b556c3187f6f8c3ba07c8324f984bc264736f6c63430008010033",
  "immutableReferences": {},
  "source": "// SPDX-License-Identifier: MIT\r\npragma solidity ^0.8.0;\r\n\r\nimport \"@openzeppelin/contracts/token/ERC721/ERC721.sol\";\r\nimport \"@openzeppelin/contracts/token/ERC721/extensions/ERC721URIStorage.sol\";\r\nimport \"@openzeppelin/contracts/utils/Counters.sol\";\r\nimport \"@openzeppelin/contracts/utils/math/SafeMath.sol\";\r\n\r\ncontract CustomERC721 is ERC721URIStorage {\r\n    using Counters for Counters.Counter;\r\n    using SafeMath for uint256;\r\n\r\n    Counters.Counter private _tokenIdCounter;\r\n    mapping(uint256 => uint256) private _tokenPrice;\r\n    mapping(uint256 => bool) private _tokenOnSale;\r\n\r\n    event NFTListed(uint256 indexed tokenId, uint256 price);\r\n    event NFTUnlisted(uint256 indexed tokenId);\r\n\r\n    constructor() ERC721(\"CustomERC721\", \"C721\") {}\r\n\r\n    function createNFT(uint256 id, string memory name, string memory description) public {\r\n        address owner = msg.sender;\r\n        require(owner != address(0), \"Incorrect Address Info\");\r\n        require(!_exists(id), \"ID already exists.\");\r\n        _tokenIdCounter.increment();\r\n        _safeMint(owner, id);\r\n        _setTokenURI(id, string(abi.encodePacked(\"data:application/json;base64,\", name, \",\", description)));\r\n    }\r\n\r\n    function transferNFT(address to, uint256 tokenId) public {\r\n        address from = msg.sender;\r\n        require(ownerOf(tokenId) == from, \"Not the owner of the NFT.\");\r\n        require(to != address(0), \"Cannot transfer to zero address.\");\r\n        _transfer(from, to, tokenId);\r\n    }\r\n\r\n    function listNFTForSale(uint256 tokenId, uint256 price) public {\r\n        require(ownerOf(tokenId) == msg.sender, \"Not the owner of the NFT.\");\r\n        require(price > 0, \"Price must be greater than zero.\");\r\n        _tokenPrice[tokenId] = price;\r\n        _tokenOnSale[tokenId] = true;\r\n        emit NFTListed(tokenId, price);\r\n    }\r\n\r\n    function removeNFTFromSale(uint256 tokenId) public {\r\n        require(ownerOf(tokenId) == msg.sender, \"Not the owner of the NFT.\");\r\n        require(_tokenOnSale[tokenId], \"NFT is not on sale.\");\r\n        _tokenOnSale[tokenId] = false;\r\n        emit NFTUnlisted(tokenId);\r\n    }\r\n\r\n    function showOnSaleNFTs() public view returns (uint256[] memory) {\r\n        uint256 onSaleCounter = 0;\r\n        for (uint256 i = 0; i < _tokenIdCounter.current(); i++) {\r\n            if (_tokenOnSale[i]) {\r\n                onSaleCounter++;\r\n            }\r\n        }\r\n\r\n        uint256[] memory onSaleNFTs = new uint256[](onSaleCounter);\r\n        uint256 index = 0;\r\n        for (uint256 i = 0; i < _tokenIdCounter.current(); i++) {\r\n            if (_tokenOnSale[i]) {\r\n                onSaleNFTs[index] = i;\r\n                index++;\r\n            }\r\n        }\r\n        return onSaleNFTs;\r\n    }\r\n\r\n    function purchaseNFT(uint256 tokenId) public payable {\r\n        require(_tokenOnSale[tokenId], \"NFT is not on sale.\");\r\n        address seller = ownerOf(tokenId);\r\n        address buyer = msg.sender;\r\n        require(buyer.balance >= _tokenPrice[tokenId], \"Buyer's ETH is not enough.\");\r\n        require(buyer != address(0), \"Cannot transfer to zero address.\");\r\n        _transfer(seller, buyer, tokenId);\r\n\r\n        if (msg.value > _tokenPrice[tokenId]) {\r\n            payable(buyer).transfer(msg.value.sub(_tokenPrice[tokenId]));\r\n        }\r\n        payable(seller).transfer(_tokenPrice[tokenId]);\r\n\r\n        _tokenOnSale[tokenId] = false;\r\n        _tokenPrice[tokenId] = 0;\r\n    }\r\n\r\n    function getTokenPrice(uint256 tokenId) public view returns (uint256) {\r\n        return _tokenPrice[tokenId];\r\n    }\r\n\r\n    function isTokenOnSale(uint256 tokenId) public view returns (bool) {\r\n        return _tokenOnSale[tokenId];\r\n    }\r\n}",
  "sourcePath": "C:\\Users\\11367\\nft-marketplace\\contracts\\CustomERC721.sol",
  "compiler": {
    "name": "solc",
    "version": "0.8.1+commit.df193b15.Emscripten.clang"
  },
  "schemaVersion": "3.4.13",
  "updatedAt": "2023-05-08T19:05:59.277Z",
  "networkType": "ethereum",
  "devdoc": {
    "kind": "dev",
    "methods": {
      "approve(address,uint256)": {
        "details": "See {IERC721-approve}."
      },
      "balanceOf(address)": {
        "details": "See {IERC721-balanceOf}."
      },
      "getApproved(uint256)": {
        "details": "See {IERC721-getApproved}."
      },
      "isApprovedForAll(address,address)": {
        "details": "See {IERC721-isApprovedForAll}."
      },
      "name()": {
        "details": "See {IERC721Metadata-name}."
      },
      "ownerOf(uint256)": {
        "details": "See {IERC721-ownerOf}."
      },
      "safeTransferFrom(address,address,uint256)": {
        "details": "See {IERC721-safeTransferFrom}."
      },
      "safeTransferFrom(address,address,uint256,bytes)": {
        "details": "See {IERC721-safeTransferFrom}."
      },
      "setApprovalForAll(address,bool)": {
        "details": "See {IERC721-setApprovalForAll}."
      },
      "supportsInterface(bytes4)": {
        "details": "See {IERC165-supportsInterface}."
      },
      "symbol()": {
        "details": "See {IERC721Metadata-symbol}."
      },
      "tokenURI(uint256)": {
        "details": "See {IERC721Metadata-tokenURI}."
      },
      "transferFrom(address,address,uint256)": {
        "details": "See {IERC721-transferFrom}."
      }
    },
    "version": 1
  },
  "userdoc": {
    "kind": "user",
    "methods": {},
    "version": 1
  }
}