{
  "_format": "hh-sol-artifact-1",
  "contractName": "NFT_Marketplace",
  "sourceName": "src/backend/contracts/NFT_Marketplace.sol",
  "abi": [
    {
      "inputs": [
        {
          "internalType": "uint256",
          "name": "_feePercent",
          "type": "uint256"
        }
      ],
      "stateMutability": "nonpayable",
      "type": "constructor"
    },
    {
      "anonymous": false,
      "inputs": [
        {
          "indexed": true,
          "internalType": "address",
          "name": "owner",
          "type": "address"
        },
        {
          "indexed": true,
          "internalType": "address",
          "name": "approved",
          "type": "address"
        },
        {
          "indexed": true,
          "internalType": "uint256",
          "name": "tokenId",
          "type": "uint256"
        }
      ],
      "name": "Approval",
      "type": "event"
    },
    {
      "anonymous": false,
      "inputs": [
        {
          "indexed": true,
          "internalType": "address",
          "name": "owner",
          "type": "address"
        },
        {
          "indexed": true,
          "internalType": "address",
          "name": "operator",
          "type": "address"
        },
        {
          "indexed": false,
          "internalType": "bool",
          "name": "approved",
          "type": "bool"
        }
      ],
      "name": "ApprovalForAll",
      "type": "event"
    },
    {
      "anonymous": false,
      "inputs": [
        {
          "indexed": true,
          "internalType": "uint256",
          "name": "tokenId",
          "type": "uint256"
        },
        {
          "indexed": false,
          "internalType": "uint256",
          "name": "namedId",
          "type": "uint256"
        },
        {
          "indexed": false,
          "internalType": "string",
          "name": "name",
          "type": "string"
        },
        {
          "indexed": false,
          "internalType": "string",
          "name": "description",
          "type": "string"
        },
        {
          "indexed": true,
          "internalType": "address",
          "name": "owner",
          "type": "address"
        },
        {
          "indexed": true,
          "internalType": "address",
          "name": "buyer",
          "type": "address"
        },
        {
          "indexed": false,
          "internalType": "uint256",
          "name": "price",
          "type": "uint256"
        }
      ],
      "name": "Bought",
      "type": "event"
    },
    {
      "anonymous": false,
      "inputs": [
        {
          "indexed": true,
          "internalType": "uint256",
          "name": "tokenId",
          "type": "uint256"
        },
        {
          "indexed": true,
          "internalType": "uint256",
          "name": "namedId",
          "type": "uint256"
        },
        {
          "indexed": false,
          "internalType": "string",
          "name": "name",
          "type": "string"
        },
        {
          "indexed": false,
          "internalType": "string",
          "name": "description",
          "type": "string"
        },
        {
          "indexed": true,
          "internalType": "address",
          "name": "owner",
          "type": "address"
        }
      ],
      "name": "Created",
      "type": "event"
    },
    {
      "anonymous": false,
      "inputs": [
        {
          "indexed": true,
          "internalType": "uint256",
          "name": "tokenId",
          "type": "uint256"
        },
        {
          "indexed": false,
          "internalType": "uint256",
          "name": "namedId",
          "type": "uint256"
        },
        {
          "indexed": false,
          "internalType": "string",
          "name": "name",
          "type": "string"
        },
        {
          "indexed": false,
          "internalType": "string",
          "name": "description",
          "type": "string"
        },
        {
          "indexed": true,
          "internalType": "address",
          "name": "sender",
          "type": "address"
        },
        {
          "indexed": false,
          "internalType": "address",
          "name": "receiver",
          "type": "address"
        }
      ],
      "name": "Gift",
      "type": "event"
    },
    {
      "anonymous": false,
      "inputs": [
        {
          "indexed": true,
          "internalType": "uint256",
          "name": "tokenId",
          "type": "uint256"
        },
        {
          "indexed": true,
          "internalType": "uint256",
          "name": "namedId",
          "type": "uint256"
        },
        {
          "indexed": false,
          "internalType": "string",
          "name": "name",
          "type": "string"
        },
        {
          "indexed": false,
          "internalType": "string",
          "name": "description",
          "type": "string"
        },
        {
          "indexed": true,
          "internalType": "address",
          "name": "owner",
          "type": "address"
        },
        {
          "indexed": false,
          "internalType": "uint256",
          "name": "price",
          "type": "uint256"
        }
      ],
      "name": "Offered",
      "type": "event"
    },
    {
      "anonymous": false,
      "inputs": [
        {
          "indexed": true,
          "internalType": "uint256",
          "name": "tokenId",
          "type": "uint256"
        },
        {
          "indexed": false,
          "internalType": "uint256",
          "name": "namedId",
          "type": "uint256"
        },
        {
          "indexed": false,
          "internalType": "string",
          "name": "name",
          "type": "string"
        },
        {
          "indexed": false,
          "internalType": "string",
          "name": "description",
          "type": "string"
        },
        {
          "indexed": true,
          "internalType": "address",
          "name": "owner",
          "type": "address"
        },
        {
          "indexed": false,
          "internalType": "uint256",
          "name": "price",
          "type": "uint256"
        }
      ],
      "name": "Recalled",
      "type": "event"
    },
    {
      "anonymous": false,
      "inputs": [
        {
          "indexed": true,
          "internalType": "address",
          "name": "from",
          "type": "address"
        },
        {
          "indexed": true,
          "internalType": "address",
          "name": "to",
          "type": "address"
        },
        {
          "indexed": true,
          "internalType": "uint256",
          "name": "tokenId",
          "type": "uint256"
        }
      ],
      "name": "Transfer",
      "type": "event"
    },
    {
      "inputs": [
        {
          "internalType": "address",
          "name": "to",
          "type": "address"
        },
        {
          "internalType": "uint256",
          "name": "tokenId",
          "type": "uint256"
        }
      ],
      "name": "approve",
      "outputs": [],
      "stateMutability": "nonpayable",
      "type": "function"
    },
    {
      "inputs": [
        {
          "internalType": "address",
          "name": "owner",
          "type": "address"
        }
      ],
      "name": "balanceOf",
      "outputs": [
        {
          "internalType": "uint256",
          "name": "",
          "type": "uint256"
        }
      ],
      "stateMutability": "view",
      "type": "function"
    },
    {
      "inputs": [
        {
          "internalType": "string",
          "name": "_tokenURI",
          "type": "string"
        },
        {
          "internalType": "uint256",
          "name": "namedId",
          "type": "uint256"
        },
        {
          "internalType": "string",
          "name": "name",
          "type": "string"
        },
        {
          "internalType": "string",
          "name": "description",
          "type": "string"
        }
      ],
      "name": "createNFT",
      "outputs": [
        {
          "internalType": "uint256",
          "name": "",
          "type": "uint256"
        }
      ],
      "stateMutability": "nonpayable",
      "type": "function"
    },
    {
      "inputs": [],
      "name": "feeAccount",
      "outputs": [
        {
          "internalType": "address payable",
          "name": "",
          "type": "address"
        }
      ],
      "stateMutability": "view",
      "type": "function"
    },
    {
      "inputs": [],
      "name": "feePercent",
      "outputs": [
        {
          "internalType": "uint256",
          "name": "",
          "type": "uint256"
        }
      ],
      "stateMutability": "view",
      "type": "function"
    },
    {
      "inputs": [
        {
          "internalType": "uint256",
          "name": "tokenId",
          "type": "uint256"
        }
      ],
      "name": "getApproved",
      "outputs": [
        {
          "internalType": "address",
          "name": "",
          "type": "address"
        }
      ],
      "stateMutability": "view",
      "type": "function"
    },
    {
      "inputs": [
        {
          "internalType": "uint256",
          "name": "_itemId",
          "type": "uint256"
        }
      ],
      "name": "getTotalPrice",
      "outputs": [
        {
          "internalType": "uint256",
          "name": "",
          "type": "uint256"
        }
      ],
      "stateMutability": "view",
      "type": "function"
    },
    {
      "inputs": [],
      "name": "id_limit",
      "outputs": [
        {
          "internalType": "uint256",
          "name": "",
          "type": "uint256"
        }
      ],
      "stateMutability": "view",
      "type": "function"
    },
    {
      "inputs": [
        {
          "internalType": "address",
          "name": "owner",
          "type": "address"
        },
        {
          "internalType": "address",
          "name": "operator",
          "type": "address"
        }
      ],
      "name": "isApprovedForAll",
      "outputs": [
        {
          "internalType": "bool",
          "name": "",
          "type": "bool"
        }
      ],
      "stateMutability": "view",
      "type": "function"
    },
    {
      "inputs": [
        {
          "internalType": "uint256",
          "name": "",
          "type": "uint256"
        }
      ],
      "name": "items",
      "outputs": [
        {
          "internalType": "uint256",
          "name": "tokenId",
          "type": "uint256"
        },
        {
          "internalType": "uint256",
          "name": "namedId",
          "type": "uint256"
        },
        {
          "internalType": "string",
          "name": "name",
          "type": "string"
        },
        {
          "internalType": "string",
          "name": "description",
          "type": "string"
        },
        {
          "internalType": "uint256",
          "name": "price",
          "type": "uint256"
        },
        {
          "internalType": "address payable",
          "name": "owner",
          "type": "address"
        },
        {
          "internalType": "bool",
          "name": "onsale",
          "type": "bool"
        }
      ],
      "stateMutability": "view",
      "type": "function"
    },
    {
      "inputs": [
        {
          "internalType": "uint256",
          "name": "_tokenId",
          "type": "uint256"
        },
        {
          "internalType": "uint256",
          "name": "_price",
          "type": "uint256"
        }
      ],
      "name": "listNFTForSale",
      "outputs": [],
      "stateMutability": "nonpayable",
      "type": "function"
    },
    {
      "inputs": [],
      "name": "name",
      "outputs": [
        {
          "internalType": "string",
          "name": "",
          "type": "string"
        }
      ],
      "stateMutability": "view",
      "type": "function"
    },
    {
      "inputs": [
        {
          "internalType": "uint256",
          "name": "tokenId",
          "type": "uint256"
        }
      ],
      "name": "ownerOf",
      "outputs": [
        {
          "internalType": "address",
          "name": "",
          "type": "address"
        }
      ],
      "stateMutability": "view",
      "type": "function"
    },
    {
      "inputs": [
        {
          "internalType": "uint256",
          "name": "_tokenId",
          "type": "uint256"
        }
      ],
      "name": "purchaseNFT",
      "outputs": [],
      "stateMutability": "payable",
      "type": "function"
    },
    {
      "inputs": [
        {
          "internalType": "uint256",
          "name": "_tokenId",
          "type": "uint256"
        }
      ],
      "name": "removeNFTFromSale",
      "outputs": [],
      "stateMutability": "nonpayable",
      "type": "function"
    },
    {
      "inputs": [
        {
          "internalType": "address",
          "name": "from",
          "type": "address"
        },
        {
          "internalType": "address",
          "name": "to",
          "type": "address"
        },
        {
          "internalType": "uint256",
          "name": "tokenId",
          "type": "uint256"
        }
      ],
      "name": "safeTransferFrom",
      "outputs": [],
      "stateMutability": "nonpayable",
      "type": "function"
    },
    {
      "inputs": [
        {
          "internalType": "address",
          "name": "from",
          "type": "address"
        },
        {
          "internalType": "address",
          "name": "to",
          "type": "address"
        },
        {
          "internalType": "uint256",
          "name": "tokenId",
          "type": "uint256"
        },
        {
          "internalType": "bytes",
          "name": "_data",
          "type": "bytes"
        }
      ],
      "name": "safeTransferFrom",
      "outputs": [],
      "stateMutability": "nonpayable",
      "type": "function"
    },
    {
      "inputs": [
        {
          "internalType": "address",
          "name": "operator",
          "type": "address"
        },
        {
          "internalType": "bool",
          "name": "approved",
          "type": "bool"
        }
      ],
      "name": "setApprovalForAll",
      "outputs": [],
      "stateMutability": "nonpayable",
      "type": "function"
    },
    {
      "inputs": [
        {
          "internalType": "bytes4",
          "name": "interfaceId",
          "type": "bytes4"
        }
      ],
      "name": "supportsInterface",
      "outputs": [
        {
          "internalType": "bool",
          "name": "",
          "type": "bool"
        }
      ],
      "stateMutability": "view",
      "type": "function"
    },
    {
      "inputs": [],
      "name": "symbol",
      "outputs": [
        {
          "internalType": "string",
          "name": "",
          "type": "string"
        }
      ],
      "stateMutability": "view",
      "type": "function"
    },
    {
      "inputs": [],
      "name": "tokenCount",
      "outputs": [
        {
          "internalType": "uint256",
          "name": "",
          "type": "uint256"
        }
      ],
      "stateMutability": "view",
      "type": "function"
    },
    {
      "inputs": [
        {
          "internalType": "uint256",
          "name": "tokenId",
          "type": "uint256"
        }
      ],
      "name": "tokenURI",
      "outputs": [
        {
          "internalType": "string",
          "name": "",
          "type": "string"
        }
      ],
      "stateMutability": "view",
      "type": "function"
    },
    {
      "inputs": [
        {
          "internalType": "address",
          "name": "from",
          "type": "address"
        },
        {
          "internalType": "address",
          "name": "to",
          "type": "address"
        },
        {
          "internalType": "uint256",
          "name": "tokenId",
          "type": "uint256"
        }
      ],
      "name": "transferFrom",
      "outputs": [],
      "stateMutability": "nonpayable",
      "type": "function"
    },
    {
      "inputs": [
        {
          "internalType": "uint256",
          "name": "_tokenId",
          "type": "uint256"
        },
        {
          "internalType": "address",
          "name": "receiver",
          "type": "address"
        }
      ],
      "name": "transferNFT",
      "outputs": [],
      "stateMutability": "nonpayable",
      "type": "function"
    }
  ],
  "bytecode": "0x60c06040526305f5e0ff6008553480156200001957600080fd5b50604051620049633803806200496383398181016040528101906200003f9190620001ec565b6040518060400160405280601481526020017f44417070204e46545f4d61726b6574706c6163650000000000000000000000008152506040518060400160405280600481526020017f44415050000000000000000000000000000000000000000000000000000000008152508160009080519060200190620000c392919062000125565b508060019080519060200190620000dc92919062000125565b5050503373ffffffffffffffffffffffffffffffffffffffff1660808173ffffffffffffffffffffffffffffffffffffffff1660601b815250508060a0818152505050620002a1565b828054620001339062000222565b90600052602060002090601f016020900481019282620001575760008555620001a3565b82601f106200017257805160ff1916838001178555620001a3565b82800160010185558215620001a3579182015b82811115620001a257825182559160200191906001019062000185565b5b509050620001b29190620001b6565b5090565b5b80821115620001d1576000816000905550600101620001b7565b5090565b600081519050620001e68162000287565b92915050565b600060208284031215620001ff57600080fd5b60006200020f84828501620001d5565b91505092915050565b6000819050919050565b600060028204905060018216806200023b57607f821691505b6020821081141562000252576200025162000258565b5b50919050565b7f4e487b7100000000000000000000000000000000000000000000000000000000600052602260045260246000fd5b620002928162000218565b81146200029e57600080fd5b50565b60805160601c60a05161468b620002d8600039600081816110a90152611cee015260008181610a950152610fc7015261468b6000f3fe60806040526004361061014b5760003560e01c80637fd6f15c116100b6578063b2733b391161006f578063b2733b3914610495578063b88d4fde146104be578063bfb231d2146104e7578063c87b56dd1461052a578063ca7dd37514610567578063e985e9c5146105a45761014b565b80637fd6f15c146103995780639036c050146103c457806395d89b41146103ed5780639f181b5e14610418578063a02e510714610443578063a22cb4651461046c5761014b565b80633db45b54116101085780633db45b541461026357806342842e0e146102a05780636352211e146102c957806365e17c9d146103065780636b23c94b1461033157806370a082311461035c5761014b565b806301ffc9a71461015057806306fdde031461018d578063081812fc146101b8578063095ea7b3146101f5578063150bde031461021e57806323b872dd1461023a575b600080fd5b34801561015c57600080fd5b5061017760048036038101906101729190612efd565b6105e1565b604051610184919061362e565b60405180910390f35b34801561019957600080fd5b506101a26106c3565b6040516101af9190613649565b60405180910390f35b3480156101c457600080fd5b506101df60048036038101906101da9190612ffa565b610755565b6040516101ec9190613575565b60405180910390f35b34801561020157600080fd5b5061021c60048036038101906102179190612ec1565b6107da565b005b61023860048036038101906102339190612ffa565b6108f2565b005b34801561024657600080fd5b50610261600480360381019061025c9190612dbb565b610c90565b005b34801561026f57600080fd5b5061028a60048036038101906102859190612f4f565b610cf0565b60405161029791906139e7565b60405180910390f35b3480156102ac57600080fd5b506102c760048036038101906102c29190612dbb565b610ef3565b005b3480156102d557600080fd5b506102f060048036038101906102eb9190612ffa565b610f13565b6040516102fd9190613575565b60405180910390f35b34801561031257600080fd5b5061031b610fc5565b6040516103289190613590565b60405180910390f35b34801561033d57600080fd5b50610346610fe9565b60405161035391906139e7565b60405180910390f35b34801561036857600080fd5b50610383600480360381019061037e9190612d56565b610fef565b60405161039091906139e7565b60405180910390f35b3480156103a557600080fd5b506103ae6110a7565b6040516103bb91906139e7565b60405180910390f35b3480156103d057600080fd5b506103eb60048036038101906103e69190613023565b6110cb565b005b3480156103f957600080fd5b50610402611399565b60405161040f9190613649565b60405180910390f35b34801561042457600080fd5b5061042d61142b565b60405161043a91906139e7565b60405180910390f35b34801561044f57600080fd5b5061046a60048036038101906104659190612ffa565b611431565b005b34801561047857600080fd5b50610493600480360381019061048e9190612e85565b6116c2565b005b3480156104a157600080fd5b506104bc60048036038101906104b7919061305f565b6116d8565b005b3480156104ca57600080fd5b506104e560048036038101906104e09190612e0a565b6119b5565b005b3480156104f357600080fd5b5061050e60048036038101906105099190612ffa565b611a17565b6040516105219796959493929190613aa8565b60405180910390f35b34801561053657600080fd5b50610551600480360381019061054c9190612ffa565b611b96565b60405161055e9190613649565b60405180910390f35b34801561057357600080fd5b5061058e60048036038101906105899190612ffa565b611ce8565b60405161059b91906139e7565b60405180910390f35b3480156105b057600080fd5b506105cb60048036038101906105c69190612d7f565b611d4b565b6040516105d8919061362e565b60405180910390f35b60007f80ac58cd000000000000000000000000000000000000000000000000000000007bffffffffffffffffffffffffffffffffffffffffffffffffffffffff1916827bffffffffffffffffffffffffffffffffffffffffffffffffffffffff191614806106ac57507f5b5e139f000000000000000000000000000000000000000000000000000000007bffffffffffffffffffffffffffffffffffffffffffffffffffffffff1916827bffffffffffffffffffffffffffffffffffffffffffffffffffffffff1916145b806106bc57506106bb82611ddf565b5b9050919050565b6060600080546106d290613e17565b80601f01602080910402602001604051908101604052809291908181526020018280546106fe90613e17565b801561074b5780601f106107205761010080835404028352916020019161074b565b820191906000526020600020905b81548152906001019060200180831161072e57829003601f168201915b5050505050905090565b600061076082611e49565b61079f576040517f08c379a000000000000000000000000000000000000000000000000000000000815260040161079690613907565b60405180910390fd5b6004600083815260200190815260200160002060009054906101000a900473ffffffffffffffffffffffffffffffffffffffff169050919050565b60006107e582610f13565b90508073ffffffffffffffffffffffffffffffffffffffff168373ffffffffffffffffffffffffffffffffffffffff161415610856576040517f08c379a000000000000000000000000000000000000000000000000000000000815260040161084d90613987565b60405180910390fd5b8073ffffffffffffffffffffffffffffffffffffffff16610875611eb5565b73ffffffffffffffffffffffffffffffffffffffff1614806108a457506108a38161089e611eb5565b611d4b565b5b6108e3576040517f08c379a00000000000000000000000000000000000000000000000000000000081526004016108da90613847565b60405180910390fd5b6108ed8383611ebd565b505050565b60008111801561090457506007548111155b610943576040517f08c379a000000000000000000000000000000000000000000000000000000000815260040161093a90613807565b60405180910390fd5b6000600960008381526020019081526020016000209050600061096583611ce8565b9050803410156109aa576040517f08c379a00000000000000000000000000000000000000000000000000000000081526004016109a1906137a7565b60405180910390fd5b8160050160149054906101000a900460ff166109fb576040517f08c379a00000000000000000000000000000000000000000000000000000000081526004016109f290613947565b60405180910390fd5b60008260050160009054906101000a900473ffffffffffffffffffffffffffffffffffffffff1690508260050160009054906101000a900473ffffffffffffffffffffffffffffffffffffffff1673ffffffffffffffffffffffffffffffffffffffff166108fc84600401549081150290604051600060405180830381858888f19350505050158015610a92573d6000803e3d6000fd5b507f000000000000000000000000000000000000000000000000000000000000000073ffffffffffffffffffffffffffffffffffffffff166108fc846004015484610add9190613ce5565b9081150290604051600060405180830381858888f19350505050158015610b08573d6000803e3d6000fd5b5060008360050160146101000a81548160ff0219169083151502179055503073ffffffffffffffffffffffffffffffffffffffff166323b872dd303386600001546040518463ffffffff1660e01b8152600401610b67939291906135ab565b600060405180830381600087803b158015610b8157600080fd5b505af1158015610b95573d6000803e3d6000fd5b50505050610ba68360000154610f13565b8360050160006101000a81548173ffffffffffffffffffffffffffffffffffffffff021916908373ffffffffffffffffffffffffffffffffffffffff1602179055508260050160009054906101000a900473ffffffffffffffffffffffffffffffffffffffff1673ffffffffffffffffffffffffffffffffffffffff168173ffffffffffffffffffffffffffffffffffffffff1684600001547faf3b4ae5b0dca26ba63d0da23251b9a733b8d76c666026c5727934078598c620866001015487600201886003018960040154604051610c829493929190613a55565b60405180910390a450505050565b610ca1610c9b611eb5565b82611f76565b610ce0576040517f08c379a0000000000000000000000000000000000000000000000000000000008152600401610cd7906139c7565b60405180910390fd5b610ceb838383612054565b505050565b600060076000815480929190610d0590613e7a565b9190505550610d16336007546122bb565b610d22600754866122d9565b6040518060e001604052806007548152602001858152602001848152602001838152602001600081526020013373ffffffffffffffffffffffffffffffffffffffff1681526020016000151581525060096000600754815260200190815260200160002060008201518160000155602082015181600101556040820151816002019080519060200190610db6929190612b7a565b506060820151816003019080519060200190610dd3929190612b7a565b506080820151816004015560a08201518160050160006101000a81548173ffffffffffffffffffffffffffffffffffffffff021916908373ffffffffffffffffffffffffffffffffffffffff16021790555060c08201518160050160146101000a81548160ff021916908315150217905550905050600060096000600754815260200190815260200160002090508060050160009054906101000a900473ffffffffffffffffffffffffffffffffffffffff1673ffffffffffffffffffffffffffffffffffffffff16816001015482600001547f76ce1f40d58a2502c5fa61546355d5833a4990afa6ab153b0acfd56475842b838460020185600301604051610edd92919061366b565b60405180910390a4600754915050949350505050565b610f0e838383604051806020016040528060008152506119b5565b505050565b6000806002600084815260200190815260200160002060009054906101000a900473ffffffffffffffffffffffffffffffffffffffff169050600073ffffffffffffffffffffffffffffffffffffffff168173ffffffffffffffffffffffffffffffffffffffff161415610fbc576040517f08c379a0000000000000000000000000000000000000000000000000000000008152600401610fb390613887565b60405180910390fd5b80915050919050565b7f000000000000000000000000000000000000000000000000000000000000000081565b60085481565b60008073ffffffffffffffffffffffffffffffffffffffff168273ffffffffffffffffffffffffffffffffffffffff161415611060576040517f08c379a000000000000000000000000000000000000000000000000000000000815260040161105790613867565b60405180910390fd5b600360008373ffffffffffffffffffffffffffffffffffffffff1673ffffffffffffffffffffffffffffffffffffffff168152602001908152602001600020549050919050565b7f000000000000000000000000000000000000000000000000000000000000000081565b6000821180156110dd57506007548211155b61111c576040517f08c379a000000000000000000000000000000000000000000000000000000000815260040161111390613807565b60405180910390fd5b60006009600084815260200190815260200160002090503373ffffffffffffffffffffffffffffffffffffffff168160050160009054906101000a900473ffffffffffffffffffffffffffffffffffffffff1673ffffffffffffffffffffffffffffffffffffffff16146111c5576040517f08c379a00000000000000000000000000000000000000000000000000000000081526004016111bc90613927565b60405180910390fd5b600015156009600085815260200190815260200160002060050160149054906101000a900460ff1615151461122f576040517f08c379a0000000000000000000000000000000000000000000000000000000008152600401611226906139a7565b60405180910390fd5b3373ffffffffffffffffffffffffffffffffffffffff1661124f84610f13565b73ffffffffffffffffffffffffffffffffffffffff16146112a5576040517f08c379a000000000000000000000000000000000000000000000000000000000815260040161129c906136e7565b60405180910390fd5b6112b0338385610c90565b6112b983610f13565b6009600085815260200190815260200160002060050160006101000a81548173ffffffffffffffffffffffffffffffffffffffff021916908373ffffffffffffffffffffffffffffffffffffffff1602179055503373ffffffffffffffffffffffffffffffffffffffff1681600001547f45af041b0e8e61ea725c2ad7079682bb8532d577794c59581a7ab1e7c6b73811836001015484600201856003018660050160009054906101000a900473ffffffffffffffffffffffffffffffffffffffff1660405161138c9493929190613a02565b60405180910390a3505050565b6060600180546113a890613e17565b80601f01602080910402602001604051908101604052809291908181526020018280546113d490613e17565b80156114215780601f106113f657610100808354040283529160200191611421565b820191906000526020600020905b81548152906001019060200180831161140457829003601f168201915b5050505050905090565b60075481565b60008111801561144357506007548111155b611482576040517f08c379a000000000000000000000000000000000000000000000000000000000815260040161147990613807565b60405180910390fd5b60006009600083815260200190815260200160002090503373ffffffffffffffffffffffffffffffffffffffff168160050160009054906101000a900473ffffffffffffffffffffffffffffffffffffffff1673ffffffffffffffffffffffffffffffffffffffff161461152b576040517f08c379a000000000000000000000000000000000000000000000000000000000815260040161152290613927565b60405180910390fd5b600115156009600084815260200190815260200160002060050160149054906101000a900460ff16151514611595576040517f08c379a000000000000000000000000000000000000000000000000000000000815260040161158c90613707565b60405180910390fd5b60006009600084815260200190815260200160002060050160146101000a81548160ff0219169083151502179055503073ffffffffffffffffffffffffffffffffffffffff166323b872dd3033856040518463ffffffff1660e01b8152600401611601939291906135ab565b600060405180830381600087803b15801561161b57600080fd5b505af115801561162f573d6000803e3d6000fd5b505050508060050160009054906101000a900473ffffffffffffffffffffffffffffffffffffffff1673ffffffffffffffffffffffffffffffffffffffff1681600001547f93d6ff2efa322d93047b490d3b62b188364683bf827ad0b9b462b2f464455b068360010154846002018560030186600401546040516116b69493929190613a55565b60405180910390a35050565b6116d46116cd611eb5565b838361234d565b5050565b6000811161171b576040517f08c379a000000000000000000000000000000000000000000000000000000000815260040161171290613727565b60405180910390fd5b60008211801561172d57506007548211155b61176c576040517f08c379a000000000000000000000000000000000000000000000000000000000815260040161176390613807565b60405180910390fd5b60006009600084815260200190815260200160002090503373ffffffffffffffffffffffffffffffffffffffff168160050160009054906101000a900473ffffffffffffffffffffffffffffffffffffffff1673ffffffffffffffffffffffffffffffffffffffff1614611815576040517f08c379a000000000000000000000000000000000000000000000000000000000815260040161180c90613927565b60405180910390fd5b600015156009600085815260200190815260200160002060050160149054906101000a900460ff1615151461187f576040517f08c379a0000000000000000000000000000000000000000000000000000000008152600401611876906139a7565b60405180910390fd5b3373ffffffffffffffffffffffffffffffffffffffff1661189f84610f13565b73ffffffffffffffffffffffffffffffffffffffff16146118f5576040517f08c379a00000000000000000000000000000000000000000000000000000000081526004016118ec906136e7565b60405180910390fd5b81816004018190555060018160050160146101000a81548160ff021916908315150217905550611926333085610c90565b8060050160009054906101000a900473ffffffffffffffffffffffffffffffffffffffff1673ffffffffffffffffffffffffffffffffffffffff16816001015482600001547f4a9801f9c6916b73eb60af04d471b9f0610d72f2deb269526f24113c2b5df798846002018560030186600401546040516119a8939291906136a2565b60405180910390a4505050565b6119c66119c0611eb5565b83611f76565b611a05576040517f08c379a00000000000000000000000000000000000000000000000000000000081526004016119fc906139c7565b60405180910390fd5b611a11848484846124ba565b50505050565b6009602052806000526040600020600091509050806000015490806001015490806002018054611a4690613e17565b80601f0160208091040260200160405190810160405280929190818152602001828054611a7290613e17565b8015611abf5780601f10611a9457610100808354040283529160200191611abf565b820191906000526020600020905b815481529060010190602001808311611aa257829003601f168201915b505050505090806003018054611ad490613e17565b80601f0160208091040260200160405190810160405280929190818152602001828054611b0090613e17565b8015611b4d5780601f10611b2257610100808354040283529160200191611b4d565b820191906000526020600020905b815481529060010190602001808311611b3057829003601f168201915b5050505050908060040154908060050160009054906101000a900473ffffffffffffffffffffffffffffffffffffffff16908060050160149054906101000a900460ff16905087565b6060611ba182611e49565b611be0576040517f08c379a0000000000000000000000000000000000000000000000000000000008152600401611bd7906138e7565b60405180910390fd5b6000600660008481526020019081526020016000208054611c0090613e17565b80601f0160208091040260200160405190810160405280929190818152602001828054611c2c90613e17565b8015611c795780601f10611c4e57610100808354040283529160200191611c79565b820191906000526020600020905b815481529060010190602001808311611c5c57829003601f168201915b505050505090506000611c8a612516565b9050600081511415611ca0578192505050611ce3565b600082511115611cd5578082604051602001611cbd929190613551565b60405160208183030381529060405292505050611ce3565b611cde8461252d565b925050505b919050565b600060647f00000000000000000000000000000000000000000000000000000000000000006064611d199190613c04565b6009600085815260200190815260200160002060040154611d3a9190613c8b565b611d449190613c5a565b9050919050565b6000600560008473ffffffffffffffffffffffffffffffffffffffff1673ffffffffffffffffffffffffffffffffffffffff16815260200190815260200160002060008373ffffffffffffffffffffffffffffffffffffffff1673ffffffffffffffffffffffffffffffffffffffff16815260200190815260200160002060009054906101000a900460ff16905092915050565b60007f01ffc9a7000000000000000000000000000000000000000000000000000000007bffffffffffffffffffffffffffffffffffffffffffffffffffffffff1916827bffffffffffffffffffffffffffffffffffffffffffffffffffffffff1916149050919050565b60008073ffffffffffffffffffffffffffffffffffffffff166002600084815260200190815260200160002060009054906101000a900473ffffffffffffffffffffffffffffffffffffffff1673ffffffffffffffffffffffffffffffffffffffff1614159050919050565b600033905090565b816004600083815260200190815260200160002060006101000a81548173ffffffffffffffffffffffffffffffffffffffff021916908373ffffffffffffffffffffffffffffffffffffffff160217905550808273ffffffffffffffffffffffffffffffffffffffff16611f3083610f13565b73ffffffffffffffffffffffffffffffffffffffff167f8c5be1e5ebec7d5bd14f71427d1e84f3dd0314c0f7b2291e5b200ac8c7c3b92560405160405180910390a45050565b6000611f8182611e49565b611fc0576040517f08c379a0000000000000000000000000000000000000000000000000000000008152600401611fb790613827565b60405180910390fd5b6000611fcb83610f13565b90508073ffffffffffffffffffffffffffffffffffffffff168473ffffffffffffffffffffffffffffffffffffffff16148061203a57508373ffffffffffffffffffffffffffffffffffffffff1661202284610755565b73ffffffffffffffffffffffffffffffffffffffff16145b8061204b575061204a8185611d4b565b5b91505092915050565b8273ffffffffffffffffffffffffffffffffffffffff1661207482610f13565b73ffffffffffffffffffffffffffffffffffffffff16146120ca576040517f08c379a00000000000000000000000000000000000000000000000000000000081526004016120c190613767565b60405180910390fd5b600073ffffffffffffffffffffffffffffffffffffffff168273ffffffffffffffffffffffffffffffffffffffff16141561213a576040517f08c379a0000000000000000000000000000000000000000000000000000000008152600401612131906137c7565b60405180910390fd5b6121458383836125d4565b612150600082611ebd565b6001600360008573ffffffffffffffffffffffffffffffffffffffff1673ffffffffffffffffffffffffffffffffffffffff16815260200190815260200160002060008282546121a09190613ce5565b925050819055506001600360008473ffffffffffffffffffffffffffffffffffffffff1673ffffffffffffffffffffffffffffffffffffffff16815260200190815260200160002060008282546121f79190613c04565b92505081905550816002600083815260200190815260200160002060006101000a81548173ffffffffffffffffffffffffffffffffffffffff021916908373ffffffffffffffffffffffffffffffffffffffff160217905550808273ffffffffffffffffffffffffffffffffffffffff168473ffffffffffffffffffffffffffffffffffffffff167fddf252ad1be2c89b69c2b068fc378daa952ba7f163c4a11628f55a4df523b3ef60405160405180910390a46122b68383836125d9565b505050565b6122d58282604051806020016040528060008152506125de565b5050565b6122e282611e49565b612321576040517f08c379a0000000000000000000000000000000000000000000000000000000008152600401612318906138a7565b60405180910390fd5b80600660008481526020019081526020016000209080519060200190612348929190612b7a565b505050565b8173ffffffffffffffffffffffffffffffffffffffff168373ffffffffffffffffffffffffffffffffffffffff1614156123bc576040517f08c379a00000000000000000000000000000000000000000000000000000000081526004016123b3906137e7565b60405180910390fd5b80600560008573ffffffffffffffffffffffffffffffffffffffff1673ffffffffffffffffffffffffffffffffffffffff16815260200190815260200160002060008473ffffffffffffffffffffffffffffffffffffffff1673ffffffffffffffffffffffffffffffffffffffff16815260200190815260200160002060006101000a81548160ff0219169083151502179055508173ffffffffffffffffffffffffffffffffffffffff168373ffffffffffffffffffffffffffffffffffffffff167f17307eab39ab6107e8899845ad3d59bd9653f200f220920489ca2b5937696c31836040516124ad919061362e565b60405180910390a3505050565b6124c5848484612054565b6124d184848484612639565b612510576040517f08c379a000000000000000000000000000000000000000000000000000000000815260040161250790613747565b60405180910390fd5b50505050565b606060405180602001604052806000815250905090565b606061253882611e49565b612577576040517f08c379a000000000000000000000000000000000000000000000000000000000815260040161256e90613967565b60405180910390fd5b6000612581612516565b905060008151116125a157604051806020016040528060008152506125cc565b806125ab846127d0565b6040516020016125bc929190613551565b6040516020818303038152906040525b915050919050565b505050565b505050565b6125e8838361297d565b6125f56000848484612639565b612634576040517f08c379a000000000000000000000000000000000000000000000000000000000815260040161262b90613747565b60405180910390fd5b505050565b600061265a8473ffffffffffffffffffffffffffffffffffffffff16612b57565b156127c3578373ffffffffffffffffffffffffffffffffffffffff1663150b7a02612683611eb5565b8786866040518563ffffffff1660e01b81526004016126a594939291906135e2565b602060405180830381600087803b1580156126bf57600080fd5b505af19250505080156126f057506040513d601f19601f820116820180604052508101906126ed9190612f26565b60015b612773573d8060008114612720576040519150601f19603f3d011682016040523d82523d6000602084013e612725565b606091505b5060008151141561276b576040517f08c379a000000000000000000000000000000000000000000000000000000000815260040161276290613747565b60405180910390fd5b805181602001fd5b63150b7a0260e01b7bffffffffffffffffffffffffffffffffffffffffffffffffffffffff1916817bffffffffffffffffffffffffffffffffffffffffffffffffffffffff1916149150506127c8565b600190505b949350505050565b60606000821415612818576040518060400160405280600181526020017f30000000000000000000000000000000000000000000000000000000000000008152509050612978565b600082905060005b6000821461284a57808061283390613e7a565b915050600a826128439190613c5a565b9150612820565b60008167ffffffffffffffff81111561288c577f4e487b7100000000000000000000000000000000000000000000000000000000600052604160045260246000fd5b6040519080825280601f01601f1916602001820160405280156128be5781602001600182028036833780820191505090505b5090505b60008514612971576001826128d79190613ce5565b9150600a856128e69190613ec3565b60306128f29190613c04565b60f81b81838151811061292e577f4e487b7100000000000000000000000000000000000000000000000000000000600052603260045260246000fd5b60200101907effffffffffffffffffffffffffffffffffffffffffffffffffffffffffffff1916908160001a905350600a8561296a9190613c5a565b94506128c2565b8093505050505b919050565b600073ffffffffffffffffffffffffffffffffffffffff168273ffffffffffffffffffffffffffffffffffffffff1614156129ed576040517f08c379a00000000000000000000000000000000000000000000000000000000081526004016129e4906138c7565b60405180910390fd5b6129f681611e49565b15612a36576040517f08c379a0000000000000000000000000000000000000000000000000000000008152600401612a2d90613787565b60405180910390fd5b612a42600083836125d4565b6001600360008473ffffffffffffffffffffffffffffffffffffffff1673ffffffffffffffffffffffffffffffffffffffff1681526020019081526020016000206000828254612a929190613c04565b92505081905550816002600083815260200190815260200160002060006101000a81548173ffffffffffffffffffffffffffffffffffffffff021916908373ffffffffffffffffffffffffffffffffffffffff160217905550808273ffffffffffffffffffffffffffffffffffffffff16600073ffffffffffffffffffffffffffffffffffffffff167fddf252ad1be2c89b69c2b068fc378daa952ba7f163c4a11628f55a4df523b3ef60405160405180910390a4612b53600083836125d9565b5050565b6000808273ffffffffffffffffffffffffffffffffffffffff163b119050919050565b828054612b8690613e17565b90600052602060002090601f016020900481019282612ba85760008555612bef565b82601f10612bc157805160ff1916838001178555612bef565b82800160010185558215612bef579182015b82811115612bee578251825591602001919060010190612bd3565b5b509050612bfc9190612c00565b5090565b5b80821115612c19576000816000905550600101612c01565b5090565b6000612c30612c2b84613b4a565b613b25565b905082815260208101848484011115612c4857600080fd5b612c53848285613dd5565b509392505050565b6000612c6e612c6984613b7b565b613b25565b905082815260208101848484011115612c8657600080fd5b612c91848285613dd5565b509392505050565b600081359050612ca8816145f9565b92915050565b600081359050612cbd81614610565b92915050565b600081359050612cd281614627565b92915050565b600081519050612ce781614627565b92915050565b600082601f830112612cfe57600080fd5b8135612d0e848260208601612c1d565b91505092915050565b600082601f830112612d2857600080fd5b8135612d38848260208601612c5b565b91505092915050565b600081359050612d508161463e565b92915050565b600060208284031215612d6857600080fd5b6000612d7684828501612c99565b91505092915050565b60008060408385031215612d9257600080fd5b6000612da085828601612c99565b9250506020612db185828601612c99565b9150509250929050565b600080600060608486031215612dd057600080fd5b6000612dde86828701612c99565b9350506020612def86828701612c99565b9250506040612e0086828701612d41565b9150509250925092565b60008060008060808587031215612e2057600080fd5b6000612e2e87828801612c99565b9450506020612e3f87828801612c99565b9350506040612e5087828801612d41565b925050606085013567ffffffffffffffff811115612e6d57600080fd5b612e7987828801612ced565b91505092959194509250565b60008060408385031215612e9857600080fd5b6000612ea685828601612c99565b9250506020612eb785828601612cae565b9150509250929050565b60008060408385031215612ed457600080fd5b6000612ee285828601612c99565b9250506020612ef385828601612d41565b9150509250929050565b600060208284031215612f0f57600080fd5b6000612f1d84828501612cc3565b91505092915050565b600060208284031215612f3857600080fd5b6000612f4684828501612cd8565b91505092915050565b60008060008060808587031215612f6557600080fd5b600085013567ffffffffffffffff811115612f7f57600080fd5b612f8b87828801612d17565b9450506020612f9c87828801612d41565b935050604085013567ffffffffffffffff811115612fb957600080fd5b612fc587828801612d17565b925050606085013567ffffffffffffffff811115612fe257600080fd5b612fee87828801612d17565b91505092959194509250565b60006020828403121561300c57600080fd5b600061301a84828501612d41565b91505092915050565b6000806040838503121561303657600080fd5b600061304485828601612d41565b925050602061305585828601612c99565b9150509250929050565b6000806040838503121561307257600080fd5b600061308085828601612d41565b925050602061309185828601612d41565b9150509250929050565b6130a481613d9f565b82525050565b6130b381613d2b565b82525050565b6130c281613d19565b82525050565b6130d181613d3d565b82525050565b60006130e282613bc1565b6130ec8185613bd7565b93506130fc818560208601613de4565b61310581613fb0565b840191505092915050565b600061311b82613bcc565b6131258185613be8565b9350613135818560208601613de4565b61313e81613fb0565b840191505092915050565b600061315482613bcc565b61315e8185613bf9565b935061316e818560208601613de4565b80840191505092915050565b6000815461318781613e17565b6131918186613be8565b945060018216600081146131ac57600181146131be576131f1565b60ff19831686526020860193506131f1565b6131c785613bac565b60005b838110156131e9578154818901526001820191506020810190506131ca565b808801955050505b50505092915050565b6000613207601783613be8565b915061321282613fc1565b602082019050919050565b600061322a601f83613be8565b915061323582613fea565b602082019050919050565b600061324d601f83613be8565b915061325882614013565b602082019050919050565b6000613270603283613be8565b915061327b8261403c565b604082019050919050565b6000613293602583613be8565b915061329e8261408b565b604082019050919050565b60006132b6601c83613be8565b91506132c1826140da565b602082019050919050565b60006132d9603383613be8565b91506132e482614103565b604082019050919050565b60006132fc602483613be8565b915061330782614152565b604082019050919050565b600061331f601983613be8565b915061332a826141a1565b602082019050919050565b6000613342600f83613be8565b915061334d826141ca565b602082019050919050565b6000613365602c83613be8565b9150613370826141f3565b604082019050919050565b6000613388603883613be8565b915061339382614242565b604082019050919050565b60006133ab602a83613be8565b91506133b682614291565b604082019050919050565b60006133ce602983613be8565b91506133d9826142e0565b604082019050919050565b60006133f1602e83613be8565b91506133fc8261432f565b604082019050919050565b6000613414602083613be8565b915061341f8261437e565b602082019050919050565b6000613437603183613be8565b9150613442826143a7565b604082019050919050565b600061345a602c83613be8565b9150613465826143f6565b604082019050919050565b600061347d602283613be8565b915061348882614445565b604082019050919050565b60006134a0602083613be8565b91506134ab82614494565b602082019050919050565b60006134c3602f83613be8565b91506134ce826144bd565b604082019050919050565b60006134e6602183613be8565b91506134f18261450c565b604082019050919050565b6000613509602c83613be8565b91506135148261455b565b604082019050919050565b600061352c603183613be8565b9150613537826145aa565b604082019050919050565b61354b81613d95565b82525050565b600061355d8285613149565b91506135698284613149565b91508190509392505050565b600060208201905061358a60008301846130b9565b92915050565b60006020820190506135a560008301846130aa565b92915050565b60006060820190506135c060008301866130b9565b6135cd60208301856130b9565b6135da6040830184613542565b949350505050565b60006080820190506135f760008301876130b9565b61360460208301866130b9565b6136116040830185613542565b818103606083015261362381846130d7565b905095945050505050565b600060208201905061364360008301846130c8565b92915050565b600060208201905081810360008301526136638184613110565b905092915050565b60006040820190508181036000830152613685818561317a565b90508181036020830152613699818461317a565b90509392505050565b600060608201905081810360008301526136bc818661317a565b905081810360208301526136d0818561317a565b90506136df6040830184613542565b949350505050565b60006020820190508181036000830152613700816131fa565b9050919050565b600060208201905081810360008301526137208161321d565b9050919050565b6000602082019050818103600083015261374081613240565b9050919050565b6000602082019050818103600083015261376081613263565b9050919050565b6000602082019050818103600083015261378081613286565b9050919050565b600060208201905081810360008301526137a0816132a9565b9050919050565b600060208201905081810360008301526137c0816132cc565b9050919050565b600060208201905081810360008301526137e0816132ef565b9050919050565b6000602082019050818103600083015261380081613312565b9050919050565b6000602082019050818103600083015261382081613335565b9050919050565b6000602082019050818103600083015261384081613358565b9050919050565b600060208201905081810360008301526138608161337b565b9050919050565b600060208201905081810360008301526138808161339e565b9050919050565b600060208201905081810360008301526138a0816133c1565b9050919050565b600060208201905081810360008301526138c0816133e4565b9050919050565b600060208201905081810360008301526138e081613407565b9050919050565b600060208201905081810360008301526139008161342a565b9050919050565b600060208201905081810360008301526139208161344d565b9050919050565b6000602082019050818103600083015261394081613470565b9050919050565b6000602082019050818103600083015261396081613493565b9050919050565b60006020820190508181036000830152613980816134b6565b9050919050565b600060208201905081810360008301526139a0816134d9565b9050919050565b600060208201905081810360008301526139c0816134fc565b9050919050565b600060208201905081810360008301526139e08161351f565b9050919050565b60006020820190506139fc6000830184613542565b92915050565b6000608082019050613a176000830187613542565b8181036020830152613a29818661317a565b90508181036040830152613a3d818561317a565b9050613a4c606083018461309b565b95945050505050565b6000608082019050613a6a6000830187613542565b8181036020830152613a7c818661317a565b90508181036040830152613a90818561317a565b9050613a9f6060830184613542565b95945050505050565b600060e082019050613abd600083018a613542565b613aca6020830189613542565b8181036040830152613adc8188613110565b90508181036060830152613af08187613110565b9050613aff6080830186613542565b613b0c60a08301856130aa565b613b1960c08301846130c8565b98975050505050505050565b6000613b2f613b40565b9050613b3b8282613e49565b919050565b6000604051905090565b600067ffffffffffffffff821115613b6557613b64613f81565b5b613b6e82613fb0565b9050602081019050919050565b600067ffffffffffffffff821115613b9657613b95613f81565b5b613b9f82613fb0565b9050602081019050919050565b60008190508160005260206000209050919050565b600081519050919050565b600081519050919050565b600082825260208201905092915050565b600082825260208201905092915050565b600081905092915050565b6000613c0f82613d95565b9150613c1a83613d95565b9250827fffffffffffffffffffffffffffffffffffffffffffffffffffffffffffffffff03821115613c4f57613c4e613ef4565b5b828201905092915050565b6000613c6582613d95565b9150613c7083613d95565b925082613c8057613c7f613f23565b5b828204905092915050565b6000613c9682613d95565b9150613ca183613d95565b9250817fffffffffffffffffffffffffffffffffffffffffffffffffffffffffffffffff0483118215151615613cda57613cd9613ef4565b5b828202905092915050565b6000613cf082613d95565b9150613cfb83613d95565b925082821015613d0e57613d0d613ef4565b5b828203905092915050565b6000613d2482613d75565b9050919050565b6000613d3682613d75565b9050919050565b60008115159050919050565b60007fffffffff0000000000000000000000000000000000000000000000000000000082169050919050565b600073ffffffffffffffffffffffffffffffffffffffff82169050919050565b6000819050919050565b6000613daa82613db1565b9050919050565b6000613dbc82613dc3565b9050919050565b6000613dce82613d75565b9050919050565b82818337600083830152505050565b60005b83811015613e02578082015181840152602081019050613de7565b83811115613e11576000848401525b50505050565b60006002820490506001821680613e2f57607f821691505b60208210811415613e4357613e42613f52565b5b50919050565b613e5282613fb0565b810181811067ffffffffffffffff82111715613e7157613e70613f81565b5b80604052505050565b6000613e8582613d95565b91507fffffffffffffffffffffffffffffffffffffffffffffffffffffffffffffffff821415613eb857613eb7613ef4565b5b600182019050919050565b6000613ece82613d95565b9150613ed983613d95565b925082613ee957613ee8613f23565b5b828206905092915050565b7f4e487b7100000000000000000000000000000000000000000000000000000000600052601160045260246000fd5b7f4e487b7100000000000000000000000000000000000000000000000000000000600052601260045260246000fd5b7f4e487b7100000000000000000000000000000000000000000000000000000000600052602260045260246000fd5b7f4e487b7100000000000000000000000000000000000000000000000000000000600052604160045260246000fd5b6000601f19601f8301169050919050565b7f6f776e65724f66285f746f6b656e496429206661696c73000000000000000000600082015250565b7f54686973204e465420697320616c7265616479206e6f74206f6e2073616c6500600082015250565b7f5072696365206d7573742062652067726561746572207468616e207a65726f00600082015250565b7f4552433732313a207472616e7366657220746f206e6f6e20455243373231526560008201527f63656976657220696d706c656d656e7465720000000000000000000000000000602082015250565b7f4552433732313a207472616e736665722066726f6d20696e636f72726563742060008201527f6f776e6572000000000000000000000000000000000000000000000000000000602082015250565b7f4552433732313a20746f6b656e20616c7265616479206d696e74656400000000600082015250565b7f6e6f7420656e6f75676820657468657220746f20636f766572206974656d207060008201527f7269636520616e64206d61726b65742066656500000000000000000000000000602082015250565b7f4552433732313a207472616e7366657220746f20746865207a65726f2061646460008201527f7265737300000000000000000000000000000000000000000000000000000000602082015250565b7f4552433732313a20617070726f766520746f2063616c6c657200000000000000600082015250565b7f496e76616c696420746f6b656e49640000000000000000000000000000000000600082015250565b7f4552433732313a206f70657261746f7220717565727920666f72206e6f6e657860008201527f697374656e7420746f6b656e0000000000000000000000000000000000000000602082015250565b7f4552433732313a20617070726f76652063616c6c6572206973206e6f74206f7760008201527f6e6572206e6f7220617070726f76656420666f7220616c6c0000000000000000602082015250565b7f4552433732313a2062616c616e636520717565727920666f7220746865207a6560008201527f726f206164647265737300000000000000000000000000000000000000000000602082015250565b7f4552433732313a206f776e657220717565727920666f72206e6f6e657869737460008201527f656e7420746f6b656e0000000000000000000000000000000000000000000000602082015250565b7f45524337323155524953746f726167653a2055524920736574206f66206e6f6e60008201527f6578697374656e7420746f6b656e000000000000000000000000000000000000602082015250565b7f4552433732313a206d696e7420746f20746865207a65726f2061646472657373600082015250565b7f45524337323155524953746f726167653a2055524920717565727920666f722060008201527f6e6f6e6578697374656e7420746f6b656e000000000000000000000000000000602082015250565b7f4552433732313a20617070726f76656420717565727920666f72206e6f6e657860008201527f697374656e7420746f6b656e0000000000000000000000000000000000000000602082015250565b7f596f7572206164647265737320646f6573206e6f74206f776e2074686973204e60008201527f4654000000000000000000000000000000000000000000000000000000000000602082015250565b7f6974656d20616c726561647920736f6c64202f206e6f7420666f722073616c65600082015250565b7f4552433732314d657461646174613a2055524920717565727920666f72206e6f60008201527f6e6578697374656e7420746f6b656e0000000000000000000000000000000000602082015250565b7f4552433732313a20617070726f76616c20746f2063757272656e74206f776e6560008201527f7200000000000000000000000000000000000000000000000000000000000000602082015250565b7f54686973204e465420697320616c7265616479206f6e2073616c652e2052656360008201527f616c6c2069742066697273740000000000000000000000000000000000000000602082015250565b7f4552433732313a207472616e736665722063616c6c6572206973206e6f74206f60008201527f776e6572206e6f7220617070726f766564000000000000000000000000000000602082015250565b61460281613d19565b811461460d57600080fd5b50565b61461981613d3d565b811461462457600080fd5b50565b61463081613d49565b811461463b57600080fd5b50565b61464781613d95565b811461465257600080fd5b5056fea2646970667358221220706e5e6d75077e6a6cf2a24b7043aa756e60c700442199d3a59277c5b101e79864736f6c63430008040033",
  "linkReferences": {},
  "deployedLinkReferences": {}
}