{
  "_format": "hh-sol-artifact-1",
  "contractName": "PaintingNFTContract",
  "sourceName": "src/backend/contracts/PaintingNFTContract.sol",
  "abi": [
    {
      "inputs": [
        {
          "internalType": "address",
          "name": "_operator",
          "type": "address"
        },
        {
          "internalType": "uint256",
          "name": "_tax",
          "type": "uint256"
        }
      ],
      "stateMutability": "nonpayable",
      "type": "constructor"
    },
    {
      "anonymous": false,
      "inputs": [
        {
          "indexed": true,
          "internalType": "address",
          "name": "owner",
          "type": "address"
        },
        {
          "indexed": true,
          "internalType": "address",
          "name": "approved",
          "type": "address"
        },
        {
          "indexed": true,
          "internalType": "uint256",
          "name": "tokenId",
          "type": "uint256"
        }
      ],
      "name": "Approval",
      "type": "event"
    },
    {
      "anonymous": false,
      "inputs": [
        {
          "indexed": true,
          "internalType": "address",
          "name": "owner",
          "type": "address"
        },
        {
          "indexed": true,
          "internalType": "address",
          "name": "operator",
          "type": "address"
        },
        {
          "indexed": false,
          "internalType": "bool",
          "name": "approved",
          "type": "bool"
        }
      ],
      "name": "ApprovalForAll",
      "type": "event"
    },
    {
      "anonymous": false,
      "inputs": [
        {
          "indexed": true,
          "internalType": "uint256",
          "name": "tokenID",
          "type": "uint256"
        },
        {
          "indexed": true,
          "internalType": "address",
          "name": "seller",
          "type": "address"
        },
        {
          "indexed": false,
          "internalType": "address",
          "name": "buyer",
          "type": "address"
        },
        {
          "indexed": false,
          "internalType": "uint256",
          "name": "price",
          "type": "uint256"
        }
      ],
      "name": "BoughtEvent",
      "type": "event"
    },
    {
      "anonymous": false,
      "inputs": [
        {
          "indexed": true,
          "internalType": "uint256",
          "name": "tokenId",
          "type": "uint256"
        }
      ],
      "name": "CancelListedEvent",
      "type": "event"
    },
    {
      "anonymous": false,
      "inputs": [
        {
          "indexed": true,
          "internalType": "uint256",
          "name": "tokenId",
          "type": "uint256"
        },
        {
          "indexed": true,
          "internalType": "address",
          "name": "seller",
          "type": "address"
        },
        {
          "indexed": false,
          "internalType": "uint256",
          "name": "price",
          "type": "uint256"
        }
      ],
      "name": "ListedEvent",
      "type": "event"
    },
    {
      "anonymous": false,
      "inputs": [
        {
          "indexed": true,
          "internalType": "address",
          "name": "previousOwner",
          "type": "address"
        },
        {
          "indexed": true,
          "internalType": "address",
          "name": "newOwner",
          "type": "address"
        }
      ],
      "name": "OwnershipTransferred",
      "type": "event"
    },
    {
      "anonymous": false,
      "inputs": [
        {
          "indexed": true,
          "internalType": "address",
          "name": "from",
          "type": "address"
        },
        {
          "indexed": true,
          "internalType": "address",
          "name": "to",
          "type": "address"
        },
        {
          "indexed": true,
          "internalType": "uint256",
          "name": "tokenId",
          "type": "uint256"
        }
      ],
      "name": "Transfer",
      "type": "event"
    },
    {
      "inputs": [
        {
          "internalType": "address",
          "name": "to",
          "type": "address"
        },
        {
          "internalType": "uint256",
          "name": "tokenId",
          "type": "uint256"
        }
      ],
      "name": "approve",
      "outputs": [],
      "stateMutability": "nonpayable",
      "type": "function"
    },
    {
      "inputs": [
        {
          "internalType": "address",
          "name": "owner",
          "type": "address"
        }
      ],
      "name": "balanceOf",
      "outputs": [
        {
          "internalType": "uint256",
          "name": "",
          "type": "uint256"
        }
      ],
      "stateMutability": "view",
      "type": "function"
    },
    {
      "inputs": [
        {
          "internalType": "uint256",
          "name": "_tokenId",
          "type": "uint256"
        },
        {
          "internalType": "uint256",
          "name": "_price",
          "type": "uint256"
        }
      ],
      "name": "buyNFT",
      "outputs": [],
      "stateMutability": "payable",
      "type": "function"
    },
    {
      "inputs": [
        {
          "internalType": "uint256",
          "name": "_tokenId",
          "type": "uint256"
        }
      ],
      "name": "cancelListNFT",
      "outputs": [],
      "stateMutability": "payable",
      "type": "function"
    },
    {
      "inputs": [
        {
          "internalType": "string",
          "name": "_tokenURI",
          "type": "string"
        }
      ],
      "name": "createNFT",
      "outputs": [],
      "stateMutability": "nonpayable",
      "type": "function"
    },
    {
      "inputs": [
        {
          "internalType": "uint256",
          "name": "tokenId",
          "type": "uint256"
        }
      ],
      "name": "getApproved",
      "outputs": [
        {
          "internalType": "address",
          "name": "",
          "type": "address"
        }
      ],
      "stateMutability": "view",
      "type": "function"
    },
    {
      "inputs": [],
      "name": "getMyListedNFT",
      "outputs": [
        {
          "components": [
            {
              "internalType": "uint256",
              "name": "tokenId",
              "type": "uint256"
            },
            {
              "internalType": "address payable",
              "name": "owner",
              "type": "address"
            },
            {
              "internalType": "uint256",
              "name": "price",
              "type": "uint256"
            },
            {
              "internalType": "string",
              "name": "URI",
              "type": "string"
            }
          ],
          "internalType": "struct PaintingNFTContract.Painting[]",
          "name": "",
          "type": "tuple[]"
        }
      ],
      "stateMutability": "view",
      "type": "function"
    },
    {
      "inputs": [],
      "name": "getMyNFT",
      "outputs": [
        {
          "components": [
            {
              "internalType": "uint256",
              "name": "tokenId",
              "type": "uint256"
            },
            {
              "internalType": "address payable",
              "name": "owner",
              "type": "address"
            },
            {
              "internalType": "uint256",
              "name": "price",
              "type": "uint256"
            },
            {
              "internalType": "string",
              "name": "URI",
              "type": "string"
            }
          ],
          "internalType": "struct PaintingNFTContract.Painting[]",
          "name": "",
          "type": "tuple[]"
        }
      ],
      "stateMutability": "view",
      "type": "function"
    },
    {
      "inputs": [],
      "name": "getMyNotListedNFT",
      "outputs": [
        {
          "components": [
            {
              "internalType": "uint256",
              "name": "tokenId",
              "type": "uint256"
            },
            {
              "internalType": "address payable",
              "name": "owner",
              "type": "address"
            },
            {
              "internalType": "uint256",
              "name": "price",
              "type": "uint256"
            },
            {
              "internalType": "string",
              "name": "URI",
              "type": "string"
            }
          ],
          "internalType": "struct PaintingNFTContract.Painting[]",
          "name": "",
          "type": "tuple[]"
        }
      ],
      "stateMutability": "view",
      "type": "function"
    },
    {
      "inputs": [],
      "name": "getUnsoldNFT",
      "outputs": [
        {
          "components": [
            {
              "internalType": "uint256",
              "name": "tokenId",
              "type": "uint256"
            },
            {
              "internalType": "address payable",
              "name": "owner",
              "type": "address"
            },
            {
              "internalType": "uint256",
              "name": "price",
              "type": "uint256"
            },
            {
              "internalType": "string",
              "name": "URI",
              "type": "string"
            }
          ],
          "internalType": "struct PaintingNFTContract.Painting[]",
          "name": "",
          "type": "tuple[]"
        }
      ],
      "stateMutability": "view",
      "type": "function"
    },
    {
      "inputs": [
        {
          "internalType": "address",
          "name": "owner",
          "type": "address"
        },
        {
          "internalType": "address",
          "name": "operator",
          "type": "address"
        }
      ],
      "name": "isApprovedForAll",
      "outputs": [
        {
          "internalType": "bool",
          "name": "",
          "type": "bool"
        }
      ],
      "stateMutability": "view",
      "type": "function"
    },
    {
      "inputs": [
        {
          "internalType": "uint256",
          "name": "_tokenId",
          "type": "uint256"
        },
        {
          "internalType": "uint256",
          "name": "_price",
          "type": "uint256"
        }
      ],
      "name": "listNFT",
      "outputs": [],
      "stateMutability": "payable",
      "type": "function"
    },
    {
      "inputs": [],
      "name": "name",
      "outputs": [
        {
          "internalType": "string",
          "name": "",
          "type": "string"
        }
      ],
      "stateMutability": "view",
      "type": "function"
    },
    {
      "inputs": [],
      "name": "operator",
      "outputs": [
        {
          "internalType": "address",
          "name": "",
          "type": "address"
        }
      ],
      "stateMutability": "view",
      "type": "function"
    },
    {
      "inputs": [],
      "name": "owner",
      "outputs": [
        {
          "internalType": "address",
          "name": "",
          "type": "address"
        }
      ],
      "stateMutability": "view",
      "type": "function"
    },
    {
      "inputs": [
        {
          "internalType": "uint256",
          "name": "tokenId",
          "type": "uint256"
        }
      ],
      "name": "ownerOf",
      "outputs": [
        {
          "internalType": "address",
          "name": "",
          "type": "address"
        }
      ],
      "stateMutability": "view",
      "type": "function"
    },
    {
      "inputs": [
        {
          "internalType": "uint256",
          "name": "",
          "type": "uint256"
        }
      ],
      "name": "paintings",
      "outputs": [
        {
          "internalType": "uint256",
          "name": "tokenId",
          "type": "uint256"
        },
        {
          "internalType": "address payable",
          "name": "owner",
          "type": "address"
        },
        {
          "internalType": "uint256",
          "name": "price",
          "type": "uint256"
        },
        {
          "internalType": "string",
          "name": "URI",
          "type": "string"
        }
      ],
      "stateMutability": "view",
      "type": "function"
    },
    {
      "inputs": [],
      "name": "renounceOwnership",
      "outputs": [],
      "stateMutability": "nonpayable",
      "type": "function"
    },
    {
      "inputs": [
        {
          "internalType": "address",
          "name": "from",
          "type": "address"
        },
        {
          "internalType": "address",
          "name": "to",
          "type": "address"
        },
        {
          "internalType": "uint256",
          "name": "tokenId",
          "type": "uint256"
        }
      ],
      "name": "safeTransferFrom",
      "outputs": [],
      "stateMutability": "nonpayable",
      "type": "function"
    },
    {
      "inputs": [
        {
          "internalType": "address",
          "name": "from",
          "type": "address"
        },
        {
          "internalType": "address",
          "name": "to",
          "type": "address"
        },
        {
          "internalType": "uint256",
          "name": "tokenId",
          "type": "uint256"
        },
        {
          "internalType": "bytes",
          "name": "_data",
          "type": "bytes"
        }
      ],
      "name": "safeTransferFrom",
      "outputs": [],
      "stateMutability": "nonpayable",
      "type": "function"
    },
    {
      "inputs": [
        {
          "internalType": "address",
          "name": "operator",
          "type": "address"
        },
        {
          "internalType": "bool",
          "name": "approved",
          "type": "bool"
        }
      ],
      "name": "setApprovalForAll",
      "outputs": [],
      "stateMutability": "nonpayable",
      "type": "function"
    },
    {
      "inputs": [
        {
          "internalType": "bytes4",
          "name": "interfaceId",
          "type": "bytes4"
        }
      ],
      "name": "supportsInterface",
      "outputs": [
        {
          "internalType": "bool",
          "name": "",
          "type": "bool"
        }
      ],
      "stateMutability": "view",
      "type": "function"
    },
    {
      "inputs": [],
      "name": "symbol",
      "outputs": [
        {
          "internalType": "string",
          "name": "",
          "type": "string"
        }
      ],
      "stateMutability": "view",
      "type": "function"
    },
    {
      "inputs": [],
      "name": "tax",
      "outputs": [
        {
          "internalType": "uint256",
          "name": "",
          "type": "uint256"
        }
      ],
      "stateMutability": "view",
      "type": "function"
    },
    {
      "inputs": [
        {
          "internalType": "uint256",
          "name": "tokenId",
          "type": "uint256"
        }
      ],
      "name": "tokenURI",
      "outputs": [
        {
          "internalType": "string",
          "name": "",
          "type": "string"
        }
      ],
      "stateMutability": "view",
      "type": "function"
    },
    {
      "inputs": [
        {
          "internalType": "address",
          "name": "from",
          "type": "address"
        },
        {
          "internalType": "address",
          "name": "to",
          "type": "address"
        },
        {
          "internalType": "uint256",
          "name": "tokenId",
          "type": "uint256"
        }
      ],
      "name": "transferFrom",
      "outputs": [],
      "stateMutability": "nonpayable",
      "type": "function"
    },
    {
      "inputs": [
        {
          "internalType": "address",
          "name": "newOwner",
          "type": "address"
        }
      ],
      "name": "transferOwnership",
      "outputs": [],
      "stateMutability": "nonpayable",
      "type": "function"
    }
  ],
  "bytecode": "0x60806040523480156200001157600080fd5b5060405162004de738038062004de78339818101604052810190620000379190620002f3565b6040518060400160405280600681526020017f44417070466900000000000000000000000000000000000000000000000000008152506040518060400160405280600481526020017f44415050000000000000000000000000000000000000000000000000000000008152508160009080519060200190620000bb92919062000215565b508060019080519060200190620000d492919062000215565b505050620000f7620000eb6200014760201b60201c565b6200014f60201b60201c565b81600760006101000a81548173ffffffffffffffffffffffffffffffffffffffff021916908373ffffffffffffffffffffffffffffffffffffffff1602179055508060098190555050506200040b565b600033905090565b6000600660009054906101000a900473ffffffffffffffffffffffffffffffffffffffff16905081600660006101000a81548173ffffffffffffffffffffffffffffffffffffffff021916908373ffffffffffffffffffffffffffffffffffffffff1602179055508173ffffffffffffffffffffffffffffffffffffffff168173ffffffffffffffffffffffffffffffffffffffff167f8be0079c531659141344cd1fd0a4f28419497f9722a3daafe3b4186f6b6457e060405160405180910390a35050565b828054620002239062000372565b90600052602060002090601f01602090048101928262000247576000855562000293565b82601f106200026257805160ff191683800117855562000293565b8280016001018555821562000293579182015b828111156200029257825182559160200191906001019062000275565b5b509050620002a29190620002a6565b5090565b5b80821115620002c1576000816000905550600101620002a7565b5090565b600081519050620002d681620003d7565b92915050565b600081519050620002ed81620003f1565b92915050565b600080604083850312156200030757600080fd5b60006200031785828601620002c5565b92505060206200032a85828601620002dc565b9150509250929050565b6000620003418262000348565b9050919050565b600073ffffffffffffffffffffffffffffffffffffffff82169050919050565b6000819050919050565b600060028204905060018216806200038b57607f821691505b60208210811415620003a257620003a1620003a8565b5b50919050565b7f4e487b7100000000000000000000000000000000000000000000000000000000600052602260045260246000fd5b620003e28162000334565b8114620003ee57600080fd5b50565b620003fc8162000368565b81146200040857600080fd5b50565b6149cc806200041b6000396000f3fe60806040526004361061019c5760003560e01c806388cf3d1b116100ec578063c7ca6daa1161008a578063da2ed03e11610064578063da2ed03e146105a2578063e985e9c5146105cb578063f218be2b14610608578063f2fde38b146106335761019c565b8063c7ca6daa146104fa578063c87b56dd1461053a578063cad7d033146105775761019c565b806395d89b41116100c657806395d89b411461045257806399c8d5561461047d578063a22cb465146104a8578063b88d4fde146104d15761019c565b806388cf3d1b146103ef5780638da5cb5b1461040b57806394383f14146104365761019c565b80631d85bf0311610159578063570ca73511610133578063570ca735146103335780636352211e1461035e57806370a082311461039b578063715018a6146103d85761019c565b80631d85bf03146102c557806323b872dd146102e157806342842e0e1461030a5761019c565b806301ffc9a7146101a157806306fdde03146101de578063081812fc14610209578063095ea7b31461024657806311b801691461026f578063185f3f811461029a575b600080fd5b3480156101ad57600080fd5b506101c860048036038101906101c39190613627565b61065c565b6040516101d59190613cb0565b60405180910390f35b3480156101ea57600080fd5b506101f361073e565b6040516102009190613ccb565b60405180910390f35b34801561021557600080fd5b50610230600480360381019061022b91906136ba565b6107d0565b60405161023d9190613bfe565b60405180910390f35b34801561025257600080fd5b5061026d600480360381019061026891906135eb565b610855565b005b34801561027b57600080fd5b5061028461096d565b6040516102919190613c8e565b60405180910390f35b3480156102a657600080fd5b506102af610c06565b6040516102bc9190613c8e565b60405180910390f35b6102df60048036038101906102da91906136e3565b611076565b005b3480156102ed57600080fd5b50610308600480360381019061030391906134e5565b611323565b005b34801561031657600080fd5b50610331600480360381019061032c91906134e5565b611383565b005b34801561033f57600080fd5b506103486113a3565b6040516103559190613bfe565b60405180910390f35b34801561036a57600080fd5b50610385600480360381019061038091906136ba565b6113c9565b6040516103929190613bfe565b60405180910390f35b3480156103a757600080fd5b506103c260048036038101906103bd9190613480565b61147b565b6040516103cf9190613f4d565b60405180910390f35b3480156103e457600080fd5b506103ed611533565b005b610409600480360381019061040491906136ba565b6115bb565b005b34801561041757600080fd5b50610420611726565b60405161042d9190613bfe565b60405180910390f35b610450600480360381019061044b91906136e3565b611750565b005b34801561045e57600080fd5b50610467611841565b6040516104749190613ccb565b60405180910390f35b34801561048957600080fd5b506104926118d3565b60405161049f9190613f4d565b60405180910390f35b3480156104b457600080fd5b506104cf60048036038101906104ca91906135af565b6118d9565b005b3480156104dd57600080fd5b506104f860048036038101906104f39190613534565b6118ef565b005b34801561050657600080fd5b50610521600480360381019061051c91906136ba565b611951565b6040516105319493929190613f68565b60405180910390f35b34801561054657600080fd5b50610561600480360381019061055c91906136ba565b611a39565b60405161056e9190613ccb565b60405180910390f35b34801561058357600080fd5b5061058c611ae0565b6040516105999190613c8e565b60405180910390f35b3480156105ae57600080fd5b506105c960048036038101906105c49190613679565b611ea2565b005b3480156105d757600080fd5b506105f260048036038101906105ed91906134a9565b611f9d565b6040516105ff9190613cb0565b60405180910390f35b34801561061457600080fd5b5061061d612031565b60405161062a9190613c8e565b60405180910390f35b34801561063f57600080fd5b5061065a60048036038101906106559190613480565b6124a1565b005b60007f80ac58cd000000000000000000000000000000000000000000000000000000007bffffffffffffffffffffffffffffffffffffffffffffffffffffffff1916827bffffffffffffffffffffffffffffffffffffffffffffffffffffffff1916148061072757507f5b5e139f000000000000000000000000000000000000000000000000000000007bffffffffffffffffffffffffffffffffffffffffffffffffffffffff1916827bffffffffffffffffffffffffffffffffffffffffffffffffffffffff1916145b80610737575061073682612599565b5b9050919050565b60606000805461074d9061424b565b80601f01602080910402602001604051908101604052809291908181526020018280546107799061424b565b80156107c65780601f1061079b576101008083540402835291602001916107c6565b820191906000526020600020905b8154815290600101906020018083116107a957829003601f168201915b5050505050905090565b60006107db82612603565b61081a576040517f08c379a000000000000000000000000000000000000000000000000000000000815260040161081190613e4d565b60405180910390fd5b6004600083815260200190815260200160002060009054906101000a900473ffffffffffffffffffffffffffffffffffffffff169050919050565b6000610860826113c9565b90508073ffffffffffffffffffffffffffffffffffffffff168373ffffffffffffffffffffffffffffffffffffffff1614156108d1576040517f08c379a00000000000000000000000000000000000000000000000000000000081526004016108c890613eed565b60405180910390fd5b8073ffffffffffffffffffffffffffffffffffffffff166108f061266f565b73ffffffffffffffffffffffffffffffffffffffff16148061091f575061091e8161091961266f565b611f9d565b5b61095e576040517f08c379a000000000000000000000000000000000000000000000000000000000815260040161095590613dcd565b60405180910390fd5b6109688383612677565b505050565b6060600061097a3061147b565b905060008167ffffffffffffffff8111156109be577f4e487b7100000000000000000000000000000000000000000000000000000000600052604160045260246000fd5b6040519080825280602002602001820160405280156109f757816020015b6109e4613266565b8152602001906001900390816109dc5790505b5090506000805b600880549050811015610bfc573073ffffffffffffffffffffffffffffffffffffffff16610a2b826113c9565b73ffffffffffffffffffffffffffffffffffffffff161415610be95760088181548110610a81577f4e487b7100000000000000000000000000000000000000000000000000000000600052603260045260246000fd5b9060005260206000209060040201604051806080016040529081600082015481526020016001820160009054906101000a900473ffffffffffffffffffffffffffffffffffffffff1673ffffffffffffffffffffffffffffffffffffffff1673ffffffffffffffffffffffffffffffffffffffff16815260200160028201548152602001600382018054610b149061424b565b80601f0160208091040260200160405190810160405280929190818152602001828054610b409061424b565b8015610b8d5780601f10610b6257610100808354040283529160200191610b8d565b820191906000526020600020905b815481529060010190602001808311610b7057829003601f168201915b505050505081525050838381518110610bcf577f4e487b7100000000000000000000000000000000000000000000000000000000600052603260045260246000fd5b60200260200101819052508180610be5906142ae565b9250505b8080610bf4906142ae565b9150506109fe565b5081935050505090565b60606000805b600880549050811015610d31573373ffffffffffffffffffffffffffffffffffffffff1660088281548110610c6a577f4e487b7100000000000000000000000000000000000000000000000000000000600052603260045260246000fd5b906000526020600020906004020160010160009054906101000a900473ffffffffffffffffffffffffffffffffffffffff1673ffffffffffffffffffffffffffffffffffffffff16148015610d0a5750600060088281548110610cf6577f4e487b7100000000000000000000000000000000000000000000000000000000600052603260045260246000fd5b906000526020600020906004020160020154145b15610d1e578180610d1a906142ae565b9250505b8080610d29906142ae565b915050610c0c565b506000808267ffffffffffffffff811115610d75577f4e487b7100000000000000000000000000000000000000000000000000000000600052604160045260246000fd5b604051908082528060200260200182016040528015610dae57816020015b610d9b613266565b815260200190600190039081610d935790505b50905060005b60088054905081101561106c573373ffffffffffffffffffffffffffffffffffffffff1660088281548110610e12577f4e487b7100000000000000000000000000000000000000000000000000000000600052603260045260246000fd5b906000526020600020906004020160010160009054906101000a900473ffffffffffffffffffffffffffffffffffffffff1673ffffffffffffffffffffffffffffffffffffffff16148015610eb25750600060088281548110610e9e577f4e487b7100000000000000000000000000000000000000000000000000000000600052603260045260246000fd5b906000526020600020906004020160020154145b156110595760088181548110610ef1577f4e487b7100000000000000000000000000000000000000000000000000000000600052603260045260246000fd5b9060005260206000209060040201604051806080016040529081600082015481526020016001820160009054906101000a900473ffffffffffffffffffffffffffffffffffffffff1673ffffffffffffffffffffffffffffffffffffffff1673ffffffffffffffffffffffffffffffffffffffff16815260200160028201548152602001600382018054610f849061424b565b80601f0160208091040260200160405190810160405280929190818152602001828054610fb09061424b565b8015610ffd5780601f10610fd257610100808354040283529160200191610ffd565b820191906000526020600020905b815481529060010190602001808311610fe057829003601f168201915b50505050508152505082848151811061103f577f4e487b7100000000000000000000000000000000000000000000000000000000600052603260045260246000fd5b60200260200101819052508280611055906142ae565b9350505b8080611064906142ae565b915050610db4565b5080935050505090565b6000600883815481106110b2577f4e487b7100000000000000000000000000000000000000000000000000000000600052603260045260246000fd5b906000526020600020906004020160010160009054906101000a900473ffffffffffffffffffffffffffffffffffffffff169050600954826110f491906140c8565b3414611135576040517f08c379a000000000000000000000000000000000000000000000000000000000815260040161112c90613f0d565b60405180910390fd5b3360088481548110611170577f4e487b7100000000000000000000000000000000000000000000000000000000600052603260045260246000fd5b906000526020600020906004020160010160006101000a81548173ffffffffffffffffffffffffffffffffffffffff021916908373ffffffffffffffffffffffffffffffffffffffff1602179055506000600884815481106111fb577f4e487b7100000000000000000000000000000000000000000000000000000000600052603260045260246000fd5b90600052602060002090600402016002018190555061121b303385612730565b600760009054906101000a900473ffffffffffffffffffffffffffffffffffffffff1673ffffffffffffffffffffffffffffffffffffffff166108fc6009549081150290604051600060405180830381858888f19350505050158015611285573d6000803e3d6000fd5b508073ffffffffffffffffffffffffffffffffffffffff166108fc839081150290604051600060405180830381858888f193505050501580156112cc573d6000803e3d6000fd5b508073ffffffffffffffffffffffffffffffffffffffff16837ff766699a1b2415e00e3f3a1418fc0f5a06ec5ad9b8a1f547267644fb469c1f463385604051611316929190613c65565b60405180910390a3505050565b61133461132e61266f565b82612997565b611373576040517f08c379a000000000000000000000000000000000000000000000000000000000815260040161136a90613f2d565b60405180910390fd5b61137e838383612730565b505050565b61139e838383604051806020016040528060008152506118ef565b505050565b600760009054906101000a900473ffffffffffffffffffffffffffffffffffffffff1681565b6000806002600084815260200190815260200160002060009054906101000a900473ffffffffffffffffffffffffffffffffffffffff169050600073ffffffffffffffffffffffffffffffffffffffff168173ffffffffffffffffffffffffffffffffffffffff161415611472576040517f08c379a000000000000000000000000000000000000000000000000000000000815260040161146990613e0d565b60405180910390fd5b80915050919050565b60008073ffffffffffffffffffffffffffffffffffffffff168273ffffffffffffffffffffffffffffffffffffffff1614156114ec576040517f08c379a00000000000000000000000000000000000000000000000000000000081526004016114e390613ded565b60405180910390fd5b600360008373ffffffffffffffffffffffffffffffffffffffff1673ffffffffffffffffffffffffffffffffffffffff168152602001908152602001600020549050919050565b61153b61266f565b73ffffffffffffffffffffffffffffffffffffffff16611559611726565b73ffffffffffffffffffffffffffffffffffffffff16146115af576040517f08c379a00000000000000000000000000000000000000000000000000000000081526004016115a690613e6d565b60405180910390fd5b6115b96000612a75565b565b6000600882815481106115f7577f4e487b7100000000000000000000000000000000000000000000000000000000600052603260045260246000fd5b906000526020600020906004020160010160009054906101000a900473ffffffffffffffffffffffffffffffffffffffff1690508073ffffffffffffffffffffffffffffffffffffffff163373ffffffffffffffffffffffffffffffffffffffff1614611699576040517f08c379a000000000000000000000000000000000000000000000000000000000815260040161169090613ead565b60405180910390fd5b6000600883815481106116d5577f4e487b7100000000000000000000000000000000000000000000000000000000600052603260045260246000fd5b9060005260206000209060040201600201819055506116f5303384612730565b817f2336af091758c5f38f79c2901e8a588a07537f6758448d1bda5743d25667156660405160405180910390a25050565b6000600660009054906101000a900473ffffffffffffffffffffffffffffffffffffffff16905090565b60008111611793576040517f08c379a000000000000000000000000000000000000000000000000000000000815260040161178a90613ecd565b60405180910390fd5b80600883815481106117ce577f4e487b7100000000000000000000000000000000000000000000000000000000600052603260045260246000fd5b9060005260206000209060040201600201819055506117ee333084612730565b3373ffffffffffffffffffffffffffffffffffffffff16827f2635d840f96df7aeb3da5ab70c88a0e9be39db8b50c653a5719606351ca8149c836040516118359190613f4d565b60405180910390a35050565b6060600180546118509061424b565b80601f016020809104026020016040519081016040528092919081815260200182805461187c9061424b565b80156118c95780601f1061189e576101008083540402835291602001916118c9565b820191906000526020600020905b8154815290600101906020018083116118ac57829003601f168201915b5050505050905090565b60095481565b6118eb6118e461266f565b8383612b3b565b5050565b6119006118fa61266f565b83612997565b61193f576040517f08c379a000000000000000000000000000000000000000000000000000000000815260040161193690613f2d565b60405180910390fd5b61194b84848484612ca8565b50505050565b6008818154811061196157600080fd5b90600052602060002090600402016000915090508060000154908060010160009054906101000a900473ffffffffffffffffffffffffffffffffffffffff16908060020154908060030180546119b69061424b565b80601f01602080910402602001604051908101604052809291908181526020018280546119e29061424b565b8015611a2f5780601f10611a0457610100808354040283529160200191611a2f565b820191906000526020600020905b815481529060010190602001808311611a1257829003601f168201915b5050505050905084565b6060611a4482612603565b611a83576040517f08c379a0000000000000000000000000000000000000000000000000000000008152600401611a7a90613e8d565b60405180910390fd5b6000611a8d612d04565b90506000815111611aad5760405180602001604052806000815250611ad8565b80611ab784612d1b565b604051602001611ac8929190613bda565b6040516020818303038152906040525b915050919050565b60606000805b600880549050811015611bb4573373ffffffffffffffffffffffffffffffffffffffff1660088281548110611b44577f4e487b7100000000000000000000000000000000000000000000000000000000600052603260045260246000fd5b906000526020600020906004020160010160009054906101000a900473ffffffffffffffffffffffffffffffffffffffff1673ffffffffffffffffffffffffffffffffffffffff161415611ba1578180611b9d906142ae565b9250505b8080611bac906142ae565b915050611ae6565b506000808267ffffffffffffffff811115611bf8577f4e487b7100000000000000000000000000000000000000000000000000000000600052604160045260246000fd5b604051908082528060200260200182016040528015611c3157816020015b611c1e613266565b815260200190600190039081611c165790505b50905060005b600880549050811015611e98573373ffffffffffffffffffffffffffffffffffffffff1660088281548110611c95577f4e487b7100000000000000000000000000000000000000000000000000000000600052603260045260246000fd5b906000526020600020906004020160010160009054906101000a900473ffffffffffffffffffffffffffffffffffffffff1673ffffffffffffffffffffffffffffffffffffffff161415611e855760088181548110611d1d577f4e487b7100000000000000000000000000000000000000000000000000000000600052603260045260246000fd5b9060005260206000209060040201604051806080016040529081600082015481526020016001820160009054906101000a900473ffffffffffffffffffffffffffffffffffffffff1673ffffffffffffffffffffffffffffffffffffffff1673ffffffffffffffffffffffffffffffffffffffff16815260200160028201548152602001600382018054611db09061424b565b80601f0160208091040260200160405190810160405280929190818152602001828054611ddc9061424b565b8015611e295780601f10611dfe57610100808354040283529160200191611e29565b820191906000526020600020905b815481529060010190602001808311611e0c57829003601f168201915b505050505081525050828481518110611e6b577f4e487b7100000000000000000000000000000000000000000000000000000000600052603260045260246000fd5b60200260200101819052508280611e81906142ae565b9350505b8080611e90906142ae565b915050611c37565b5080935050505090565b60006008805490509050611eb63382612ec8565b600060405180608001604052808381526020013373ffffffffffffffffffffffffffffffffffffffff1681526020016000815260200184815250905060088190806001815401808255809150506001900390600052602060002090600402016000909190919091506000820151816000015560208201518160010160006101000a81548173ffffffffffffffffffffffffffffffffffffffff021916908373ffffffffffffffffffffffffffffffffffffffff160217905550604082015181600201556060820151816003019080519060200190611f959291906132a4565b505050505050565b6000600560008473ffffffffffffffffffffffffffffffffffffffff1673ffffffffffffffffffffffffffffffffffffffff16815260200190815260200160002060008373ffffffffffffffffffffffffffffffffffffffff1673ffffffffffffffffffffffffffffffffffffffff16815260200190815260200160002060009054906101000a900460ff16905092915050565b60606000805b60088054905081101561215c573373ffffffffffffffffffffffffffffffffffffffff1660088281548110612095577f4e487b7100000000000000000000000000000000000000000000000000000000600052603260045260246000fd5b906000526020600020906004020160010160009054906101000a900473ffffffffffffffffffffffffffffffffffffffff1673ffffffffffffffffffffffffffffffffffffffff161480156121355750600060088281548110612121577f4e487b7100000000000000000000000000000000000000000000000000000000600052603260045260246000fd5b906000526020600020906004020160020154115b15612149578180612145906142ae565b9250505b8080612154906142ae565b915050612037565b506000808267ffffffffffffffff8111156121a0577f4e487b7100000000000000000000000000000000000000000000000000000000600052604160045260246000fd5b6040519080825280602002602001820160405280156121d957816020015b6121c6613266565b8152602001906001900390816121be5790505b50905060005b600880549050811015612497573373ffffffffffffffffffffffffffffffffffffffff166008828154811061223d577f4e487b7100000000000000000000000000000000000000000000000000000000600052603260045260246000fd5b906000526020600020906004020160010160009054906101000a900473ffffffffffffffffffffffffffffffffffffffff1673ffffffffffffffffffffffffffffffffffffffff161480156122dd57506000600882815481106122c9577f4e487b7100000000000000000000000000000000000000000000000000000000600052603260045260246000fd5b906000526020600020906004020160020154115b15612484576008818154811061231c577f4e487b7100000000000000000000000000000000000000000000000000000000600052603260045260246000fd5b9060005260206000209060040201604051806080016040529081600082015481526020016001820160009054906101000a900473ffffffffffffffffffffffffffffffffffffffff1673ffffffffffffffffffffffffffffffffffffffff1673ffffffffffffffffffffffffffffffffffffffff168152602001600282015481526020016003820180546123af9061424b565b80601f01602080910402602001604051908101604052809291908181526020018280546123db9061424b565b80156124285780601f106123fd57610100808354040283529160200191612428565b820191906000526020600020905b81548152906001019060200180831161240b57829003601f168201915b50505050508152505082848151811061246a577f4e487b7100000000000000000000000000000000000000000000000000000000600052603260045260246000fd5b60200260200101819052508280612480906142ae565b9350505b808061248f906142ae565b9150506121df565b5080935050505090565b6124a961266f565b73ffffffffffffffffffffffffffffffffffffffff166124c7611726565b73ffffffffffffffffffffffffffffffffffffffff161461251d576040517f08c379a000000000000000000000000000000000000000000000000000000000815260040161251490613e6d565b60405180910390fd5b600073ffffffffffffffffffffffffffffffffffffffff168173ffffffffffffffffffffffffffffffffffffffff16141561258d576040517f08c379a000000000000000000000000000000000000000000000000000000000815260040161258490613d0d565b60405180910390fd5b61259681612a75565b50565b60007f01ffc9a7000000000000000000000000000000000000000000000000000000007bffffffffffffffffffffffffffffffffffffffffffffffffffffffff1916827bffffffffffffffffffffffffffffffffffffffffffffffffffffffff1916149050919050565b60008073ffffffffffffffffffffffffffffffffffffffff166002600084815260200190815260200160002060009054906101000a900473ffffffffffffffffffffffffffffffffffffffff1673ffffffffffffffffffffffffffffffffffffffff1614159050919050565b600033905090565b816004600083815260200190815260200160002060006101000a81548173ffffffffffffffffffffffffffffffffffffffff021916908373ffffffffffffffffffffffffffffffffffffffff160217905550808273ffffffffffffffffffffffffffffffffffffffff166126ea836113c9565b73ffffffffffffffffffffffffffffffffffffffff167f8c5be1e5ebec7d5bd14f71427d1e84f3dd0314c0f7b2291e5b200ac8c7c3b92560405160405180910390a45050565b8273ffffffffffffffffffffffffffffffffffffffff16612750826113c9565b73ffffffffffffffffffffffffffffffffffffffff16146127a6576040517f08c379a000000000000000000000000000000000000000000000000000000000815260040161279d90613d2d565b60405180910390fd5b600073ffffffffffffffffffffffffffffffffffffffff168273ffffffffffffffffffffffffffffffffffffffff161415612816576040517f08c379a000000000000000000000000000000000000000000000000000000000815260040161280d90613d6d565b60405180910390fd5b6128218383836130a2565b61282c600082612677565b6001600360008573ffffffffffffffffffffffffffffffffffffffff1673ffffffffffffffffffffffffffffffffffffffff168152602001908152602001600020600082825461287c919061414f565b925050819055506001600360008473ffffffffffffffffffffffffffffffffffffffff1673ffffffffffffffffffffffffffffffffffffffff16815260200190815260200160002060008282546128d391906140c8565b92505081905550816002600083815260200190815260200160002060006101000a81548173ffffffffffffffffffffffffffffffffffffffff021916908373ffffffffffffffffffffffffffffffffffffffff160217905550808273ffffffffffffffffffffffffffffffffffffffff168473ffffffffffffffffffffffffffffffffffffffff167fddf252ad1be2c89b69c2b068fc378daa952ba7f163c4a11628f55a4df523b3ef60405160405180910390a46129928383836130a7565b505050565b60006129a282612603565b6129e1576040517f08c379a00000000000000000000000000000000000000000000000000000000081526004016129d890613dad565b60405180910390fd5b60006129ec836113c9565b90508073ffffffffffffffffffffffffffffffffffffffff168473ffffffffffffffffffffffffffffffffffffffff161480612a5b57508373ffffffffffffffffffffffffffffffffffffffff16612a43846107d0565b73ffffffffffffffffffffffffffffffffffffffff16145b80612a6c5750612a6b8185611f9d565b5b91505092915050565b6000600660009054906101000a900473ffffffffffffffffffffffffffffffffffffffff16905081600660006101000a81548173ffffffffffffffffffffffffffffffffffffffff021916908373ffffffffffffffffffffffffffffffffffffffff1602179055508173ffffffffffffffffffffffffffffffffffffffff168173ffffffffffffffffffffffffffffffffffffffff167f8be0079c531659141344cd1fd0a4f28419497f9722a3daafe3b4186f6b6457e060405160405180910390a35050565b8173ffffffffffffffffffffffffffffffffffffffff168373ffffffffffffffffffffffffffffffffffffffff161415612baa576040517f08c379a0000000000000000000000000000000000000000000000000000000008152600401612ba190613d8d565b60405180910390fd5b80600560008573ffffffffffffffffffffffffffffffffffffffff1673ffffffffffffffffffffffffffffffffffffffff16815260200190815260200160002060008473ffffffffffffffffffffffffffffffffffffffff1673ffffffffffffffffffffffffffffffffffffffff16815260200190815260200160002060006101000a81548160ff0219169083151502179055508173ffffffffffffffffffffffffffffffffffffffff168373ffffffffffffffffffffffffffffffffffffffff167f17307eab39ab6107e8899845ad3d59bd9653f200f220920489ca2b5937696c3183604051612c9b9190613cb0565b60405180910390a3505050565b612cb3848484612730565b612cbf848484846130ac565b612cfe576040517f08c379a0000000000000000000000000000000000000000000000000000000008152600401612cf590613ced565b60405180910390fd5b50505050565b606060405180602001604052806000815250905090565b60606000821415612d63576040518060400160405280600181526020017f30000000000000000000000000000000000000000000000000000000000000008152509050612ec3565b600082905060005b60008214612d95578080612d7e906142ae565b915050600a82612d8e919061411e565b9150612d6b565b60008167ffffffffffffffff811115612dd7577f4e487b7100000000000000000000000000000000000000000000000000000000600052604160045260246000fd5b6040519080825280601f01601f191660200182016040528015612e095781602001600182028036833780820191505090505b5090505b60008514612ebc57600182612e22919061414f565b9150600a85612e3191906142f7565b6030612e3d91906140c8565b60f81b818381518110612e79577f4e487b7100000000000000000000000000000000000000000000000000000000600052603260045260246000fd5b60200101907effffffffffffffffffffffffffffffffffffffffffffffffffffffffffffff1916908160001a905350600a85612eb5919061411e565b9450612e0d565b8093505050505b919050565b600073ffffffffffffffffffffffffffffffffffffffff168273ffffffffffffffffffffffffffffffffffffffff161415612f38576040517f08c379a0000000000000000000000000000000000000000000000000000000008152600401612f2f90613e2d565b60405180910390fd5b612f4181612603565b15612f81576040517f08c379a0000000000000000000000000000000000000000000000000000000008152600401612f7890613d4d565b60405180910390fd5b612f8d600083836130a2565b6001600360008473ffffffffffffffffffffffffffffffffffffffff1673ffffffffffffffffffffffffffffffffffffffff1681526020019081526020016000206000828254612fdd91906140c8565b92505081905550816002600083815260200190815260200160002060006101000a81548173ffffffffffffffffffffffffffffffffffffffff021916908373ffffffffffffffffffffffffffffffffffffffff160217905550808273ffffffffffffffffffffffffffffffffffffffff16600073ffffffffffffffffffffffffffffffffffffffff167fddf252ad1be2c89b69c2b068fc378daa952ba7f163c4a11628f55a4df523b3ef60405160405180910390a461309e600083836130a7565b5050565b505050565b505050565b60006130cd8473ffffffffffffffffffffffffffffffffffffffff16613243565b15613236578373ffffffffffffffffffffffffffffffffffffffff1663150b7a026130f661266f565b8786866040518563ffffffff1660e01b81526004016131189493929190613c19565b602060405180830381600087803b15801561313257600080fd5b505af192505050801561316357506040513d601f19601f820116820180604052508101906131609190613650565b60015b6131e6573d8060008114613193576040519150601f19603f3d011682016040523d82523d6000602084013e613198565b606091505b506000815114156131de576040517f08c379a00000000000000000000000000000000000000000000000000000000081526004016131d590613ced565b60405180910390fd5b805181602001fd5b63150b7a0260e01b7bffffffffffffffffffffffffffffffffffffffffffffffffffffffff1916817bffffffffffffffffffffffffffffffffffffffffffffffffffffffff19161491505061323b565b600190505b949350505050565b6000808273ffffffffffffffffffffffffffffffffffffffff163b119050919050565b604051806080016040528060008152602001600073ffffffffffffffffffffffffffffffffffffffff16815260200160008152602001606081525090565b8280546132b09061424b565b90600052602060002090601f0160209004810192826132d25760008555613319565b82601f106132eb57805160ff1916838001178555613319565b82800160010185558215613319579182015b828111156133185782518255916020019190600101906132fd565b5b509050613326919061332a565b5090565b5b8082111561334357600081600090555060010161332b565b5090565b600061335a61335584613fd9565b613fb4565b90508281526020810184848401111561337257600080fd5b61337d848285614209565b509392505050565b60006133986133938461400a565b613fb4565b9050828152602081018484840111156133b057600080fd5b6133bb848285614209565b509392505050565b6000813590506133d28161493a565b92915050565b6000813590506133e781614951565b92915050565b6000813590506133fc81614968565b92915050565b60008151905061341181614968565b92915050565b600082601f83011261342857600080fd5b8135613438848260208601613347565b91505092915050565b600082601f83011261345257600080fd5b8135613462848260208601613385565b91505092915050565b60008135905061347a8161497f565b92915050565b60006020828403121561349257600080fd5b60006134a0848285016133c3565b91505092915050565b600080604083850312156134bc57600080fd5b60006134ca858286016133c3565b92505060206134db858286016133c3565b9150509250929050565b6000806000606084860312156134fa57600080fd5b6000613508868287016133c3565b9350506020613519868287016133c3565b925050604061352a8682870161346b565b9150509250925092565b6000806000806080858703121561354a57600080fd5b6000613558878288016133c3565b9450506020613569878288016133c3565b935050604061357a8782880161346b565b925050606085013567ffffffffffffffff81111561359757600080fd5b6135a387828801613417565b91505092959194509250565b600080604083850312156135c257600080fd5b60006135d0858286016133c3565b92505060206135e1858286016133d8565b9150509250929050565b600080604083850312156135fe57600080fd5b600061360c858286016133c3565b925050602061361d8582860161346b565b9150509250929050565b60006020828403121561363957600080fd5b6000613647848285016133ed565b91505092915050565b60006020828403121561366257600080fd5b600061367084828501613402565b91505092915050565b60006020828403121561368b57600080fd5b600082013567ffffffffffffffff8111156136a557600080fd5b6136b184828501613441565b91505092915050565b6000602082840312156136cc57600080fd5b60006136da8482850161346b565b91505092915050565b600080604083850312156136f657600080fd5b60006137048582860161346b565b92505060206137158582860161346b565b9150509250929050565b600061372b8383613b59565b905092915050565b61373c81614195565b82525050565b61374b81614195565b82525050565b61375a81614183565b82525050565b600061376b8261404b565b6137758185614079565b9350836020820285016137878561403b565b8060005b858110156137c357848403895281516137a4858261371f565b94506137af8361406c565b925060208a0199505060018101905061378b565b50829750879550505050505092915050565b6137de816141a7565b82525050565b60006137ef82614056565b6137f9818561408a565b9350613809818560208601614218565b613812816143e4565b840191505092915050565b600061382882614061565b613832818561409b565b9350613842818560208601614218565b61384b816143e4565b840191505092915050565b600061386182614061565b61386b81856140ac565b935061387b818560208601614218565b613884816143e4565b840191505092915050565b600061389a82614061565b6138a481856140bd565b93506138b4818560208601614218565b80840191505092915050565b60006138cd6032836140ac565b91506138d8826143f5565b604082019050919050565b60006138f06026836140ac565b91506138fb82614444565b604082019050919050565b60006139136025836140ac565b915061391e82614493565b604082019050919050565b6000613936601c836140ac565b9150613941826144e2565b602082019050919050565b60006139596024836140ac565b91506139648261450b565b604082019050919050565b600061397c6019836140ac565b91506139878261455a565b602082019050919050565b600061399f602c836140ac565b91506139aa82614583565b604082019050919050565b60006139c26038836140ac565b91506139cd826145d2565b604082019050919050565b60006139e5602a836140ac565b91506139f082614621565b604082019050919050565b6000613a086029836140ac565b9150613a1382614670565b604082019050919050565b6000613a2b6020836140ac565b9150613a36826146bf565b602082019050919050565b6000613a4e602c836140ac565b9150613a59826146e8565b604082019050919050565b6000613a716020836140ac565b9150613a7c82614737565b602082019050919050565b6000613a94602f836140ac565b9150613a9f82614760565b604082019050919050565b6000613ab7602c836140ac565b9150613ac2826147af565b604082019050919050565b6000613ada6039836140ac565b9150613ae5826147fe565b604082019050919050565b6000613afd6021836140ac565b9150613b088261484d565b604082019050919050565b6000613b206026836140ac565b9150613b2b8261489c565b604082019050919050565b6000613b436031836140ac565b9150613b4e826148eb565b604082019050919050565b6000608083016000830151613b716000860182613bbc565b506020830151613b846020860182613733565b506040830151613b976040860182613bbc565b5060608301518482036060860152613baf828261381d565b9150508091505092915050565b613bc5816141ff565b82525050565b613bd4816141ff565b82525050565b6000613be6828561388f565b9150613bf2828461388f565b91508190509392505050565b6000602082019050613c136000830184613751565b92915050565b6000608082019050613c2e6000830187613751565b613c3b6020830186613751565b613c486040830185613bcb565b8181036060830152613c5a81846137e4565b905095945050505050565b6000604082019050613c7a6000830185613751565b613c876020830184613bcb565b9392505050565b60006020820190508181036000830152613ca88184613760565b905092915050565b6000602082019050613cc560008301846137d5565b92915050565b60006020820190508181036000830152613ce58184613856565b905092915050565b60006020820190508181036000830152613d06816138c0565b9050919050565b60006020820190508181036000830152613d26816138e3565b9050919050565b60006020820190508181036000830152613d4681613906565b9050919050565b60006020820190508181036000830152613d6681613929565b9050919050565b60006020820190508181036000830152613d868161394c565b9050919050565b60006020820190508181036000830152613da68161396f565b9050919050565b60006020820190508181036000830152613dc681613992565b9050919050565b60006020820190508181036000830152613de6816139b5565b9050919050565b60006020820190508181036000830152613e06816139d8565b9050919050565b60006020820190508181036000830152613e26816139fb565b9050919050565b60006020820190508181036000830152613e4681613a1e565b9050919050565b60006020820190508181036000830152613e6681613a41565b9050919050565b60006020820190508181036000830152613e8681613a64565b9050919050565b60006020820190508181036000830152613ea681613a87565b9050919050565b60006020820190508181036000830152613ec681613aaa565b9050919050565b60006020820190508181036000830152613ee681613acd565b9050919050565b60006020820190508181036000830152613f0681613af0565b9050919050565b60006020820190508181036000830152613f2681613b13565b9050919050565b60006020820190508181036000830152613f4681613b36565b9050919050565b6000602082019050613f626000830184613bcb565b92915050565b6000608082019050613f7d6000830187613bcb565b613f8a6020830186613742565b613f976040830185613bcb565b8181036060830152613fa98184613856565b905095945050505050565b6000613fbe613fcf565b9050613fca828261427d565b919050565b6000604051905090565b600067ffffffffffffffff821115613ff457613ff36143b5565b5b613ffd826143e4565b9050602081019050919050565b600067ffffffffffffffff821115614025576140246143b5565b5b61402e826143e4565b9050602081019050919050565b6000819050602082019050919050565b600081519050919050565b600081519050919050565b600081519050919050565b6000602082019050919050565b600082825260208201905092915050565b600082825260208201905092915050565b600082825260208201905092915050565b600082825260208201905092915050565b600081905092915050565b60006140d3826141ff565b91506140de836141ff565b9250827fffffffffffffffffffffffffffffffffffffffffffffffffffffffffffffffff0382111561411357614112614328565b5b828201905092915050565b6000614129826141ff565b9150614134836141ff565b92508261414457614143614357565b5b828204905092915050565b600061415a826141ff565b9150614165836141ff565b92508282101561417857614177614328565b5b828203905092915050565b600061418e826141df565b9050919050565b60006141a0826141df565b9050919050565b60008115159050919050565b60007fffffffff0000000000000000000000000000000000000000000000000000000082169050919050565b600073ffffffffffffffffffffffffffffffffffffffff82169050919050565b6000819050919050565b82818337600083830152505050565b60005b8381101561423657808201518184015260208101905061421b565b83811115614245576000848401525b50505050565b6000600282049050600182168061426357607f821691505b6020821081141561427757614276614386565b5b50919050565b614286826143e4565b810181811067ffffffffffffffff821117156142a5576142a46143b5565b5b80604052505050565b60006142b9826141ff565b91507fffffffffffffffffffffffffffffffffffffffffffffffffffffffffffffffff8214156142ec576142eb614328565b5b600182019050919050565b6000614302826141ff565b915061430d836141ff565b92508261431d5761431c614357565b5b828206905092915050565b7f4e487b7100000000000000000000000000000000000000000000000000000000600052601160045260246000fd5b7f4e487b7100000000000000000000000000000000000000000000000000000000600052601260045260246000fd5b7f4e487b7100000000000000000000000000000000000000000000000000000000600052602260045260246000fd5b7f4e487b7100000000000000000000000000000000000000000000000000000000600052604160045260246000fd5b6000601f19601f8301169050919050565b7f4552433732313a207472616e7366657220746f206e6f6e20455243373231526560008201527f63656976657220696d706c656d656e7465720000000000000000000000000000602082015250565b7f4f776e61626c653a206e6577206f776e657220697320746865207a65726f206160008201527f6464726573730000000000000000000000000000000000000000000000000000602082015250565b7f4552433732313a207472616e736665722066726f6d20696e636f72726563742060008201527f6f776e6572000000000000000000000000000000000000000000000000000000602082015250565b7f4552433732313a20746f6b656e20616c7265616479206d696e74656400000000600082015250565b7f4552433732313a207472616e7366657220746f20746865207a65726f2061646460008201527f7265737300000000000000000000000000000000000000000000000000000000602082015250565b7f4552433732313a20617070726f766520746f2063616c6c657200000000000000600082015250565b7f4552433732313a206f70657261746f7220717565727920666f72206e6f6e657860008201527f697374656e7420746f6b656e0000000000000000000000000000000000000000602082015250565b7f4552433732313a20617070726f76652063616c6c6572206973206e6f74206f7760008201527f6e6572206e6f7220617070726f76656420666f7220616c6c0000000000000000602082015250565b7f4552433732313a2062616c616e636520717565727920666f7220746865207a6560008201527f726f206164647265737300000000000000000000000000000000000000000000602082015250565b7f4552433732313a206f776e657220717565727920666f72206e6f6e657869737460008201527f656e7420746f6b656e0000000000000000000000000000000000000000000000602082015250565b7f4552433732313a206d696e7420746f20746865207a65726f2061646472657373600082015250565b7f4552433732313a20617070726f76656420717565727920666f72206e6f6e657860008201527f697374656e7420746f6b656e0000000000000000000000000000000000000000602082015250565b7f4f776e61626c653a2063616c6c6572206973206e6f7420746865206f776e6572600082015250565b7f4552433732314d657461646174613a2055524920717565727920666f72206e6f60008201527f6e6578697374656e7420746f6b656e0000000000000000000000000000000000602082015250565b7f43616e63656c206c6973746564204e4654204661696c65643a2049742069732060008201527f4e4f5420796f7572204e46540000000000000000000000000000000000000000602082015250565b7f4c697374204661696c65643a20696e76616c696420707269636520287072696360008201527f65206d7573742062652067726561746572207468616e20302900000000000000602082015250565b7f4552433732313a20617070726f76616c20746f2063757272656e74206f776e6560008201527f7200000000000000000000000000000000000000000000000000000000000000602082015250565b7f5061796d656e74204661696c65643a20696e636f72726563742045544820717560008201527f616e746974790000000000000000000000000000000000000000000000000000602082015250565b7f4552433732313a207472616e736665722063616c6c6572206973206e6f74206f60008201527f776e6572206e6f7220617070726f766564000000000000000000000000000000602082015250565b61494381614183565b811461494e57600080fd5b50565b61495a816141a7565b811461496557600080fd5b50565b614971816141b3565b811461497c57600080fd5b50565b614988816141ff565b811461499357600080fd5b5056fea264697066735822122042fdf43490ebfc197cacea1a7a6e2055a652196390f3e82ace504dc36724e83e64736f6c63430008040033",
  "linkReferences": {},
  "deployedLinkReferences": {}
}