{
  "contractName": "NFTMarketplace",
  "abi": [
    {
      "inputs": [],
      "stateMutability": "nonpayable",
      "type": "constructor"
    },
    {
      "anonymous": false,
      "inputs": [
        {
          "indexed": true,
          "internalType": "address",
          "name": "account",
          "type": "address"
        },
        {
          "indexed": true,
          "internalType": "address",
          "name": "operator",
          "type": "address"
        },
        {
          "indexed": false,
          "internalType": "bool",
          "name": "approved",
          "type": "bool"
        }
      ],
      "name": "ApprovalForAll",
      "type": "event"
    },
    {
      "anonymous": false,
      "inputs": [
        {
          "indexed": false,
          "internalType": "uint256",
          "name": "tokenId",
          "type": "uint256"
        },
        {
          "indexed": false,
          "internalType": "string",
          "name": "name",
          "type": "string"
        },
        {
          "indexed": false,
          "internalType": "string",
          "name": "description",
          "type": "string"
        },
        {
          "indexed": false,
          "internalType": "uint256",
          "name": "price",
          "type": "uint256"
        }
      ],
      "name": "NFTCreated",
      "type": "event"
    },
    {
      "anonymous": false,
      "inputs": [
        {
          "indexed": false,
          "internalType": "uint256",
          "name": "tokenId",
          "type": "uint256"
        },
        {
          "indexed": false,
          "internalType": "uint256",
          "name": "price",
          "type": "uint256"
        }
      ],
      "name": "NFTListed",
      "type": "event"
    },
    {
      "anonymous": false,
      "inputs": [
        {
          "indexed": false,
          "internalType": "uint256",
          "name": "tokenId",
          "type": "uint256"
        },
        {
          "indexed": false,
          "internalType": "address",
          "name": "buyer",
          "type": "address"
        },
        {
          "indexed": false,
          "internalType": "uint256",
          "name": "price",
          "type": "uint256"
        }
      ],
      "name": "NFTPurchased",
      "type": "event"
    },
    {
      "anonymous": false,
      "inputs": [
        {
          "indexed": false,
          "internalType": "uint256",
          "name": "tokenId",
          "type": "uint256"
        }
      ],
      "name": "NFTUnlisted",
      "type": "event"
    },
    {
      "anonymous": false,
      "inputs": [
        {
          "indexed": true,
          "internalType": "address",
          "name": "previousOwner",
          "type": "address"
        },
        {
          "indexed": true,
          "internalType": "address",
          "name": "newOwner",
          "type": "address"
        }
      ],
      "name": "OwnershipTransferred",
      "type": "event"
    },
    {
      "anonymous": false,
      "inputs": [
        {
          "indexed": true,
          "internalType": "address",
          "name": "operator",
          "type": "address"
        },
        {
          "indexed": true,
          "internalType": "address",
          "name": "from",
          "type": "address"
        },
        {
          "indexed": true,
          "internalType": "address",
          "name": "to",
          "type": "address"
        },
        {
          "indexed": false,
          "internalType": "uint256[]",
          "name": "ids",
          "type": "uint256[]"
        },
        {
          "indexed": false,
          "internalType": "uint256[]",
          "name": "values",
          "type": "uint256[]"
        }
      ],
      "name": "TransferBatch",
      "type": "event"
    },
    {
      "anonymous": false,
      "inputs": [
        {
          "indexed": true,
          "internalType": "address",
          "name": "operator",
          "type": "address"
        },
        {
          "indexed": true,
          "internalType": "address",
          "name": "from",
          "type": "address"
        },
        {
          "indexed": true,
          "internalType": "address",
          "name": "to",
          "type": "address"
        },
        {
          "indexed": false,
          "internalType": "uint256",
          "name": "id",
          "type": "uint256"
        },
        {
          "indexed": false,
          "internalType": "uint256",
          "name": "value",
          "type": "uint256"
        }
      ],
      "name": "TransferSingle",
      "type": "event"
    },
    {
      "anonymous": false,
      "inputs": [
        {
          "indexed": false,
          "internalType": "string",
          "name": "value",
          "type": "string"
        },
        {
          "indexed": true,
          "internalType": "uint256",
          "name": "id",
          "type": "uint256"
        }
      ],
      "name": "URI",
      "type": "event"
    },
    {
      "inputs": [
        {
          "internalType": "address",
          "name": "account",
          "type": "address"
        },
        {
          "internalType": "uint256",
          "name": "id",
          "type": "uint256"
        }
      ],
      "name": "balanceOf",
      "outputs": [
        {
          "internalType": "uint256",
          "name": "",
          "type": "uint256"
        }
      ],
      "stateMutability": "view",
      "type": "function",
      "constant": true
    },
    {
      "inputs": [
        {
          "internalType": "address[]",
          "name": "accounts",
          "type": "address[]"
        },
        {
          "internalType": "uint256[]",
          "name": "ids",
          "type": "uint256[]"
        }
      ],
      "name": "balanceOfBatch",
      "outputs": [
        {
          "internalType": "uint256[]",
          "name": "",
          "type": "uint256[]"
        }
      ],
      "stateMutability": "view",
      "type": "function",
      "constant": true
    },
    {
      "inputs": [
        {
          "internalType": "address",
          "name": "account",
          "type": "address"
        },
        {
          "internalType": "address",
          "name": "operator",
          "type": "address"
        }
      ],
      "name": "isApprovedForAll",
      "outputs": [
        {
          "internalType": "bool",
          "name": "",
          "type": "bool"
        }
      ],
      "stateMutability": "view",
      "type": "function",
      "constant": true
    },
    {
      "inputs": [
        {
          "internalType": "uint256",
          "name": "",
          "type": "uint256"
        }
      ],
      "name": "nftCreators",
      "outputs": [
        {
          "internalType": "address",
          "name": "",
          "type": "address"
        }
      ],
      "stateMutability": "view",
      "type": "function",
      "constant": true
    },
    {
      "inputs": [
        {
          "internalType": "uint256",
          "name": "",
          "type": "uint256"
        }
      ],
      "name": "nfts",
      "outputs": [
        {
          "internalType": "string",
          "name": "name",
          "type": "string"
        },
        {
          "internalType": "string",
          "name": "description",
          "type": "string"
        },
        {
          "internalType": "uint256",
          "name": "price",
          "type": "uint256"
        },
        {
          "internalType": "bool",
          "name": "forSale",
          "type": "bool"
        }
      ],
      "stateMutability": "view",
      "type": "function",
      "constant": true
    },
    {
      "inputs": [],
      "name": "owner",
      "outputs": [
        {
          "internalType": "address",
          "name": "",
          "type": "address"
        }
      ],
      "stateMutability": "view",
      "type": "function",
      "constant": true
    },
    {
      "inputs": [],
      "name": "renounceOwnership",
      "outputs": [],
      "stateMutability": "nonpayable",
      "type": "function"
    },
    {
      "inputs": [
        {
          "internalType": "address",
          "name": "from",
          "type": "address"
        },
        {
          "internalType": "address",
          "name": "to",
          "type": "address"
        },
        {
          "internalType": "uint256[]",
          "name": "ids",
          "type": "uint256[]"
        },
        {
          "internalType": "uint256[]",
          "name": "amounts",
          "type": "uint256[]"
        },
        {
          "internalType": "bytes",
          "name": "data",
          "type": "bytes"
        }
      ],
      "name": "safeBatchTransferFrom",
      "outputs": [],
      "stateMutability": "nonpayable",
      "type": "function"
    },
    {
      "inputs": [
        {
          "internalType": "address",
          "name": "from",
          "type": "address"
        },
        {
          "internalType": "address",
          "name": "to",
          "type": "address"
        },
        {
          "internalType": "uint256",
          "name": "id",
          "type": "uint256"
        },
        {
          "internalType": "uint256",
          "name": "amount",
          "type": "uint256"
        },
        {
          "internalType": "bytes",
          "name": "data",
          "type": "bytes"
        }
      ],
      "name": "safeTransferFrom",
      "outputs": [],
      "stateMutability": "nonpayable",
      "type": "function"
    },
    {
      "inputs": [
        {
          "internalType": "address",
          "name": "operator",
          "type": "address"
        },
        {
          "internalType": "bool",
          "name": "approved",
          "type": "bool"
        }
      ],
      "name": "setApprovalForAll",
      "outputs": [],
      "stateMutability": "nonpayable",
      "type": "function"
    },
    {
      "inputs": [
        {
          "internalType": "bytes4",
          "name": "interfaceId",
          "type": "bytes4"
        }
      ],
      "name": "supportsInterface",
      "outputs": [
        {
          "internalType": "bool",
          "name": "",
          "type": "bool"
        }
      ],
      "stateMutability": "view",
      "type": "function",
      "constant": true
    },
    {
      "inputs": [
        {
          "internalType": "address",
          "name": "newOwner",
          "type": "address"
        }
      ],
      "name": "transferOwnership",
      "outputs": [],
      "stateMutability": "nonpayable",
      "type": "function"
    },
    {
      "inputs": [
        {
          "internalType": "uint256",
          "name": "",
          "type": "uint256"
        }
      ],
      "name": "uri",
      "outputs": [
        {
          "internalType": "string",
          "name": "",
          "type": "string"
        }
      ],
      "stateMutability": "view",
      "type": "function",
      "constant": true
    },
    {
      "inputs": [
        {
          "internalType": "string",
          "name": "name",
          "type": "string"
        },
        {
          "internalType": "string",
          "name": "description",
          "type": "string"
        },
        {
          "internalType": "string",
          "name": "tokenURI",
          "type": "string"
        }
      ],
      "name": "createNFT",
      "outputs": [],
      "stateMutability": "nonpayable",
      "type": "function"
    },
    {
      "inputs": [
        {
          "internalType": "address",
          "name": "to",
          "type": "address"
        },
        {
          "internalType": "uint256",
          "name": "tokenId",
          "type": "uint256"
        }
      ],
      "name": "transferNFT",
      "outputs": [],
      "stateMutability": "nonpayable",
      "type": "function"
    },
    {
      "inputs": [
        {
          "internalType": "uint256",
          "name": "tokenId",
          "type": "uint256"
        },
        {
          "internalType": "uint256",
          "name": "price",
          "type": "uint256"
        }
      ],
      "name": "listNFTForSale",
      "outputs": [],
      "stateMutability": "nonpayable",
      "type": "function"
    },
    {
      "inputs": [
        {
          "internalType": "uint256",
          "name": "tokenId",
          "type": "uint256"
        }
      ],
      "name": "removeNFTFromSale",
      "outputs": [],
      "stateMutability": "nonpayable",
      "type": "function"
    },
    {
      "inputs": [
        {
          "internalType": "uint256",
          "name": "tokenId",
          "type": "uint256"
        }
      ],
      "name": "purchaseNFT",
      "outputs": [],
      "stateMutability": "payable",
      "type": "function",
      "payable": true
    },
    {
      "inputs": [
        {
          "internalType": "uint256",
          "name": "tokenId",
          "type": "uint256"
        }
      ],
      "name": "printNFTsName",
      "outputs": [
        {
          "internalType": "string",
          "name": "",
          "type": "string"
        }
      ],
      "stateMutability": "view",
      "type": "function",
      "constant": true
    },
    {
      "inputs": [
        {
          "internalType": "uint256",
          "name": "tokenId",
          "type": "uint256"
        }
      ],
      "name": "printNFTsDescription",
      "outputs": [
        {
          "internalType": "string",
          "name": "",
          "type": "string"
        }
      ],
      "stateMutability": "view",
      "type": "function",
      "constant": true
    },
    {
      "inputs": [
        {
          "internalType": "uint256",
          "name": "tokenId",
          "type": "uint256"
        }
      ],
      "name": "printNFTsOwner",
      "outputs": [
        {
          "internalType": "address",
          "name": "",
          "type": "address"
        }
      ],
      "stateMutability": "view",
      "type": "function",
      "constant": true
    },
    {
      "inputs": [
        {
          "internalType": "uint256",
          "name": "tokenId",
          "type": "uint256"
        }
      ],
      "name": "printNFTsPrice",
      "outputs": [
        {
          "internalType": "uint256",
          "name": "",
          "type": "uint256"
        }
      ],
      "stateMutability": "view",
      "type": "function",
      "constant": true
    },
    {
      "inputs": [
        {
          "internalType": "uint256",
          "name": "tokenId",
          "type": "uint256"
        }
      ],
      "name": "printNFTsforSale",
      "outputs": [
        {
          "internalType": "bool",
          "name": "",
          "type": "bool"
        }
      ],
      "stateMutability": "view",
      "type": "function",
      "constant": true
    },
    {
      "inputs": [
        {
          "internalType": "address",
          "name": "user",
          "type": "address"
        }
      ],
      "name": "printUserBalance",
      "outputs": [
        {
          "internalType": "uint256",
          "name": "",
          "type": "uint256"
        }
      ],
      "stateMutability": "view",
      "type": "function",
      "constant": true
    },
    {
      "inputs": [],
      "name": "prinAllNFTsAvailableforSale",
      "outputs": [
        {
          "internalType": "string[]",
          "name": "",
          "type": "string[]"
        }
      ],
      "stateMutability": "view",
      "type": "function",
      "constant": true
    }
  ],
  "bytecode": "0x60806040523480156200001157600080fd5b506040518060200160405280600081525062000033816200006260201b60201c565b5062000054620000486200007e60201b60201c565b6200008660201b60201c565b600160048190555062000260565b80600290805190602001906200007a9291906200014c565b5050565b600033905090565b6000600360009054906101000a900473ffffffffffffffffffffffffffffffffffffffff16905081600360006101000a81548173ffffffffffffffffffffffffffffffffffffffff021916908373ffffffffffffffffffffffffffffffffffffffff1602179055508173ffffffffffffffffffffffffffffffffffffffff168173ffffffffffffffffffffffffffffffffffffffff167f8be0079c531659141344cd1fd0a4f28419497f9722a3daafe3b4186f6b6457e060405160405180910390a35050565b8280546200015a906200022b565b90600052602060002090601f0160209004810192826200017e5760008555620001ca565b82601f106200019957805160ff1916838001178555620001ca565b82800160010185558215620001ca579182015b82811115620001c9578251825591602001919060010190620001ac565b5b509050620001d99190620001dd565b5090565b5b80821115620001f8576000816000905550600101620001de565b5090565b7f4e487b7100000000000000000000000000000000000000000000000000000000600052602260045260246000fd5b600060028204905060018216806200024457607f821691505b6020821081036200025a5762000259620001fc565b5b50919050565b61492680620002706000396000f3fe6080604052600436106101655760003560e01c8063715018a6116100d1578063b2733b391161008a578063e985e9c511610064578063e985e9c51461058b578063f242432a146105c8578063f2fde38b146105f1578063f8395b2e1461061a57610165565b8063b2733b39146104e8578063daaefcbf14610511578063e47ac9061461054e57610165565b8063715018a6146104025780638da5cb5b1461041957806394ab67fe146104445780639f8e9dbc1461046d578063a02e510714610496578063a22cb465146104bf57610165565b80632e378be3116101235780632e378be3146102ba5780632eb2c2d6146102f757806336d63191146103205780634e1273f41461034b578063535810c81461038857806366d029cc146103c557610165565b8062fdd58e1461016a57806301ffc9a7146101a75780630e89341c146101e45780630fe00cbc14610221578063150bde031461025e578063265aa6211461027a575b600080fd5b34801561017657600080fd5b50610191600480360381019061018c9190612baf565b610657565b60405161019e9190612bfe565b60405180910390f35b3480156101b357600080fd5b506101ce60048036038101906101c99190612c71565b61071f565b6040516101db9190612cb9565b60405180910390f35b3480156101f057600080fd5b5061020b60048036038101906102069190612cd4565b610801565b6040516102189190612d9a565b60405180910390f35b34801561022d57600080fd5b5061024860048036038101906102439190612cd4565b610895565b6040516102559190612dcb565b60405180910390f35b61027860048036038101906102739190612cd4565b6108c8565b005b34801561028657600080fd5b506102a1600480360381019061029c9190612cd4565b610bf5565b6040516102b19493929190612de6565b60405180910390f35b3480156102c657600080fd5b506102e160048036038101906102dc9190612cd4565b610d42565b6040516102ee9190612cb9565b60405180910390f35b34801561030357600080fd5b5061031e60048036038101906103199190613036565b610d6f565b005b34801561032c57600080fd5b50610335610e10565b6040516103429190613211565b60405180910390f35b34801561035757600080fd5b50610372600480360381019061036d91906132f6565b610f07565b60405161037f919061342c565b60405180910390f35b34801561039457600080fd5b506103af60048036038101906103aa919061344e565b611020565b6040516103bc9190612bfe565b60405180910390f35b3480156103d157600080fd5b506103ec60048036038101906103e79190612cd4565b611041565b6040516103f99190612d9a565b60405180910390f35b34801561040e57600080fd5b5061041761118a565b005b34801561042557600080fd5b5061042e61119e565b60405161043b9190612dcb565b60405180910390f35b34801561045057600080fd5b5061046b60048036038101906104669190612baf565b6111c8565b005b34801561047957600080fd5b50610494600480360381019061048f919061351c565b6112dc565b005b3480156104a257600080fd5b506104bd60048036038101906104b89190612cd4565b611458565b005b3480156104cb57600080fd5b506104e660048036038101906104e191906135ef565b611562565b005b3480156104f457600080fd5b5061050f600480360381019061050a919061362f565b611578565b005b34801561051d57600080fd5b5061053860048036038101906105339190612cd4565b6116a0565b6040516105459190612dcb565b60405180910390f35b34801561055a57600080fd5b5061057560048036038101906105709190612cd4565b6116dd565b6040516105829190612d9a565b60405180910390f35b34801561059757600080fd5b506105b260048036038101906105ad919061366f565b611826565b6040516105bf9190612cb9565b60405180910390f35b3480156105d457600080fd5b506105ef60048036038101906105ea91906136af565b6118ba565b005b3480156105fd57600080fd5b506106186004803603810190610613919061344e565b61195b565b005b34801561062657600080fd5b50610641600480360381019061063c9190612cd4565b6119de565b60405161064e9190612bfe565b60405180910390f35b60008073ffffffffffffffffffffffffffffffffffffffff168373ffffffffffffffffffffffffffffffffffffffff16036106c7576040517f08c379a00000000000000000000000000000000000000000000000000000000081526004016106be906137b8565b60405180910390fd5b60008083815260200190815260200160002060008473ffffffffffffffffffffffffffffffffffffffff1673ffffffffffffffffffffffffffffffffffffffff16815260200190815260200160002054905092915050565b60007fd9b67a26000000000000000000000000000000000000000000000000000000007bffffffffffffffffffffffffffffffffffffffffffffffffffffffff1916827bffffffffffffffffffffffffffffffffffffffffffffffffffffffff191614806107ea57507f0e89341c000000000000000000000000000000000000000000000000000000007bffffffffffffffffffffffffffffffffffffffffffffffffffffffff1916827bffffffffffffffffffffffffffffffffffffffffffffffffffffffff1916145b806107fa57506107f9826119fe565b5b9050919050565b60606002805461081090613807565b80601f016020809104026020016040519081016040528092919081815260200182805461083c90613807565b80156108895780601f1061085e57610100808354040283529160200191610889565b820191906000526020600020905b81548152906001019060200180831161086c57829003601f168201915b50505050509050919050565b60076020528060005260406000206000915054906101000a900473ffffffffffffffffffffffffffffffffffffffff1681565b6108d0611a68565b6006600082815260200190815260200160002060030160009054906101000a900460ff16610933576040517f08c379a000000000000000000000000000000000000000000000000000000000815260040161092a90613884565b60405180910390fd5b600660008281526020019081526020016000206002015434101561098c576040517f08c379a000000000000000000000000000000000000000000000000000000000815260040161098390613916565b60405180910390fd5b60006109cb6007600084815260200190815260200160002060009054906101000a900473ffffffffffffffffffffffffffffffffffffffff1683610657565b11610a0b576040517f08c379a0000000000000000000000000000000000000000000000000000000008152600401610a0290613982565b60405180910390fd5b60006007600083815260200190815260200160002060009054906101000a900473ffffffffffffffffffffffffffffffffffffffff1690503373ffffffffffffffffffffffffffffffffffffffff168173ffffffffffffffffffffffffffffffffffffffff1603610ab1576040517f08c379a0000000000000000000000000000000000000000000000000000000008152600401610aa8906139ee565b60405180910390fd5b610abb8130611826565b610acb57610aca816001611562565b5b610ae88133846001604051806020016040528060008152506118ba565b336007600084815260200190815260200160002060006101000a81548173ffffffffffffffffffffffffffffffffffffffff021916908373ffffffffffffffffffffffffffffffffffffffff16021790555060006006600084815260200190815260200160002060030160006101000a81548160ff0219169083151502179055506000819050610b97348273ffffffffffffffffffffffffffffffffffffffff16611ab790919063ffffffff16565b7fad546cba5af920bc2c64678bbd69f3d8965ac26d1b82f7ebf6f098aaa833528283336006600087815260200190815260200160002060020154604051610be093929190613a0e565b60405180910390a15050610bf2611bab565b50565b6006602052806000526040600020600091509050806000018054610c1890613807565b80601f0160208091040260200160405190810160405280929190818152602001828054610c4490613807565b8015610c915780601f10610c6657610100808354040283529160200191610c91565b820191906000526020600020905b815481529060010190602001808311610c7457829003601f168201915b505050505090806001018054610ca690613807565b80601f0160208091040260200160405190810160405280929190818152602001828054610cd290613807565b8015610d1f5780601f10610cf457610100808354040283529160200191610d1f565b820191906000526020600020905b815481529060010190602001808311610d0257829003601f168201915b5050505050908060020154908060030160009054906101000a900460ff16905084565b60006006600083815260200190815260200160002060030160009054906101000a900460ff169050919050565b610d77611bb5565b73ffffffffffffffffffffffffffffffffffffffff168573ffffffffffffffffffffffffffffffffffffffff161480610dbd5750610dbc85610db7611bb5565b611826565b5b610dfc576040517f08c379a0000000000000000000000000000000000000000000000000000000008152600401610df390613ab7565b60405180910390fd5b610e098585858585611bbd565b5050505050565b6060806000600190505b6005548111610eff57600660008281526020019081526020016000206000018054610e4490613807565b80601f0160208091040260200160405190810160405280929190818152602001828054610e7090613807565b8015610ebd5780601f10610e9257610100808354040283529160200191610ebd565b820191906000526020600020905b815481529060010190602001808311610ea057829003601f168201915b505050505082600183610ed09190613b06565b81518110610ee157610ee0613b3a565b5b60200260200101819052508080610ef790613b69565b915050610e1a565b508091505090565b60608151835114610f4d576040517f08c379a0000000000000000000000000000000000000000000000000000000008152600401610f4490613c23565b60405180910390fd5b6000835167ffffffffffffffff811115610f6a57610f69612e3e565b5b604051908082528060200260200182016040528015610f985781602001602082028036833780820191505090505b50905060005b845181101561101557610fe5858281518110610fbd57610fbc613b3a565b5b6020026020010151858381518110610fd857610fd7613b3a565b5b6020026020010151610657565b828281518110610ff857610ff7613b3a565b5b6020026020010181815250508061100e90613b69565b9050610f9e565b508091505092915050565b60008173ffffffffffffffffffffffffffffffffffffffff16319050919050565b60603373ffffffffffffffffffffffffffffffffffffffff166007600084815260200190815260200160002060009054906101000a900473ffffffffffffffffffffffffffffffffffffffff1673ffffffffffffffffffffffffffffffffffffffff16146110e4576040517f08c379a00000000000000000000000000000000000000000000000000000000081526004016110db90613cb5565b60405180910390fd5b60066000838152602001908152602001600020600001805461110590613807565b80601f016020809104026020016040519081016040528092919081815260200182805461113190613807565b801561117e5780601f106111535761010080835404028352916020019161117e565b820191906000526020600020905b81548152906001019060200180831161116157829003601f168201915b50505050509050919050565b611192611ede565b61119c6000611f5c565b565b6000600360009054906101000a900473ffffffffffffffffffffffffffffffffffffffff16905090565b6007600082815260200190815260200160002060009054906101000a900473ffffffffffffffffffffffffffffffffffffffff1673ffffffffffffffffffffffffffffffffffffffff163373ffffffffffffffffffffffffffffffffffffffff1614611269576040517f08c379a000000000000000000000000000000000000000000000000000000000815260040161126090613d47565b60405180910390fd5b6112863383836001604051806020016040528060008152506118ba565b816007600083815260200190815260200160002060006101000a81548173ffffffffffffffffffffffffffffffffffffffff021916908373ffffffffffffffffffffffffffffffffffffffff1602179055505050565b6001600560008282546112ef9190613d67565b92505081905550600060055490506113193382600160405180602001604052806000815250612022565b61132381836121d2565b60405180608001604052808581526020018481526020016000815260200160001515815250600660008381526020019081526020016000206000820151816000019080519060200190611377929190612a64565b506020820151816001019080519060200190611394929190612a64565b506040820151816002015560608201518160030160006101000a81548160ff021916908315150217905550905050336007600083815260200190815260200160002060006101000a81548173ffffffffffffffffffffffffffffffffffffffff021916908373ffffffffffffffffffffffffffffffffffffffff1602179055507f6b0cae87e2e16430820036cd47dc8b923cb4df5556775feb0fadba52f6764e2e818585600060405161144a9493929190613e02565b60405180910390a150505050565b3373ffffffffffffffffffffffffffffffffffffffff166007600083815260200190815260200160002060009054906101000a900473ffffffffffffffffffffffffffffffffffffffff1673ffffffffffffffffffffffffffffffffffffffff16146114f9576040517f08c379a00000000000000000000000000000000000000000000000000000000081526004016114f090613ec7565b60405180910390fd5b60006006600083815260200190815260200160002060030160006101000a81548160ff0219169083151502179055507fcd14eb7ebf273ed59a9fd1cf8651f3f40d9a04355b3511376f0d17b37ba224ff816040516115579190612bfe565b60405180910390a150565b61157461156d611bb5565b8383612202565b5050565b3373ffffffffffffffffffffffffffffffffffffffff166007600084815260200190815260200160002060009054906101000a900473ffffffffffffffffffffffffffffffffffffffff1673ffffffffffffffffffffffffffffffffffffffff1614611619576040517f08c379a000000000000000000000000000000000000000000000000000000000815260040161161090613f59565b60405180910390fd5b80600660008481526020019081526020016000206002018190555060016006600084815260200190815260200160002060030160006101000a81548160ff0219169083151502179055507fa6cd73580a273eec6c1026108f6b63479fbaef5356dde4ff43e4b38dd187485f8282604051611694929190613f79565b60405180910390a15050565b60006007600083815260200190815260200160002060009054906101000a900473ffffffffffffffffffffffffffffffffffffffff169050919050565b60603373ffffffffffffffffffffffffffffffffffffffff166007600084815260200190815260200160002060009054906101000a900473ffffffffffffffffffffffffffffffffffffffff1673ffffffffffffffffffffffffffffffffffffffff1614611780576040517f08c379a000000000000000000000000000000000000000000000000000000000815260040161177790613cb5565b60405180910390fd5b6006600083815260200190815260200160002060010180546117a190613807565b80601f01602080910402602001604051908101604052809291908181526020018280546117cd90613807565b801561181a5780601f106117ef5761010080835404028352916020019161181a565b820191906000526020600020905b8154815290600101906020018083116117fd57829003601f168201915b50505050509050919050565b6000600160008473ffffffffffffffffffffffffffffffffffffffff1673ffffffffffffffffffffffffffffffffffffffff16815260200190815260200160002060008373ffffffffffffffffffffffffffffffffffffffff1673ffffffffffffffffffffffffffffffffffffffff16815260200190815260200160002060009054906101000a900460ff16905092915050565b6118c2611bb5565b73ffffffffffffffffffffffffffffffffffffffff168573ffffffffffffffffffffffffffffffffffffffff161480611908575061190785611902611bb5565b611826565b5b611947576040517f08c379a000000000000000000000000000000000000000000000000000000000815260040161193e90613ab7565b60405180910390fd5b611954858585858561236e565b5050505050565b611963611ede565b600073ffffffffffffffffffffffffffffffffffffffff168173ffffffffffffffffffffffffffffffffffffffff16036119d2576040517f08c379a00000000000000000000000000000000000000000000000000000000081526004016119c990614014565b60405180910390fd5b6119db81611f5c565b50565b600060066000838152602001908152602001600020600201549050919050565b60007f01ffc9a7000000000000000000000000000000000000000000000000000000007bffffffffffffffffffffffffffffffffffffffffffffffffffffffff1916827bffffffffffffffffffffffffffffffffffffffffffffffffffffffff1916149050919050565b600260045403611aad576040517f08c379a0000000000000000000000000000000000000000000000000000000008152600401611aa490614080565b60405180910390fd5b6002600481905550565b80471015611afa576040517f08c379a0000000000000000000000000000000000000000000000000000000008152600401611af1906140ec565b60405180910390fd5b60008273ffffffffffffffffffffffffffffffffffffffff1682604051611b209061413d565b60006040518083038185875af1925050503d8060008114611b5d576040519150601f19603f3d011682016040523d82523d6000602084013e611b62565b606091505b5050905080611ba6576040517f08c379a0000000000000000000000000000000000000000000000000000000008152600401611b9d906141c4565b60405180910390fd5b505050565b6001600481905550565b600033905090565b8151835114611c01576040517f08c379a0000000000000000000000000000000000000000000000000000000008152600401611bf890614256565b60405180910390fd5b600073ffffffffffffffffffffffffffffffffffffffff168473ffffffffffffffffffffffffffffffffffffffff1603611c70576040517f08c379a0000000000000000000000000000000000000000000000000000000008152600401611c67906142e8565b60405180910390fd5b6000611c7a611bb5565b9050611c8a818787878787612609565b60005b8451811015611e3b576000858281518110611cab57611caa613b3a565b5b602002602001015190506000858381518110611cca57611cc9613b3a565b5b60200260200101519050600080600084815260200190815260200160002060008b73ffffffffffffffffffffffffffffffffffffffff1673ffffffffffffffffffffffffffffffffffffffff16815260200190815260200160002054905081811015611d6b576040517f08c379a0000000000000000000000000000000000000000000000000000000008152600401611d629061437a565b60405180910390fd5b81810360008085815260200190815260200160002060008c73ffffffffffffffffffffffffffffffffffffffff1673ffffffffffffffffffffffffffffffffffffffff168152602001908152602001600020819055508160008085815260200190815260200160002060008b73ffffffffffffffffffffffffffffffffffffffff1673ffffffffffffffffffffffffffffffffffffffff1681526020019081526020016000206000828254611e209190613d67565b9250508190555050505080611e3490613b69565b9050611c8d565b508473ffffffffffffffffffffffffffffffffffffffff168673ffffffffffffffffffffffffffffffffffffffff168273ffffffffffffffffffffffffffffffffffffffff167f4a39dc06d4c0dbc64b70af90fd698a233a518aa5d07e595d983b8c0526c8f7fb8787604051611eb292919061439a565b60405180910390a4611ec8818787878787612611565b611ed6818787878787612619565b505050505050565b611ee6611bb5565b73ffffffffffffffffffffffffffffffffffffffff16611f0461119e565b73ffffffffffffffffffffffffffffffffffffffff1614611f5a576040517f08c379a0000000000000000000000000000000000000000000000000000000008152600401611f519061441d565b60405180910390fd5b565b6000600360009054906101000a900473ffffffffffffffffffffffffffffffffffffffff16905081600360006101000a81548173ffffffffffffffffffffffffffffffffffffffff021916908373ffffffffffffffffffffffffffffffffffffffff1602179055508173ffffffffffffffffffffffffffffffffffffffff168173ffffffffffffffffffffffffffffffffffffffff167f8be0079c531659141344cd1fd0a4f28419497f9722a3daafe3b4186f6b6457e060405160405180910390a35050565b600073ffffffffffffffffffffffffffffffffffffffff168473ffffffffffffffffffffffffffffffffffffffff1603612091576040517f08c379a0000000000000000000000000000000000000000000000000000000008152600401612088906144af565b60405180910390fd5b600061209b611bb5565b905060006120a8856127f0565b905060006120b5856127f0565b90506120c683600089858589612609565b8460008088815260200190815260200160002060008973ffffffffffffffffffffffffffffffffffffffff1673ffffffffffffffffffffffffffffffffffffffff16815260200190815260200160002060008282546121259190613d67565b925050819055508673ffffffffffffffffffffffffffffffffffffffff16600073ffffffffffffffffffffffffffffffffffffffff168473ffffffffffffffffffffffffffffffffffffffff167fc3d58168c5ae7397731d063d5bbf3d657854427343f4c083240f7aacaa2d0f6289896040516121a3929190613f79565b60405180910390a46121ba83600089858589612611565b6121c98360008989898961286a565b50505050505050565b6121fe33836001846040516020016121ea919061450b565b604051602081830303815290604052612022565b5050565b8173ffffffffffffffffffffffffffffffffffffffff168373ffffffffffffffffffffffffffffffffffffffff1603612270576040517f08c379a000000000000000000000000000000000000000000000000000000000815260040161226790614594565b60405180910390fd5b80600160008573ffffffffffffffffffffffffffffffffffffffff1673ffffffffffffffffffffffffffffffffffffffff16815260200190815260200160002060008473ffffffffffffffffffffffffffffffffffffffff1673ffffffffffffffffffffffffffffffffffffffff16815260200190815260200160002060006101000a81548160ff0219169083151502179055508173ffffffffffffffffffffffffffffffffffffffff168373ffffffffffffffffffffffffffffffffffffffff167f17307eab39ab6107e8899845ad3d59bd9653f200f220920489ca2b5937696c31836040516123619190612cb9565b60405180910390a3505050565b600073ffffffffffffffffffffffffffffffffffffffff168473ffffffffffffffffffffffffffffffffffffffff16036123dd576040517f08c379a00000000000000000000000000000000000000000000000000000000081526004016123d4906142e8565b60405180910390fd5b60006123e7611bb5565b905060006123f4856127f0565b90506000612401856127f0565b9050612411838989858589612609565b600080600088815260200190815260200160002060008a73ffffffffffffffffffffffffffffffffffffffff1673ffffffffffffffffffffffffffffffffffffffff168152602001908152602001600020549050858110156124a8576040517f08c379a000000000000000000000000000000000000000000000000000000000815260040161249f9061437a565b60405180910390fd5b85810360008089815260200190815260200160002060008b73ffffffffffffffffffffffffffffffffffffffff1673ffffffffffffffffffffffffffffffffffffffff168152602001908152602001600020819055508560008089815260200190815260200160002060008a73ffffffffffffffffffffffffffffffffffffffff1673ffffffffffffffffffffffffffffffffffffffff168152602001908152602001600020600082825461255d9190613d67565b925050819055508773ffffffffffffffffffffffffffffffffffffffff168973ffffffffffffffffffffffffffffffffffffffff168573ffffffffffffffffffffffffffffffffffffffff167fc3d58168c5ae7397731d063d5bbf3d657854427343f4c083240f7aacaa2d0f628a8a6040516125da929190613f79565b60405180910390a46125f0848a8a86868a612611565b6125fe848a8a8a8a8a61286a565b505050505050505050565b505050505050565b505050505050565b6126388473ffffffffffffffffffffffffffffffffffffffff16612a41565b156127e8578373ffffffffffffffffffffffffffffffffffffffff1663bc197c8187878686866040518663ffffffff1660e01b815260040161267e959493929190614609565b6020604051808303816000875af19250505080156126ba57506040513d601f19601f820116820180604052508101906126b79190614686565b60015b61275f576126c66146c0565b806308c379a00361272257506126da6146e2565b806126e55750612724565b806040517f08c379a00000000000000000000000000000000000000000000000000000000081526004016127199190612d9a565b60405180910390fd5b505b6040517f08c379a0000000000000000000000000000000000000000000000000000000008152600401612756906147e4565b60405180910390fd5b63bc197c8160e01b7bffffffffffffffffffffffffffffffffffffffffffffffffffffffff1916817bffffffffffffffffffffffffffffffffffffffffffffffffffffffff1916146127e6576040517f08c379a00000000000000000000000000000000000000000000000000000000081526004016127dd90614876565b60405180910390fd5b505b505050505050565b60606000600167ffffffffffffffff81111561280f5761280e612e3e565b5b60405190808252806020026020018201604052801561283d5781602001602082028036833780820191505090505b509050828160008151811061285557612854613b3a565b5b60200260200101818152505080915050919050565b6128898473ffffffffffffffffffffffffffffffffffffffff16612a41565b15612a39578373ffffffffffffffffffffffffffffffffffffffff1663f23a6e6187878686866040518663ffffffff1660e01b81526004016128cf959493929190614896565b6020604051808303816000875af192505050801561290b57506040513d601f19601f820116820180604052508101906129089190614686565b60015b6129b0576129176146c0565b806308c379a003612973575061292b6146e2565b806129365750612975565b806040517f08c379a000000000000000000000000000000000000000000000000000000000815260040161296a9190612d9a565b60405180910390fd5b505b6040517f08c379a00000000000000000000000000000000000000000000000000000000081526004016129a7906147e4565b60405180910390fd5b63f23a6e6160e01b7bffffffffffffffffffffffffffffffffffffffffffffffffffffffff1916817bffffffffffffffffffffffffffffffffffffffffffffffffffffffff191614612a37576040517f08c379a0000000000000000000000000000000000000000000000000000000008152600401612a2e90614876565b60405180910390fd5b505b505050505050565b6000808273ffffffffffffffffffffffffffffffffffffffff163b119050919050565b828054612a7090613807565b90600052602060002090601f016020900481019282612a925760008555612ad9565b82601f10612aab57805160ff1916838001178555612ad9565b82800160010185558215612ad9579182015b82811115612ad8578251825591602001919060010190612abd565b5b509050612ae69190612aea565b5090565b5b80821115612b03576000816000905550600101612aeb565b5090565b6000604051905090565b600080fd5b600080fd5b600073ffffffffffffffffffffffffffffffffffffffff82169050919050565b6000612b4682612b1b565b9050919050565b612b5681612b3b565b8114612b6157600080fd5b50565b600081359050612b7381612b4d565b92915050565b6000819050919050565b612b8c81612b79565b8114612b9757600080fd5b50565b600081359050612ba981612b83565b92915050565b60008060408385031215612bc657612bc5612b11565b5b6000612bd485828601612b64565b9250506020612be585828601612b9a565b9150509250929050565b612bf881612b79565b82525050565b6000602082019050612c136000830184612bef565b92915050565b60007fffffffff0000000000000000000000000000000000000000000000000000000082169050919050565b612c4e81612c19565b8114612c5957600080fd5b50565b600081359050612c6b81612c45565b92915050565b600060208284031215612c8757612c86612b11565b5b6000612c9584828501612c5c565b91505092915050565b60008115159050919050565b612cb381612c9e565b82525050565b6000602082019050612cce6000830184612caa565b92915050565b600060208284031215612cea57612ce9612b11565b5b6000612cf884828501612b9a565b91505092915050565b600081519050919050565b600082825260208201905092915050565b60005b83811015612d3b578082015181840152602081019050612d20565b83811115612d4a576000848401525b50505050565b6000601f19601f8301169050919050565b6000612d6c82612d01565b612d768185612d0c565b9350612d86818560208601612d1d565b612d8f81612d50565b840191505092915050565b60006020820190508181036000830152612db48184612d61565b905092915050565b612dc581612b3b565b82525050565b6000602082019050612de06000830184612dbc565b92915050565b60006080820190508181036000830152612e008187612d61565b90508181036020830152612e148186612d61565b9050612e236040830185612bef565b612e306060830184612caa565b95945050505050565b600080fd5b7f4e487b7100000000000000000000000000000000000000000000000000000000600052604160045260246000fd5b612e7682612d50565b810181811067ffffffffffffffff82111715612e9557612e94612e3e565b5b80604052505050565b6000612ea8612b07565b9050612eb48282612e6d565b919050565b600067ffffffffffffffff821115612ed457612ed3612e3e565b5b602082029050602081019050919050565b600080fd5b6000612efd612ef884612eb9565b612e9e565b90508083825260208201905060208402830185811115612f2057612f1f612ee5565b5b835b81811015612f495780612f358882612b9a565b845260208401935050602081019050612f22565b5050509392505050565b600082601f830112612f6857612f67612e39565b5b8135612f78848260208601612eea565b91505092915050565b600080fd5b600067ffffffffffffffff821115612fa157612fa0612e3e565b5b612faa82612d50565b9050602081019050919050565b82818337600083830152505050565b6000612fd9612fd484612f86565b612e9e565b905082815260208101848484011115612ff557612ff4612f81565b5b613000848285612fb7565b509392505050565b600082601f83011261301d5761301c612e39565b5b813561302d848260208601612fc6565b91505092915050565b600080600080600060a0868803121561305257613051612b11565b5b600061306088828901612b64565b955050602061307188828901612b64565b945050604086013567ffffffffffffffff81111561309257613091612b16565b5b61309e88828901612f53565b935050606086013567ffffffffffffffff8111156130bf576130be612b16565b5b6130cb88828901612f53565b925050608086013567ffffffffffffffff8111156130ec576130eb612b16565b5b6130f888828901613008565b9150509295509295909350565b600081519050919050565b600082825260208201905092915050565b6000819050602082019050919050565b600082825260208201905092915050565b600061314d82612d01565b6131578185613131565b9350613167818560208601612d1d565b61317081612d50565b840191505092915050565b60006131878383613142565b905092915050565b6000602082019050919050565b60006131a782613105565b6131b18185613110565b9350836020820285016131c385613121565b8060005b858110156131ff57848403895281516131e0858261317b565b94506131eb8361318f565b925060208a019950506001810190506131c7565b50829750879550505050505092915050565b6000602082019050818103600083015261322b818461319c565b905092915050565b600067ffffffffffffffff82111561324e5761324d612e3e565b5b602082029050602081019050919050565b600061327261326d84613233565b612e9e565b9050808382526020820190506020840283018581111561329557613294612ee5565b5b835b818110156132be57806132aa8882612b64565b845260208401935050602081019050613297565b5050509392505050565b600082601f8301126132dd576132dc612e39565b5b81356132ed84826020860161325f565b91505092915050565b6000806040838503121561330d5761330c612b11565b5b600083013567ffffffffffffffff81111561332b5761332a612b16565b5b613337858286016132c8565b925050602083013567ffffffffffffffff81111561335857613357612b16565b5b61336485828601612f53565b9150509250929050565b600081519050919050565b600082825260208201905092915050565b6000819050602082019050919050565b6133a381612b79565b82525050565b60006133b5838361339a565b60208301905092915050565b6000602082019050919050565b60006133d98261336e565b6133e38185613379565b93506133ee8361338a565b8060005b8381101561341f57815161340688826133a9565b9750613411836133c1565b9250506001810190506133f2565b5085935050505092915050565b6000602082019050818103600083015261344681846133ce565b905092915050565b60006020828403121561346457613463612b11565b5b600061347284828501612b64565b91505092915050565b600067ffffffffffffffff82111561349657613495612e3e565b5b61349f82612d50565b9050602081019050919050565b60006134bf6134ba8461347b565b612e9e565b9050828152602081018484840111156134db576134da612f81565b5b6134e6848285612fb7565b509392505050565b600082601f83011261350357613502612e39565b5b81356135138482602086016134ac565b91505092915050565b60008060006060848603121561353557613534612b11565b5b600084013567ffffffffffffffff81111561355357613552612b16565b5b61355f868287016134ee565b935050602084013567ffffffffffffffff8111156135805761357f612b16565b5b61358c868287016134ee565b925050604084013567ffffffffffffffff8111156135ad576135ac612b16565b5b6135b9868287016134ee565b9150509250925092565b6135cc81612c9e565b81146135d757600080fd5b50565b6000813590506135e9816135c3565b92915050565b6000806040838503121561360657613605612b11565b5b600061361485828601612b64565b9250506020613625858286016135da565b9150509250929050565b6000806040838503121561364657613645612b11565b5b600061365485828601612b9a565b925050602061366585828601612b9a565b9150509250929050565b6000806040838503121561368657613685612b11565b5b600061369485828601612b64565b92505060206136a585828601612b64565b9150509250929050565b600080600080600060a086880312156136cb576136ca612b11565b5b60006136d988828901612b64565b95505060206136ea88828901612b64565b94505060406136fb88828901612b9a565b935050606061370c88828901612b9a565b925050608086013567ffffffffffffffff81111561372d5761372c612b16565b5b61373988828901613008565b9150509295509295909350565b7f455243313135353a2061646472657373207a65726f206973206e6f742061207660008201527f616c6964206f776e657200000000000000000000000000000000000000000000602082015250565b60006137a2602a83612d0c565b91506137ad82613746565b604082019050919050565b600060208201905081810360008301526137d181613795565b9050919050565b7f4e487b7100000000000000000000000000000000000000000000000000000000600052602260045260246000fd5b6000600282049050600182168061381f57607f821691505b602082108103613832576138316137d8565b5b50919050565b7f54686973204e4654206973206e6f7420666f722073616c652e00000000000000600082015250565b600061386e601983612d0c565b915061387982613838565b602082019050919050565b6000602082019050818103600083015261389d81613861565b9050919050565b7f496e73756666696369656e742066756e647320746f207075726368617365207460008201527f686973204e46542e000000000000000000000000000000000000000000000000602082015250565b6000613900602883612d0c565b915061390b826138a4565b604082019050919050565b6000602082019050818103600083015261392f816138f3565b9050919050565b7f4e46542068617320616c7265616479206265656e20736f6c642e000000000000600082015250565b600061396c601a83612d0c565b915061397782613936565b602082019050919050565b6000602082019050818103600083015261399b8161395f565b9050919050565b7f596f7520616c7265616479206f776e2074686973204e46542e00000000000000600082015250565b60006139d8601983612d0c565b91506139e3826139a2565b602082019050919050565b60006020820190508181036000830152613a07816139cb565b9050919050565b6000606082019050613a236000830186612bef565b613a306020830185612dbc565b613a3d6040830184612bef565b949350505050565b7f455243313135353a2063616c6c6572206973206e6f7420746f6b656e206f776e60008201527f6572206f7220617070726f766564000000000000000000000000000000000000602082015250565b6000613aa1602e83612d0c565b9150613aac82613a45565b604082019050919050565b60006020820190508181036000830152613ad081613a94565b9050919050565b7f4e487b7100000000000000000000000000000000000000000000000000000000600052601160045260246000fd5b6000613b1182612b79565b9150613b1c83612b79565b925082821015613b2f57613b2e613ad7565b5b828203905092915050565b7f4e487b7100000000000000000000000000000000000000000000000000000000600052603260045260246000fd5b6000613b7482612b79565b91507fffffffffffffffffffffffffffffffffffffffffffffffffffffffffffffffff8203613ba657613ba5613ad7565b5b600182019050919050565b7f455243313135353a206163636f756e747320616e6420696473206c656e67746860008201527f206d69736d617463680000000000000000000000000000000000000000000000602082015250565b6000613c0d602983612d0c565b9150613c1882613bb1565b604082019050919050565b60006020820190508181036000830152613c3c81613c00565b9050919050565b7f4f6e6c79207468652063726561746f722063616e207265616420746865204e4660008201527f5473000000000000000000000000000000000000000000000000000000000000602082015250565b6000613c9f602283612d0c565b9150613caa82613c43565b604082019050919050565b60006020820190508181036000830152613cce81613c92565b9050919050565b7f4f6e6c79207468652063726561746f722063616e207472616e7366657220746860008201527f65204e46542e0000000000000000000000000000000000000000000000000000602082015250565b6000613d31602683612d0c565b9150613d3c82613cd5565b604082019050919050565b60006020820190508181036000830152613d6081613d24565b9050919050565b6000613d7282612b79565b9150613d7d83612b79565b9250827fffffffffffffffffffffffffffffffffffffffffffffffffffffffffffffffff03821115613db257613db1613ad7565b5b828201905092915050565b6000819050919050565b6000819050919050565b6000613dec613de7613de284613dbd565b613dc7565b612b79565b9050919050565b613dfc81613dd1565b82525050565b6000608082019050613e176000830187612bef565b8181036020830152613e298186612d61565b90508181036040830152613e3d8185612d61565b9050613e4c6060830184613df3565b95945050505050565b7f4f6e6c79207468652063726561746f722063616e2072656d6f7665207468652060008201527f4e46542066726f6d2073616c652e000000000000000000000000000000000000602082015250565b6000613eb1602e83612d0c565b9150613ebc82613e55565b604082019050919050565b60006020820190508181036000830152613ee081613ea4565b9050919050565b7f4f6e6c79207468652063726561746f722063616e206c69737420746865204e4660008201527f5420666f722073616c652e000000000000000000000000000000000000000000602082015250565b6000613f43602b83612d0c565b9150613f4e82613ee7565b604082019050919050565b60006020820190508181036000830152613f7281613f36565b9050919050565b6000604082019050613f8e6000830185612bef565b613f9b6020830184612bef565b9392505050565b7f4f776e61626c653a206e6577206f776e657220697320746865207a65726f206160008201527f6464726573730000000000000000000000000000000000000000000000000000602082015250565b6000613ffe602683612d0c565b915061400982613fa2565b604082019050919050565b6000602082019050818103600083015261402d81613ff1565b9050919050565b7f5265656e7472616e637947756172643a207265656e7472616e742063616c6c00600082015250565b600061406a601f83612d0c565b915061407582614034565b602082019050919050565b600060208201905081810360008301526140998161405d565b9050919050565b7f416464726573733a20696e73756666696369656e742062616c616e6365000000600082015250565b60006140d6601d83612d0c565b91506140e1826140a0565b602082019050919050565b60006020820190508181036000830152614105816140c9565b9050919050565b600081905092915050565b50565b600061412760008361410c565b915061413282614117565b600082019050919050565b60006141488261411a565b9150819050919050565b7f416464726573733a20756e61626c6520746f2073656e642076616c75652c207260008201527f6563697069656e74206d61792068617665207265766572746564000000000000602082015250565b60006141ae603a83612d0c565b91506141b982614152565b604082019050919050565b600060208201905081810360008301526141dd816141a1565b9050919050565b7f455243313135353a2069647320616e6420616d6f756e7473206c656e6774682060008201527f6d69736d61746368000000000000000000000000000000000000000000000000602082015250565b6000614240602883612d0c565b915061424b826141e4565b604082019050919050565b6000602082019050818103600083015261426f81614233565b9050919050565b7f455243313135353a207472616e7366657220746f20746865207a65726f20616460008201527f6472657373000000000000000000000000000000000000000000000000000000602082015250565b60006142d2602583612d0c565b91506142dd82614276565b604082019050919050565b60006020820190508181036000830152614301816142c5565b9050919050565b7f455243313135353a20696e73756666696369656e742062616c616e636520666f60008201527f72207472616e7366657200000000000000000000000000000000000000000000602082015250565b6000614364602a83612d0c565b915061436f82614308565b604082019050919050565b6000602082019050818103600083015261439381614357565b9050919050565b600060408201905081810360008301526143b481856133ce565b905081810360208301526143c881846133ce565b90509392505050565b7f4f776e61626c653a2063616c6c6572206973206e6f7420746865206f776e6572600082015250565b6000614407602083612d0c565b9150614412826143d1565b602082019050919050565b60006020820190508181036000830152614436816143fa565b9050919050565b7f455243313135353a206d696e7420746f20746865207a65726f2061646472657360008201527f7300000000000000000000000000000000000000000000000000000000000000602082015250565b6000614499602183612d0c565b91506144a48261443d565b604082019050919050565b600060208201905081810360008301526144c88161448c565b9050919050565b600081905092915050565b60006144e582612d01565b6144ef81856144cf565b93506144ff818560208601612d1d565b80840191505092915050565b600061451782846144da565b915081905092915050565b7f455243313135353a2073657474696e6720617070726f76616c2073746174757360008201527f20666f722073656c660000000000000000000000000000000000000000000000602082015250565b600061457e602983612d0c565b915061458982614522565b604082019050919050565b600060208201905081810360008301526145ad81614571565b9050919050565b600081519050919050565b600082825260208201905092915050565b60006145db826145b4565b6145e581856145bf565b93506145f5818560208601612d1d565b6145fe81612d50565b840191505092915050565b600060a08201905061461e6000830188612dbc565b61462b6020830187612dbc565b818103604083015261463d81866133ce565b9050818103606083015261465181856133ce565b9050818103608083015261466581846145d0565b90509695505050505050565b60008151905061468081612c45565b92915050565b60006020828403121561469c5761469b612b11565b5b60006146aa84828501614671565b91505092915050565b60008160e01c9050919050565b600060033d11156146df5760046000803e6146dc6000516146b3565b90505b90565b600060443d1061476f576146f4612b07565b60043d036004823e80513d602482011167ffffffffffffffff8211171561471c57505061476f565b808201805167ffffffffffffffff81111561473a575050505061476f565b80602083010160043d03850181111561475757505050505061476f565b61476682602001850186612e6d565b82955050505050505b90565b7f455243313135353a207472616e7366657220746f206e6f6e2d4552433131353560008201527f526563656976657220696d706c656d656e746572000000000000000000000000602082015250565b60006147ce603483612d0c565b91506147d982614772565b604082019050919050565b600060208201905081810360008301526147fd816147c1565b9050919050565b7f455243313135353a204552433131353552656365697665722072656a6563746560008201527f6420746f6b656e73000000000000000000000000000000000000000000000000602082015250565b6000614860602883612d0c565b915061486b82614804565b604082019050919050565b6000602082019050818103600083015261488f81614853565b9050919050565b600060a0820190506148ab6000830188612dbc565b6148b86020830187612dbc565b6148c56040830186612bef565b6148d26060830185612bef565b81810360808301526148e481846145d0565b9050969550505050505056fea26469706673582212202dc911f0e29307165a1093addd9f324330bb5b94419232f7966a1ed7c813d77c64736f6c634300080d0033",
  "immutableReferences": {},
  "source": "// SPDX-License-Identifier: MIT\npragma solidity ^0.8.13;\n\nimport \"@openzeppelin/contracts/token/ERC1155/ERC1155.sol\";\nimport \"@openzeppelin/contracts/access/Ownable.sol\";\nimport \"@openzeppelin/contracts/security/ReentrancyGuard.sol\";\nimport \"@openzeppelin/contracts/utils/Address.sol\";\nimport \"@openzeppelin/contracts/utils/Strings.sol\";\n\ncontract NFTMarketplace is ERC1155, Ownable, ReentrancyGuard {\n    using Address for address payable;\n\n    uint256 private _tokenIds;\n\n    struct NFT {\n        string name;\n        string description;\n        uint256 price;\n        bool forSale;\n    }\n\n    mapping(uint256 => NFT) public nfts;\n    mapping(uint256 => address) public nftCreators;\n\n    event NFTCreated(uint256 tokenId, string name, string description, uint256 price);\n    event NFTListed(uint256 tokenId, uint256 price);\n    event NFTUnlisted(uint256 tokenId);\n    event NFTPurchased(uint256 tokenId, address buyer, uint256 price);\n\n    //\"https://ipfs.io/ipfs/bafybeiadjwxddlh4poqqa5i64hxypss4rbn6bxwxddbi5eh7tbyx3plo54/{id}.json\"\n    constructor() ERC1155(\"\") {\n        // _mint(msg.sender, 1, 1, \"\");\n        // _mint(msg.sender, 2, 1, \"\");\n    }\n\n    function createNFT(string memory name, string memory description, string memory tokenURI) public {\n        _tokenIds += 1;\n        uint256 tokenId = _tokenIds;\n\n        _mint(msg.sender, tokenId, 1, \"\");\n        _setURI(tokenId, tokenURI);\n\n        nfts[tokenId] = NFT(name, description, 0, false);\n        nftCreators[tokenId] = msg.sender;\n\n        emit NFTCreated(tokenId, name, description, 0);\n    }\n\n    function transferNFT(address to, uint256 tokenId) public {\n        require(msg.sender == nftCreators[tokenId], \"Only the creator can transfer the NFT.\");\n        safeTransferFrom(msg.sender, to, tokenId, 1, \"\");\n        nftCreators[tokenId] = to;\n    }\n\n    function listNFTForSale(uint256 tokenId, uint256 price) public {\n        require(nftCreators[tokenId] == msg.sender, \"Only the creator can list the NFT for sale.\");\n\n        nfts[tokenId].price = price;\n        nfts[tokenId].forSale = true;\n\n        emit NFTListed(tokenId, price);\n    }\n\n    function removeNFTFromSale(uint256 tokenId) public {\n        require(nftCreators[tokenId] == msg.sender, \"Only the creator can remove the NFT from sale.\");\n\n        nfts[tokenId].forSale = false;\n\n        emit NFTUnlisted(tokenId);\n    }\n\n    function purchaseNFT(uint256 tokenId) public payable nonReentrant {\n        require(nfts[tokenId].forSale, \"This NFT is not for sale.\");\n        require(msg.value >= nfts[tokenId].price, \"Insufficient funds to purchase this NFT.\");\n        require(balanceOf(nftCreators[tokenId], tokenId) > 0, \"NFT has already been sold.\");\n\n        address seller = nftCreators[tokenId];\n        require(seller != msg.sender, \"You already own this NFT.\");\n\n        // Ensure the contract is approved to handle tokens on behalf of the seller.\n        if (!isApprovedForAll(seller, address(this))) {\n            setApprovalForAll(seller, true);\n        }\n\n        // Transfer the NFT token from the seller to the buyer.\n        safeTransferFrom(seller, msg.sender, tokenId, 1, \"\");\n\n        // Update the token ownership and set the token as no longer for sale.\n        nftCreators[tokenId] = msg.sender;\n        nfts[tokenId].forSale = false;\n\n        // Transfer the funds from the buyer to the seller.\n        address payable sellerPayable = payable(seller);\n        sellerPayable.sendValue(msg.value);\n\n        emit NFTPurchased(tokenId, msg.sender, nfts[tokenId].price);\n    }\n\n    function _setURI(uint256 tokenId, string memory tokenURI) internal {\n        _mint(msg.sender, tokenId, 1, abi.encodePacked(tokenURI));\n    }\n\n    // function uri(uint256 tokenId) override public pure returns (string memory) {\n    //     return string(\n    //         abi.encodePacked(\n    //             \"https://ipfs.io/ipfs/bafybeiadjwxddlh4poqqa5i64hxypss4rbn6bxwxddbi5eh7tbyx3plo54/\",\n    //             Strings.toString(tokenId),\".json\"\n    //         )\n    //     );\n    // }\n\n    function printNFTsName(uint256 tokenId) view public returns (string memory){\n        require(nftCreators[tokenId] == msg.sender, \"Only the creator can read the NFTs\");\n\n        return nfts[tokenId].name;\n    }\n\n    function printNFTsDescription(uint256 tokenId) view public returns (string memory){\n        require(nftCreators[tokenId] == msg.sender, \"Only the creator can read the NFTs\");\n\n        return nfts[tokenId].description;\n    }\n\n    function printNFTsOwner(uint256 tokenId) view public returns (address){\n\n        return nftCreators[tokenId];\n    }\n\n    function printNFTsPrice(uint256 tokenId) view public returns (uint256){\n\n        return nfts[tokenId].price;\n    }\n\n    function printNFTsforSale(uint256 tokenId) view public returns (bool){\n\n        return nfts[tokenId].forSale;\n    }\n\n    function printUserBalance(address user) view public returns (uint256){\n\n        return user.balance;\n    }\n\n    function prinAllNFTsAvailableforSale() view public returns (string[] memory){\n        string[] memory result;\n        for(uint i = 1; i <= _tokenIds; i++){\n            result[i-1] = nfts[i].name;\n        }\n        return result;  \n    }\n\n}\n",
  "sourcePath": "/home/bridges/eth_sample/contracts/NFTContract.sol",
  "compiler": {
    "name": "solc",
    "version": "0.8.13+commit.abaa5c0e.Emscripten.clang"
  },
  "schemaVersion": "3.4.13",
  "updatedAt": "2023-05-08T19:44:56.206Z",
  "networkType": "ethereum",
  "devdoc": {
    "kind": "dev",
    "methods": {
      "balanceOf(address,uint256)": {
        "details": "See {IERC1155-balanceOf}. Requirements: - `account` cannot be the zero address."
      },
      "balanceOfBatch(address[],uint256[])": {
        "details": "See {IERC1155-balanceOfBatch}. Requirements: - `accounts` and `ids` must have the same length."
      },
      "isApprovedForAll(address,address)": {
        "details": "See {IERC1155-isApprovedForAll}."
      },
      "owner()": {
        "details": "Returns the address of the current owner."
      },
      "renounceOwnership()": {
        "details": "Leaves the contract without owner. It will not be possible to call `onlyOwner` functions anymore. Can only be called by the current owner. NOTE: Renouncing ownership will leave the contract without an owner, thereby removing any functionality that is only available to the owner."
      },
      "safeBatchTransferFrom(address,address,uint256[],uint256[],bytes)": {
        "details": "See {IERC1155-safeBatchTransferFrom}."
      },
      "safeTransferFrom(address,address,uint256,uint256,bytes)": {
        "details": "See {IERC1155-safeTransferFrom}."
      },
      "setApprovalForAll(address,bool)": {
        "details": "See {IERC1155-setApprovalForAll}."
      },
      "supportsInterface(bytes4)": {
        "details": "See {IERC165-supportsInterface}."
      },
      "transferOwnership(address)": {
        "details": "Transfers ownership of the contract to a new account (`newOwner`). Can only be called by the current owner."
      },
      "uri(uint256)": {
        "details": "See {IERC1155MetadataURI-uri}. This implementation returns the same URI for *all* token types. It relies on the token type ID substitution mechanism https://eips.ethereum.org/EIPS/eip-1155#metadata[defined in the EIP]. Clients calling this function must replace the `\\{id\\}` substring with the actual token type ID."
      }
    },
    "version": 1
  },
  "userdoc": {
    "kind": "user",
    "methods": {},
    "version": 1
  }
}