{
  "_format": "hh-sol-artifact-1",
  "contractName": "NFT6883",
  "sourceName": "contracts/NFT6883.sol",
  "abi": [
    {
      "inputs": [
        {
          "internalType": "address",
          "name": "_marketplaceContract",
          "type": "address"
        }
      ],
      "stateMutability": "nonpayable",
      "type": "constructor"
    },
    {
      "anonymous": false,
      "inputs": [
        {
          "indexed": true,
          "internalType": "address",
          "name": "owner",
          "type": "address"
        },
        {
          "indexed": true,
          "internalType": "address",
          "name": "approved",
          "type": "address"
        },
        {
          "indexed": true,
          "internalType": "uint256",
          "name": "tokenId",
          "type": "uint256"
        }
      ],
      "name": "Approval",
      "type": "event"
    },
    {
      "anonymous": false,
      "inputs": [
        {
          "indexed": true,
          "internalType": "address",
          "name": "owner",
          "type": "address"
        },
        {
          "indexed": true,
          "internalType": "address",
          "name": "operator",
          "type": "address"
        },
        {
          "indexed": false,
          "internalType": "bool",
          "name": "approved",
          "type": "bool"
        }
      ],
      "name": "ApprovalForAll",
      "type": "event"
    },
    {
      "anonymous": false,
      "inputs": [
        {
          "indexed": false,
          "internalType": "uint256",
          "name": "",
          "type": "uint256"
        }
      ],
      "name": "NFTMinted",
      "type": "event"
    },
    {
      "anonymous": false,
      "inputs": [
        {
          "indexed": true,
          "internalType": "address",
          "name": "previousOwner",
          "type": "address"
        },
        {
          "indexed": true,
          "internalType": "address",
          "name": "newOwner",
          "type": "address"
        }
      ],
      "name": "OwnershipTransferred",
      "type": "event"
    },
    {
      "anonymous": false,
      "inputs": [
        {
          "indexed": true,
          "internalType": "address",
          "name": "from",
          "type": "address"
        },
        {
          "indexed": true,
          "internalType": "address",
          "name": "to",
          "type": "address"
        },
        {
          "indexed": true,
          "internalType": "uint256",
          "name": "tokenId",
          "type": "uint256"
        }
      ],
      "name": "Transfer",
      "type": "event"
    },
    {
      "inputs": [],
      "name": "MarketplaceAddress",
      "outputs": [
        {
          "internalType": "address",
          "name": "marketplaceContract_",
          "type": "address"
        }
      ],
      "stateMutability": "view",
      "type": "function"
    },
    {
      "inputs": [
        {
          "internalType": "uint256",
          "name": "tokenid",
          "type": "uint256"
        }
      ],
      "name": "NameandDescription",
      "outputs": [
        {
          "internalType": "string",
          "name": "",
          "type": "string"
        }
      ],
      "stateMutability": "view",
      "type": "function"
    },
    {
      "inputs": [
        {
          "internalType": "address",
          "name": "to",
          "type": "address"
        },
        {
          "internalType": "uint256",
          "name": "tokenId",
          "type": "uint256"
        }
      ],
      "name": "approve",
      "outputs": [],
      "stateMutability": "nonpayable",
      "type": "function"
    },
    {
      "inputs": [
        {
          "internalType": "address",
          "name": "owner",
          "type": "address"
        }
      ],
      "name": "balanceOf",
      "outputs": [
        {
          "internalType": "uint256",
          "name": "",
          "type": "uint256"
        }
      ],
      "stateMutability": "view",
      "type": "function"
    },
    {
      "inputs": [
        {
          "internalType": "address",
          "name": "_marketplaceContract",
          "type": "address"
        }
      ],
      "name": "changeMarket",
      "outputs": [],
      "stateMutability": "nonpayable",
      "type": "function"
    },
    {
      "inputs": [
        {
          "internalType": "uint256",
          "name": "tokenId",
          "type": "uint256"
        }
      ],
      "name": "getApproved",
      "outputs": [
        {
          "internalType": "address",
          "name": "",
          "type": "address"
        }
      ],
      "stateMutability": "view",
      "type": "function"
    },
    {
      "inputs": [
        {
          "internalType": "address",
          "name": "owner",
          "type": "address"
        },
        {
          "internalType": "address",
          "name": "operator",
          "type": "address"
        }
      ],
      "name": "isApprovedForAll",
      "outputs": [
        {
          "internalType": "bool",
          "name": "",
          "type": "bool"
        }
      ],
      "stateMutability": "view",
      "type": "function"
    },
    {
      "inputs": [
        {
          "internalType": "string",
          "name": "name",
          "type": "string"
        },
        {
          "internalType": "string",
          "name": "description",
          "type": "string"
        }
      ],
      "name": "mint",
      "outputs": [],
      "stateMutability": "nonpayable",
      "type": "function"
    },
    {
      "inputs": [],
      "name": "name",
      "outputs": [
        {
          "internalType": "string",
          "name": "",
          "type": "string"
        }
      ],
      "stateMutability": "view",
      "type": "function"
    },
    {
      "inputs": [],
      "name": "owner",
      "outputs": [
        {
          "internalType": "address",
          "name": "",
          "type": "address"
        }
      ],
      "stateMutability": "view",
      "type": "function"
    },
    {
      "inputs": [
        {
          "internalType": "uint256",
          "name": "tokenId",
          "type": "uint256"
        }
      ],
      "name": "ownerOf",
      "outputs": [
        {
          "internalType": "address",
          "name": "",
          "type": "address"
        }
      ],
      "stateMutability": "view",
      "type": "function"
    },
    {
      "inputs": [],
      "name": "renounceOwnership",
      "outputs": [],
      "stateMutability": "nonpayable",
      "type": "function"
    },
    {
      "inputs": [
        {
          "internalType": "address",
          "name": "from",
          "type": "address"
        },
        {
          "internalType": "address",
          "name": "to",
          "type": "address"
        },
        {
          "internalType": "uint256",
          "name": "tokenId",
          "type": "uint256"
        }
      ],
      "name": "safeTransferFrom",
      "outputs": [],
      "stateMutability": "nonpayable",
      "type": "function"
    },
    {
      "inputs": [
        {
          "internalType": "address",
          "name": "from",
          "type": "address"
        },
        {
          "internalType": "address",
          "name": "to",
          "type": "address"
        },
        {
          "internalType": "uint256",
          "name": "tokenId",
          "type": "uint256"
        },
        {
          "internalType": "bytes",
          "name": "data",
          "type": "bytes"
        }
      ],
      "name": "safeTransferFrom",
      "outputs": [],
      "stateMutability": "nonpayable",
      "type": "function"
    },
    {
      "inputs": [
        {
          "internalType": "address",
          "name": "operator",
          "type": "address"
        },
        {
          "internalType": "bool",
          "name": "approved",
          "type": "bool"
        }
      ],
      "name": "setApprovalForAll",
      "outputs": [],
      "stateMutability": "nonpayable",
      "type": "function"
    },
    {
      "inputs": [
        {
          "internalType": "bytes4",
          "name": "interfaceId",
          "type": "bytes4"
        }
      ],
      "name": "supportsInterface",
      "outputs": [
        {
          "internalType": "bool",
          "name": "",
          "type": "bool"
        }
      ],
      "stateMutability": "view",
      "type": "function"
    },
    {
      "inputs": [],
      "name": "symbol",
      "outputs": [
        {
          "internalType": "string",
          "name": "",
          "type": "string"
        }
      ],
      "stateMutability": "view",
      "type": "function"
    },
    {
      "inputs": [
        {
          "internalType": "uint256",
          "name": "tokenId",
          "type": "uint256"
        }
      ],
      "name": "tokenURI",
      "outputs": [
        {
          "internalType": "string",
          "name": "",
          "type": "string"
        }
      ],
      "stateMutability": "view",
      "type": "function"
    },
    {
      "inputs": [
        {
          "internalType": "address",
          "name": "from",
          "type": "address"
        },
        {
          "internalType": "address",
          "name": "to",
          "type": "address"
        },
        {
          "internalType": "uint256",
          "name": "tokenId",
          "type": "uint256"
        }
      ],
      "name": "transferFrom",
      "outputs": [],
      "stateMutability": "nonpayable",
      "type": "function"
    },
    {
      "inputs": [
        {
          "internalType": "address",
          "name": "newOwner",
          "type": "address"
        }
      ],
      "name": "transferOwnership",
      "outputs": [],
      "stateMutability": "nonpayable",
      "type": "function"
    }
  ],
  "bytecode": "0x60806040523480156200001157600080fd5b506040516200364938038062003649833981810160405281019062000037919062000269565b6040518060400160405280601681526020017f363838334e46544d61726b6574506c61636543617264000000000000000000008152506040518060400160405280600481526020017f36383833000000000000000000000000000000000000000000000000000000008152508160009081620000b4919062000515565b508060019081620000c6919062000515565b505050620000e9620000dd6200013160201b60201c565b6200013960201b60201c565b80600960006101000a81548173ffffffffffffffffffffffffffffffffffffffff021916908373ffffffffffffffffffffffffffffffffffffffff16021790555050620005fc565b600033905090565b6000600760009054906101000a900473ffffffffffffffffffffffffffffffffffffffff16905081600760006101000a81548173ffffffffffffffffffffffffffffffffffffffff021916908373ffffffffffffffffffffffffffffffffffffffff1602179055508173ffffffffffffffffffffffffffffffffffffffff168173ffffffffffffffffffffffffffffffffffffffff167f8be0079c531659141344cd1fd0a4f28419497f9722a3daafe3b4186f6b6457e060405160405180910390a35050565b600080fd5b600073ffffffffffffffffffffffffffffffffffffffff82169050919050565b6000620002318262000204565b9050919050565b620002438162000224565b81146200024f57600080fd5b50565b600081519050620002638162000238565b92915050565b600060208284031215620002825762000281620001ff565b5b6000620002928482850162000252565b91505092915050565b600081519050919050565b7f4e487b7100000000000000000000000000000000000000000000000000000000600052604160045260246000fd5b7f4e487b7100000000000000000000000000000000000000000000000000000000600052602260045260246000fd5b600060028204905060018216806200031d57607f821691505b602082108103620003335762000332620002d5565b5b50919050565b60008190508160005260206000209050919050565b60006020601f8301049050919050565b600082821b905092915050565b6000600883026200039d7fffffffffffffffffffffffffffffffffffffffffffffffffffffffffffffffff826200035e565b620003a986836200035e565b95508019841693508086168417925050509392505050565b6000819050919050565b6000819050919050565b6000620003f6620003f0620003ea84620003c1565b620003cb565b620003c1565b9050919050565b6000819050919050565b6200041283620003d5565b6200042a6200042182620003fd565b8484546200036b565b825550505050565b600090565b6200044162000432565b6200044e81848462000407565b505050565b5b8181101562000476576200046a60008262000437565b60018101905062000454565b5050565b601f821115620004c5576200048f8162000339565b6200049a846200034e565b81016020851015620004aa578190505b620004c2620004b9856200034e565b83018262000453565b50505b505050565b600082821c905092915050565b6000620004ea60001984600802620004ca565b1980831691505092915050565b6000620005058383620004d7565b9150826002028217905092915050565b62000520826200029b565b67ffffffffffffffff8111156200053c576200053b620002a6565b5b62000548825462000304565b620005558282856200047a565b600060209050601f8311600181146200058d576000841562000578578287015190505b620005848582620004f7565b865550620005f4565b601f1984166200059d8662000339565b60005b82811015620005c757848901518255600182019150602085019450602081019050620005a0565b86831015620005e75784890151620005e3601f891682620004d7565b8355505b6001600288020188555050505b505050505050565b61303d806200060c6000396000f3fe608060405234801561001057600080fd5b506004361061012c5760003560e01c806370a08231116100ad578063a22cb46511610071578063a22cb4651461032f578063b88d4fde1461034b578063c87b56dd14610367578063e985e9c514610397578063f2fde38b146103c75761012c565b806370a082311461029d578063715018a6146102cd5780638aa0fdad146102d75780638da5cb5b146102f357806395d89b41146103115761012c565b806323b872dd116100f457806323b872dd146101e957806342842e0e146102055780635c3ef427146102215780636352211e1461023d57806364d278161461026d5761012c565b806301ffc9a71461013157806306fdde0314610161578063081812fc1461017f578063095ea7b3146101af57806321aa5fac146101cb575b600080fd5b61014b60048036038101906101469190611d97565b6103e3565b6040516101589190611ddf565b60405180910390f35b6101696104c5565b6040516101769190611e8a565b60405180910390f35b61019960048036038101906101949190611ee2565b610557565b6040516101a69190611f50565b60405180910390f35b6101c960048036038101906101c49190611f97565b61059d565b005b6101d36106b4565b6040516101e09190611f50565b60405180910390f35b61020360048036038101906101fe9190611fd7565b6106de565b005b61021f600480360381019061021a9190611fd7565b61073e565b005b61023b6004803603810190610236919061202a565b61075e565b005b61025760048036038101906102529190611ee2565b6107aa565b6040516102649190611f50565b60405180910390f35b61028760048036038101906102829190611ee2565b610830565b6040516102949190611e8a565b60405180910390f35b6102b760048036038101906102b2919061202a565b610842565b6040516102c49190612066565b60405180910390f35b6102d56108f9565b005b6102f160048036038101906102ec91906121b6565b61090d565b005b6102fb6109c3565b6040516103089190611f50565b60405180910390f35b6103196109ed565b6040516103269190611e8a565b60405180910390f35b6103496004803603810190610344919061225a565b610a7f565b005b6103656004803603810190610360919061233b565b610a95565b005b610381600480360381019061037c9190611ee2565b610af7565b60405161038e9190611e8a565b60405180910390f35b6103b160048036038101906103ac91906123be565b610c09565b6040516103be9190611ddf565b60405180910390f35b6103e160048036038101906103dc919061202a565b610c9d565b005b60007f80ac58cd000000000000000000000000000000000000000000000000000000007bffffffffffffffffffffffffffffffffffffffffffffffffffffffff1916827bffffffffffffffffffffffffffffffffffffffffffffffffffffffff191614806104ae57507f5b5e139f000000000000000000000000000000000000000000000000000000007bffffffffffffffffffffffffffffffffffffffffffffffffffffffff1916827bffffffffffffffffffffffffffffffffffffffffffffffffffffffff1916145b806104be57506104bd82610d20565b5b9050919050565b6060600080546104d49061242d565b80601f01602080910402602001604051908101604052809291908181526020018280546105009061242d565b801561054d5780601f106105225761010080835404028352916020019161054d565b820191906000526020600020905b81548152906001019060200180831161053057829003601f168201915b5050505050905090565b600061056282610d8a565b6004600083815260200190815260200160002060009054906101000a900473ffffffffffffffffffffffffffffffffffffffff169050919050565b60006105a8826107aa565b90508073ffffffffffffffffffffffffffffffffffffffff168373ffffffffffffffffffffffffffffffffffffffff1603610618576040517f08c379a000000000000000000000000000000000000000000000000000000000815260040161060f906124d0565b60405180910390fd5b8073ffffffffffffffffffffffffffffffffffffffff16610637610dd5565b73ffffffffffffffffffffffffffffffffffffffff161480610666575061066581610660610dd5565b610c09565b5b6106a5576040517f08c379a000000000000000000000000000000000000000000000000000000000815260040161069c90612562565b60405180910390fd5b6106af8383610ddd565b505050565b6000600960009054906101000a900473ffffffffffffffffffffffffffffffffffffffff16905090565b6106ef6106e9610dd5565b82610e96565b61072e576040517f08c379a0000000000000000000000000000000000000000000000000000000008152600401610725906125f4565b60405180910390fd5b610739838383610f2b565b505050565b61075983838360405180602001604052806000815250610a95565b505050565b610766611224565b80600960006101000a81548173ffffffffffffffffffffffffffffffffffffffff021916908373ffffffffffffffffffffffffffffffffffffffff16021790555050565b6000806107b6836112a2565b9050600073ffffffffffffffffffffffffffffffffffffffff168173ffffffffffffffffffffffffffffffffffffffff1603610827576040517f08c379a000000000000000000000000000000000000000000000000000000000815260040161081e90612660565b60405180910390fd5b80915050919050565b606061083b82610af7565b9050919050565b60008073ffffffffffffffffffffffffffffffffffffffff168273ffffffffffffffffffffffffffffffffffffffff16036108b2576040517f08c379a00000000000000000000000000000000000000000000000000000000081526004016108a9906126f2565b60405180910390fd5b600360008373ffffffffffffffffffffffffffffffffffffffff1673ffffffffffffffffffffffffffffffffffffffff168152602001908152602001600020549050919050565b610901611224565b61090b60006112df565b565b61091760086113a5565b600061092360086113bb565b905061092f33826113c9565b61095a81848460405160200161094692919061279a565b6040516020818303038152906040526113e7565b610987600960009054906101000a900473ffffffffffffffffffffffffffffffffffffffff166001610a7f565b7fd9dc24857f317ed9abbbb42e920ede0104231eb1d3d70236a74887ffaf159868816040516109b69190612066565b60405180910390a1505050565b6000600760009054906101000a900473ffffffffffffffffffffffffffffffffffffffff16905090565b6060600180546109fc9061242d565b80601f0160208091040260200160405190810160405280929190818152602001828054610a289061242d565b8015610a755780601f10610a4a57610100808354040283529160200191610a75565b820191906000526020600020905b815481529060010190602001808311610a5857829003601f168201915b5050505050905090565b610a91610a8a610dd5565b8383611454565b5050565b610aa6610aa0610dd5565b83610e96565b610ae5576040517f08c379a0000000000000000000000000000000000000000000000000000000008152600401610adc906125f4565b60405180910390fd5b610af1848484846115c0565b50505050565b6060610b0282610d8a565b6000600660008481526020019081526020016000208054610b229061242d565b80601f0160208091040260200160405190810160405280929190818152602001828054610b4e9061242d565b8015610b9b5780601f10610b7057610100808354040283529160200191610b9b565b820191906000526020600020905b815481529060010190602001808311610b7e57829003601f168201915b505050505090506000610bac61161c565b90506000815103610bc1578192505050610c04565b600082511115610bf6578082604051602001610bde9291906127c9565b60405160208183030381529060405292505050610c04565b610bff84611633565b925050505b919050565b6000600560008473ffffffffffffffffffffffffffffffffffffffff1673ffffffffffffffffffffffffffffffffffffffff16815260200190815260200160002060008373ffffffffffffffffffffffffffffffffffffffff1673ffffffffffffffffffffffffffffffffffffffff16815260200190815260200160002060009054906101000a900460ff16905092915050565b610ca5611224565b600073ffffffffffffffffffffffffffffffffffffffff168173ffffffffffffffffffffffffffffffffffffffff1603610d14576040517f08c379a0000000000000000000000000000000000000000000000000000000008152600401610d0b9061285f565b60405180910390fd5b610d1d816112df565b50565b60007f01ffc9a7000000000000000000000000000000000000000000000000000000007bffffffffffffffffffffffffffffffffffffffffffffffffffffffff1916827bffffffffffffffffffffffffffffffffffffffffffffffffffffffff1916149050919050565b610d938161169b565b610dd2576040517f08c379a0000000000000000000000000000000000000000000000000000000008152600401610dc990612660565b60405180910390fd5b50565b600033905090565b816004600083815260200190815260200160002060006101000a81548173ffffffffffffffffffffffffffffffffffffffff021916908373ffffffffffffffffffffffffffffffffffffffff160217905550808273ffffffffffffffffffffffffffffffffffffffff16610e50836107aa565b73ffffffffffffffffffffffffffffffffffffffff167f8c5be1e5ebec7d5bd14f71427d1e84f3dd0314c0f7b2291e5b200ac8c7c3b92560405160405180910390a45050565b600080610ea2836107aa565b90508073ffffffffffffffffffffffffffffffffffffffff168473ffffffffffffffffffffffffffffffffffffffff161480610ee45750610ee38185610c09565b5b80610f2257508373ffffffffffffffffffffffffffffffffffffffff16610f0a84610557565b73ffffffffffffffffffffffffffffffffffffffff16145b91505092915050565b8273ffffffffffffffffffffffffffffffffffffffff16610f4b826107aa565b73ffffffffffffffffffffffffffffffffffffffff1614610fa1576040517f08c379a0000000000000000000000000000000000000000000000000000000008152600401610f98906128f1565b60405180910390fd5b600073ffffffffffffffffffffffffffffffffffffffff168273ffffffffffffffffffffffffffffffffffffffff1603611010576040517f08c379a000000000000000000000000000000000000000000000000000000000815260040161100790612983565b60405180910390fd5b61101d83838360016116dc565b8273ffffffffffffffffffffffffffffffffffffffff1661103d826107aa565b73ffffffffffffffffffffffffffffffffffffffff1614611093576040517f08c379a000000000000000000000000000000000000000000000000000000000815260040161108a906128f1565b60405180910390fd5b6004600082815260200190815260200160002060006101000a81549073ffffffffffffffffffffffffffffffffffffffff02191690556001600360008573ffffffffffffffffffffffffffffffffffffffff1673ffffffffffffffffffffffffffffffffffffffff168152602001908152602001600020600082825403925050819055506001600360008473ffffffffffffffffffffffffffffffffffffffff1673ffffffffffffffffffffffffffffffffffffffff16815260200190815260200160002060008282540192505081905550816002600083815260200190815260200160002060006101000a81548173ffffffffffffffffffffffffffffffffffffffff021916908373ffffffffffffffffffffffffffffffffffffffff160217905550808273ffffffffffffffffffffffffffffffffffffffff168473ffffffffffffffffffffffffffffffffffffffff167fddf252ad1be2c89b69c2b068fc378daa952ba7f163c4a11628f55a4df523b3ef60405160405180910390a461121f83838360016116e2565b505050565b61122c610dd5565b73ffffffffffffffffffffffffffffffffffffffff1661124a6109c3565b73ffffffffffffffffffffffffffffffffffffffff16146112a0576040517f08c379a0000000000000000000000000000000000000000000000000000000008152600401611297906129ef565b60405180910390fd5b565b60006002600083815260200190815260200160002060009054906101000a900473ffffffffffffffffffffffffffffffffffffffff169050919050565b6000600760009054906101000a900473ffffffffffffffffffffffffffffffffffffffff16905081600760006101000a81548173ffffffffffffffffffffffffffffffffffffffff021916908373ffffffffffffffffffffffffffffffffffffffff1602179055508173ffffffffffffffffffffffffffffffffffffffff168173ffffffffffffffffffffffffffffffffffffffff167f8be0079c531659141344cd1fd0a4f28419497f9722a3daafe3b4186f6b6457e060405160405180910390a35050565b6001816000016000828254019250508190555050565b600081600001549050919050565b6113e38282604051806020016040528060008152506116e8565b5050565b6113f08261169b565b61142f576040517f08c379a000000000000000000000000000000000000000000000000000000000815260040161142690612a81565b60405180910390fd5b8060066000848152602001908152602001600020908161144f9190612c4d565b505050565b8173ffffffffffffffffffffffffffffffffffffffff168373ffffffffffffffffffffffffffffffffffffffff16036114c2576040517f08c379a00000000000000000000000000000000000000000000000000000000081526004016114b990612d6b565b60405180910390fd5b80600560008573ffffffffffffffffffffffffffffffffffffffff1673ffffffffffffffffffffffffffffffffffffffff16815260200190815260200160002060008473ffffffffffffffffffffffffffffffffffffffff1673ffffffffffffffffffffffffffffffffffffffff16815260200190815260200160002060006101000a81548160ff0219169083151502179055508173ffffffffffffffffffffffffffffffffffffffff168373ffffffffffffffffffffffffffffffffffffffff167f17307eab39ab6107e8899845ad3d59bd9653f200f220920489ca2b5937696c31836040516115b39190611ddf565b60405180910390a3505050565b6115cb848484610f2b565b6115d784848484611743565b611616576040517f08c379a000000000000000000000000000000000000000000000000000000000815260040161160d90612dfd565b60405180910390fd5b50505050565b606060405180602001604052806000815250905090565b606061163e82610d8a565b600061164861161c565b905060008151116116685760405180602001604052806000815250611693565b80611672846118ca565b6040516020016116839291906127c9565b6040516020818303038152906040525b915050919050565b60008073ffffffffffffffffffffffffffffffffffffffff166116bd836112a2565b73ffffffffffffffffffffffffffffffffffffffff1614159050919050565b50505050565b50505050565b6116f28383611998565b6116ff6000848484611743565b61173e576040517f08c379a000000000000000000000000000000000000000000000000000000000815260040161173590612dfd565b60405180910390fd5b505050565b60006117648473ffffffffffffffffffffffffffffffffffffffff16611bb5565b156118bd578373ffffffffffffffffffffffffffffffffffffffff1663150b7a0261178d610dd5565b8786866040518563ffffffff1660e01b81526004016117af9493929190612e72565b6020604051808303816000875af19250505080156117eb57506040513d601f19601f820116820180604052508101906117e89190612ed3565b60015b61186d573d806000811461181b576040519150601f19603f3d011682016040523d82523d6000602084013e611820565b606091505b506000815103611865576040517f08c379a000000000000000000000000000000000000000000000000000000000815260040161185c90612dfd565b60405180910390fd5b805181602001fd5b63150b7a0260e01b7bffffffffffffffffffffffffffffffffffffffffffffffffffffffff1916817bffffffffffffffffffffffffffffffffffffffffffffffffffffffff1916149150506118c2565b600190505b949350505050565b6060600060016118d984611bd8565b01905060008167ffffffffffffffff8111156118f8576118f761208b565b5b6040519080825280601f01601f19166020018201604052801561192a5781602001600182028036833780820191505090505b509050600082602001820190505b60011561198d578080600190039150507f3031323334353637383961626364656600000000000000000000000000000000600a86061a8153600a858161198157611980612f00565b5b04945060008503611938575b819350505050919050565b600073ffffffffffffffffffffffffffffffffffffffff168273ffffffffffffffffffffffffffffffffffffffff1603611a07576040517f08c379a00000000000000000000000000000000000000000000000000000000081526004016119fe90612f7b565b60405180910390fd5b611a108161169b565b15611a50576040517f08c379a0000000000000000000000000000000000000000000000000000000008152600401611a4790612fe7565b60405180910390fd5b611a5e6000838360016116dc565b611a678161169b565b15611aa7576040517f08c379a0000000000000000000000000000000000000000000000000000000008152600401611a9e90612fe7565b60405180910390fd5b6001600360008473ffffffffffffffffffffffffffffffffffffffff1673ffffffffffffffffffffffffffffffffffffffff16815260200190815260200160002060008282540192505081905550816002600083815260200190815260200160002060006101000a81548173ffffffffffffffffffffffffffffffffffffffff021916908373ffffffffffffffffffffffffffffffffffffffff160217905550808273ffffffffffffffffffffffffffffffffffffffff16600073ffffffffffffffffffffffffffffffffffffffff167fddf252ad1be2c89b69c2b068fc378daa952ba7f163c4a11628f55a4df523b3ef60405160405180910390a4611bb16000838360016116e2565b5050565b6000808273ffffffffffffffffffffffffffffffffffffffff163b119050919050565b600080600090507a184f03e93ff9f4daa797ed6e38ed64bf6a1f0100000000000000008310611c36577a184f03e93ff9f4daa797ed6e38ed64bf6a1f0100000000000000008381611c2c57611c2b612f00565b5b0492506040810190505b6d04ee2d6d415b85acef81000000008310611c73576d04ee2d6d415b85acef81000000008381611c6957611c68612f00565b5b0492506020810190505b662386f26fc100008310611ca257662386f26fc100008381611c9857611c97612f00565b5b0492506010810190505b6305f5e1008310611ccb576305f5e1008381611cc157611cc0612f00565b5b0492506008810190505b6127108310611cf0576127108381611ce657611ce5612f00565b5b0492506004810190505b60648310611d135760648381611d0957611d08612f00565b5b0492506002810190505b600a8310611d22576001810190505b80915050919050565b6000604051905090565b600080fd5b600080fd5b60007fffffffff0000000000000000000000000000000000000000000000000000000082169050919050565b611d7481611d3f565b8114611d7f57600080fd5b50565b600081359050611d9181611d6b565b92915050565b600060208284031215611dad57611dac611d35565b5b6000611dbb84828501611d82565b91505092915050565b60008115159050919050565b611dd981611dc4565b82525050565b6000602082019050611df46000830184611dd0565b92915050565b600081519050919050565b600082825260208201905092915050565b60005b83811015611e34578082015181840152602081019050611e19565b60008484015250505050565b6000601f19601f8301169050919050565b6000611e5c82611dfa565b611e668185611e05565b9350611e76818560208601611e16565b611e7f81611e40565b840191505092915050565b60006020820190508181036000830152611ea48184611e51565b905092915050565b6000819050919050565b611ebf81611eac565b8114611eca57600080fd5b50565b600081359050611edc81611eb6565b92915050565b600060208284031215611ef857611ef7611d35565b5b6000611f0684828501611ecd565b91505092915050565b600073ffffffffffffffffffffffffffffffffffffffff82169050919050565b6000611f3a82611f0f565b9050919050565b611f4a81611f2f565b82525050565b6000602082019050611f656000830184611f41565b92915050565b611f7481611f2f565b8114611f7f57600080fd5b50565b600081359050611f9181611f6b565b92915050565b60008060408385031215611fae57611fad611d35565b5b6000611fbc85828601611f82565b9250506020611fcd85828601611ecd565b9150509250929050565b600080600060608486031215611ff057611fef611d35565b5b6000611ffe86828701611f82565b935050602061200f86828701611f82565b925050604061202086828701611ecd565b9150509250925092565b6000602082840312156120405761203f611d35565b5b600061204e84828501611f82565b91505092915050565b61206081611eac565b82525050565b600060208201905061207b6000830184612057565b92915050565b600080fd5b600080fd5b7f4e487b7100000000000000000000000000000000000000000000000000000000600052604160045260246000fd5b6120c382611e40565b810181811067ffffffffffffffff821117156120e2576120e161208b565b5b80604052505050565b60006120f5611d2b565b905061210182826120ba565b919050565b600067ffffffffffffffff8211156121215761212061208b565b5b61212a82611e40565b9050602081019050919050565b82818337600083830152505050565b600061215961215484612106565b6120eb565b90508281526020810184848401111561217557612174612086565b5b612180848285612137565b509392505050565b600082601f83011261219d5761219c612081565b5b81356121ad848260208601612146565b91505092915050565b600080604083850312156121cd576121cc611d35565b5b600083013567ffffffffffffffff8111156121eb576121ea611d3a565b5b6121f785828601612188565b925050602083013567ffffffffffffffff81111561221857612217611d3a565b5b61222485828601612188565b9150509250929050565b61223781611dc4565b811461224257600080fd5b50565b6000813590506122548161222e565b92915050565b6000806040838503121561227157612270611d35565b5b600061227f85828601611f82565b925050602061229085828601612245565b9150509250929050565b600067ffffffffffffffff8211156122b5576122b461208b565b5b6122be82611e40565b9050602081019050919050565b60006122de6122d98461229a565b6120eb565b9050828152602081018484840111156122fa576122f9612086565b5b612305848285612137565b509392505050565b600082601f83011261232257612321612081565b5b81356123328482602086016122cb565b91505092915050565b6000806000806080858703121561235557612354611d35565b5b600061236387828801611f82565b945050602061237487828801611f82565b935050604061238587828801611ecd565b925050606085013567ffffffffffffffff8111156123a6576123a5611d3a565b5b6123b28782880161230d565b91505092959194509250565b600080604083850312156123d5576123d4611d35565b5b60006123e385828601611f82565b92505060206123f485828601611f82565b9150509250929050565b7f4e487b7100000000000000000000000000000000000000000000000000000000600052602260045260246000fd5b6000600282049050600182168061244557607f821691505b602082108103612458576124576123fe565b5b50919050565b7f4552433732313a20617070726f76616c20746f2063757272656e74206f776e6560008201527f7200000000000000000000000000000000000000000000000000000000000000602082015250565b60006124ba602183611e05565b91506124c58261245e565b604082019050919050565b600060208201905081810360008301526124e9816124ad565b9050919050565b7f4552433732313a20617070726f76652063616c6c6572206973206e6f7420746f60008201527f6b656e206f776e6572206f7220617070726f76656420666f7220616c6c000000602082015250565b600061254c603d83611e05565b9150612557826124f0565b604082019050919050565b6000602082019050818103600083015261257b8161253f565b9050919050565b7f4552433732313a2063616c6c6572206973206e6f7420746f6b656e206f776e6560008201527f72206f7220617070726f76656400000000000000000000000000000000000000602082015250565b60006125de602d83611e05565b91506125e982612582565b604082019050919050565b6000602082019050818103600083015261260d816125d1565b9050919050565b7f4552433732313a20696e76616c696420746f6b656e2049440000000000000000600082015250565b600061264a601883611e05565b915061265582612614565b602082019050919050565b600060208201905081810360008301526126798161263d565b9050919050565b7f4552433732313a2061646472657373207a65726f206973206e6f74206120766160008201527f6c6964206f776e65720000000000000000000000000000000000000000000000602082015250565b60006126dc602983611e05565b91506126e782612680565b604082019050919050565b6000602082019050818103600083015261270b816126cf565b9050919050565b600081905092915050565b600061272882611dfa565b6127328185612712565b9350612742818560208601611e16565b80840191505092915050565b7f2c00000000000000000000000000000000000000000000000000000000000000600082015250565b6000612784600183612712565b915061278f8261274e565b600182019050919050565b60006127a6828561271d565b91506127b182612777565b91506127bd828461271d565b91508190509392505050565b60006127d5828561271d565b91506127e1828461271d565b91508190509392505050565b7f4f776e61626c653a206e6577206f776e657220697320746865207a65726f206160008201527f6464726573730000000000000000000000000000000000000000000000000000602082015250565b6000612849602683611e05565b9150612854826127ed565b604082019050919050565b600060208201905081810360008301526128788161283c565b9050919050565b7f4552433732313a207472616e736665722066726f6d20696e636f72726563742060008201527f6f776e6572000000000000000000000000000000000000000000000000000000602082015250565b60006128db602583611e05565b91506128e68261287f565b604082019050919050565b6000602082019050818103600083015261290a816128ce565b9050919050565b7f4552433732313a207472616e7366657220746f20746865207a65726f2061646460008201527f7265737300000000000000000000000000000000000000000000000000000000602082015250565b600061296d602483611e05565b915061297882612911565b604082019050919050565b6000602082019050818103600083015261299c81612960565b9050919050565b7f4f776e61626c653a2063616c6c6572206973206e6f7420746865206f776e6572600082015250565b60006129d9602083611e05565b91506129e4826129a3565b602082019050919050565b60006020820190508181036000830152612a08816129cc565b9050919050565b7f45524337323155524953746f726167653a2055524920736574206f66206e6f6e60008201527f6578697374656e7420746f6b656e000000000000000000000000000000000000602082015250565b6000612a6b602e83611e05565b9150612a7682612a0f565b604082019050919050565b60006020820190508181036000830152612a9a81612a5e565b9050919050565b60008190508160005260206000209050919050565b60006020601f8301049050919050565b600082821b905092915050565b600060088302612b037fffffffffffffffffffffffffffffffffffffffffffffffffffffffffffffffff82612ac6565b612b0d8683612ac6565b95508019841693508086168417925050509392505050565b6000819050919050565b6000612b4a612b45612b4084611eac565b612b25565b611eac565b9050919050565b6000819050919050565b612b6483612b2f565b612b78612b7082612b51565b848454612ad3565b825550505050565b600090565b612b8d612b80565b612b98818484612b5b565b505050565b5b81811015612bbc57612bb1600082612b85565b600181019050612b9e565b5050565b601f821115612c0157612bd281612aa1565b612bdb84612ab6565b81016020851015612bea578190505b612bfe612bf685612ab6565b830182612b9d565b50505b505050565b600082821c905092915050565b6000612c2460001984600802612c06565b1980831691505092915050565b6000612c3d8383612c13565b9150826002028217905092915050565b612c5682611dfa565b67ffffffffffffffff811115612c6f57612c6e61208b565b5b612c79825461242d565b612c84828285612bc0565b600060209050601f831160018114612cb75760008415612ca5578287015190505b612caf8582612c31565b865550612d17565b601f198416612cc586612aa1565b60005b82811015612ced57848901518255600182019150602085019450602081019050612cc8565b86831015612d0a5784890151612d06601f891682612c13565b8355505b6001600288020188555050505b505050505050565b7f4552433732313a20617070726f766520746f2063616c6c657200000000000000600082015250565b6000612d55601983611e05565b9150612d6082612d1f565b602082019050919050565b60006020820190508181036000830152612d8481612d48565b9050919050565b7f4552433732313a207472616e7366657220746f206e6f6e20455243373231526560008201527f63656976657220696d706c656d656e7465720000000000000000000000000000602082015250565b6000612de7603283611e05565b9150612df282612d8b565b604082019050919050565b60006020820190508181036000830152612e1681612dda565b9050919050565b600081519050919050565b600082825260208201905092915050565b6000612e4482612e1d565b612e4e8185612e28565b9350612e5e818560208601611e16565b612e6781611e40565b840191505092915050565b6000608082019050612e876000830187611f41565b612e946020830186611f41565b612ea16040830185612057565b8181036060830152612eb38184612e39565b905095945050505050565b600081519050612ecd81611d6b565b92915050565b600060208284031215612ee957612ee8611d35565b5b6000612ef784828501612ebe565b91505092915050565b7f4e487b7100000000000000000000000000000000000000000000000000000000600052601260045260246000fd5b7f4552433732313a206d696e7420746f20746865207a65726f2061646472657373600082015250565b6000612f65602083611e05565b9150612f7082612f2f565b602082019050919050565b60006020820190508181036000830152612f9481612f58565b9050919050565b7f4552433732313a20746f6b656e20616c7265616479206d696e74656400000000600082015250565b6000612fd1601c83611e05565b9150612fdc82612f9b565b602082019050919050565b6000602082019050818103600083015261300081612fc4565b905091905056fea2646970667358221220888085809a0c09099ed7a2b725cc464b997c88db1fe4315ded91ee0b9079d8be64736f6c63430008120033",
  "linkReferences": {},
  "deployedLinkReferences": {}
}