{
  "_format": "hh-sol-artifact-1",
  "contractName": "Marketplace",
  "sourceName": "contracts/Marketplace.sol",
  "abi": [
    {
      "inputs": [],
      "stateMutability": "nonpayable",
      "type": "constructor"
    },
    {
      "anonymous": false,
      "inputs": [
        {
          "indexed": false,
          "internalType": "address",
          "name": "nftContract",
          "type": "address"
        },
        {
          "indexed": false,
          "internalType": "uint256",
          "name": "tokenId",
          "type": "uint256"
        },
        {
          "indexed": false,
          "internalType": "address",
          "name": "seller",
          "type": "address"
        },
        {
          "indexed": false,
          "internalType": "address",
          "name": "owner",
          "type": "address"
        },
        {
          "indexed": false,
          "internalType": "uint256",
          "name": "price",
          "type": "uint256"
        }
      ],
      "name": "NFTListed",
      "type": "event"
    },
    {
      "anonymous": false,
      "inputs": [
        {
          "indexed": false,
          "internalType": "address",
          "name": "nftContract",
          "type": "address"
        },
        {
          "indexed": false,
          "internalType": "uint256",
          "name": "tokenId",
          "type": "uint256"
        },
        {
          "indexed": false,
          "internalType": "address",
          "name": "seller",
          "type": "address"
        },
        {
          "indexed": false,
          "internalType": "address",
          "name": "owner",
          "type": "address"
        },
        {
          "indexed": false,
          "internalType": "uint256",
          "name": "price",
          "type": "uint256"
        }
      ],
      "name": "NFTSold",
      "type": "event"
    },
    {
      "anonymous": false,
      "inputs": [
        {
          "indexed": false,
          "internalType": "address",
          "name": "Sender",
          "type": "address"
        },
        {
          "indexed": false,
          "internalType": "uint256",
          "name": "Value",
          "type": "uint256"
        }
      ],
      "name": "Received",
      "type": "event"
    },
    {
      "inputs": [],
      "name": "LISTING_FEE",
      "outputs": [
        {
          "internalType": "uint256",
          "name": "",
          "type": "uint256"
        }
      ],
      "stateMutability": "view",
      "type": "function"
    },
    {
      "inputs": [
        {
          "internalType": "address",
          "name": "_nftContract",
          "type": "address"
        },
        {
          "internalType": "uint256",
          "name": "_tokenId",
          "type": "uint256"
        }
      ],
      "name": "buyNft",
      "outputs": [],
      "stateMutability": "payable",
      "type": "function"
    },
    {
      "inputs": [],
      "name": "getBalance",
      "outputs": [
        {
          "internalType": "uint256",
          "name": "",
          "type": "uint256"
        }
      ],
      "stateMutability": "view",
      "type": "function"
    },
    {
      "inputs": [],
      "name": "getListedNfts",
      "outputs": [
        {
          "components": [
            {
              "internalType": "address",
              "name": "nftContract",
              "type": "address"
            },
            {
              "internalType": "uint256",
              "name": "tokenId",
              "type": "uint256"
            },
            {
              "internalType": "address payable",
              "name": "seller",
              "type": "address"
            },
            {
              "internalType": "address payable",
              "name": "owner",
              "type": "address"
            },
            {
              "internalType": "uint256",
              "name": "price",
              "type": "uint256"
            },
            {
              "internalType": "bool",
              "name": "listed",
              "type": "bool"
            }
          ],
          "internalType": "struct Marketplace.NFT[]",
          "name": "",
          "type": "tuple[]"
        }
      ],
      "stateMutability": "view",
      "type": "function"
    },
    {
      "inputs": [],
      "name": "getMyListedNfts",
      "outputs": [
        {
          "components": [
            {
              "internalType": "address",
              "name": "nftContract",
              "type": "address"
            },
            {
              "internalType": "uint256",
              "name": "tokenId",
              "type": "uint256"
            },
            {
              "internalType": "address payable",
              "name": "seller",
              "type": "address"
            },
            {
              "internalType": "address payable",
              "name": "owner",
              "type": "address"
            },
            {
              "internalType": "uint256",
              "name": "price",
              "type": "uint256"
            },
            {
              "internalType": "bool",
              "name": "listed",
              "type": "bool"
            }
          ],
          "internalType": "struct Marketplace.NFT[]",
          "name": "",
          "type": "tuple[]"
        }
      ],
      "stateMutability": "view",
      "type": "function"
    },
    {
      "inputs": [],
      "name": "getMyNfts",
      "outputs": [
        {
          "components": [
            {
              "internalType": "address",
              "name": "nftContract",
              "type": "address"
            },
            {
              "internalType": "uint256",
              "name": "tokenId",
              "type": "uint256"
            },
            {
              "internalType": "address payable",
              "name": "seller",
              "type": "address"
            },
            {
              "internalType": "address payable",
              "name": "owner",
              "type": "address"
            },
            {
              "internalType": "uint256",
              "name": "price",
              "type": "uint256"
            },
            {
              "internalType": "bool",
              "name": "listed",
              "type": "bool"
            }
          ],
          "internalType": "struct Marketplace.NFT[]",
          "name": "",
          "type": "tuple[]"
        }
      ],
      "stateMutability": "view",
      "type": "function"
    },
    {
      "inputs": [
        {
          "internalType": "address",
          "name": "_nftContract",
          "type": "address"
        },
        {
          "internalType": "uint256",
          "name": "_tokenId",
          "type": "uint256"
        }
      ],
      "name": "getMySpecificListedNft",
      "outputs": [
        {
          "components": [
            {
              "internalType": "address",
              "name": "nftContract",
              "type": "address"
            },
            {
              "internalType": "uint256",
              "name": "tokenId",
              "type": "uint256"
            },
            {
              "internalType": "address payable",
              "name": "seller",
              "type": "address"
            },
            {
              "internalType": "address payable",
              "name": "owner",
              "type": "address"
            },
            {
              "internalType": "uint256",
              "name": "price",
              "type": "uint256"
            },
            {
              "internalType": "bool",
              "name": "listed",
              "type": "bool"
            }
          ],
          "internalType": "struct Marketplace.NFT[]",
          "name": "",
          "type": "tuple[]"
        }
      ],
      "stateMutability": "view",
      "type": "function"
    },
    {
      "inputs": [
        {
          "internalType": "address",
          "name": "_nftContract",
          "type": "address"
        },
        {
          "internalType": "uint256",
          "name": "_tokenId",
          "type": "uint256"
        },
        {
          "internalType": "uint256",
          "name": "_price",
          "type": "uint256"
        }
      ],
      "name": "listNft",
      "outputs": [],
      "stateMutability": "payable",
      "type": "function"
    },
    {
      "inputs": [
        {
          "internalType": "uint256",
          "name": "i",
          "type": "uint256"
        }
      ],
      "name": "removeItem",
      "outputs": [],
      "stateMutability": "nonpayable",
      "type": "function"
    },
    {
      "inputs": [
        {
          "internalType": "address",
          "name": "_nftContract",
          "type": "address"
        },
        {
          "internalType": "uint256",
          "name": "_tokenId",
          "type": "uint256"
        }
      ],
      "name": "removeNFTFromSale",
      "outputs": [
        {
          "components": [
            {
              "internalType": "address",
              "name": "nftContract",
              "type": "address"
            },
            {
              "internalType": "uint256",
              "name": "tokenId",
              "type": "uint256"
            },
            {
              "internalType": "address payable",
              "name": "seller",
              "type": "address"
            },
            {
              "internalType": "address payable",
              "name": "owner",
              "type": "address"
            },
            {
              "internalType": "uint256",
              "name": "price",
              "type": "uint256"
            },
            {
              "internalType": "bool",
              "name": "listed",
              "type": "bool"
            }
          ],
          "internalType": "struct Marketplace.NFT[]",
          "name": "",
          "type": "tuple[]"
        }
      ],
      "stateMutability": "nonpayable",
      "type": "function"
    },
    {
      "inputs": [
        {
          "internalType": "address",
          "name": "_nftContract",
          "type": "address"
        },
        {
          "internalType": "uint256",
          "name": "_tokenId",
          "type": "uint256"
        },
        {
          "internalType": "uint256",
          "name": "_price",
          "type": "uint256"
        }
      ],
      "name": "resellNft",
      "outputs": [],
      "stateMutability": "payable",
      "type": "function"
    },
    {
      "inputs": [
        {
          "internalType": "address payable",
          "name": "_to",
          "type": "address"
        },
        {
          "internalType": "uint256",
          "name": "amount",
          "type": "uint256"
        }
      ],
      "name": "transferETH",
      "outputs": [],
      "stateMutability": "payable",
      "type": "function"
    },
    {
      "inputs": [],
      "name": "withdraw",
      "outputs": [],
      "stateMutability": "payable",
      "type": "function"
    },
    {
      "stateMutability": "payable",
      "type": "receive"
    }
  ],
  "bytecode": "0x6080604052600060035534801561001557600080fd5b50600160008190555033600460006101000a81548173ffffffffffffffffffffffffffffffffffffffff021916908373ffffffffffffffffffffffffffffffffffffffff1602179055506126f48061006e6000396000f3fe6080604052600436106100c65760003560e01c806335697d1f1161007f578063713291711161005957806371329171146102735780637b1a49091461029c5780638d6cb3fb146102b8578063c922b17c146102e357610106565b806335697d1f146102105780633ccfd60b1461024d5780634ddf4f8f1461025757610106565b8063047b07bf1461010b578063073567921461013657806312065fe0146101735780631f4cc4db1461019e5780632b86ae38146101c957806334f5b624146101f457610106565b36610106577f88a5966d370b9919b20f3e2c13ff65706f196a4e32cc2c12bf57088f8852587433346040516100fc929190611d4a565b60405180910390a1005b600080fd5b34801561011757600080fd5b506101206102ff565b60405161012d9190611ef7565b60405180910390f35b34801561014257600080fd5b5061015d60048036038101906101589190611f76565b610632565b60405161016a9190611ef7565b60405180910390f35b34801561017f57600080fd5b50610188610994565b6040516101959190611fb6565b60405180910390f35b3480156101aa57600080fd5b506101b361099c565b6040516101c09190611ef7565b60405180910390f35b3480156101d557600080fd5b506101de610d41565b6040516101eb9190611fb6565b60405180910390f35b61020e60048036038101906102099190611fd1565b610d47565b005b34801561021c57600080fd5b5061023760048036038101906102329190611f76565b610f5f565b6040516102449190611ef7565b60405180910390f35b6102556111c4565b005b610271600480360381019061026c9190611f76565b6112bf565b005b34801561027f57600080fd5b5061029a60048036038101906102959190612024565b6114e7565b005b6102b660048036038101906102b1919061207d565b611599565b005b3480156102c457600080fd5b506102cd6115e4565b6040516102da9190611ef7565b60405180910390f35b6102fd60048036038101906102f89190611fd1565b61184c565b005b6060600061030d6002611b9d565b90506000805b828110156103b2573373ffffffffffffffffffffffffffffffffffffffff166005600060018461034391906120ec565b815260200190815260200160002060030160009054906101000a900473ffffffffffffffffffffffffffffffffffffffff1673ffffffffffffffffffffffffffffffffffffffff160361039f57818061039b90612120565b9250505b80806103aa90612120565b915050610313565b5060008167ffffffffffffffff8111156103cf576103ce612168565b5b60405190808252806020026020018201604052801561040857816020015b6103f5611c76565b8152602001906001900390816103ed5790505b5090506000805b84811015610627573373ffffffffffffffffffffffffffffffffffffffff166005600060018461043f91906120ec565b815260200190815260200160002060030160009054906101000a900473ffffffffffffffffffffffffffffffffffffffff1673ffffffffffffffffffffffffffffffffffffffff1603610614576005600060018361049d91906120ec565b81526020019081526020016000206040518060c00160405290816000820160009054906101000a900473ffffffffffffffffffffffffffffffffffffffff1673ffffffffffffffffffffffffffffffffffffffff1673ffffffffffffffffffffffffffffffffffffffff168152602001600182015481526020016002820160009054906101000a900473ffffffffffffffffffffffffffffffffffffffff1673ffffffffffffffffffffffffffffffffffffffff1673ffffffffffffffffffffffffffffffffffffffff1681526020016003820160009054906101000a900473ffffffffffffffffffffffffffffffffffffffff1673ffffffffffffffffffffffffffffffffffffffff1673ffffffffffffffffffffffffffffffffffffffff168152602001600482015481526020016005820160009054906101000a900460ff1615151515815250508383815181106105fa576105f9612197565b5b6020026020010181905250818061061090612120565b9250505b808061061f90612120565b91505061040f565b508194505050505090565b606060006106406002611b9d565b90506000600167ffffffffffffffff81111561065f5761065e612168565b5b60405190808252806020026020018201604052801561069857816020015b610685611c76565b81526020019060019003908161067d5790505b50905060005b82811015610988573373ffffffffffffffffffffffffffffffffffffffff16600560006001846106ce91906120ec565b815260200190815260200160002060020160009054906101000a900473ffffffffffffffffffffffffffffffffffffffff1673ffffffffffffffffffffffffffffffffffffffff1614801561074f57506005600060018361072f91906120ec565b815260200190815260200160002060050160009054906101000a900460ff165b80156107c857508573ffffffffffffffffffffffffffffffffffffffff166005600060018461077e91906120ec565b815260200190815260200160002060000160009054906101000a900473ffffffffffffffffffffffffffffffffffffffff1673ffffffffffffffffffffffffffffffffffffffff16145b80156107f5575084600560006001846107e191906120ec565b815260200190815260200160002060010154145b15610975576005600060018361080b91906120ec565b81526020019081526020016000206040518060c00160405290816000820160009054906101000a900473ffffffffffffffffffffffffffffffffffffffff1673ffffffffffffffffffffffffffffffffffffffff1673ffffffffffffffffffffffffffffffffffffffff168152602001600182015481526020016002820160009054906101000a900473ffffffffffffffffffffffffffffffffffffffff1673ffffffffffffffffffffffffffffffffffffffff1673ffffffffffffffffffffffffffffffffffffffff1681526020016003820160009054906101000a900473ffffffffffffffffffffffffffffffffffffffff1673ffffffffffffffffffffffffffffffffffffffff1673ffffffffffffffffffffffffffffffffffffffff168152602001600482015481526020016005820160009054906101000a900460ff1615151515815250508260008151811061096957610968612197565b5b60200260200101819052505b808061098090612120565b91505061069e565b50809250505092915050565b600047905090565b606060006109aa6002611b9d565b90506000805b82811015610a88573373ffffffffffffffffffffffffffffffffffffffff16600560006001846109e091906120ec565b815260200190815260200160002060020160009054906101000a900473ffffffffffffffffffffffffffffffffffffffff1673ffffffffffffffffffffffffffffffffffffffff16148015610a61575060056000600183610a4191906120ec565b815260200190815260200160002060050160009054906101000a900460ff165b15610a75578180610a7190612120565b9250505b8080610a8090612120565b9150506109b0565b5060008167ffffffffffffffff811115610aa557610aa4612168565b5b604051908082528060200260200182016040528015610ade57816020015b610acb611c76565b815260200190600190039081610ac35790505b5090506000805b84811015610d36573373ffffffffffffffffffffffffffffffffffffffff1660056000600184610b1591906120ec565b815260200190815260200160002060020160009054906101000a900473ffffffffffffffffffffffffffffffffffffffff1673ffffffffffffffffffffffffffffffffffffffff16148015610b96575060056000600183610b7691906120ec565b815260200190815260200160002060050160009054906101000a900460ff165b15610d235760056000600183610bac91906120ec565b81526020019081526020016000206040518060c00160405290816000820160009054906101000a900473ffffffffffffffffffffffffffffffffffffffff1673ffffffffffffffffffffffffffffffffffffffff1673ffffffffffffffffffffffffffffffffffffffff168152602001600182015481526020016002820160009054906101000a900473ffffffffffffffffffffffffffffffffffffffff1673ffffffffffffffffffffffffffffffffffffffff1673ffffffffffffffffffffffffffffffffffffffff1681526020016003820160009054906101000a900473ffffffffffffffffffffffffffffffffffffffff1673ffffffffffffffffffffffffffffffffffffffff1673ffffffffffffffffffffffffffffffffffffffff168152602001600482015481526020016005820160009054906101000a900460ff161515151581525050838381518110610d0957610d08612197565b5b60200260200101819052508180610d1f90612120565b9250505b8080610d2e90612120565b915050610ae5565b508194505050505090565b60035481565b610d4f611bab565b60008111610d92576040517f08c379a0000000000000000000000000000000000000000000000000000000008152600401610d8990612223565b60405180910390fd5b6003543414610dd6576040517f08c379a0000000000000000000000000000000000000000000000000000000008152600401610dcd9061228f565b60405180910390fd5b8273ffffffffffffffffffffffffffffffffffffffff166323b872dd3330856040518463ffffffff1660e01b8152600401610e13939291906122af565b600060405180830381600087803b158015610e2d57600080fd5b505af1158015610e41573d6000803e3d6000fd5b505050506000600560008481526020019081526020016000209050338160020160006101000a81548173ffffffffffffffffffffffffffffffffffffffff021916908373ffffffffffffffffffffffffffffffffffffffff160217905550308160030160006101000a81548173ffffffffffffffffffffffffffffffffffffffff021916908373ffffffffffffffffffffffffffffffffffffffff16021790555060018160050160006101000a81548160ff021916908315150217905550818160040181905550610f126001611bfa565b7fa0c6c0d02d86fdacecbaa5fdf5894bab204e31a778250474108540733a9b8d198484333086604051610f499594939291906122e6565b60405180910390a150610f5a611c56565b505050565b60606000610f6d8484610632565b90503373ffffffffffffffffffffffffffffffffffffffff1681600081518110610f9a57610f99612197565b5b60200260200101516040015173ffffffffffffffffffffffffffffffffffffffff1614610ffc576040517f08c379a0000000000000000000000000000000000000000000000000000000008152600401610ff390612385565b60405180910390fd5b60006110086002611b9d565b905060005b818110156111b8573373ffffffffffffffffffffffffffffffffffffffff166005600060018461103d91906120ec565b815260200190815260200160002060020160009054906101000a900473ffffffffffffffffffffffffffffffffffffffff1673ffffffffffffffffffffffffffffffffffffffff161480156110be57506005600060018361109e91906120ec565b815260200190815260200160002060050160009054906101000a900460ff165b801561113757508573ffffffffffffffffffffffffffffffffffffffff16600560006001846110ed91906120ec565b815260200190815260200160002060000160009054906101000a900473ffffffffffffffffffffffffffffffffffffffff1673ffffffffffffffffffffffffffffffffffffffff16145b80156111645750846005600060018461115091906120ec565b815260200190815260200160002060010154145b156111a55760006005600060018461117c91906120ec565b815260200190815260200160002060050160006101000a81548160ff0219169083151502179055505b80806111b090612120565b91505061100d565b50819250505092915050565b600460009054906101000a900473ffffffffffffffffffffffffffffffffffffffff1673ffffffffffffffffffffffffffffffffffffffff163373ffffffffffffffffffffffffffffffffffffffff1614611254576040517f08c379a000000000000000000000000000000000000000000000000000000000815260040161124b90612417565b60405180910390fd5b600460009054906101000a900473ffffffffffffffffffffffffffffffffffffffff1673ffffffffffffffffffffffffffffffffffffffff166108fc479081150290604051600060405180830381858888f193505050501580156112bc573d6000803e3d6000fd5b50565b6112c7611bab565b60006005600083815260200190815260200160002090508060040154341015611325576040517f08c379a000000000000000000000000000000000000000000000000000000000815260040161131c906124a9565b60405180910390fd5b60003390508160020160009054906101000a900473ffffffffffffffffffffffffffffffffffffffff1673ffffffffffffffffffffffffffffffffffffffff166108fc349081150290604051600060405180830381858888f19350505050158015611394573d6000803e3d6000fd5b508373ffffffffffffffffffffffffffffffffffffffff166323b872dd308385600101546040518463ffffffff1660e01b81526004016113d693929190612528565b600060405180830381600087803b1580156113f057600080fd5b505af1158015611404573d6000803e3d6000fd5b50505050808260030160006101000a81548173ffffffffffffffffffffffffffffffffffffffff021916908373ffffffffffffffffffffffffffffffffffffffff16021790555060008260050160006101000a81548160ff0219169083151502179055506114726001611c60565b7f16f1dbd97e6bf646d429ed186cce832f1f7fd9907814293b83181e9970ab7bd28483600101548460020160009054906101000a900473ffffffffffffffffffffffffffffffffffffffff1684346040516114d195949392919061255f565b60405180910390a150506114e3611c56565b5050565b60056000828152602001908152602001600020600080820160006101000a81549073ffffffffffffffffffffffffffffffffffffffff021916905560018201600090556002820160006101000a81549073ffffffffffffffffffffffffffffffffffffffff02191690556003820160006101000a81549073ffffffffffffffffffffffffffffffffffffffff021916905560048201600090556005820160006101000a81549060ff0219169055505050565b8173ffffffffffffffffffffffffffffffffffffffff166108fc829081150290604051600060405180830381858888f193505050501580156115df573d6000803e3d6000fd5b505050565b606060006115f26002611b9d565b905060006116006001611b9d565b8261160b91906125b2565b905060008167ffffffffffffffff81111561162957611628612168565b5b60405190808252806020026020018201604052801561166257816020015b61164f611c76565b8152602001906001900390816116475790505b5090506000805b84811015611841576005600060018361168291906120ec565b815260200190815260200160002060050160009054906101000a900460ff161561182e57600560006001836116b791906120ec565b81526020019081526020016000206040518060c00160405290816000820160009054906101000a900473ffffffffffffffffffffffffffffffffffffffff1673ffffffffffffffffffffffffffffffffffffffff1673ffffffffffffffffffffffffffffffffffffffff168152602001600182015481526020016002820160009054906101000a900473ffffffffffffffffffffffffffffffffffffffff1673ffffffffffffffffffffffffffffffffffffffff1673ffffffffffffffffffffffffffffffffffffffff1681526020016003820160009054906101000a900473ffffffffffffffffffffffffffffffffffffffff1673ffffffffffffffffffffffffffffffffffffffff1673ffffffffffffffffffffffffffffffffffffffff168152602001600482015481526020016005820160009054906101000a900460ff16151515158152505083838151811061181457611813612197565b5b6020026020010181905250818061182a90612120565b9250505b808061183990612120565b915050611669565b508194505050505090565b611854611bab565b60008111611897576040517f08c379a000000000000000000000000000000000000000000000000000000000815260040161188e90612223565b60405180910390fd5b6003543410156118dc576040517f08c379a00000000000000000000000000000000000000000000000000000000081526004016118d39061228f565b60405180910390fd5b8273ffffffffffffffffffffffffffffffffffffffff166323b872dd3330856040518463ffffffff1660e01b8152600401611919939291906122af565b600060405180830381600087803b15801561193357600080fd5b505af1158015611947573d6000803e3d6000fd5b50505050600460009054906101000a900473ffffffffffffffffffffffffffffffffffffffff1673ffffffffffffffffffffffffffffffffffffffff166108fc6003549081150290604051600060405180830381858888f193505050501580156119b5573d6000803e3d6000fd5b506119c06002611c60565b6040518060c001604052808473ffffffffffffffffffffffffffffffffffffffff1681526020018381526020013373ffffffffffffffffffffffffffffffffffffffff1681526020013073ffffffffffffffffffffffffffffffffffffffff168152602001828152602001600115158152506005600084815260200190815260200160002060008201518160000160006101000a81548173ffffffffffffffffffffffffffffffffffffffff021916908373ffffffffffffffffffffffffffffffffffffffff1602179055506020820151816001015560408201518160020160006101000a81548173ffffffffffffffffffffffffffffffffffffffff021916908373ffffffffffffffffffffffffffffffffffffffff16021790555060608201518160030160006101000a81548173ffffffffffffffffffffffffffffffffffffffff021916908373ffffffffffffffffffffffffffffffffffffffff1602179055506080820151816004015560a08201518160050160006101000a81548160ff0219169083151502179055509050507fa0c6c0d02d86fdacecbaa5fdf5894bab204e31a778250474108540733a9b8d198383333085604051611b889594939291906122e6565b60405180910390a1611b98611c56565b505050565b600081600001549050919050565b600260005403611bf0576040517f08c379a0000000000000000000000000000000000000000000000000000000008152600401611be790612632565b60405180910390fd5b6002600081905550565b60008160000154905060008111611c46576040517f08c379a0000000000000000000000000000000000000000000000000000000008152600401611c3d9061269e565b60405180910390fd5b6001810382600001819055505050565b6001600081905550565b6001816000016000828254019250508190555050565b6040518060c00160405280600073ffffffffffffffffffffffffffffffffffffffff16815260200160008152602001600073ffffffffffffffffffffffffffffffffffffffff168152602001600073ffffffffffffffffffffffffffffffffffffffff168152602001600081526020016000151581525090565b600073ffffffffffffffffffffffffffffffffffffffff82169050919050565b6000611d1b82611cf0565b9050919050565b611d2b81611d10565b82525050565b6000819050919050565b611d4481611d31565b82525050565b6000604082019050611d5f6000830185611d22565b611d6c6020830184611d3b565b9392505050565b600081519050919050565b600082825260208201905092915050565b6000819050602082019050919050565b611da881611d10565b82525050565b611db781611d31565b82525050565b6000611dc882611cf0565b9050919050565b611dd881611dbd565b82525050565b60008115159050919050565b611df381611dde565b82525050565b60c082016000820151611e0f6000850182611d9f565b506020820151611e226020850182611dae565b506040820151611e356040850182611dcf565b506060820151611e486060850182611dcf565b506080820151611e5b6080850182611dae565b5060a0820151611e6e60a0850182611dea565b50505050565b6000611e808383611df9565b60c08301905092915050565b6000602082019050919050565b6000611ea482611d73565b611eae8185611d7e565b9350611eb983611d8f565b8060005b83811015611eea578151611ed18882611e74565b9750611edc83611e8c565b925050600181019050611ebd565b5085935050505092915050565b60006020820190508181036000830152611f118184611e99565b905092915050565b600080fd5b611f2781611d10565b8114611f3257600080fd5b50565b600081359050611f4481611f1e565b92915050565b611f5381611d31565b8114611f5e57600080fd5b50565b600081359050611f7081611f4a565b92915050565b60008060408385031215611f8d57611f8c611f19565b5b6000611f9b85828601611f35565b9250506020611fac85828601611f61565b9150509250929050565b6000602082019050611fcb6000830184611d3b565b92915050565b600080600060608486031215611fea57611fe9611f19565b5b6000611ff886828701611f35565b935050602061200986828701611f61565b925050604061201a86828701611f61565b9150509250925092565b60006020828403121561203a57612039611f19565b5b600061204884828501611f61565b91505092915050565b61205a81611dbd565b811461206557600080fd5b50565b60008135905061207781612051565b92915050565b6000806040838503121561209457612093611f19565b5b60006120a285828601612068565b92505060206120b385828601611f61565b9150509250929050565b7f4e487b7100000000000000000000000000000000000000000000000000000000600052601160045260246000fd5b60006120f782611d31565b915061210283611d31565b925082820190508082111561211a576121196120bd565b5b92915050565b600061212b82611d31565b91507fffffffffffffffffffffffffffffffffffffffffffffffffffffffffffffffff820361215d5761215c6120bd565b5b600182019050919050565b7f4e487b7100000000000000000000000000000000000000000000000000000000600052604160045260246000fd5b7f4e487b7100000000000000000000000000000000000000000000000000000000600052603260045260246000fd5b600082825260208201905092915050565b7f5072696365206d757374206265206174206c6561737420312077656900000000600082015250565b600061220d601c836121c6565b9150612218826121d7565b602082019050919050565b6000602082019050818103600083015261223c81612200565b9050919050565b7f4e6f7420656e6f75676820657468657220666f72206c697374696e6720666565600082015250565b60006122796020836121c6565b915061228482612243565b602082019050919050565b600060208201905081810360008301526122a88161226c565b9050919050565b60006060820190506122c46000830186611d22565b6122d16020830185611d22565b6122de6040830184611d3b565b949350505050565b600060a0820190506122fb6000830188611d22565b6123086020830187611d3b565b6123156040830186611d22565b6123226060830185611d22565b61232f6080830184611d3b565b9695505050505050565b7f4d757374206265204e46542073656c6c65720000000000000000000000000000600082015250565b600061236f6012836121c6565b915061237a82612339565b602082019050919050565b6000602082019050818103600083015261239e81612362565b9050919050565b7f596f7520617265206e6f7420746865206f776e6572206f662074686973204d6160008201527f726b657400000000000000000000000000000000000000000000000000000000602082015250565b60006124016024836121c6565b915061240c826123a5565b604082019050919050565b60006020820190508181036000830152612430816123f4565b9050919050565b7f4e6f7420726967687420657468657220746f20636f7665722061736b696e672060008201527f7072696365000000000000000000000000000000000000000000000000000000602082015250565b60006124936025836121c6565b915061249e82612437565b604082019050919050565b600060208201905081810360008301526124c281612486565b9050919050565b6000819050919050565b60006124ee6124e96124e484611cf0565b6124c9565b611cf0565b9050919050565b6000612500826124d3565b9050919050565b6000612512826124f5565b9050919050565b61252281612507565b82525050565b600060608201905061253d6000830186611d22565b61254a6020830185612519565b6125576040830184611d3b565b949350505050565b600060a0820190506125746000830188611d22565b6125816020830187611d3b565b61258e6040830186612519565b61259b6060830185612519565b6125a86080830184611d3b565b9695505050505050565b60006125bd82611d31565b91506125c883611d31565b92508282039050818111156125e0576125df6120bd565b5b92915050565b7f5265656e7472616e637947756172643a207265656e7472616e742063616c6c00600082015250565b600061261c601f836121c6565b9150612627826125e6565b602082019050919050565b6000602082019050818103600083015261264b8161260f565b9050919050565b7f436f756e7465723a2064656372656d656e74206f766572666c6f770000000000600082015250565b6000612688601b836121c6565b915061269382612652565b602082019050919050565b600060208201905081810360008301526126b78161267b565b905091905056fea2646970667358221220099f303ff56acbc13fff458b576224a9627870b1a5df7db4a32c81cbcf4f50c864736f6c63430008120033",
  "linkReferences": {},
  "deployedLinkReferences": {}
}