{
  "contractName": "ELEN_E6883_NFT",
  "abi": [
    {
      "inputs": [
        {
          "internalType": "string",
          "name": "baseURI",
          "type": "string"
        },
        {
          "internalType": "string",
          "name": "name",
          "type": "string"
        },
        {
          "internalType": "string",
          "name": "symbol",
          "type": "string"
        }
      ],
      "stateMutability": "nonpayable",
      "type": "constructor"
    },
    {
      "anonymous": false,
      "inputs": [
        {
          "indexed": true,
          "internalType": "address",
          "name": "owner",
          "type": "address"
        },
        {
          "indexed": true,
          "internalType": "address",
          "name": "approved",
          "type": "address"
        },
        {
          "indexed": true,
          "internalType": "uint256",
          "name": "tokenId",
          "type": "uint256"
        }
      ],
      "name": "Approval",
      "type": "event"
    },
    {
      "anonymous": false,
      "inputs": [
        {
          "indexed": true,
          "internalType": "address",
          "name": "owner",
          "type": "address"
        },
        {
          "indexed": true,
          "internalType": "address",
          "name": "operator",
          "type": "address"
        },
        {
          "indexed": false,
          "internalType": "bool",
          "name": "approved",
          "type": "bool"
        }
      ],
      "name": "ApprovalForAll",
      "type": "event"
    },
    {
      "anonymous": false,
      "inputs": [
        {
          "indexed": true,
          "internalType": "address",
          "name": "previousOwner",
          "type": "address"
        },
        {
          "indexed": true,
          "internalType": "address",
          "name": "newOwner",
          "type": "address"
        }
      ],
      "name": "OwnershipTransferred",
      "type": "event"
    },
    {
      "anonymous": false,
      "inputs": [
        {
          "indexed": false,
          "internalType": "address",
          "name": "seller",
          "type": "address"
        },
        {
          "indexed": false,
          "internalType": "uint256",
          "name": "tokenId",
          "type": "uint256"
        }
      ],
      "name": "SaleCancelled",
      "type": "event"
    },
    {
      "anonymous": false,
      "inputs": [
        {
          "indexed": false,
          "internalType": "address",
          "name": "seller",
          "type": "address"
        },
        {
          "indexed": false,
          "internalType": "uint256",
          "name": "tokenId",
          "type": "uint256"
        },
        {
          "indexed": false,
          "internalType": "uint256",
          "name": "price",
          "type": "uint256"
        }
      ],
      "name": "SaleCreated",
      "type": "event"
    },
    {
      "anonymous": false,
      "inputs": [
        {
          "indexed": false,
          "internalType": "address",
          "name": "buyer",
          "type": "address"
        },
        {
          "indexed": false,
          "internalType": "uint256",
          "name": "tokenId",
          "type": "uint256"
        },
        {
          "indexed": false,
          "internalType": "uint256",
          "name": "price",
          "type": "uint256"
        }
      ],
      "name": "SaleSuccessful",
      "type": "event"
    },
    {
      "anonymous": false,
      "inputs": [
        {
          "indexed": true,
          "internalType": "address",
          "name": "from",
          "type": "address"
        },
        {
          "indexed": true,
          "internalType": "address",
          "name": "to",
          "type": "address"
        },
        {
          "indexed": true,
          "internalType": "uint256",
          "name": "tokenId",
          "type": "uint256"
        }
      ],
      "name": "Transfer",
      "type": "event"
    },
    {
      "anonymous": false,
      "inputs": [
        {
          "indexed": false,
          "internalType": "address",
          "name": "nftAddress",
          "type": "address"
        },
        {
          "indexed": false,
          "internalType": "uint256",
          "name": "tokenId",
          "type": "uint256"
        }
      ],
      "name": "nftdetails",
      "type": "event"
    },
    {
      "inputs": [],
      "name": "MAX_PER_MINT",
      "outputs": [
        {
          "internalType": "uint256",
          "name": "",
          "type": "uint256"
        }
      ],
      "stateMutability": "view",
      "type": "function",
      "constant": true
    },
    {
      "inputs": [],
      "name": "MAX_SUPPLY",
      "outputs": [
        {
          "internalType": "uint256",
          "name": "",
          "type": "uint256"
        }
      ],
      "stateMutability": "view",
      "type": "function",
      "constant": true
    },
    {
      "inputs": [],
      "name": "PRICE",
      "outputs": [
        {
          "internalType": "uint256",
          "name": "",
          "type": "uint256"
        }
      ],
      "stateMutability": "view",
      "type": "function",
      "constant": true
    },
    {
      "inputs": [],
      "name": "_contractOwner",
      "outputs": [
        {
          "internalType": "address",
          "name": "",
          "type": "address"
        }
      ],
      "stateMutability": "view",
      "type": "function",
      "constant": true
    },
    {
      "inputs": [],
      "name": "_price",
      "outputs": [
        {
          "internalType": "uint256",
          "name": "",
          "type": "uint256"
        }
      ],
      "stateMutability": "view",
      "type": "function",
      "constant": true
    },
    {
      "inputs": [
        {
          "internalType": "address",
          "name": "to",
          "type": "address"
        },
        {
          "internalType": "uint256",
          "name": "tokenId",
          "type": "uint256"
        }
      ],
      "name": "approve",
      "outputs": [],
      "stateMutability": "nonpayable",
      "type": "function"
    },
    {
      "inputs": [
        {
          "internalType": "address",
          "name": "owner",
          "type": "address"
        }
      ],
      "name": "balanceOf",
      "outputs": [
        {
          "internalType": "uint256",
          "name": "",
          "type": "uint256"
        }
      ],
      "stateMutability": "view",
      "type": "function",
      "constant": true
    },
    {
      "inputs": [],
      "name": "baseTokenURI",
      "outputs": [
        {
          "internalType": "string",
          "name": "",
          "type": "string"
        }
      ],
      "stateMutability": "view",
      "type": "function",
      "constant": true
    },
    {
      "inputs": [
        {
          "internalType": "uint256",
          "name": "tokenId",
          "type": "uint256"
        }
      ],
      "name": "getApproved",
      "outputs": [
        {
          "internalType": "address",
          "name": "",
          "type": "address"
        }
      ],
      "stateMutability": "view",
      "type": "function",
      "constant": true
    },
    {
      "inputs": [
        {
          "internalType": "address",
          "name": "owner",
          "type": "address"
        },
        {
          "internalType": "address",
          "name": "operator",
          "type": "address"
        }
      ],
      "name": "isApprovedForAll",
      "outputs": [
        {
          "internalType": "bool",
          "name": "",
          "type": "bool"
        }
      ],
      "stateMutability": "view",
      "type": "function",
      "constant": true
    },
    {
      "inputs": [],
      "name": "name",
      "outputs": [
        {
          "internalType": "string",
          "name": "",
          "type": "string"
        }
      ],
      "stateMutability": "view",
      "type": "function",
      "constant": true
    },
    {
      "inputs": [],
      "name": "nftContract",
      "outputs": [
        {
          "internalType": "contract IERC721",
          "name": "",
          "type": "address"
        }
      ],
      "stateMutability": "view",
      "type": "function",
      "constant": true
    },
    {
      "inputs": [],
      "name": "owner",
      "outputs": [
        {
          "internalType": "address",
          "name": "",
          "type": "address"
        }
      ],
      "stateMutability": "view",
      "type": "function",
      "constant": true
    },
    {
      "inputs": [
        {
          "internalType": "uint256",
          "name": "tokenId",
          "type": "uint256"
        }
      ],
      "name": "ownerOf",
      "outputs": [
        {
          "internalType": "address",
          "name": "",
          "type": "address"
        }
      ],
      "stateMutability": "view",
      "type": "function",
      "constant": true
    },
    {
      "inputs": [],
      "name": "renounceOwnership",
      "outputs": [],
      "stateMutability": "nonpayable",
      "type": "function"
    },
    {
      "inputs": [
        {
          "internalType": "address",
          "name": "from",
          "type": "address"
        },
        {
          "internalType": "address",
          "name": "to",
          "type": "address"
        },
        {
          "internalType": "uint256",
          "name": "tokenId",
          "type": "uint256"
        }
      ],
      "name": "safeTransferFrom",
      "outputs": [],
      "stateMutability": "nonpayable",
      "type": "function"
    },
    {
      "inputs": [
        {
          "internalType": "address",
          "name": "from",
          "type": "address"
        },
        {
          "internalType": "address",
          "name": "to",
          "type": "address"
        },
        {
          "internalType": "uint256",
          "name": "tokenId",
          "type": "uint256"
        },
        {
          "internalType": "bytes",
          "name": "_data",
          "type": "bytes"
        }
      ],
      "name": "safeTransferFrom",
      "outputs": [],
      "stateMutability": "nonpayable",
      "type": "function"
    },
    {
      "inputs": [
        {
          "internalType": "address",
          "name": "operator",
          "type": "address"
        },
        {
          "internalType": "bool",
          "name": "approved",
          "type": "bool"
        }
      ],
      "name": "setApprovalForAll",
      "outputs": [],
      "stateMutability": "nonpayable",
      "type": "function"
    },
    {
      "inputs": [
        {
          "internalType": "bytes4",
          "name": "interfaceId",
          "type": "bytes4"
        }
      ],
      "name": "supportsInterface",
      "outputs": [
        {
          "internalType": "bool",
          "name": "",
          "type": "bool"
        }
      ],
      "stateMutability": "view",
      "type": "function",
      "constant": true
    },
    {
      "inputs": [],
      "name": "symbol",
      "outputs": [
        {
          "internalType": "string",
          "name": "",
          "type": "string"
        }
      ],
      "stateMutability": "view",
      "type": "function",
      "constant": true
    },
    {
      "inputs": [
        {
          "internalType": "uint256",
          "name": "",
          "type": "uint256"
        }
      ],
      "name": "tokenIdToSale",
      "outputs": [
        {
          "internalType": "address",
          "name": "seller",
          "type": "address"
        },
        {
          "internalType": "uint256",
          "name": "tokenId",
          "type": "uint256"
        },
        {
          "internalType": "uint256",
          "name": "price",
          "type": "uint256"
        },
        {
          "internalType": "bool",
          "name": "active",
          "type": "bool"
        }
      ],
      "stateMutability": "view",
      "type": "function",
      "constant": true
    },
    {
      "inputs": [
        {
          "internalType": "uint256",
          "name": "tokenId",
          "type": "uint256"
        }
      ],
      "name": "tokenURI",
      "outputs": [
        {
          "internalType": "string",
          "name": "",
          "type": "string"
        }
      ],
      "stateMutability": "view",
      "type": "function",
      "constant": true
    },
    {
      "inputs": [
        {
          "internalType": "address",
          "name": "from",
          "type": "address"
        },
        {
          "internalType": "address",
          "name": "to",
          "type": "address"
        },
        {
          "internalType": "uint256",
          "name": "tokenId",
          "type": "uint256"
        }
      ],
      "name": "transferFrom",
      "outputs": [],
      "stateMutability": "nonpayable",
      "type": "function"
    },
    {
      "inputs": [
        {
          "internalType": "address",
          "name": "newOwner",
          "type": "address"
        }
      ],
      "name": "transferOwnership",
      "outputs": [],
      "stateMutability": "nonpayable",
      "type": "function"
    },
    {
      "inputs": [
        {
          "internalType": "string",
          "name": "_baseTokenURI",
          "type": "string"
        }
      ],
      "name": "setBaseURI",
      "outputs": [],
      "stateMutability": "nonpayable",
      "type": "function"
    },
    {
      "inputs": [
        {
          "internalType": "uint256",
          "name": "_count",
          "type": "uint256"
        }
      ],
      "name": "mintNFTs",
      "outputs": [],
      "stateMutability": "payable",
      "type": "function",
      "payable": true
    },
    {
      "inputs": [
        {
          "internalType": "uint256",
          "name": "newTokenID",
          "type": "uint256"
        },
        {
          "internalType": "string",
          "name": "data",
          "type": "string"
        }
      ],
      "name": "createNFT",
      "outputs": [],
      "stateMutability": "nonpayable",
      "type": "function"
    },
    {
      "inputs": [],
      "name": "withdraw",
      "outputs": [],
      "stateMutability": "payable",
      "type": "function",
      "payable": true
    },
    {
      "inputs": [
        {
          "internalType": "uint256",
          "name": "_count",
          "type": "uint256"
        }
      ],
      "name": "reserveNFTs",
      "outputs": [],
      "stateMutability": "nonpayable",
      "type": "function"
    },
    {
      "inputs": [
        {
          "internalType": "uint256",
          "name": "tokenId",
          "type": "uint256"
        }
      ],
      "name": "getOwner",
      "outputs": [
        {
          "internalType": "address",
          "name": "owner",
          "type": "address"
        }
      ],
      "stateMutability": "nonpayable",
      "type": "function"
    },
    {
      "inputs": [
        {
          "internalType": "uint256",
          "name": "tokenId",
          "type": "uint256"
        },
        {
          "internalType": "address",
          "name": "newAddress",
          "type": "address"
        }
      ],
      "name": "setOwner",
      "outputs": [],
      "stateMutability": "nonpayable",
      "type": "function"
    },
    {
      "inputs": [
        {
          "internalType": "uint256",
          "name": "tokenId",
          "type": "uint256"
        },
        {
          "internalType": "uint256",
          "name": "price",
          "type": "uint256"
        }
      ],
      "name": "createSale",
      "outputs": [],
      "stateMutability": "nonpayable",
      "type": "function"
    },
    {
      "inputs": [
        {
          "internalType": "uint256",
          "name": "tokenId",
          "type": "uint256"
        }
      ],
      "name": "getPrice",
      "outputs": [
        {
          "internalType": "uint256",
          "name": "price",
          "type": "uint256"
        }
      ],
      "stateMutability": "nonpayable",
      "type": "function"
    },
    {
      "inputs": [
        {
          "internalType": "uint256",
          "name": "tokenId",
          "type": "uint256"
        }
      ],
      "name": "cancelSale",
      "outputs": [],
      "stateMutability": "nonpayable",
      "type": "function"
    },
    {
      "inputs": [
        {
          "internalType": "uint256",
          "name": "tokenId",
          "type": "uint256"
        }
      ],
      "name": "sellNFT",
      "outputs": [],
      "stateMutability": "payable",
      "type": "function",
      "payable": true
    },
    {
      "inputs": [
        {
          "internalType": "uint256",
          "name": "tokenID",
          "type": "uint256"
        }
      ],
      "name": "delistNFT",
      "outputs": [],
      "stateMutability": "nonpayable",
      "type": "function"
    }
  ],
  "bytecode": "0x60806040523480156200001157600080fd5b50604051620053c0380380620053c08339818101604052810190620000379190620004d8565b81818160009080519060200190620000519291906200028b565b5080600190805190602001906200006a9291906200028b565b5050506200008d62000081620000e860201b60201c565b620000f060201b60201c565b6200009e83620001b660201b60201c565b33600a60006101000a81548173ffffffffffffffffffffffffffffffffffffffff021916908373ffffffffffffffffffffffffffffffffffffffff16021790555050505062000678565b600033905090565b6000600760009054906101000a900473ffffffffffffffffffffffffffffffffffffffff16905081600760006101000a81548173ffffffffffffffffffffffffffffffffffffffff021916908373ffffffffffffffffffffffffffffffffffffffff1602179055508173ffffffffffffffffffffffffffffffffffffffff168173ffffffffffffffffffffffffffffffffffffffff167f8be0079c531659141344cd1fd0a4f28419497f9722a3daafe3b4186f6b6457e060405160405180910390a35050565b620001c6620000e860201b60201c565b73ffffffffffffffffffffffffffffffffffffffff16620001ec6200026160201b60201c565b73ffffffffffffffffffffffffffffffffffffffff161462000245576040517f08c379a00000000000000000000000000000000000000000000000000000000081526004016200023c90620005f2565b60405180910390fd5b80600990805190602001906200025d9291906200028b565b5050565b6000600760009054906101000a900473ffffffffffffffffffffffffffffffffffffffff16905090565b828054620002999062000643565b90600052602060002090601f016020900481019282620002bd576000855562000309565b82601f10620002d857805160ff191683800117855562000309565b8280016001018555821562000309579182015b8281111562000308578251825591602001919060010190620002eb565b5b5090506200031891906200031c565b5090565b5b80821115620003375760008160009055506001016200031d565b5090565b6000604051905090565b600080fd5b600080fd5b600080fd5b600080fd5b6000601f19601f8301169050919050565b7f4e487b7100000000000000000000000000000000000000000000000000000000600052604160045260246000fd5b620003a48262000359565b810181811067ffffffffffffffff82111715620003c657620003c56200036a565b5b80604052505050565b6000620003db6200033b565b9050620003e9828262000399565b919050565b600067ffffffffffffffff8211156200040c576200040b6200036a565b5b620004178262000359565b9050602081019050919050565b60005b838110156200044457808201518184015260208101905062000427565b8381111562000454576000848401525b50505050565b6000620004716200046b84620003ee565b620003cf565b90508281526020810184848401111562000490576200048f62000354565b5b6200049d84828562000424565b509392505050565b600082601f830112620004bd57620004bc6200034f565b5b8151620004cf8482602086016200045a565b91505092915050565b600080600060608486031215620004f457620004f362000345565b5b600084015167ffffffffffffffff8111156200051557620005146200034a565b5b6200052386828701620004a5565b935050602084015167ffffffffffffffff8111156200054757620005466200034a565b5b6200055586828701620004a5565b925050604084015167ffffffffffffffff8111156200057957620005786200034a565b5b6200058786828701620004a5565b9150509250925092565b600082825260208201905092915050565b7f4f776e61626c653a2063616c6c6572206973206e6f7420746865206f776e6572600082015250565b6000620005da60208362000591565b9150620005e782620005a2565b602082019050919050565b600060208201905081810360008301526200060d81620005cb565b9050919050565b7f4e487b7100000000000000000000000000000000000000000000000000000000600052602260045260246000fd5b600060028204905060018216806200065c57607f821691505b60208210810362000672576200067162000614565b5b50919050565b614d3880620006886000396000f3fe60806040526004361061020f5760003560e01c80637fd3924711610118578063c87b56dd116100a0578063e75722301161006f578063e757223014610770578063e985e9c5146107ad578063ee9cdfb3146107ea578063f2fde38b14610806578063f32b51241461082f5761020f565b8063c87b56dd146106b4578063cb917b9c146106f1578063d547cfb71461071a578063d56d229d146107455761020f565b8063a22cb465116100e7578063a22cb465146105d3578063b88d4fde146105fc578063bc7df09114610625578063bd94b0051461064e578063c41a360a146106775761020f565b80637fd39247146105295780638d859f3e146105525780638da5cb5b1461057d57806395d89b41146105a85761020f565b806338644c5e1161019b57806355f804b31161016a57806355f804b3146104465780636019061b1461046f5780636352211e1461049857806370a08231146104d5578063715018a6146105125761020f565b806338644c5e146103b75780633b4b1381146103f75780633ccfd60b1461041357806342842e0e1461041d5761020f565b806309d42b30116101e257806309d42b30146102e2578063235b6ea11461030d57806323b872dd146103385780632bb3b1141461036157806332cb6b0c1461038c5761020f565b806301ffc9a71461021457806306fdde0314610251578063081812fc1461027c578063095ea7b3146102b9575b600080fd5b34801561022057600080fd5b5061023b60048036038101906102369190613069565b610858565b60405161024891906130b1565b60405180910390f35b34801561025d57600080fd5b5061026661093a565b6040516102739190613165565b60405180910390f35b34801561028857600080fd5b506102a3600480360381019061029e91906131bd565b6109cc565b6040516102b0919061322b565b60405180910390f35b3480156102c557600080fd5b506102e060048036038101906102db9190613272565b610a51565b005b3480156102ee57600080fd5b506102f7610b68565b60405161030491906132c1565b60405180910390f35b34801561031957600080fd5b50610322610b6d565b60405161032f91906132c1565b60405180910390f35b34801561034457600080fd5b5061035f600480360381019061035a91906132dc565b610b73565b005b34801561036d57600080fd5b50610376610bd3565b604051610383919061322b565b60405180910390f35b34801561039857600080fd5b506103a1610bf9565b6040516103ae91906132c1565b60405180910390f35b3480156103c357600080fd5b506103de60048036038101906103d991906131bd565b610bfe565b6040516103ee949392919061332f565b60405180910390f35b610411600480360381019061040c91906131bd565b610c5b565b005b61041b610d95565b005b34801561042957600080fd5b50610444600480360381019061043f91906132dc565b610f09565b005b34801561045257600080fd5b5061046d600480360381019061046891906134a9565b610f29565b005b34801561047b57600080fd5b50610496600480360381019061049191906134f2565b610fbf565b005b3480156104a457600080fd5b506104bf60048036038101906104ba91906131bd565b611290565b6040516104cc919061322b565b60405180910390f35b3480156104e157600080fd5b506104fc60048036038101906104f79190613532565b611341565b60405161050991906132c1565b60405180910390f35b34801561051e57600080fd5b506105276113f8565b005b34801561053557600080fd5b50610550600480360381019061054b919061355f565b611480565b005b34801561055e57600080fd5b506105676114fe565b60405161057491906132c1565b60405180910390f35b34801561058957600080fd5b50610592611508565b60405161059f919061322b565b60405180910390f35b3480156105b457600080fd5b506105bd611532565b6040516105ca9190613165565b60405180910390f35b3480156105df57600080fd5b506105fa60048036038101906105f591906135cb565b6115c4565b005b34801561060857600080fd5b50610623600480360381019061061e91906136ac565b6115da565b005b34801561063157600080fd5b5061064c600480360381019061064791906131bd565b61163c565b005b34801561065a57600080fd5b50610675600480360381019061067091906131bd565b611746565b005b34801561068357600080fd5b5061069e600480360381019061069991906131bd565b6118f1565b6040516106ab919061322b565b60405180910390f35b3480156106c057600080fd5b506106db60048036038101906106d691906131bd565b611956565b6040516106e89190613165565b60405180910390f35b3480156106fd57600080fd5b50610718600480360381019061071391906131bd565b611aa7565b005b34801561072657600080fd5b5061072f611adc565b60405161073c9190613165565b60405180910390f35b34801561075157600080fd5b5061075a611b6a565b604051610767919061378e565b60405180910390f35b34801561077c57600080fd5b50610797600480360381019061079291906131bd565b611b90565b6040516107a491906132c1565b60405180910390f35b3480156107b957600080fd5b506107d460048036038101906107cf91906137a9565b611b9c565b6040516107e191906130b1565b60405180910390f35b61080460048036038101906107ff91906131bd565b611c30565b005b34801561081257600080fd5b5061082d60048036038101906108289190613532565b611f5a565b005b34801561083b57600080fd5b50610856600480360381019061085191906137e9565b612051565b005b60007f80ac58cd000000000000000000000000000000000000000000000000000000007bffffffffffffffffffffffffffffffffffffffffffffffffffffffff1916827bffffffffffffffffffffffffffffffffffffffffffffffffffffffff1916148061092357507f5b5e139f000000000000000000000000000000000000000000000000000000007bffffffffffffffffffffffffffffffffffffffffffffffffffffffff1916827bffffffffffffffffffffffffffffffffffffffffffffffffffffffff1916145b80610933575061093282612069565b5b9050919050565b60606000805461094990613874565b80601f016020809104026020016040519081016040528092919081815260200182805461097590613874565b80156109c25780601f10610997576101008083540402835291602001916109c2565b820191906000526020600020905b8154815290600101906020018083116109a557829003601f168201915b5050505050905090565b60006109d7826120d3565b610a16576040517f08c379a0000000000000000000000000000000000000000000000000000000008152600401610a0d90613917565b60405180910390fd5b6004600083815260200190815260200160002060009054906101000a900473ffffffffffffffffffffffffffffffffffffffff169050919050565b6000610a5c82611290565b90508073ffffffffffffffffffffffffffffffffffffffff168373ffffffffffffffffffffffffffffffffffffffff1603610acc576040517f08c379a0000000000000000000000000000000000000000000000000000000008152600401610ac3906139a9565b60405180910390fd5b8073ffffffffffffffffffffffffffffffffffffffff16610aeb61213f565b73ffffffffffffffffffffffffffffffffffffffff161480610b1a5750610b1981610b1461213f565b611b9c565b5b610b59576040517f08c379a0000000000000000000000000000000000000000000000000000000008152600401610b5090613a3b565b60405180910390fd5b610b638383612147565b505050565b600581565b600b5481565b610b84610b7e61213f565b82612200565b610bc3576040517f08c379a0000000000000000000000000000000000000000000000000000000008152600401610bba90613acd565b60405180910390fd5b610bce8383836122de565b505050565b600a60009054906101000a900473ffffffffffffffffffffffffffffffffffffffff1681565b600a81565b600d6020528060005260406000206000915090508060000160009054906101000a900473ffffffffffffffffffffffffffffffffffffffff16908060010154908060020154908060030160009054906101000a900460ff16905084565b6000610c676008612544565b9050600a610c7e838361255290919063ffffffff16565b1115610cbf576040517f08c379a0000000000000000000000000000000000000000000000000000000008152600401610cb690613b39565b60405180910390fd5b600082118015610cd0575060058211155b610d0f576040517f08c379a0000000000000000000000000000000000000000000000000000000008152600401610d0690613bcb565b60405180910390fd5b610d28826509184e72a00061256890919063ffffffff16565b341015610d6a576040517f08c379a0000000000000000000000000000000000000000000000000000000008152600401610d6190613c5d565b60405180910390fd5b60005b82811015610d9057610d7d61257e565b8080610d8890613cac565b915050610d6d565b505050565b610d9d61213f565b73ffffffffffffffffffffffffffffffffffffffff16610dbb611508565b73ffffffffffffffffffffffffffffffffffffffff1614610e11576040517f08c379a0000000000000000000000000000000000000000000000000000000008152600401610e0890613d40565b60405180910390fd5b600047905060008111610e59576040517f08c379a0000000000000000000000000000000000000000000000000000000008152600401610e5090613dac565b60405180910390fd5b60003373ffffffffffffffffffffffffffffffffffffffff1682604051610e7f90613dfd565b60006040518083038185875af1925050503d8060008114610ebc576040519150601f19603f3d011682016040523d82523d6000602084013e610ec1565b606091505b5050905080610f05576040517f08c379a0000000000000000000000000000000000000000000000000000000008152600401610efc90613e5e565b60405180910390fd5b5050565b610f24838383604051806020016040528060008152506115da565b505050565b610f3161213f565b73ffffffffffffffffffffffffffffffffffffffff16610f4f611508565b73ffffffffffffffffffffffffffffffffffffffff1614610fa5576040517f08c379a0000000000000000000000000000000000000000000000000000000008152600401610f9c90613d40565b60405180910390fd5b8060099080519060200190610fbb929190612f5a565b5050565b3373ffffffffffffffffffffffffffffffffffffffff16600c60009054906101000a900473ffffffffffffffffffffffffffffffffffffffff1673ffffffffffffffffffffffffffffffffffffffff16636352211e846040518263ffffffff1660e01b815260040161103191906132c1565b602060405180830381865afa15801561104e573d6000803e3d6000fd5b505050506040513d601f19601f820116820180604052508101906110729190613e93565b73ffffffffffffffffffffffffffffffffffffffff16146110c8576040517f08c379a00000000000000000000000000000000000000000000000000000000081526004016110bf90613f0c565b60405180910390fd5b6000811161110b576040517f08c379a000000000000000000000000000000000000000000000000000000000815260040161110290613f78565b60405180910390fd5b60001515600d600084815260200190815260200160002060030160009054906101000a900460ff16151514611175576040517f08c379a000000000000000000000000000000000000000000000000000000000815260040161116c90613fe4565b60405180910390fd5b600060405180608001604052803373ffffffffffffffffffffffffffffffffffffffff16815260200184815260200183815260200160011515815250905080600d600085815260200190815260200160002060008201518160000160006101000a81548173ffffffffffffffffffffffffffffffffffffffff021916908373ffffffffffffffffffffffffffffffffffffffff160217905550602082015181600101556040820151816002015560608201518160030160006101000a81548160ff0219169083151502179055509050508060400151600b819055507f2c5a9de64e99c2ab1b836ad03048ec0bef7c0a2af3dd947595c46274e50a7c8233848460405161128393929190614004565b60405180910390a1505050565b6000806002600084815260200190815260200160002060009054906101000a900473ffffffffffffffffffffffffffffffffffffffff169050600073ffffffffffffffffffffffffffffffffffffffff168173ffffffffffffffffffffffffffffffffffffffff1603611338576040517f08c379a000000000000000000000000000000000000000000000000000000000815260040161132f906140ad565b60405180910390fd5b80915050919050565b60008073ffffffffffffffffffffffffffffffffffffffff168273ffffffffffffffffffffffffffffffffffffffff16036113b1576040517f08c379a00000000000000000000000000000000000000000000000000000000081526004016113a89061413f565b60405180910390fd5b600360008373ffffffffffffffffffffffffffffffffffffffff1673ffffffffffffffffffffffffffffffffffffffff168152602001908152602001600020549050919050565b61140061213f565b73ffffffffffffffffffffffffffffffffffffffff1661141e611508565b73ffffffffffffffffffffffffffffffffffffffff1614611474576040517f08c379a000000000000000000000000000000000000000000000000000000000815260040161146b90613d40565b60405180910390fd5b61147e60006125a3565b565b80600a60006101000a81548173ffffffffffffffffffffffffffffffffffffffff021916908373ffffffffffffffffffffffffffffffffffffffff1602179055507f8bd1557b74edae747033c144324d0c52a079ce4054d65810c0e60171d72ac6ec33836040516114f292919061415f565b60405180910390a15050565b6509184e72a00081565b6000600760009054906101000a900473ffffffffffffffffffffffffffffffffffffffff16905090565b60606001805461154190613874565b80601f016020809104026020016040519081016040528092919081815260200182805461156d90613874565b80156115ba5780601f1061158f576101008083540402835291602001916115ba565b820191906000526020600020905b81548152906001019060200180831161159d57829003601f168201915b5050505050905090565b6115d66115cf61213f565b8383612669565b5050565b6115eb6115e561213f565b83612200565b61162a576040517f08c379a000000000000000000000000000000000000000000000000000000000815260040161162190613acd565b60405180910390fd5b611636848484846127d5565b50505050565b61164461213f565b73ffffffffffffffffffffffffffffffffffffffff16611662611508565b73ffffffffffffffffffffffffffffffffffffffff16146116b8576040517f08c379a00000000000000000000000000000000000000000000000000000000081526004016116af90613d40565b60405180910390fd5b60006116c46008612544565b9050600a6116db838361255290919063ffffffff16565b1061171b576040517f08c379a0000000000000000000000000000000000000000000000000000000008152600401611712906141d4565b60405180910390fd5b60005b828110156117415761172e61257e565b808061173990613cac565b91505061171e565b505050565b3373ffffffffffffffffffffffffffffffffffffffff16600d600083815260200190815260200160002060000160009054906101000a900473ffffffffffffffffffffffffffffffffffffffff1673ffffffffffffffffffffffffffffffffffffffff16146117ea576040517f08c379a00000000000000000000000000000000000000000000000000000000081526004016117e190614240565b60405180910390fd5b60011515600d600083815260200190815260200160002060030160009054906101000a900460ff16151514611854576040517f08c379a000000000000000000000000000000000000000000000000000000000815260040161184b906142ac565b60405180910390fd5b600d6000828152602001908152602001600020600080820160006101000a81549073ffffffffffffffffffffffffffffffffffffffff0219169055600182016000905560028201600090556003820160006101000a81549060ff021916905550507fc9b961c43fe701b83ae14bfe2d7625ea85b27c33b4aae8d1fdf4b344d5ea1dbc33826040516118e692919061415f565b60405180910390a150565b60007f8bd1557b74edae747033c144324d0c52a079ce4054d65810c0e60171d72ac6ec338360405161192492919061415f565b60405180910390a1600a60009054906101000a900473ffffffffffffffffffffffffffffffffffffffff169050919050565b6060611961826120d3565b6119a0576040517f08c379a00000000000000000000000000000000000000000000000000000000081526004016119979061433e565b60405180910390fd5b60006006600084815260200190815260200160002080546119c090613874565b80601f01602080910402602001604051908101604052809291908181526020018280546119ec90613874565b8015611a395780601f10611a0e57610100808354040283529160200191611a39565b820191906000526020600020905b815481529060010190602001808311611a1c57829003601f168201915b505050505090506000611a4a612831565b90506000815103611a5f578192505050611aa2565b600082511115611a94578082604051602001611a7c92919061439a565b60405160208183030381529060405292505050611aa2565b611a9d846128c3565b925050505b919050565b60086000808201600090555050600a60006101000a81549073ffffffffffffffffffffffffffffffffffffffff021916905550565b60098054611ae990613874565b80601f0160208091040260200160405190810160405280929190818152602001828054611b1590613874565b8015611b625780601f10611b3757610100808354040283529160200191611b62565b820191906000526020600020905b815481529060010190602001808311611b4557829003601f168201915b505050505081565b600c60009054906101000a900473ffffffffffffffffffffffffffffffffffffffff1681565b6000600b549050919050565b6000600560008473ffffffffffffffffffffffffffffffffffffffff1673ffffffffffffffffffffffffffffffffffffffff16815260200190815260200160002060008373ffffffffffffffffffffffffffffffffffffffff1673ffffffffffffffffffffffffffffffffffffffff16815260200190815260200160002060009054906101000a900460ff16905092915050565b6000600d60008381526020019081526020016000206040518060800160405290816000820160009054906101000a900473ffffffffffffffffffffffffffffffffffffffff1673ffffffffffffffffffffffffffffffffffffffff1673ffffffffffffffffffffffffffffffffffffffff16815260200160018201548152602001600282015481526020016003820160009054906101000a900460ff1615151515815250509050600115158160600151151514611d22576040517f08c379a0000000000000000000000000000000000000000000000000000000008152600401611d199061440a565b60405180910390fd5b80604001513414611d68576040517f08c379a0000000000000000000000000000000000000000000000000000000008152600401611d5f90614476565b60405180910390fd5b600081600001519050600082604001519050600d6000858152602001908152602001600020600080820160006101000a81549073ffffffffffffffffffffffffffffffffffffffff0219169055600182016000905560028201600090556003820160006101000a81549060ff02191690555050600c60009054906101000a900473ffffffffffffffffffffffffffffffffffffffff1673ffffffffffffffffffffffffffffffffffffffff166342842e0e8333876040518463ffffffff1660e01b8152600401611e3a93929190614496565b600060405180830381600087803b158015611e5457600080fd5b505af1158015611e68573d6000803e3d6000fd5b5050505060008273ffffffffffffffffffffffffffffffffffffffff1682604051611e9290613dfd565b60006040518083038185875af1925050503d8060008114611ecf576040519150601f19603f3d011682016040523d82523d6000602084013e611ed4565b606091505b5050905080611f18576040517f08c379a0000000000000000000000000000000000000000000000000000000008152600401611f0f90614519565b60405180910390fd5b7fd27b201d09e3da1bf82990e64d788700dd1e485be8cd747648aeacbf09fa21e6338684604051611f4b93929190614004565b60405180910390a15050505050565b611f6261213f565b73ffffffffffffffffffffffffffffffffffffffff16611f80611508565b73ffffffffffffffffffffffffffffffffffffffff1614611fd6576040517f08c379a0000000000000000000000000000000000000000000000000000000008152600401611fcd90613d40565b60405180910390fd5b600073ffffffffffffffffffffffffffffffffffffffff168173ffffffffffffffffffffffffffffffffffffffff1603612045576040517f08c379a000000000000000000000000000000000000000000000000000000000815260040161203c906145ab565b60405180910390fd5b61204e816125a3565b50565b61205b338361296a565b6120658282612988565b5050565b60007f01ffc9a7000000000000000000000000000000000000000000000000000000007bffffffffffffffffffffffffffffffffffffffffffffffffffffffff1916827bffffffffffffffffffffffffffffffffffffffffffffffffffffffff1916149050919050565b60008073ffffffffffffffffffffffffffffffffffffffff166002600084815260200190815260200160002060009054906101000a900473ffffffffffffffffffffffffffffffffffffffff1673ffffffffffffffffffffffffffffffffffffffff1614159050919050565b600033905090565b816004600083815260200190815260200160002060006101000a81548173ffffffffffffffffffffffffffffffffffffffff021916908373ffffffffffffffffffffffffffffffffffffffff160217905550808273ffffffffffffffffffffffffffffffffffffffff166121ba83611290565b73ffffffffffffffffffffffffffffffffffffffff167f8c5be1e5ebec7d5bd14f71427d1e84f3dd0314c0f7b2291e5b200ac8c7c3b92560405160405180910390a45050565b600061220b826120d3565b61224a576040517f08c379a00000000000000000000000000000000000000000000000000000000081526004016122419061463d565b60405180910390fd5b600061225583611290565b90508073ffffffffffffffffffffffffffffffffffffffff168473ffffffffffffffffffffffffffffffffffffffff16148061229757506122968185611b9c565b5b806122d557508373ffffffffffffffffffffffffffffffffffffffff166122bd846109cc565b73ffffffffffffffffffffffffffffffffffffffff16145b91505092915050565b8273ffffffffffffffffffffffffffffffffffffffff166122fe82611290565b73ffffffffffffffffffffffffffffffffffffffff1614612354576040517f08c379a000000000000000000000000000000000000000000000000000000000815260040161234b906146cf565b60405180910390fd5b600073ffffffffffffffffffffffffffffffffffffffff168273ffffffffffffffffffffffffffffffffffffffff16036123c3576040517f08c379a00000000000000000000000000000000000000000000000000000000081526004016123ba90614761565b60405180910390fd5b6123ce8383836129fc565b6123d9600082612147565b6001600360008573ffffffffffffffffffffffffffffffffffffffff1673ffffffffffffffffffffffffffffffffffffffff16815260200190815260200160002060008282546124299190614781565b925050819055506001600360008473ffffffffffffffffffffffffffffffffffffffff1673ffffffffffffffffffffffffffffffffffffffff168152602001908152602001600020600082825461248091906147b5565b92505081905550816002600083815260200190815260200160002060006101000a81548173ffffffffffffffffffffffffffffffffffffffff021916908373ffffffffffffffffffffffffffffffffffffffff160217905550808273ffffffffffffffffffffffffffffffffffffffff168473ffffffffffffffffffffffffffffffffffffffff167fddf252ad1be2c89b69c2b068fc378daa952ba7f163c4a11628f55a4df523b3ef60405160405180910390a461253f838383612a01565b505050565b600081600001549050919050565b6000818361256091906147b5565b905092915050565b60008183612576919061480b565b905092915050565b600061258a6008612544565b9050612596338261296a565b6125a06008612a06565b50565b6000600760009054906101000a900473ffffffffffffffffffffffffffffffffffffffff16905081600760006101000a81548173ffffffffffffffffffffffffffffffffffffffff021916908373ffffffffffffffffffffffffffffffffffffffff1602179055508173ffffffffffffffffffffffffffffffffffffffff168173ffffffffffffffffffffffffffffffffffffffff167f8be0079c531659141344cd1fd0a4f28419497f9722a3daafe3b4186f6b6457e060405160405180910390a35050565b8173ffffffffffffffffffffffffffffffffffffffff168373ffffffffffffffffffffffffffffffffffffffff16036126d7576040517f08c379a00000000000000000000000000000000000000000000000000000000081526004016126ce906148b1565b60405180910390fd5b80600560008573ffffffffffffffffffffffffffffffffffffffff1673ffffffffffffffffffffffffffffffffffffffff16815260200190815260200160002060008473ffffffffffffffffffffffffffffffffffffffff1673ffffffffffffffffffffffffffffffffffffffff16815260200190815260200160002060006101000a81548160ff0219169083151502179055508173ffffffffffffffffffffffffffffffffffffffff168373ffffffffffffffffffffffffffffffffffffffff167f17307eab39ab6107e8899845ad3d59bd9653f200f220920489ca2b5937696c31836040516127c891906130b1565b60405180910390a3505050565b6127e08484846122de565b6127ec84848484612a1c565b61282b576040517f08c379a000000000000000000000000000000000000000000000000000000000815260040161282290614943565b60405180910390fd5b50505050565b60606009805461284090613874565b80601f016020809104026020016040519081016040528092919081815260200182805461286c90613874565b80156128b95780601f1061288e576101008083540402835291602001916128b9565b820191906000526020600020905b81548152906001019060200180831161289c57829003601f168201915b5050505050905090565b60606128ce826120d3565b61290d576040517f08c379a0000000000000000000000000000000000000000000000000000000008152600401612904906149d5565b60405180910390fd5b6000612917612831565b905060008151116129375760405180602001604052806000815250612962565b8061294184612ba3565b60405160200161295292919061439a565b6040516020818303038152906040525b915050919050565b612984828260405180602001604052806000815250612d03565b5050565b612991826120d3565b6129d0576040517f08c379a00000000000000000000000000000000000000000000000000000000081526004016129c790614a67565b60405180910390fd5b806006600084815260200190815260200160002090805190602001906129f7929190612f5a565b505050565b505050565b505050565b6001816000016000828254019250508190555050565b6000612a3d8473ffffffffffffffffffffffffffffffffffffffff16612d5e565b15612b96578373ffffffffffffffffffffffffffffffffffffffff1663150b7a02612a6661213f565b8786866040518563ffffffff1660e01b8152600401612a889493929190614adc565b6020604051808303816000875af1925050508015612ac457506040513d601f19601f82011682018060405250810190612ac19190614b3d565b60015b612b46573d8060008114612af4576040519150601f19603f3d011682016040523d82523d6000602084013e612af9565b606091505b506000815103612b3e576040517f08c379a0000000000000000000000000000000000000000000000000000000008152600401612b3590614943565b60405180910390fd5b805181602001fd5b63150b7a0260e01b7bffffffffffffffffffffffffffffffffffffffffffffffffffffffff1916817bffffffffffffffffffffffffffffffffffffffffffffffffffffffff191614915050612b9b565b600190505b949350505050565b606060008203612bea576040518060400160405280600181526020017f30000000000000000000000000000000000000000000000000000000000000008152509050612cfe565b600082905060005b60008214612c1c578080612c0590613cac565b915050600a82612c159190614b99565b9150612bf2565b60008167ffffffffffffffff811115612c3857612c3761337e565b5b6040519080825280601f01601f191660200182016040528015612c6a5781602001600182028036833780820191505090505b5090505b60008514612cf757600182612c839190614781565b9150600a85612c929190614bca565b6030612c9e91906147b5565b60f81b818381518110612cb457612cb3614bfb565b5b60200101907effffffffffffffffffffffffffffffffffffffffffffffffffffffffffffff1916908160001a905350600a85612cf09190614b99565b9450612c6e565b8093505050505b919050565b612d0d8383612d81565b612d1a6000848484612a1c565b612d59576040517f08c379a0000000000000000000000000000000000000000000000000000000008152600401612d5090614943565b60405180910390fd5b505050565b6000808273ffffffffffffffffffffffffffffffffffffffff163b119050919050565b600073ffffffffffffffffffffffffffffffffffffffff168273ffffffffffffffffffffffffffffffffffffffff1603612df0576040517f08c379a0000000000000000000000000000000000000000000000000000000008152600401612de790614c76565b60405180910390fd5b612df9816120d3565b15612e39576040517f08c379a0000000000000000000000000000000000000000000000000000000008152600401612e3090614ce2565b60405180910390fd5b612e45600083836129fc565b6001600360008473ffffffffffffffffffffffffffffffffffffffff1673ffffffffffffffffffffffffffffffffffffffff1681526020019081526020016000206000828254612e9591906147b5565b92505081905550816002600083815260200190815260200160002060006101000a81548173ffffffffffffffffffffffffffffffffffffffff021916908373ffffffffffffffffffffffffffffffffffffffff160217905550808273ffffffffffffffffffffffffffffffffffffffff16600073ffffffffffffffffffffffffffffffffffffffff167fddf252ad1be2c89b69c2b068fc378daa952ba7f163c4a11628f55a4df523b3ef60405160405180910390a4612f5660008383612a01565b5050565b828054612f6690613874565b90600052602060002090601f016020900481019282612f885760008555612fcf565b82601f10612fa157805160ff1916838001178555612fcf565b82800160010185558215612fcf579182015b82811115612fce578251825591602001919060010190612fb3565b5b509050612fdc9190612fe0565b5090565b5b80821115612ff9576000816000905550600101612fe1565b5090565b6000604051905090565b600080fd5b600080fd5b60007fffffffff0000000000000000000000000000000000000000000000000000000082169050919050565b61304681613011565b811461305157600080fd5b50565b6000813590506130638161303d565b92915050565b60006020828403121561307f5761307e613007565b5b600061308d84828501613054565b91505092915050565b60008115159050919050565b6130ab81613096565b82525050565b60006020820190506130c660008301846130a2565b92915050565b600081519050919050565b600082825260208201905092915050565b60005b838110156131065780820151818401526020810190506130eb565b83811115613115576000848401525b50505050565b6000601f19601f8301169050919050565b6000613137826130cc565b61314181856130d7565b93506131518185602086016130e8565b61315a8161311b565b840191505092915050565b6000602082019050818103600083015261317f818461312c565b905092915050565b6000819050919050565b61319a81613187565b81146131a557600080fd5b50565b6000813590506131b781613191565b92915050565b6000602082840312156131d3576131d2613007565b5b60006131e1848285016131a8565b91505092915050565b600073ffffffffffffffffffffffffffffffffffffffff82169050919050565b6000613215826131ea565b9050919050565b6132258161320a565b82525050565b6000602082019050613240600083018461321c565b92915050565b61324f8161320a565b811461325a57600080fd5b50565b60008135905061326c81613246565b92915050565b6000806040838503121561328957613288613007565b5b60006132978582860161325d565b92505060206132a8858286016131a8565b9150509250929050565b6132bb81613187565b82525050565b60006020820190506132d660008301846132b2565b92915050565b6000806000606084860312156132f5576132f4613007565b5b60006133038682870161325d565b93505060206133148682870161325d565b9250506040613325868287016131a8565b9150509250925092565b6000608082019050613344600083018761321c565b61335160208301866132b2565b61335e60408301856132b2565b61336b60608301846130a2565b95945050505050565b600080fd5b600080fd5b7f4e487b7100000000000000000000000000000000000000000000000000000000600052604160045260246000fd5b6133b68261311b565b810181811067ffffffffffffffff821117156133d5576133d461337e565b5b80604052505050565b60006133e8612ffd565b90506133f482826133ad565b919050565b600067ffffffffffffffff8211156134145761341361337e565b5b61341d8261311b565b9050602081019050919050565b82818337600083830152505050565b600061344c613447846133f9565b6133de565b90508281526020810184848401111561346857613467613379565b5b61347384828561342a565b509392505050565b600082601f8301126134905761348f613374565b5b81356134a0848260208601613439565b91505092915050565b6000602082840312156134bf576134be613007565b5b600082013567ffffffffffffffff8111156134dd576134dc61300c565b5b6134e98482850161347b565b91505092915050565b6000806040838503121561350957613508613007565b5b6000613517858286016131a8565b9250506020613528858286016131a8565b9150509250929050565b60006020828403121561354857613547613007565b5b60006135568482850161325d565b91505092915050565b6000806040838503121561357657613575613007565b5b6000613584858286016131a8565b92505060206135958582860161325d565b9150509250929050565b6135a881613096565b81146135b357600080fd5b50565b6000813590506135c58161359f565b92915050565b600080604083850312156135e2576135e1613007565b5b60006135f08582860161325d565b9250506020613601858286016135b6565b9150509250929050565b600067ffffffffffffffff8211156136265761362561337e565b5b61362f8261311b565b9050602081019050919050565b600061364f61364a8461360b565b6133de565b90508281526020810184848401111561366b5761366a613379565b5b61367684828561342a565b509392505050565b600082601f83011261369357613692613374565b5b81356136a384826020860161363c565b91505092915050565b600080600080608085870312156136c6576136c5613007565b5b60006136d48782880161325d565b94505060206136e58782880161325d565b93505060406136f6878288016131a8565b925050606085013567ffffffffffffffff8111156137175761371661300c565b5b6137238782880161367e565b91505092959194509250565b6000819050919050565b600061375461374f61374a846131ea565b61372f565b6131ea565b9050919050565b600061376682613739565b9050919050565b60006137788261375b565b9050919050565b6137888161376d565b82525050565b60006020820190506137a3600083018461377f565b92915050565b600080604083850312156137c0576137bf613007565b5b60006137ce8582860161325d565b92505060206137df8582860161325d565b9150509250929050565b60008060408385031215613800576137ff613007565b5b600061380e858286016131a8565b925050602083013567ffffffffffffffff81111561382f5761382e61300c565b5b61383b8582860161347b565b9150509250929050565b7f4e487b7100000000000000000000000000000000000000000000000000000000600052602260045260246000fd5b6000600282049050600182168061388c57607f821691505b60208210810361389f5761389e613845565b5b50919050565b7f4552433732313a20617070726f76656420717565727920666f72206e6f6e657860008201527f697374656e7420746f6b656e0000000000000000000000000000000000000000602082015250565b6000613901602c836130d7565b915061390c826138a5565b604082019050919050565b60006020820190508181036000830152613930816138f4565b9050919050565b7f4552433732313a20617070726f76616c20746f2063757272656e74206f776e6560008201527f7200000000000000000000000000000000000000000000000000000000000000602082015250565b60006139936021836130d7565b915061399e82613937565b604082019050919050565b600060208201905081810360008301526139c281613986565b9050919050565b7f4552433732313a20617070726f76652063616c6c6572206973206e6f74206f7760008201527f6e6572206e6f7220617070726f76656420666f7220616c6c0000000000000000602082015250565b6000613a256038836130d7565b9150613a30826139c9565b604082019050919050565b60006020820190508181036000830152613a5481613a18565b9050919050565b7f4552433732313a207472616e736665722063616c6c6572206973206e6f74206f60008201527f776e6572206e6f7220617070726f766564000000000000000000000000000000602082015250565b6000613ab76031836130d7565b9150613ac282613a5b565b604082019050919050565b60006020820190508181036000830152613ae681613aaa565b9050919050565b7f5468697320636f6c6c656374696f6e20697320736f6c64206f75742100000000600082015250565b6000613b23601c836130d7565b9150613b2e82613aed565b602082019050919050565b60006020820190508181036000830152613b5281613b16565b9050919050565b7f596f75206861766520726563656976656420746865206d6178696d756d20616d60008201527f6f756e74206f66204e46547320616c6c6f7765642e0000000000000000000000602082015250565b6000613bb56035836130d7565b9150613bc082613b59565b604082019050919050565b60006020820190508181036000830152613be481613ba8565b9050919050565b7f4e6f7420656e6f75676820657468657220746f207075726368617365204e465460008201527f732e000000000000000000000000000000000000000000000000000000000000602082015250565b6000613c476022836130d7565b9150613c5282613beb565b604082019050919050565b60006020820190508181036000830152613c7681613c3a565b9050919050565b7f4e487b7100000000000000000000000000000000000000000000000000000000600052601160045260246000fd5b6000613cb782613187565b91507fffffffffffffffffffffffffffffffffffffffffffffffffffffffffffffffff8203613ce957613ce8613c7d565b5b600182019050919050565b7f4f776e61626c653a2063616c6c6572206973206e6f7420746865206f776e6572600082015250565b6000613d2a6020836130d7565b9150613d3582613cf4565b602082019050919050565b60006020820190508181036000830152613d5981613d1d565b9050919050565b7f4e6f206574686572206c65667420746f20776974686472617700000000000000600082015250565b6000613d966019836130d7565b9150613da182613d60565b602082019050919050565b60006020820190508181036000830152613dc581613d89565b9050919050565b600081905092915050565b50565b6000613de7600083613dcc565b9150613df282613dd7565b600082019050919050565b6000613e0882613dda565b9150819050919050565b7f5472616e73666572206661696c65642e00000000000000000000000000000000600082015250565b6000613e486010836130d7565b9150613e5382613e12565b602082019050919050565b60006020820190508181036000830152613e7781613e3b565b9050919050565b600081519050613e8d81613246565b92915050565b600060208284031215613ea957613ea8613007565b5b6000613eb784828501613e7e565b91505092915050565b7f4f6e6c7920746f6b656e206f776e65722063616e206372656174652073616c65600082015250565b6000613ef66020836130d7565b9150613f0182613ec0565b602082019050919050565b60006020820190508181036000830152613f2581613ee9565b9050919050565b7f5072696365206d7573742062652067726561746572207468616e207a65726f00600082015250565b6000613f62601f836130d7565b9150613f6d82613f2c565b602082019050919050565b60006020820190508181036000830152613f9181613f55565b9050919050565b7f546f6b656e20616c7265616479206c697374656420666f722073616c65000000600082015250565b6000613fce601d836130d7565b9150613fd982613f98565b602082019050919050565b60006020820190508181036000830152613ffd81613fc1565b9050919050565b6000606082019050614019600083018661321c565b61402660208301856132b2565b61403360408301846132b2565b949350505050565b7f4552433732313a206f776e657220717565727920666f72206e6f6e657869737460008201527f656e7420746f6b656e0000000000000000000000000000000000000000000000602082015250565b60006140976029836130d7565b91506140a28261403b565b604082019050919050565b600060208201905081810360008301526140c68161408a565b9050919050565b7f4552433732313a2062616c616e636520717565727920666f7220746865207a6560008201527f726f206164647265737300000000000000000000000000000000000000000000602082015250565b6000614129602a836130d7565b9150614134826140cd565b604082019050919050565b600060208201905081810360008301526141588161411c565b9050919050565b6000604082019050614174600083018561321c565b61418160208301846132b2565b9392505050565b7f4e6f7420656e6f756768204e465473206c65667420746f207265736572766500600082015250565b60006141be601f836130d7565b91506141c982614188565b602082019050919050565b600060208201905081810360008301526141ed816141b1565b9050919050565b7f4f6e6c792073656c6c65722063616e2063616e63656c2073616c650000000000600082015250565b600061422a601b836130d7565b9150614235826141f4565b602082019050919050565b600060208201905081810360008301526142598161421d565b9050919050565b7f53616c6520616c72656164792063616e63656c6c656400000000000000000000600082015250565b60006142966016836130d7565b91506142a182614260565b602082019050919050565b600060208201905081810360008301526142c581614289565b9050919050565b7f45524337323155524953746f726167653a2055524920717565727920666f722060008201527f6e6f6e6578697374656e7420746f6b656e000000000000000000000000000000602082015250565b60006143286031836130d7565b9150614333826142cc565b604082019050919050565b600060208201905081810360008301526143578161431b565b9050919050565b600081905092915050565b6000614374826130cc565b61437e818561435e565b935061438e8185602086016130e8565b80840191505092915050565b60006143a68285614369565b91506143b28284614369565b91508190509392505050565b7f53616c65206973206e6f74206163746976650000000000000000000000000000600082015250565b60006143f46012836130d7565b91506143ff826143be565b602082019050919050565b60006020820190508181036000830152614423816143e7565b9050919050565b7f496e636f727265637420616d6f756e742073656e740000000000000000000000600082015250565b60006144606015836130d7565b915061446b8261442a565b602082019050919050565b6000602082019050818103600083015261448f81614453565b9050919050565b60006060820190506144ab600083018661321c565b6144b8602083018561321c565b6144c560408301846132b2565b949350505050565b7f5472616e73666572206661696c65640000000000000000000000000000000000600082015250565b6000614503600f836130d7565b915061450e826144cd565b602082019050919050565b60006020820190508181036000830152614532816144f6565b9050919050565b7f4f776e61626c653a206e6577206f776e657220697320746865207a65726f206160008201527f6464726573730000000000000000000000000000000000000000000000000000602082015250565b60006145956026836130d7565b91506145a082614539565b604082019050919050565b600060208201905081810360008301526145c481614588565b9050919050565b7f4552433732313a206f70657261746f7220717565727920666f72206e6f6e657860008201527f697374656e7420746f6b656e0000000000000000000000000000000000000000602082015250565b6000614627602c836130d7565b9150614632826145cb565b604082019050919050565b600060208201905081810360008301526146568161461a565b9050919050565b7f4552433732313a207472616e736665722066726f6d20696e636f72726563742060008201527f6f776e6572000000000000000000000000000000000000000000000000000000602082015250565b60006146b96025836130d7565b91506146c48261465d565b604082019050919050565b600060208201905081810360008301526146e8816146ac565b9050919050565b7f4552433732313a207472616e7366657220746f20746865207a65726f2061646460008201527f7265737300000000000000000000000000000000000000000000000000000000602082015250565b600061474b6024836130d7565b9150614756826146ef565b604082019050919050565b6000602082019050818103600083015261477a8161473e565b9050919050565b600061478c82613187565b915061479783613187565b9250828210156147aa576147a9613c7d565b5b828203905092915050565b60006147c082613187565b91506147cb83613187565b9250827fffffffffffffffffffffffffffffffffffffffffffffffffffffffffffffffff03821115614800576147ff613c7d565b5b828201905092915050565b600061481682613187565b915061482183613187565b9250817fffffffffffffffffffffffffffffffffffffffffffffffffffffffffffffffff048311821515161561485a57614859613c7d565b5b828202905092915050565b7f4552433732313a20617070726f766520746f2063616c6c657200000000000000600082015250565b600061489b6019836130d7565b91506148a682614865565b602082019050919050565b600060208201905081810360008301526148ca8161488e565b9050919050565b7f4552433732313a207472616e7366657220746f206e6f6e20455243373231526560008201527f63656976657220696d706c656d656e7465720000000000000000000000000000602082015250565b600061492d6032836130d7565b9150614938826148d1565b604082019050919050565b6000602082019050818103600083015261495c81614920565b9050919050565b7f4552433732314d657461646174613a2055524920717565727920666f72206e6f60008201527f6e6578697374656e7420746f6b656e0000000000000000000000000000000000602082015250565b60006149bf602f836130d7565b91506149ca82614963565b604082019050919050565b600060208201905081810360008301526149ee816149b2565b9050919050565b7f45524337323155524953746f726167653a2055524920736574206f66206e6f6e60008201527f6578697374656e7420746f6b656e000000000000000000000000000000000000602082015250565b6000614a51602e836130d7565b9150614a5c826149f5565b604082019050919050565b60006020820190508181036000830152614a8081614a44565b9050919050565b600081519050919050565b600082825260208201905092915050565b6000614aae82614a87565b614ab88185614a92565b9350614ac88185602086016130e8565b614ad18161311b565b840191505092915050565b6000608082019050614af1600083018761321c565b614afe602083018661321c565b614b0b60408301856132b2565b8181036060830152614b1d8184614aa3565b905095945050505050565b600081519050614b378161303d565b92915050565b600060208284031215614b5357614b52613007565b5b6000614b6184828501614b28565b91505092915050565b7f4e487b7100000000000000000000000000000000000000000000000000000000600052601260045260246000fd5b6000614ba482613187565b9150614baf83613187565b925082614bbf57614bbe614b6a565b5b828204905092915050565b6000614bd582613187565b9150614be083613187565b925082614bf057614bef614b6a565b5b828206905092915050565b7f4e487b7100000000000000000000000000000000000000000000000000000000600052603260045260246000fd5b7f4552433732313a206d696e7420746f20746865207a65726f2061646472657373600082015250565b6000614c606020836130d7565b9150614c6b82614c2a565b602082019050919050565b60006020820190508181036000830152614c8f81614c53565b9050919050565b7f4552433732313a20746f6b656e20616c7265616479206d696e74656400000000600082015250565b6000614ccc601c836130d7565b9150614cd782614c96565b602082019050919050565b60006020820190508181036000830152614cfb81614cbf565b905091905056fea264697066735822122074dac0a37f9aef43af5a6b38e2ad69908326861f4e377bc7069b223fea5e59fb64736f6c634300080d0033",
  "immutableReferences": {},
  "source": "//SPDX-License-Identifier: MIT\npragma solidity ^0.8.13;\n\nimport \"@openzeppelin/contracts/utils/Counters.sol\";\nimport \"@openzeppelin/contracts/access/Ownable.sol\";\nimport \"@openzeppelin/contracts/utils/math/SafeMath.sol\";\nimport \"@openzeppelin/contracts/utils/Strings.sol\";\nimport \"@openzeppelin/contracts/token/ERC721/extensions/ERC721Enumerable.sol\";\nimport \"@openzeppelin/contracts/token/ERC721/extensions/ERC721URIStorage.sol\";\n\ncontract ELEN_E6883_NFT is ERC721URIStorage, Ownable {\n\n    using SafeMath for uint256;\n    using Counters for Counters.Counter;\n\n    Counters.Counter private _tokenIds;\n    // The max number of NFTs in the collection\n    uint public constant MAX_SUPPLY = 10;\n    // The mint price for the collection\n    uint public constant PRICE = 0.00001 ether;\n    // The max number of mints per wallet\n    uint public constant MAX_PER_MINT = 5;\n    \n    string public baseTokenURI;\n\n    //*** VK added code #1***\n    struct Sale {\n        address seller;\n        uint256 tokenId;\n        uint256 price;\n        bool active;\n    }\n\n    address public _contractOwner;\n    uint256 public _price;\n    IERC721 public nftContract;\n    mapping (uint256 => Sale) public tokenIdToSale;\n    event SaleCreated(address seller, uint256 tokenId, uint256 price);\n    event SaleCancelled(address seller, uint256 tokenId);\n    event SaleSuccessful(address buyer, uint256 tokenId, uint256 price);\n    event nftdetails(address nftAddress, uint256 tokenId);\n    //*** VK end code #1 ***\n\n    constructor(string memory baseURI, string memory name, string memory symbol) ERC721(name, symbol) {\n        setBaseURI(baseURI);\n        _contractOwner = msg.sender;\n    }\n\n\n    function _baseURI() internal view virtual override returns (string memory) {\n        return baseTokenURI;\n    }\n\n    function setBaseURI(string memory _baseTokenURI) public onlyOwner {\n        baseTokenURI = _baseTokenURI;\n    }\n\n    function mintNFTs(uint _count) public payable {\n        uint totalMinted = _tokenIds.current();\n\n        require(totalMinted.add(_count) <= MAX_SUPPLY, \"This collection is sold out!\");\n        require(_count >0 && _count <= MAX_PER_MINT, \"You have received the maximum amount of NFTs allowed.\");\n        require(msg.value >= PRICE.mul(_count), \"Not enough ether to purchase NFTs.\");\n\n        for (uint i = 0; i < _count; i++) {\n            _mintSingleNFT();\n        }\n    }\n\n    function _mintSingleNFT() private {\n        uint newTokenID = _tokenIds.current();\n        _safeMint(msg.sender, newTokenID);\n        _tokenIds.increment();\n    }\n\n    function createNFT(uint256 newTokenID, string memory data) public {\n        _safeMint(msg.sender, newTokenID);\n        _setTokenURI(newTokenID, data);\n    }\n\n    // Withdraw the ether in the contract\n    function withdraw() public payable onlyOwner {\n        uint balance = address(this).balance;\n        require(balance > 0, \"No ether left to withdraw\");\n\n        (bool success, ) = (msg.sender).call{value: balance}(\"\");\n        require(success, \"Transfer failed.\");\n    }\n\n    // Reserve NFTs only for owner to mint for free\n    function reserveNFTs(uint _count) public onlyOwner {\n        uint totalMinted = _tokenIds.current();\n\n        require(totalMinted.add(_count) < MAX_SUPPLY, \"Not enough NFTs left to reserve\");\n\n        for (uint i = 0; i < _count; i++) {\n            _mintSingleNFT();\n        }\n    }\n\n    //*** VK added code #2 ***\n    function getOwner (uint256 tokenId) public returns (address owner){\n        emit nftdetails ( msg.sender, tokenId);\n        return _contractOwner;\n    }\n\n    function setOwner (uint256 tokenId, address  newAddress) public {\n        _contractOwner = newAddress;\n        emit nftdetails ( msg.sender, tokenId);\n    }\n\n    function createSale(uint256 tokenId, uint256 price) external {\n        require(nftContract.ownerOf(tokenId) == msg.sender, \"Only token owner can create sale\");\n        require(price > 0, \"Price must be greater than zero\");\n        require(tokenIdToSale[tokenId].active == false, \"Token already listed for sale\");\n\n        Sale memory sale = Sale({\n            seller: msg.sender,\n            tokenId: tokenId,\n            price: price,\n            active: true\n        });\n        tokenIdToSale[tokenId] = sale;\n        _price = sale.price;\n        emit SaleCreated(msg.sender, tokenId, price);\n    }\n\n    function getPrice (uint256 tokenId) public returns (uint256 price){\n        return _price;\n    }\n\n    function cancelSale(uint256 tokenId) external {\n        require(tokenIdToSale[tokenId].seller == msg.sender, \"Only seller can cancel sale\");\n        require(tokenIdToSale[tokenId].active == true, \"Sale already cancelled\");\n\n        delete tokenIdToSale[tokenId];\n\n        emit SaleCancelled(msg.sender, tokenId);\n    }\n\n    function sellNFT(uint256 tokenId) external payable {\n        Sale memory sale = tokenIdToSale[tokenId];\n        require(sale.active == true, \"Sale is not active\");\n        require(msg.value == sale.price, \"Incorrect amount sent\");\n\n        address seller = sale.seller;\n        uint256 price = sale.price;\n\n        delete tokenIdToSale[tokenId];\n\n        // Transfer the NFT to the buyer\n        nftContract.safeTransferFrom(seller, msg.sender, tokenId);\n\n        // Transfer the payment to the seller\n        (bool success,) = seller.call{value: price}(\"\");\n        require(success, \"Transfer failed\");\n\n        emit SaleSuccessful(msg.sender, tokenId, price);\n    }\n\n    function delistNFT(uint256 tokenID) public {\n        delete _tokenIds ;\n        delete _contractOwner ;\n    }\n\n    //*** VK end code #2 ***\n\n}",
  "sourcePath": "/Users/howardjp/WebstormProjects/pixel-vault/contracts/ELEN_E6883_NFT.sol",
  "compiler": {
    "name": "solc",
    "version": "0.8.13+commit.abaa5c0e.Emscripten.clang"
  },
  "schemaVersion": "3.4.13",
  "updatedAt": "2023-05-07T00:45:33.911Z",
  "networkType": "ethereum",
  "devdoc": {
    "kind": "dev",
    "methods": {
      "approve(address,uint256)": {
        "details": "See {IERC721-approve}."
      },
      "balanceOf(address)": {
        "details": "See {IERC721-balanceOf}."
      },
      "getApproved(uint256)": {
        "details": "See {IERC721-getApproved}."
      },
      "isApprovedForAll(address,address)": {
        "details": "See {IERC721-isApprovedForAll}."
      },
      "name()": {
        "details": "See {IERC721Metadata-name}."
      },
      "owner()": {
        "details": "Returns the address of the current owner."
      },
      "ownerOf(uint256)": {
        "details": "See {IERC721-ownerOf}."
      },
      "renounceOwnership()": {
        "details": "Leaves the contract without owner. It will not be possible to call `onlyOwner` functions anymore. Can only be called by the current owner. NOTE: Renouncing ownership will leave the contract without an owner, thereby removing any functionality that is only available to the owner."
      },
      "safeTransferFrom(address,address,uint256)": {
        "details": "See {IERC721-safeTransferFrom}."
      },
      "safeTransferFrom(address,address,uint256,bytes)": {
        "details": "See {IERC721-safeTransferFrom}."
      },
      "setApprovalForAll(address,bool)": {
        "details": "See {IERC721-setApprovalForAll}."
      },
      "supportsInterface(bytes4)": {
        "details": "See {IERC165-supportsInterface}."
      },
      "symbol()": {
        "details": "See {IERC721Metadata-symbol}."
      },
      "tokenURI(uint256)": {
        "details": "See {IERC721Metadata-tokenURI}."
      },
      "transferFrom(address,address,uint256)": {
        "details": "See {IERC721-transferFrom}."
      },
      "transferOwnership(address)": {
        "details": "Transfers ownership of the contract to a new account (`newOwner`). Can only be called by the current owner."
      }
    },
    "version": 1
  },
  "userdoc": {
    "kind": "user",
    "methods": {},
    "version": 1
  }
}