{
  "contractName": "MyNFT",
  "abi": [
    {
      "inputs": [],
      "stateMutability": "nonpayable",
      "type": "constructor"
    },
    {
      "anonymous": false,
      "inputs": [
        {
          "indexed": true,
          "internalType": "address",
          "name": "owner",
          "type": "address"
        },
        {
          "indexed": true,
          "internalType": "address",
          "name": "approved",
          "type": "address"
        },
        {
          "indexed": true,
          "internalType": "uint256",
          "name": "tokenId",
          "type": "uint256"
        }
      ],
      "name": "Approval",
      "type": "event"
    },
    {
      "anonymous": false,
      "inputs": [
        {
          "indexed": true,
          "internalType": "address",
          "name": "owner",
          "type": "address"
        },
        {
          "indexed": true,
          "internalType": "address",
          "name": "operator",
          "type": "address"
        },
        {
          "indexed": false,
          "internalType": "bool",
          "name": "approved",
          "type": "bool"
        }
      ],
      "name": "ApprovalForAll",
      "type": "event"
    },
    {
      "anonymous": false,
      "inputs": [
        {
          "indexed": true,
          "internalType": "address",
          "name": "from",
          "type": "address"
        },
        {
          "indexed": true,
          "internalType": "address",
          "name": "to",
          "type": "address"
        },
        {
          "indexed": true,
          "internalType": "uint256",
          "name": "tokenId",
          "type": "uint256"
        }
      ],
      "name": "Transfer",
      "type": "event"
    },
    {
      "inputs": [
        {
          "internalType": "address",
          "name": "to",
          "type": "address"
        },
        {
          "internalType": "uint256",
          "name": "tokenId",
          "type": "uint256"
        }
      ],
      "name": "approve",
      "outputs": [],
      "stateMutability": "nonpayable",
      "type": "function"
    },
    {
      "inputs": [
        {
          "internalType": "address",
          "name": "owner",
          "type": "address"
        }
      ],
      "name": "balanceOf",
      "outputs": [
        {
          "internalType": "uint256",
          "name": "",
          "type": "uint256"
        }
      ],
      "stateMutability": "view",
      "type": "function",
      "constant": true
    },
    {
      "inputs": [
        {
          "internalType": "uint256",
          "name": "tokenId",
          "type": "uint256"
        }
      ],
      "name": "getApproved",
      "outputs": [
        {
          "internalType": "address",
          "name": "",
          "type": "address"
        }
      ],
      "stateMutability": "view",
      "type": "function",
      "constant": true
    },
    {
      "inputs": [
        {
          "internalType": "address",
          "name": "owner",
          "type": "address"
        },
        {
          "internalType": "address",
          "name": "operator",
          "type": "address"
        }
      ],
      "name": "isApprovedForAll",
      "outputs": [
        {
          "internalType": "bool",
          "name": "",
          "type": "bool"
        }
      ],
      "stateMutability": "view",
      "type": "function",
      "constant": true
    },
    {
      "inputs": [],
      "name": "name",
      "outputs": [
        {
          "internalType": "string",
          "name": "",
          "type": "string"
        }
      ],
      "stateMutability": "view",
      "type": "function",
      "constant": true
    },
    {
      "inputs": [
        {
          "internalType": "uint256",
          "name": "",
          "type": "uint256"
        }
      ],
      "name": "nftDetails",
      "outputs": [
        {
          "internalType": "string",
          "name": "name",
          "type": "string"
        },
        {
          "internalType": "string",
          "name": "description",
          "type": "string"
        }
      ],
      "stateMutability": "view",
      "type": "function",
      "constant": true
    },
    {
      "inputs": [
        {
          "internalType": "uint256",
          "name": "",
          "type": "uint256"
        }
      ],
      "name": "nftSalePrices",
      "outputs": [
        {
          "internalType": "uint256",
          "name": "",
          "type": "uint256"
        }
      ],
      "stateMutability": "view",
      "type": "function",
      "constant": true
    },
    {
      "inputs": [
        {
          "internalType": "uint256",
          "name": "tokenId",
          "type": "uint256"
        }
      ],
      "name": "ownerOf",
      "outputs": [
        {
          "internalType": "address",
          "name": "",
          "type": "address"
        }
      ],
      "stateMutability": "view",
      "type": "function",
      "constant": true
    },
    {
      "inputs": [
        {
          "internalType": "address",
          "name": "from",
          "type": "address"
        },
        {
          "internalType": "address",
          "name": "to",
          "type": "address"
        },
        {
          "internalType": "uint256",
          "name": "tokenId",
          "type": "uint256"
        }
      ],
      "name": "safeTransferFrom",
      "outputs": [],
      "stateMutability": "nonpayable",
      "type": "function"
    },
    {
      "inputs": [
        {
          "internalType": "address",
          "name": "from",
          "type": "address"
        },
        {
          "internalType": "address",
          "name": "to",
          "type": "address"
        },
        {
          "internalType": "uint256",
          "name": "tokenId",
          "type": "uint256"
        },
        {
          "internalType": "bytes",
          "name": "data",
          "type": "bytes"
        }
      ],
      "name": "safeTransferFrom",
      "outputs": [],
      "stateMutability": "nonpayable",
      "type": "function"
    },
    {
      "inputs": [
        {
          "internalType": "address",
          "name": "operator",
          "type": "address"
        },
        {
          "internalType": "bool",
          "name": "approved",
          "type": "bool"
        }
      ],
      "name": "setApprovalForAll",
      "outputs": [],
      "stateMutability": "nonpayable",
      "type": "function"
    },
    {
      "inputs": [
        {
          "internalType": "bytes4",
          "name": "interfaceId",
          "type": "bytes4"
        }
      ],
      "name": "supportsInterface",
      "outputs": [
        {
          "internalType": "bool",
          "name": "",
          "type": "bool"
        }
      ],
      "stateMutability": "view",
      "type": "function",
      "constant": true
    },
    {
      "inputs": [],
      "name": "symbol",
      "outputs": [
        {
          "internalType": "string",
          "name": "",
          "type": "string"
        }
      ],
      "stateMutability": "view",
      "type": "function",
      "constant": true
    },
    {
      "inputs": [
        {
          "internalType": "address",
          "name": "from",
          "type": "address"
        },
        {
          "internalType": "address",
          "name": "to",
          "type": "address"
        },
        {
          "internalType": "uint256",
          "name": "tokenId",
          "type": "uint256"
        }
      ],
      "name": "transferFrom",
      "outputs": [],
      "stateMutability": "nonpayable",
      "type": "function"
    },
    {
      "inputs": [
        {
          "internalType": "address",
          "name": "recipient",
          "type": "address"
        },
        {
          "internalType": "string",
          "name": "name",
          "type": "string"
        },
        {
          "internalType": "string",
          "name": "description",
          "type": "string"
        }
      ],
      "name": "createNFT",
      "outputs": [],
      "stateMutability": "nonpayable",
      "type": "function"
    },
    {
      "inputs": [
        {
          "internalType": "uint256",
          "name": "tokenId",
          "type": "uint256"
        },
        {
          "internalType": "uint256",
          "name": "salePrice",
          "type": "uint256"
        }
      ],
      "name": "listNFTForSale",
      "outputs": [],
      "stateMutability": "nonpayable",
      "type": "function"
    },
    {
      "inputs": [
        {
          "internalType": "uint256",
          "name": "tokenId",
          "type": "uint256"
        }
      ],
      "name": "removeNFTFromSale",
      "outputs": [],
      "stateMutability": "nonpayable",
      "type": "function"
    },
    {
      "inputs": [
        {
          "internalType": "uint256",
          "name": "tokenId",
          "type": "uint256"
        }
      ],
      "name": "purchaseNFT",
      "outputs": [],
      "stateMutability": "payable",
      "type": "function",
      "payable": true
    },
    {
      "inputs": [
        {
          "internalType": "uint256",
          "name": "tokenId",
          "type": "uint256"
        }
      ],
      "name": "tokenURI",
      "outputs": [
        {
          "internalType": "string",
          "name": "",
          "type": "string"
        }
      ],
      "stateMutability": "view",
      "type": "function",
      "constant": true
    }
  ],
  "bytecode": "0x608060405260006007553480156200001657600080fd5b506040518060400160405280600581526020017f4d794e46540000000000000000000000000000000000000000000000000000008152506040518060400160405280600481526020017f4d4e465400000000000000000000000000000000000000000000000000000000815250816000908162000094919062000329565b508060019081620000a6919062000329565b50505062000410565b600081519050919050565b7f4e487b7100000000000000000000000000000000000000000000000000000000600052604160045260246000fd5b7f4e487b7100000000000000000000000000000000000000000000000000000000600052602260045260246000fd5b600060028204905060018216806200013157607f821691505b602082108103620001475762000146620000e9565b5b50919050565b60008190508160005260206000209050919050565b60006020601f8301049050919050565b600082821b905092915050565b600060088302620001b17fffffffffffffffffffffffffffffffffffffffffffffffffffffffffffffffff8262000172565b620001bd868362000172565b95508019841693508086168417925050509392505050565b6000819050919050565b6000819050919050565b60006200020a62000204620001fe84620001d5565b620001df565b620001d5565b9050919050565b6000819050919050565b6200022683620001e9565b6200023e620002358262000211565b8484546200017f565b825550505050565b600090565b6200025562000246565b620002628184846200021b565b505050565b5b818110156200028a576200027e6000826200024b565b60018101905062000268565b5050565b601f821115620002d957620002a3816200014d565b620002ae8462000162565b81016020851015620002be578190505b620002d6620002cd8562000162565b83018262000267565b50505b505050565b600082821c905092915050565b6000620002fe60001984600802620002de565b1980831691505092915050565b6000620003198383620002eb565b9150826002028217905092915050565b6200033482620000af565b67ffffffffffffffff81111562000350576200034f620000ba565b5b6200035c825462000118565b620003698282856200028e565b600060209050601f831160018114620003a157600084156200038c578287015190505b6200039885826200030b565b86555062000408565b601f198416620003b1866200014d565b60005b82811015620003db57848901518255600182019150602085019450602081019050620003b4565b86831015620003fb5784890151620003f7601f891682620002eb565b8355505b6001600288020188555050505b505050505050565b6137eb80620004206000396000f3fe6080604052600436106101145760003560e01c806370a08231116100a0578063ae64b02911610064578063ae64b029146103b3578063b2733b39146103f0578063b88d4fde14610419578063c87b56dd14610442578063e985e9c51461047f57610114565b806370a08231146102bb5780637d4cd847146102f857806395d89b4114610336578063a02e510714610361578063a22cb4651461038a57610114565b80630b564a7c116100e75780630b564a7c146101e7578063150bde031461021057806323b872dd1461022c57806342842e0e146102555780636352211e1461027e57610114565b806301ffc9a71461011957806306fdde0314610156578063081812fc14610181578063095ea7b3146101be575b600080fd5b34801561012557600080fd5b50610140600480360381019061013b91906121eb565b6104bc565b60405161014d9190612233565b60405180910390f35b34801561016257600080fd5b5061016b61059e565b60405161017891906122de565b60405180910390f35b34801561018d57600080fd5b506101a860048036038101906101a39190612336565b610630565b6040516101b591906123a4565b60405180910390f35b3480156101ca57600080fd5b506101e560048036038101906101e091906123eb565b610676565b005b3480156101f357600080fd5b5061020e60048036038101906102099190612560565b61078d565b005b61022a60048036038101906102259190612336565b61084a565b005b34801561023857600080fd5b50610253600480360381019061024e91906125eb565b6109ee565b005b34801561026157600080fd5b5061027c600480360381019061027791906125eb565b610a4e565b005b34801561028a57600080fd5b506102a560048036038101906102a09190612336565b610a6e565b6040516102b291906123a4565b60405180910390f35b3480156102c757600080fd5b506102e260048036038101906102dd919061263e565b610af4565b6040516102ef919061267a565b60405180910390f35b34801561030457600080fd5b5061031f600480360381019061031a9190612336565b610bab565b60405161032d929190612695565b60405180910390f35b34801561034257600080fd5b5061034b610cdf565b60405161035891906122de565b60405180910390f35b34801561036d57600080fd5b5061038860048036038101906103839190612336565b610d71565b005b34801561039657600080fd5b506103b160048036038101906103ac91906126f8565b610e4b565b005b3480156103bf57600080fd5b506103da60048036038101906103d59190612336565b610e61565b6040516103e7919061267a565b60405180910390f35b3480156103fc57600080fd5b5061041760048036038101906104129190612738565b610e79565b005b34801561042557600080fd5b50610440600480360381019061043b9190612819565b610f53565b005b34801561044e57600080fd5b5061046960048036038101906104649190612336565b610fb5565b60405161047691906122de565b60405180910390f35b34801561048b57600080fd5b506104a660048036038101906104a1919061289c565b610fc7565b6040516104b39190612233565b60405180910390f35b60007f80ac58cd000000000000000000000000000000000000000000000000000000007bffffffffffffffffffffffffffffffffffffffffffffffffffffffff1916827bffffffffffffffffffffffffffffffffffffffffffffffffffffffff1916148061058757507f5b5e139f000000000000000000000000000000000000000000000000000000007bffffffffffffffffffffffffffffffffffffffffffffffffffffffff1916827bffffffffffffffffffffffffffffffffffffffffffffffffffffffff1916145b8061059757506105968261105b565b5b9050919050565b6060600080546105ad9061290b565b80601f01602080910402602001604051908101604052809291908181526020018280546105d99061290b565b80156106265780601f106105fb57610100808354040283529160200191610626565b820191906000526020600020905b81548152906001019060200180831161060957829003601f168201915b5050505050905090565b600061063b826110c5565b6004600083815260200190815260200160002060009054906101000a900473ffffffffffffffffffffffffffffffffffffffff169050919050565b600061068182610a6e565b90508073ffffffffffffffffffffffffffffffffffffffff168373ffffffffffffffffffffffffffffffffffffffff16036106f1576040517f08c379a00000000000000000000000000000000000000000000000000000000081526004016106e8906129ae565b60405180910390fd5b8073ffffffffffffffffffffffffffffffffffffffff16610710611110565b73ffffffffffffffffffffffffffffffffffffffff16148061073f575061073e81610739611110565b610fc7565b5b61077e576040517f08c379a000000000000000000000000000000000000000000000000000000000815260040161077590612a40565b60405180910390fd5b6107888383611118565b505050565b60006007549050600061079f826111d1565b6040516020016107af9190612ae8565b60405160208183030381529060405290506107ca8583611340565b6107d4828261135e565b6040518060400160405280858152602001848152506008600084815260200190815260200160002060008201518160000190816108119190612cb6565b5060208201518160010190816108279190612cb6565b509050506007600081548092919061083e90612db7565b91905055505050505050565b610853816113cb565b610892576040517f08c379a000000000000000000000000000000000000000000000000000000000815260040161088990612e4b565b60405180910390fd5b600060096000838152602001908152602001600020549050600081116108ed576040517f08c379a00000000000000000000000000000000000000000000000000000000081526004016108e490612eb7565b60405180910390fd5b80341461092f576040517f08c379a000000000000000000000000000000000000000000000000000000000815260040161092690612f23565b60405180910390fd5b600061093a83610a6e565b905061094781338561140c565b600060096000858152602001908152602001600020819055508073ffffffffffffffffffffffffffffffffffffffff166108fc349081150290604051600060405180830381858888f193505050501580156109a6573d6000803e3d6000fd5b508134146109e9576040517f08c379a00000000000000000000000000000000000000000000000000000000081526004016109e090612fb5565b60405180910390fd5b505050565b6109ff6109f9611110565b82611705565b610a3e576040517f08c379a0000000000000000000000000000000000000000000000000000000008152600401610a3590613047565b60405180910390fd5b610a4983838361140c565b505050565b610a6983838360405180602001604052806000815250610f53565b505050565b600080610a7a8361179a565b9050600073ffffffffffffffffffffffffffffffffffffffff168173ffffffffffffffffffffffffffffffffffffffff1603610aeb576040517f08c379a0000000000000000000000000000000000000000000000000000000008152600401610ae2906130b3565b60405180910390fd5b80915050919050565b60008073ffffffffffffffffffffffffffffffffffffffff168273ffffffffffffffffffffffffffffffffffffffff1603610b64576040517f08c379a0000000000000000000000000000000000000000000000000000000008152600401610b5b90613145565b60405180910390fd5b600360008373ffffffffffffffffffffffffffffffffffffffff1673ffffffffffffffffffffffffffffffffffffffff168152602001908152602001600020549050919050565b6008602052806000526040600020600091509050806000018054610bce9061290b565b80601f0160208091040260200160405190810160405280929190818152602001828054610bfa9061290b565b8015610c475780601f10610c1c57610100808354040283529160200191610c47565b820191906000526020600020905b815481529060010190602001808311610c2a57829003601f168201915b505050505090806001018054610c5c9061290b565b80601f0160208091040260200160405190810160405280929190818152602001828054610c889061290b565b8015610cd55780601f10610caa57610100808354040283529160200191610cd5565b820191906000526020600020905b815481529060010190602001808311610cb857829003601f168201915b5050505050905082565b606060018054610cee9061290b565b80601f0160208091040260200160405190810160405280929190818152602001828054610d1a9061290b565b8015610d675780601f10610d3c57610100808354040283529160200191610d67565b820191906000526020600020905b815481529060010190602001808311610d4a57829003601f168201915b5050505050905090565b610d7a816113cb565b610db9576040517f08c379a0000000000000000000000000000000000000000000000000000000008152600401610db090612e4b565b60405180910390fd5b3373ffffffffffffffffffffffffffffffffffffffff16610dd982610a6e565b73ffffffffffffffffffffffffffffffffffffffff1614610e2f576040517f08c379a0000000000000000000000000000000000000000000000000000000008152600401610e26906131b1565b60405180910390fd5b6000600960008381526020019081526020016000208190555050565b610e5d610e56611110565b83836117d7565b5050565b60096020528060005260406000206000915090505481565b610e82826113cb565b610ec1576040517f08c379a0000000000000000000000000000000000000000000000000000000008152600401610eb890612e4b565b60405180910390fd5b3373ffffffffffffffffffffffffffffffffffffffff16610ee183610a6e565b73ffffffffffffffffffffffffffffffffffffffff1614610f37576040517f08c379a0000000000000000000000000000000000000000000000000000000008152600401610f2e906131b1565b60405180910390fd5b8060096000848152602001908152602001600020819055505050565b610f64610f5e611110565b83611705565b610fa3576040517f08c379a0000000000000000000000000000000000000000000000000000000008152600401610f9a90613047565b60405180910390fd5b610faf84848484611943565b50505050565b6060610fc08261199f565b9050919050565b6000600560008473ffffffffffffffffffffffffffffffffffffffff1673ffffffffffffffffffffffffffffffffffffffff16815260200190815260200160002060008373ffffffffffffffffffffffffffffffffffffffff1673ffffffffffffffffffffffffffffffffffffffff16815260200190815260200160002060009054906101000a900460ff16905092915050565b60007f01ffc9a7000000000000000000000000000000000000000000000000000000007bffffffffffffffffffffffffffffffffffffffffffffffffffffffff1916827bffffffffffffffffffffffffffffffffffffffffffffffffffffffff1916149050919050565b6110ce816113cb565b61110d576040517f08c379a0000000000000000000000000000000000000000000000000000000008152600401611104906130b3565b60405180910390fd5b50565b600033905090565b816004600083815260200190815260200160002060006101000a81548173ffffffffffffffffffffffffffffffffffffffff021916908373ffffffffffffffffffffffffffffffffffffffff160217905550808273ffffffffffffffffffffffffffffffffffffffff1661118b83610a6e565b73ffffffffffffffffffffffffffffffffffffffff167f8c5be1e5ebec7d5bd14f71427d1e84f3dd0314c0f7b2291e5b200ac8c7c3b92560405160405180910390a45050565b606060008203611218576040518060400160405280600181526020017f3000000000000000000000000000000000000000000000000000000000000000815250905061133b565b600082905060005b6000821461124a57808061123390612db7565b915050600a826112439190613200565b9150611220565b60008167ffffffffffffffff81111561126657611265612435565b5b6040519080825280601f01601f1916602001820160405280156112985781602001600182028036833780820191505090505b50905060006001836112aa9190613231565b90505b6000861461133357600a866112c29190613265565b60306112ce9190613296565b60f81b8282806112dd906132ca565b9350815181106112f0576112ef6132f3565b5b60200101907effffffffffffffffffffffffffffffffffffffffffffffffffffffffffffff1916908160001a905350600a8661132c9190613200565b95506112ad565b819450505050505b919050565b61135a828260405180602001604052806000815250611ab1565b5050565b611367826113cb565b6113a6576040517f08c379a000000000000000000000000000000000000000000000000000000000815260040161139d90613394565b60405180910390fd5b806006600084815260200190815260200160002090816113c69190612cb6565b505050565b60008073ffffffffffffffffffffffffffffffffffffffff166113ed8361179a565b73ffffffffffffffffffffffffffffffffffffffff1614159050919050565b8273ffffffffffffffffffffffffffffffffffffffff1661142c82610a6e565b73ffffffffffffffffffffffffffffffffffffffff1614611482576040517f08c379a000000000000000000000000000000000000000000000000000000000815260040161147990613426565b60405180910390fd5b600073ffffffffffffffffffffffffffffffffffffffff168273ffffffffffffffffffffffffffffffffffffffff16036114f1576040517f08c379a00000000000000000000000000000000000000000000000000000000081526004016114e8906134b8565b60405180910390fd5b6114fe8383836001611b0c565b8273ffffffffffffffffffffffffffffffffffffffff1661151e82610a6e565b73ffffffffffffffffffffffffffffffffffffffff1614611574576040517f08c379a000000000000000000000000000000000000000000000000000000000815260040161156b90613426565b60405180910390fd5b6004600082815260200190815260200160002060006101000a81549073ffffffffffffffffffffffffffffffffffffffff02191690556001600360008573ffffffffffffffffffffffffffffffffffffffff1673ffffffffffffffffffffffffffffffffffffffff168152602001908152602001600020600082825403925050819055506001600360008473ffffffffffffffffffffffffffffffffffffffff1673ffffffffffffffffffffffffffffffffffffffff16815260200190815260200160002060008282540192505081905550816002600083815260200190815260200160002060006101000a81548173ffffffffffffffffffffffffffffffffffffffff021916908373ffffffffffffffffffffffffffffffffffffffff160217905550808273ffffffffffffffffffffffffffffffffffffffff168473ffffffffffffffffffffffffffffffffffffffff167fddf252ad1be2c89b69c2b068fc378daa952ba7f163c4a11628f55a4df523b3ef60405160405180910390a46117008383836001611b12565b505050565b60008061171183610a6e565b90508073ffffffffffffffffffffffffffffffffffffffff168473ffffffffffffffffffffffffffffffffffffffff16148061175357506117528185610fc7565b5b8061179157508373ffffffffffffffffffffffffffffffffffffffff1661177984610630565b73ffffffffffffffffffffffffffffffffffffffff16145b91505092915050565b60006002600083815260200190815260200160002060009054906101000a900473ffffffffffffffffffffffffffffffffffffffff169050919050565b8173ffffffffffffffffffffffffffffffffffffffff168373ffffffffffffffffffffffffffffffffffffffff1603611845576040517f08c379a000000000000000000000000000000000000000000000000000000000815260040161183c90613524565b60405180910390fd5b80600560008573ffffffffffffffffffffffffffffffffffffffff1673ffffffffffffffffffffffffffffffffffffffff16815260200190815260200160002060008473ffffffffffffffffffffffffffffffffffffffff1673ffffffffffffffffffffffffffffffffffffffff16815260200190815260200160002060006101000a81548160ff0219169083151502179055508173ffffffffffffffffffffffffffffffffffffffff168373ffffffffffffffffffffffffffffffffffffffff167f17307eab39ab6107e8899845ad3d59bd9653f200f220920489ca2b5937696c31836040516119369190612233565b60405180910390a3505050565b61194e84848461140c565b61195a84848484611b18565b611999576040517f08c379a0000000000000000000000000000000000000000000000000000000008152600401611990906135b6565b60405180910390fd5b50505050565b60606119aa826110c5565b60006006600084815260200190815260200160002080546119ca9061290b565b80601f01602080910402602001604051908101604052809291908181526020018280546119f69061290b565b8015611a435780601f10611a1857610100808354040283529160200191611a43565b820191906000526020600020905b815481529060010190602001808311611a2657829003601f168201915b505050505090506000611a54611c9f565b90506000815103611a69578192505050611aac565b600082511115611a9e578082604051602001611a869291906135d6565b60405160208183030381529060405292505050611aac565b611aa784611cb6565b925050505b919050565b611abb8383611d1e565b611ac86000848484611b18565b611b07576040517f08c379a0000000000000000000000000000000000000000000000000000000008152600401611afe906135b6565b60405180910390fd5b505050565b50505050565b50505050565b6000611b398473ffffffffffffffffffffffffffffffffffffffff16611f3b565b15611c92578373ffffffffffffffffffffffffffffffffffffffff1663150b7a02611b62611110565b8786866040518563ffffffff1660e01b8152600401611b84949392919061364f565b6020604051808303816000875af1925050508015611bc057506040513d601f19601f82011682018060405250810190611bbd91906136b0565b60015b611c42573d8060008114611bf0576040519150601f19603f3d011682016040523d82523d6000602084013e611bf5565b606091505b506000815103611c3a576040517f08c379a0000000000000000000000000000000000000000000000000000000008152600401611c31906135b6565b60405180910390fd5b805181602001fd5b63150b7a0260e01b7bffffffffffffffffffffffffffffffffffffffffffffffffffffffff1916817bffffffffffffffffffffffffffffffffffffffffffffffffffffffff191614915050611c97565b600190505b949350505050565b606060405180602001604052806000815250905090565b6060611cc1826110c5565b6000611ccb611c9f565b90506000815111611ceb5760405180602001604052806000815250611d16565b80611cf584611f5e565b604051602001611d069291906135d6565b6040516020818303038152906040525b915050919050565b600073ffffffffffffffffffffffffffffffffffffffff168273ffffffffffffffffffffffffffffffffffffffff1603611d8d576040517f08c379a0000000000000000000000000000000000000000000000000000000008152600401611d8490613729565b60405180910390fd5b611d96816113cb565b15611dd6576040517f08c379a0000000000000000000000000000000000000000000000000000000008152600401611dcd90613795565b60405180910390fd5b611de4600083836001611b0c565b611ded816113cb565b15611e2d576040517f08c379a0000000000000000000000000000000000000000000000000000000008152600401611e2490613795565b60405180910390fd5b6001600360008473ffffffffffffffffffffffffffffffffffffffff1673ffffffffffffffffffffffffffffffffffffffff16815260200190815260200160002060008282540192505081905550816002600083815260200190815260200160002060006101000a81548173ffffffffffffffffffffffffffffffffffffffff021916908373ffffffffffffffffffffffffffffffffffffffff160217905550808273ffffffffffffffffffffffffffffffffffffffff16600073ffffffffffffffffffffffffffffffffffffffff167fddf252ad1be2c89b69c2b068fc378daa952ba7f163c4a11628f55a4df523b3ef60405160405180910390a4611f37600083836001611b12565b5050565b6000808273ffffffffffffffffffffffffffffffffffffffff163b119050919050565b606060006001611f6d8461202c565b01905060008167ffffffffffffffff811115611f8c57611f8b612435565b5b6040519080825280601f01601f191660200182016040528015611fbe5781602001600182028036833780820191505090505b509050600082602001820190505b600115612021578080600190039150507f3031323334353637383961626364656600000000000000000000000000000000600a86061a8153600a8581612015576120146131d1565b5b04945060008503611fcc575b819350505050919050565b600080600090507a184f03e93ff9f4daa797ed6e38ed64bf6a1f010000000000000000831061208a577a184f03e93ff9f4daa797ed6e38ed64bf6a1f01000000000000000083816120805761207f6131d1565b5b0492506040810190505b6d04ee2d6d415b85acef810000000083106120c7576d04ee2d6d415b85acef810000000083816120bd576120bc6131d1565b5b0492506020810190505b662386f26fc1000083106120f657662386f26fc1000083816120ec576120eb6131d1565b5b0492506010810190505b6305f5e100831061211f576305f5e1008381612115576121146131d1565b5b0492506008810190505b612710831061214457612710838161213a576121396131d1565b5b0492506004810190505b60648310612167576064838161215d5761215c6131d1565b5b0492506002810190505b600a8310612176576001810190505b80915050919050565b6000604051905090565b600080fd5b600080fd5b60007fffffffff0000000000000000000000000000000000000000000000000000000082169050919050565b6121c881612193565b81146121d357600080fd5b50565b6000813590506121e5816121bf565b92915050565b60006020828403121561220157612200612189565b5b600061220f848285016121d6565b91505092915050565b60008115159050919050565b61222d81612218565b82525050565b60006020820190506122486000830184612224565b92915050565b600081519050919050565b600082825260208201905092915050565b60005b8381101561228857808201518184015260208101905061226d565b60008484015250505050565b6000601f19601f8301169050919050565b60006122b08261224e565b6122ba8185612259565b93506122ca81856020860161226a565b6122d381612294565b840191505092915050565b600060208201905081810360008301526122f881846122a5565b905092915050565b6000819050919050565b61231381612300565b811461231e57600080fd5b50565b6000813590506123308161230a565b92915050565b60006020828403121561234c5761234b612189565b5b600061235a84828501612321565b91505092915050565b600073ffffffffffffffffffffffffffffffffffffffff82169050919050565b600061238e82612363565b9050919050565b61239e81612383565b82525050565b60006020820190506123b96000830184612395565b92915050565b6123c881612383565b81146123d357600080fd5b50565b6000813590506123e5816123bf565b92915050565b6000806040838503121561240257612401612189565b5b6000612410858286016123d6565b925050602061242185828601612321565b9150509250929050565b600080fd5b600080fd5b7f4e487b7100000000000000000000000000000000000000000000000000000000600052604160045260246000fd5b61246d82612294565b810181811067ffffffffffffffff8211171561248c5761248b612435565b5b80604052505050565b600061249f61217f565b90506124ab8282612464565b919050565b600067ffffffffffffffff8211156124cb576124ca612435565b5b6124d482612294565b9050602081019050919050565b82818337600083830152505050565b60006125036124fe846124b0565b612495565b90508281526020810184848401111561251f5761251e612430565b5b61252a8482856124e1565b509392505050565b600082601f8301126125475761254661242b565b5b81356125578482602086016124f0565b91505092915050565b60008060006060848603121561257957612578612189565b5b6000612587868287016123d6565b935050602084013567ffffffffffffffff8111156125a8576125a761218e565b5b6125b486828701612532565b925050604084013567ffffffffffffffff8111156125d5576125d461218e565b5b6125e186828701612532565b9150509250925092565b60008060006060848603121561260457612603612189565b5b6000612612868287016123d6565b9350506020612623868287016123d6565b925050604061263486828701612321565b9150509250925092565b60006020828403121561265457612653612189565b5b6000612662848285016123d6565b91505092915050565b61267481612300565b82525050565b600060208201905061268f600083018461266b565b92915050565b600060408201905081810360008301526126af81856122a5565b905081810360208301526126c381846122a5565b90509392505050565b6126d581612218565b81146126e057600080fd5b50565b6000813590506126f2816126cc565b92915050565b6000806040838503121561270f5761270e612189565b5b600061271d858286016123d6565b925050602061272e858286016126e3565b9150509250929050565b6000806040838503121561274f5761274e612189565b5b600061275d85828601612321565b925050602061276e85828601612321565b9150509250929050565b600067ffffffffffffffff82111561279357612792612435565b5b61279c82612294565b9050602081019050919050565b60006127bc6127b784612778565b612495565b9050828152602081018484840111156127d8576127d7612430565b5b6127e38482856124e1565b509392505050565b600082601f830112612800576127ff61242b565b5b81356128108482602086016127a9565b91505092915050565b6000806000806080858703121561283357612832612189565b5b6000612841878288016123d6565b9450506020612852878288016123d6565b935050604061286387828801612321565b925050606085013567ffffffffffffffff8111156128845761288361218e565b5b612890878288016127eb565b91505092959194509250565b600080604083850312156128b3576128b2612189565b5b60006128c1858286016123d6565b92505060206128d2858286016123d6565b9150509250929050565b7f4e487b7100000000000000000000000000000000000000000000000000000000600052602260045260246000fd5b6000600282049050600182168061292357607f821691505b602082108103612936576129356128dc565b5b50919050565b7f4552433732313a20617070726f76616c20746f2063757272656e74206f776e6560008201527f7200000000000000000000000000000000000000000000000000000000000000602082015250565b6000612998602183612259565b91506129a38261293c565b604082019050919050565b600060208201905081810360008301526129c78161298b565b9050919050565b7f4552433732313a20617070726f76652063616c6c6572206973206e6f7420746f60008201527f6b656e206f776e6572206f7220617070726f76656420666f7220616c6c000000602082015250565b6000612a2a603d83612259565b9150612a35826129ce565b604082019050919050565b60006020820190508181036000830152612a5981612a1d565b9050919050565b600081905092915050565b7f68747470733a2f2f6578616d706c652e636f6d2f746f6b656e2f000000000000600082015250565b6000612aa1601a83612a60565b9150612aac82612a6b565b601a82019050919050565b6000612ac28261224e565b612acc8185612a60565b9350612adc81856020860161226a565b80840191505092915050565b6000612af382612a94565b9150612aff8284612ab7565b915081905092915050565b60008190508160005260206000209050919050565b60006020601f8301049050919050565b600082821b905092915050565b600060088302612b6c7fffffffffffffffffffffffffffffffffffffffffffffffffffffffffffffffff82612b2f565b612b768683612b2f565b95508019841693508086168417925050509392505050565b6000819050919050565b6000612bb3612bae612ba984612300565b612b8e565b612300565b9050919050565b6000819050919050565b612bcd83612b98565b612be1612bd982612bba565b848454612b3c565b825550505050565b600090565b612bf6612be9565b612c01818484612bc4565b505050565b5b81811015612c2557612c1a600082612bee565b600181019050612c07565b5050565b601f821115612c6a57612c3b81612b0a565b612c4484612b1f565b81016020851015612c53578190505b612c67612c5f85612b1f565b830182612c06565b50505b505050565b600082821c905092915050565b6000612c8d60001984600802612c6f565b1980831691505092915050565b6000612ca68383612c7c565b9150826002028217905092915050565b612cbf8261224e565b67ffffffffffffffff811115612cd857612cd7612435565b5b612ce2825461290b565b612ced828285612c29565b600060209050601f831160018114612d205760008415612d0e578287015190505b612d188582612c9a565b865550612d80565b601f198416612d2e86612b0a565b60005b82811015612d5657848901518255600182019150602085019450602081019050612d31565b86831015612d735784890151612d6f601f891682612c7c565b8355505b6001600288020188555050505b505050505050565b7f4e487b7100000000000000000000000000000000000000000000000000000000600052601160045260246000fd5b6000612dc282612300565b91507fffffffffffffffffffffffffffffffffffffffffffffffffffffffffffffffff8203612df457612df3612d88565b5b600182019050919050565b7f546f6b656e20494420646f6573206e6f74206578697374000000000000000000600082015250565b6000612e35601783612259565b9150612e4082612dff565b602082019050919050565b60006020820190508181036000830152612e6481612e28565b9050919050565b7f4e4654206973206e6f7420666f722073616c6500000000000000000000000000600082015250565b6000612ea1601383612259565b9150612eac82612e6b565b602082019050919050565b60006020820190508181036000830152612ed081612e94565b9050919050565b7f496e636f727265637420457468657220616d6f756e7400000000000000000000600082015250565b6000612f0d601683612259565b9150612f1882612ed7565b602082019050919050565b60006020820190508181036000830152612f3c81612f00565b9050919050565b7f496e636f727265637420616d6f756e74206f662045746865722073656e742c2060008201527f7075726368617365206661696c65640000000000000000000000000000000000602082015250565b6000612f9f602f83612259565b9150612faa82612f43565b604082019050919050565b60006020820190508181036000830152612fce81612f92565b9050919050565b7f4552433732313a2063616c6c6572206973206e6f7420746f6b656e206f776e6560008201527f72206f7220617070726f76656400000000000000000000000000000000000000602082015250565b6000613031602d83612259565b915061303c82612fd5565b604082019050919050565b6000602082019050818103600083015261306081613024565b9050919050565b7f4552433732313a20696e76616c696420746f6b656e2049440000000000000000600082015250565b600061309d601883612259565b91506130a882613067565b602082019050919050565b600060208201905081810360008301526130cc81613090565b9050919050565b7f4552433732313a2061646472657373207a65726f206973206e6f74206120766160008201527f6c6964206f776e65720000000000000000000000000000000000000000000000602082015250565b600061312f602983612259565b915061313a826130d3565b604082019050919050565b6000602082019050818103600083015261315e81613122565b9050919050565b7f43616c6c6572206973206e6f7420746865206f776e6572000000000000000000600082015250565b600061319b601783612259565b91506131a682613165565b602082019050919050565b600060208201905081810360008301526131ca8161318e565b9050919050565b7f4e487b7100000000000000000000000000000000000000000000000000000000600052601260045260246000fd5b600061320b82612300565b915061321683612300565b925082613226576132256131d1565b5b828204905092915050565b600061323c82612300565b915061324783612300565b925082820390508181111561325f5761325e612d88565b5b92915050565b600061327082612300565b915061327b83612300565b92508261328b5761328a6131d1565b5b828206905092915050565b60006132a182612300565b91506132ac83612300565b92508282019050808211156132c4576132c3612d88565b5b92915050565b60006132d582612300565b9150600082036132e8576132e7612d88565b5b600182039050919050565b7f4e487b7100000000000000000000000000000000000000000000000000000000600052603260045260246000fd5b7f45524337323155524953746f726167653a2055524920736574206f66206e6f6e60008201527f6578697374656e7420746f6b656e000000000000000000000000000000000000602082015250565b600061337e602e83612259565b915061338982613322565b604082019050919050565b600060208201905081810360008301526133ad81613371565b9050919050565b7f4552433732313a207472616e736665722066726f6d20696e636f72726563742060008201527f6f776e6572000000000000000000000000000000000000000000000000000000602082015250565b6000613410602583612259565b915061341b826133b4565b604082019050919050565b6000602082019050818103600083015261343f81613403565b9050919050565b7f4552433732313a207472616e7366657220746f20746865207a65726f2061646460008201527f7265737300000000000000000000000000000000000000000000000000000000602082015250565b60006134a2602483612259565b91506134ad82613446565b604082019050919050565b600060208201905081810360008301526134d181613495565b9050919050565b7f4552433732313a20617070726f766520746f2063616c6c657200000000000000600082015250565b600061350e601983612259565b9150613519826134d8565b602082019050919050565b6000602082019050818103600083015261353d81613501565b9050919050565b7f4552433732313a207472616e7366657220746f206e6f6e20455243373231526560008201527f63656976657220696d706c656d656e7465720000000000000000000000000000602082015250565b60006135a0603283612259565b91506135ab82613544565b604082019050919050565b600060208201905081810360008301526135cf81613593565b9050919050565b60006135e28285612ab7565b91506135ee8284612ab7565b91508190509392505050565b600081519050919050565b600082825260208201905092915050565b6000613621826135fa565b61362b8185613605565b935061363b81856020860161226a565b61364481612294565b840191505092915050565b60006080820190506136646000830187612395565b6136716020830186612395565b61367e604083018561266b565b81810360608301526136908184613616565b905095945050505050565b6000815190506136aa816121bf565b92915050565b6000602082840312156136c6576136c5612189565b5b60006136d48482850161369b565b91505092915050565b7f4552433732313a206d696e7420746f20746865207a65726f2061646472657373600082015250565b6000613713602083612259565b915061371e826136dd565b602082019050919050565b6000602082019050818103600083015261374281613706565b9050919050565b7f4552433732313a20746f6b656e20616c7265616479206d696e74656400000000600082015250565b600061377f601c83612259565b915061378a82613749565b602082019050919050565b600060208201905081810360008301526137ae81613772565b905091905056fea2646970667358221220a9b4f2ec4808560d88172ef784b6306f05fa2be48398aa378fecf38372befbd364736f6c63430008130033",
  "immutableReferences": {},
  "source": "// SPDX-License-Identifier: MIT\npragma solidity ^0.8.19;\n\nimport \"@openzeppelin/contracts/token/ERC721/ERC721.sol\";\nimport \"@openzeppelin/contracts/token/ERC721/extensions/ERC721URIStorage.sol\";\n\ncontract MyNFT is ERC721, ERC721URIStorage {\n    uint256 private _currentTokenId = 0;\n\n    struct NFTDetails {\n        string name;\n        string description;\n    }\n\n    mapping(uint256 => NFTDetails) public nftDetails;\n    mapping(uint256 => uint256) public nftSalePrices;\n\n    constructor() ERC721(\"MyNFT\", \"MNFT\") {}\n\n    function createNFT(address recipient, string memory name, string memory description) public {\n        uint256 newTokenId = _currentTokenId;\n        string memory tokenURI = string(abi.encodePacked(\"https://example.com/token/\", uint2str(newTokenId)));\n\n        _safeMint(recipient, newTokenId);\n        _setTokenURI(newTokenId, tokenURI);\n        nftDetails[newTokenId] = NFTDetails(name, description);\n        _currentTokenId++;\n    }\n\n    function uint2str(uint256 _i) private pure returns (string memory _uintAsString) {\n        if (_i == 0) {\n            return \"0\";\n        }\n        uint256 j = _i;\n        uint256 len;\n        while (j != 0) {\n            len++;\n            j /= 10;\n        }\n        bytes memory bstr = new bytes(len);\n        uint256 k = len - 1;\n        while (_i != 0) {\n            bstr[k--] = bytes1(uint8(48 + _i % 10));\n            _i /= 10;\n        }\n        return string(bstr);\n    }\n\n    function listNFTForSale(uint256 tokenId, uint256 salePrice) public {\n        require(_exists(tokenId), \"Token ID does not exist\");\n        require(ownerOf(tokenId) == msg.sender, \"Caller is not the owner\");\n        nftSalePrices[tokenId] = salePrice;\n    }\n\n    function removeNFTFromSale(uint256 tokenId) public {\n        require(_exists(tokenId), \"Token ID does not exist\");\n        require(ownerOf(tokenId) == msg.sender, \"Caller is not the owner\");\n        nftSalePrices[tokenId] = 0;\n}\n\n    function purchaseNFT(uint256 tokenId) public payable {\n        require(_exists(tokenId), \"Token ID does not exist\");\n        uint256 salePrice = nftSalePrices[tokenId];\n        require(salePrice > 0, \"NFT is not for sale\");\n        require(msg.value == salePrice, \"Incorrect Ether amount\");\n\n        address seller = ownerOf(tokenId);\n\n        _transfer(seller, msg.sender, tokenId);\n        nftSalePrices[tokenId] = 0;\n        payable(seller).transfer(msg.value);\n        require(msg.value == salePrice, \"Incorrect amount of Ether sent, purchase failed\");\n}\n    \n    // Override the tokenURI function from ERC721URIStorage to keep it compatible with ERC721\n    function tokenURI(uint256 tokenId) public view virtual override(ERC721, ERC721URIStorage) returns (string memory) {\n        return ERC721URIStorage.tokenURI(tokenId);\n    }\n\n    // Override the _burn function from ERC721URIStorage to keep it compatible with ERC721\n    function _burn(uint256 tokenId) internal virtual override(ERC721, ERC721URIStorage) {\n        return ERC721URIStorage._burn(tokenId);\n    }\n}\n\n\n",
  "sourcePath": "/Users/kai/Desktop/blockchain-project/contracts/MyNFT.sol",
  "compiler": {
    "name": "solc",
    "version": "0.8.19+commit.7dd6d404.Emscripten.clang"
  },
  "schemaVersion": "3.4.13",
  "updatedAt": "2023-05-07T13:25:35.460Z",
  "networkType": "ethereum",
  "devdoc": {
    "events": {
      "Approval(address,address,uint256)": {
        "details": "Emitted when `owner` enables `approved` to manage the `tokenId` token."
      },
      "ApprovalForAll(address,address,bool)": {
        "details": "Emitted when `owner` enables or disables (`approved`) `operator` to manage all of its assets."
      },
      "Transfer(address,address,uint256)": {
        "details": "Emitted when `tokenId` token is transferred from `from` to `to`."
      }
    },
    "kind": "dev",
    "methods": {
      "approve(address,uint256)": {
        "details": "See {IERC721-approve}."
      },
      "balanceOf(address)": {
        "details": "See {IERC721-balanceOf}."
      },
      "getApproved(uint256)": {
        "details": "See {IERC721-getApproved}."
      },
      "isApprovedForAll(address,address)": {
        "details": "See {IERC721-isApprovedForAll}."
      },
      "name()": {
        "details": "See {IERC721Metadata-name}."
      },
      "ownerOf(uint256)": {
        "details": "See {IERC721-ownerOf}."
      },
      "safeTransferFrom(address,address,uint256)": {
        "details": "See {IERC721-safeTransferFrom}."
      },
      "safeTransferFrom(address,address,uint256,bytes)": {
        "details": "See {IERC721-safeTransferFrom}."
      },
      "setApprovalForAll(address,bool)": {
        "details": "See {IERC721-setApprovalForAll}."
      },
      "supportsInterface(bytes4)": {
        "details": "See {IERC165-supportsInterface}."
      },
      "symbol()": {
        "details": "See {IERC721Metadata-symbol}."
      },
      "transferFrom(address,address,uint256)": {
        "details": "See {IERC721-transferFrom}."
      }
    },
    "version": 1
  },
  "userdoc": {
    "kind": "user",
    "methods": {},
    "version": 1
  }
}